:100000000C94FF020C9446030C9446030C94641168
:100010000C9446030C9446030C9446030C9446033C
:100020000C9446030C9446030C946A280C943C29C7
:100030000C94BB1E0C9446030C9446030C9446038C
:100040000C9446030C9446030C9446030C9446030C
:100050000C9446030C94141F0C9446030C94460312
:100060000C9446030C9446030C9446030C944603EC
:100070000C9446030C9446030C9446030C944603DC
:100080000C9446030C9446030C9446030C944603CC
:100090000C9446030C9446030C9446030C944603BC
:1000A0000C9446030C9446030C944603750C780C90
:1000B000980CA90CB10CBC0C140D140D140D020DF0
:1000C000050DBF0CC20CC70CD40CE10CE40CE80C01
:1000D000F50C17151715491549159615B415C816B9
:1000E000C816BF15581669166916681768177A1763
:1000F0007A1771177A177A177A17681768177617A9
:100100007A177A177617A929D029C82AD029C82A98
:100110001C2A3F2AC82A962AA52A0A000A00253541
:100120006400444F574E2825642C2564293A2564E1
:100130000A0055502825642C2564293A25640A00B4
:100140004552524F522825642C2564293A25640AC9
:10015000002B0014001A00080015001700E300E04F
:100160000004001600070009000A000151E1001D0B
:10017000001B000600190005002C002A00130012C5
:10018000000C0018001C00E600340033000F000EC5
:10019000000D000B000251E500380037003600105A
:1001A000001100280029001E001F0020002100224D
:1001B00000E300E00000000000000000000000017B
:1001C00051E100000000000000000000002C002AA7
:1001D0000027002600250024002300E60000000080
:1001E000004F00520051005000025100000000007A
:1001F00000000000000000280029001E021F02204D
:100200000221022202E300E00000000000000000E2
:100210000000000151E100000000000000000000AB
:10022000002C002A0027022602250224022302E6CF
:10023000003500310230022F022E002D0002513510
:1002400002310030002F002E022D022800005C0D2C
:100250005D0000000000000000E300C25CC55CC758
:100260005CC95C000000000151C35CC65CC85CCA8C
:100270005C000000002C00000000000000000000F6
:10028000000000E600000000000000000000000088
:1002900000025100000000000000000000000028E3
:1002A0000044454255473A2064697361626C656455
:1002B0002E0A0044454255473A20656E61626C65DE
:1002C000642E0A0000000000000000002A2B280015
:1002D00000000000000000000000000000000029F5
:1002E000000000002C1E3420212224342627252E35
:1002F000362D3738271E1F2021222324252633336D
:10030000362E37381F0405060708090A0B0C0D0E98
:100310000F101112131415161718191A1B1C1D2F64
:100320003130232D350405060708090A0B0C0D0E84
:100330000F101112131415161718191A1B1C1D2F44
:100340003130354C000000000000000000000000CB
:1003500000000000000000007E0F00D4FFFFFFC778
:10036000000000780A0025303862003A200025306D
:100370003258000A722F6320303132333435363729
:100380000A000A002530325820006B6579626F61DF
:1003900072645F7265706F72743A20000A002530D3
:1003A0003258006B6579626F6172645F7365745F68
:1003B0006C65643A2000290A002575002F00257518
:1003C000005D2800256400200025640020002564CD
:1003D0000020002564007C0025303258006D6F75C8
:1003E00073656B6579205B62746E7C78207920760A
:1003F00020685D287265702F61636C293A205B006C
:100400005B735D004B6579626F6172642073746128
:1004100072742E0A005B575D005B535D005B525D9A
:10042000005B445D005B435D000403300000001688
:100430000343006F0072006E00650020004500431A
:100440000057004C0000001E03730065006B00693C
:100450000067006F006E002D0067006F006E006E79
:10046000006F00630000000403090409027B00041C
:100470000100A0FA09040000010301010009211193
:100480000100012240000705810308000A09040158
:1004900000020300000009211101000122220007CF
:1004A000058203200001070503032000010904025F
:1004B0000001030000000921110100012281000751
:1004C00005840320000A0904030002030000000958
:1004D00021110100012222000705850320000107E8
:1004E0000505032000011201100100000008EDFEC7
:1004F00060300100010203010631FF0974A1010906
:1005000075150026FF0095207508810209761500F3
:1005100026FF00952075089102C00660FF0961A1C1
:10052000010962150026FF00952075088102096304
:10053000150026FF00952075089102C005010902EB
:10054000A10185020901A10005091901290515006C
:10055000250195057501810295017503810105014C
:10056000093009311581257F950275088106093802
:100570001581257F950175088106050C0A3802153D
:1005800081257F950175088106C0C005010980A1FC
:1005900001850319012AB700150126B700950175D9
:1005A000108100C0050C0901A101850419012AA0D0
:1005B00002150126A002950175108100C0050109F0
:1005C00006A101050719E029E71500250195087521
:1005D0000181029501750881010507190029FF15A0
:1005E0000026FF00950675088100050819012905F8
:1005F000950575019102950175039101C0001124C3
:100600001FBECFEFDAE0DEBFCDBF04B603FE27C0CA
:100610008091C1029091C202A091C302B091C40224
:100620008730904BA740B04BD1F41092C10210928A
:10063000C2021092C3021092C40214BE84B7877F14
:1006400084BF0FB6F894A89580916000886180936C
:100650006000109260000FBEE0E0F8E3099511E041
:10066000A0E0B1E0E0E0F7E502C005900D92A23A0B
:10067000B107D9F722E0A2EAB1E001C01D92A13C86
:10068000B207E1F70E9414250C947E2B0C94000015
:10069000FF93EF93E091A201F091A301309709F04D
:1006A0000995EF91FF910895FC018591803011F03B
:1006B000EFDFFBCF0895FF27E0E230E247FF0CC0F9
:1006C000419597FF09C0EDE26095709580959095F2
:1006D000611D711D811D911D27FF02C0219530E311
:1006E00050E2AA27660F771F881F991FAA1FA41719
:1006F00010F0A41B63955A95A9F7AA3008F0A95FDA
:10070000A05DAF93F395611571058105910541F7E2
:10071000ED3211F4EF93F395F21718F43F93F3953C
:10072000FBCF8F91B5DFFA95E1F70895E991F99143
:100730008591803021F0853219F0AADFF9CF089534
:1007400020E0E89455915532C1F3503311F4689488
:1007500055915A3348F4505390F3220F022E220F32
:10076000220F200D250FF4CF0EF421958991999138
:10077000533619F3533729F1533559F1BC01882702
:100780009927E8945C3621F4899199916894559160
:10079000543639F446EF7EF077FF0DC08FEF9FEFB0
:1007A0000AC055374AE039F0583540E121F0523659
:1007B00042E009F00895FF93EF937DDFEF91FF9101
:1007C000B7CFFF93EF93FC0181918030B9F360DFE5
:1007D000FBCFFF93EF9368DFF1CFDF93CF93CDB7DC
:1007E000DEB72596A3DFCF91DF910895807C8093BB
:1007F00000010895873941F178F4863349F130F4E6
:10080000843321F1853331F584E208958439D1F0C0
:10081000863901F581E20895843F71F030F4803F1C
:10082000D9F0813FB9F481E00895863F49F030F076
:10083000873F81F487E0089584E0089585E0089576
:1008400086E0089580E2089582E2089583E20895A3
:1008500085E208958FE1089580E0089596E89093E9
:100860007A00982F9072906890937B008F7190918E
:100870000001892B80937C0080917A0080648093B2
:100880007A0080917A0086FDFCCF809178002091DB
:10089000790090E0922B08950E94FA030C942E04A4
:1008A000A9E2B1E041E050E081E0AC32B80789F064
:1008B0008D91E82FE295EF70F0E092A18F709A0190
:1008C00001C0220F8A95EAF7822F8095892382A39F
:1008D000EBCF089508950E94870BA9E2B1E041E0B3
:1008E00050E071E0AC32B707B1F08D91E82FE2959E
:1008F000EF70F0E021A18F70BA0102C0660F771F80
:100900008A95E2F7CB01922F982B91A392A1809523
:10091000892382A3E6CFA6E2B1E041E050E071E096
:10092000A932B707B1F08D91E82FE295EF70F0E0B2
:1009300021A18F70BA0102C0660F771F8A95E2F776
:10094000CB01922F982B91A392A18095892382A30A
:10095000E6CF249A2C9A849A8C9A6E9A7698299843
:100960002198299880E40E94F60380910101811169
:1009700002C093E001C090E09093A10283E0891B44
:1009800080934C020C94910B0E946A0B8823E9F02F
:1009900080914C0290E088559D4F0E94A40B8111DC
:1009A00010C08091A6018F5F8093A601863058F019
:1009B000E0914C02F0E0E855FD4F10821182128266
:1009C00002C01092A6010C9471088091A10290E0DF
:1009D00088559D4F0E94BA0B0C946A042F923F9247
:1009E0005F926F927F928F929F92AF92BF92CF92BF
:1009F000DF92EF92FF920F931F93CF93DF933C010F
:100A00005DE4C52E52E0D52E0FE111E0E601EE24A3
:100A1000E394F12C219A72E0CB35D70709F475C025
:100A2000769AE6E2F1E020E030E0D8018C9190E0A7
:100A3000022E02C0959587950A94E2F780FF12C0B6
:100A40008081A82FA295AF70B0E092964C919297BA
:100A50008F70B70102C0660F771F8A95E2F7CB014E
:100A6000842B11C08081A82FA295AF70B0E0929620
:100A70009C9192978F70A70101C0440F8A95EAF765
:100A8000842F8095892392968C932F5F3F4F3196C8
:100A90002330310551F6769870EA7A95F1F749E2FC
:100AA000A42E41E0B42E812C912C219A85E08A95C8
:100AB000F1F700000E945004F89421982998D5017C
:100AC0008D915D01E82FE295EF70F0E022A18F702B
:100AD000A70102C0440F551F8A95E2F7CA01822B75
:100AE00082A386EF0E944C04FE01E80DF91D91835C
:100AF000808378945EE0850E911C6AE286169104EC
:100B0000A1F622960F5F1F4F85CFE6E2F1E080E06D
:100B100090E066E070E041E050E09B01082E02C0EA
:100B2000359527950A94E2F720FF12C02081A22F65
:100B3000A295AF70B0E09296CC9192972F708A01F7
:100B400002C0000F111F2A95E2F798012C2B11C04B
:100B50002081A22FA295AF70B0E092963C9192971F
:100B60002F70EA0101C0CC0F2A95EAF72C2F2095AF
:100B7000232392962C93019631968330910569F642
:100B80000E94500473019DE4A92E92E0B92E00E06A
:100B900010E0512C66246394712C32E2232E31E054
:100BA000332E4501C0E0D0E0D4018D919C91893B6A
:100BB000BBE09B07D8F020912E0220FF14C09F932A
:100BC0008F93DF93CF931F930F9340E451E05F9394
:100BD0004F930E94ED038DB79EB708960FB6F89419
:100BE0009EBF0FBE8DBFD4011D921C92F701808164
:100BF000282F30E00C2E02C0359527950A94E2F795
:100C0000D4014D915C9120FF2DC0483C510508F066
:100C100052C093010C2E01C0220F0A94EAF72095CE
:100C20008223F7018083539480912E0280FF43C07A
:100C3000D40111968C9111978F938C918F93DF93A0
:100C4000CF931F930F9342E351E05F934F930E9422
:100C5000ED038DB79EB708960FB6F8949EBF0FBEF2
:100C60008DBF29C04D32514030F193010C2E01C08F
:100C7000220F0A94EAF7822BF70180835394809124
:100C80002E0280FF18C0D40111968C9111978F937A
:100C90008C918F93DF93CF931F930F933F922F925B
:100CA0000E94ED034DB75EB7485F5F4F0FB6F894F3
:100CB0005EBF0FBE4DBF219652E0850E911CC7301E
:100CC000D10509F071CF0F5F1F4F6FEFE61AF60ADB
:100CD0007EE0A70EB11C0330110509F062CF8091B0
:100CE000A4019091A5018C32A1E09A0731F0019600
:100CF0009093A5018093A40142C01092A501109287
:100D0000A4010EE111E08CE1E82E81E0F82EE7E786
:100D1000CE16E2E0DE0639F1C0E0D0E080912E028E
:100D200080FF0FC0F601EC0FFD1F81818F93808142
:100D30008F931F930F930E94ED030F900F900F90CE
:100D40000F902296CE30D10549F780912E0280FF78
:100D500006C0FF92EF920E94ED030F900F90BEE04D
:100D6000CB0ED11CD4CF80912E0280FF08C08AE127
:100D700091E09F938F930E94ED030F900F9081E07D
:100D8000511001C080E0DF91CF911F910F91FF9032
:100D9000EF90DF90CF90BF90AF909F908F907F901B
:100DA0006F905F903F902F900895CF9382EA92E0EA
:100DB0000E94EE04C82F6091A10270E068557D4F3B
:100DC000282F43E082EA92E00E94320B0E94C40482
:100DD0008C2FCF91089580912E02816080932E02F6
:100DE00008950F9303E022E041E00E9401080F9173
:100DF000089581E0089581E008950C94F90608951E
:100E00000C94FF061F93CF93DF9300D000D01F9266
:100E1000CDB7DEB749835A836B833091C201898194
:100E20009A81311114C0662359F0222349F00E949F
:100E3000241C182F682F89819A810E94CD1B03C022
:100E40000E94F81B182F69817A81812F04C00E94AB
:100E5000241C69817A810F900F900F900F900F9052
:100E6000DF91CF911F910C94E60DFC01262F40815C
:100E700051816281738184810C940207CF93DF9347
:100E8000EC0160E00E943507BE01DF91CF910C9428
:100E90000007FF920F931F93CF93DF93E82FF0E0AB
:100EA000EC53FD4FF490C82FC695C695C695D0E07B
:100EB000FE01EC5AFC4F0491877010E0082E02C02E
:100EC000159507950A94E2F701701127FE01EC5B76
:100ED000FC4FC491D0E002C0D595C7958A95E2F742
:100EE000C170DD270115110519F081EE0E94AA13CA
:100EF000209719F086EE0E94AA138F2D0E94BC1431
:100F0000CD2B19F086EE0E945414012B41F081EE96
:100F1000DF91CF911F910F91FF900C945414DF91AA
:100F2000CF911F910F91FF900895EF92FF920F9331
:100F30001F93CF93DF93EC01162F0AE0888188235B
:100F400009F455C0813009F043C08981813041F4F2
:100F50007E0182E0E80EF11C8A810E94BC1409C067
:100F6000823049F47E01E2E0EE0EF11C8A810E949B
:100F7000AA13E7012FC0833041F47E01F2E0EF0EA7
:100F8000F11C8A810E945414F4CF843011F0219610
:100F900021C02A81229680E090E030E02053310980
:100FA0002A30310558F4089FA001099F500D1124E3
:100FB000C901840F951F21962881EFCF009751F02A
:100FC000EFE9FFE03197F1F700C000000197F6CF9D
:100FD0000E9449072196812F882309F4AFCFEFE9BA
:100FE000FFE03197F1F700C000008150F5CFDF91AD
:100FF000CF911F910F91FF90EF90089560E00C94B6
:1010000095078F929F92AF92BF92CF92DF92EF920D
:10101000FF920F931F936B017C0181E090E0A0E0B1
:10102000B0E04C015D0104C0880C991CAA1CBB1CDB
:101030004A95D2F7AC01BD0104C0440F551F661F8D
:10104000771F2A95D2F7482959296A297B2904C094
:10105000880F991FAA1FBB1F0A95D2F78A019B010F
:101060000C211D212E213F214017510762077307D4
:1010700039F4BC01CD016C297D298E299F290AC034
:1010800080959095A095B095BC01CD016C217D21F6
:101090008E219F211F910F91FF90EF90DF90CF90B5
:1010A000BF90AF909F908F9008950F93382F262F69
:1010B0006091190270911A0280911B0290911C029A
:1010C000042F432F0E9401080F910C94091B0E94CA
:1010D0004D1F0E94661D811102C00E94061E0C94C5
:1010E0001E0B0C941A0B08950C94730881E008955C
:1010F0000C947608CF93C82F0E9474088C2F0E94FE
:101100007808CF91089508950E9456170E94830889
:101110002FEF84E39CE0215080409040E1F700C035
:1011200000000C943A1F0F931F93CF93DF93EC01B1
:1011300061E00E9435078C01BE010E94240C8823C7
:1011400009F449C0BE01C8010E94FD06882309F4C4
:1011500042C0BE01C8010E941C0F8823E1F1BE01FC
:10116000C8010E945D0F8823B1F1BE01C8010E9431
:101170008810882381F18A81882331F101308CE540
:10118000180751F00E3D8CE51807D9F001151C45E4
:10119000D9F40E9484081FC080912E02C82FC095E8
:1011A000C170C0FB80F980932E02CC2329F083EB21
:1011B00092E00E9454030FC081EA92E00E9454031F
:1011C0000BC00E94061E07C0CE01DF91CF911F9178
:1011D0000F910C94FB06C0E08C2FDF91CF911F91F3
:1011E0000F910895CF93DF930E94E60D0E94F409BA
:1011F000EC01811521E5920708F043C0811540E517
:10120000940708F08AC0883E910520F5803E91053C
:1012100008F0E6C0883A910570F4853A910508F027
:1012200074C08130910509F4DBC008F4D7C004977D
:1012300008F0D6C0D3C08F3B910508F0CFC0C85A84
:10124000D0E0CC0FDD1FC45DDE4F0990D881C02DEA
:10125000D464C6C0C11580E2D80758F4C11521E096
:10126000D20708F0BDC0C03FD10508F4B7C0D065B3
:10127000B7C0C11540E4D40708F4B0C0DF70D06A2D
:10128000AFC0C11585E5D807A0F4C11524E5D20784
:1012900008F08AC0C11543E5D40708F06FC0C11536
:1012A00082E5D80708F054C0DC2FCC27C16FD06A84
:1012B00097C0C11529E5D207A0F4C11548E5D407A8
:1012C00008F077C0C11586E5D80708F087C08C2FD5
:1012D0000E94880A8F71C82FD0E0DC2FCC27D06203
:1012E0007FC0C1152AE5D20708F468C0CE01905628
:1012F0008115904208F072C08D2F8F710E94880A6C
:10130000DD27D0628F71D82B6BC0C55AD0E0C65A8A
:10131000DE4FC881D0E0D06463C074E096958795B5
:101320007A95E1F783709C2F937021E030E002C042
:10133000220F331F9A95E2F73C68382BCF70C69581
:10134000C69580E2C89FE0011124C22BD32B48C070
:10135000CE018370992721E030E002C0220F331FB5
:101360008A95E2F78C2F8695869540E2849FC0018E
:101370001124E901C82BD92BDC6832C0CE0183705F
:10138000992721E030E002C0220F331F8A95E2F74F
:101390008C2F8695869540E2849FC0011124E90137
:1013A000C82BD92BDA681CC0DC2FCC27C46FD06ABD
:1013B00017C0DC2FCC27C06FD06A12C08C2F8F7063
:1013C0000E94880A94E0D695C7959A95E1F7CF7068
:1013D000D0E0DC2FCC27D069C82B02C0C0E0D0E021
:1013E000CE01DF91CF9108958238910569F1B0F473
:1013F0008133910509F46DC048F48932910509F4EF
:1014000063C08A32910509F469C008958533910556
:1014100009F455C089339105B9F00895833E9105CB
:1014200069F138F4803E9105B1F0823E910509F1F1
:101430000895863E9105A9F1873E9105B9F1843E54
:10144000910509F064C023C02091B20220FD4FC075
:1014500021FD4DC008958091B20280FD44C080916D
:10146000B30280FF44C08091B20284FD42C083EE8B
:101470004DC08091B20282FF38C0F5CF8091B20298
:1014800082FD33C08091B30280FD31C0ECCF8091EA
:10149000B30281FF32C08091B20284FD2AC087EE80
:1014A00035C08091B20283FF26C0F5CF8091B20291
:1014B00083FD21C08091B30281FD1FC0ECCF8091DC
:1014C000B20285FD1CC01DC08091B20285FD19C00D
:1014D00016C08091B20286FD16C017C08091B2027C
:1014E00086FD13C010C089E311C082EE0FC080EEEC
:1014F0000DC080E00BC086EE09C084EE07C089E213
:1015000005C085E303C08AE201C081E390E008954D
:101510009091B20292FF0DC0282F2871283019F443
:10152000877F846006C0282F2471243011F48B7FBC
:10153000886093FF0DC0282F2871283119F4877E09
:10154000846106C0282F2471243111F48B7E8861B8
:101550002091B30220FF0DC0382F3871383019F4B4
:10156000877F816006C0382F3171313011F48E7F52
:10157000886021FF0DC0282F2871283119F4877E3B
:10158000816106C0282F2171213111F48E7E88617E
:1015900094FD877E0895E82FF0E0E855FD4F8081A7
:1015A0000895CF92DF92EF92FF920F931F93CF9304
:1015B000DF9383E793E00E94540388EAE82E82E0F9
:1015C000F82EC0E0D0E09EE6C92E93E0D92E06E6C4
:1015D00013E0DF93CF93DF92CF920E94ED038BE66F
:1015E00093E00E945403F70181917F010E944E1DF8
:1015F0001F928F931F930F930E94ED0384E693E055
:101600000E94540321968DB79EB708960FB6F894A2
:101610009EBF0FBE8DBFC630D105D9F6DF91CF91E9
:101620001F910F91FF90EF90DF90CF900895089554
:101630000C94170B0C94180B0C94170B0C941C0B9C
:101640000E946B04E2EAF2E0A8EAB2E011921D9275
:1016500082E0E83AF807D1F786E00E94310B0C945B
:1016600067080895FF920F931F93CF93DF938C0128
:10167000F62ED72FC42F222349F081E08093A901B1
:101680000E94ED1E9093A8018093A7018091A9016B
:101690008823C1F08091A7019091A8010E94051FA5
:1016A000069780F0EF2DFD2FD8014C2F50E0CD0193
:1016B000801B910B841795071CF48D918193F7CFB4
:1016C0001092A901DF91CF911F910F91FF90089582
:1016D0000C94081E8091AA01811112C08091D8003B
:1016E00080618093D8008AE18A95F1F700C08091EB
:1016F000D90080FD02C082E001C081E08093AA0190
:1017000081E09091AA01913009F080E008950E9453
:10171000680B809301010E946A0B81110C94980B55
:1017200008950E946A0B811102C00C949E0B0895CB
:1017300061E070E082E091E00C94161161E070E0ED
:1017400082E091E00C941D11CF93DF93EC010E9495
:10175000B511892B59F48091AC0188838091AD013A
:1017600089838091AE018A8381E001C080E0DF91AE
:10177000CF910895DC018C91ECEAF1E08083119621
:101780008C911197818312968C918283089582E2C5
:1017900090E00E943C2B823281F483E290E00E9430
:1017A0003C2B813051F484E290E00E943C2B91E08C
:1017B000803309F090E0892F01C080E081700895A6
:1017C000CF93C82F811102C06FEF01C062E282E2A5
:1017D00090E00E944A2BC11102C06FEF01C061E08E
:1017E00083E290E00E944A2BC11102C06FEF01C05A
:1017F00060E384E290E0CF910C944A2B80E00E9459
:10180000E00B0C94601D089585E290E00E943C2B53
:10181000682F70E080E090E0089585E290E00C94FD
:101820004A2B0E94030C0E94C70B81110CC060E080
:1018300070E0CB010E940D0C0E94610D0E94400ED1
:1018400081E00C94E00B0895CF93FB01C281CC237F
:10185000E9F09C0122513F452031310520F48251AD
:101860000E94500E0CC08031FFE59F0751F481E0CB
:101870000E942F1B43E062E081E00E945508C0E017
:1018800018C081319F45A9F482E0F2CF8031EFE5A5
:101890009E0711F481E004C081319F4549F482E044
:1018A0000E94501B43E062E081E00E94550801C0A5
:1018B000C1E08C2FCF9108952FEFFC012083089574
:1018C000EF92FF920F931F93CF93DF93EC01162FAC
:1018D000E8818E2F90E0FC013197E331F10508F0AB
:1018E000A3C0EA5AFF4F0C941B2B198289E04DC00C
:1018F0008981823039F0833061F0813029F50E948E
:10190000F91E02C00E94040C9A838B837C836D8332
:101910008DC07E0122E0E20EF11C00E0802F0E94CB
:10192000CB0AF70181937F010F5F0630B9F77EC0C4
:101930008981823049F46A817B818C819D810E94FA
:10194000212B0E940D0C72C0612FCE010E945C0CF5
:101950006DC04B816A8189810E94330D9C838D8388
:1019600065C02C813D813227232732274B816A8134
:1019700089810E944C0D5AC00E94610D57C00E947F
:10198000F30D24C00E94F50D99838A834FC06B81AB
:1019900070E089819A81AE014C5F5F4F982789275B
:1019A00098270E94F80D42C06B8170E089819A816E
:1019B000AE014C5F5F4F9827892798270E941D0E24
:1019C00035C00E94400E32C00E94200D89832EC077
:1019D0006B8170E089819A81AE014C5F5F4F9827DF
:1019E000892798270E94A00D21C06B8170E0898112
:1019F0009A81AE014C5F5F4F9827892798270E94F4
:101A0000C40D14C00E94FE0B11C0CE010E94AC2375
:101A1000FFEF21EE84E0F15020408040E1F700C06C
:101A200000000E943A1F02C08FEF8883612FCE0111
:101A3000DF91CF911F910F91FF90EF900C94AC2309
:101A400084E0089550E0440F551F2EE0629F400D42
:101A5000511D11249A0164E5869F200D311D11242A
:101A6000C901869608950F931F93CF93DF930E9429
:101A7000220D8C010E943C2BC82FD0E0DC2FCC27FC
:101A8000C80101960E943C2B9E01282BC901DF91C1
:101A9000CF911F910F9108950F931F93CF93DF93D1
:101AA000122F032F0E94220DEC01602F0E944A2B5F
:101AB000612FCE010196DF91CF911F910F910C9470
:101AC0004A2BAF92BF92CF92DF92EF92FF920F9389
:101AD0001F93CF93DF93A12CE12CF12CB12C00E0CC
:101AE00010E0C0E0D0E06701C00ED11EFE01EE0F95
:101AF000FF1FEC0DFD1DEF5AFE4F259134914C2F29
:101B00006B2D8A2D0E944C0D2196C730D10571F79F
:101B1000025F1F4FB39486E0B812E3CF84E5E80E6E
:101B2000F11CA39484E0A812D9CFDF91CF911F912B
:101B30000F91FF90EF90DF90CF90BF90AF900895FE
:101B4000EF92FF920F931F93CF93DF93EA017A01F5
:101B5000E60EF71E8C01C8018696CE15DF0569F0EA
:101B6000003521E0120720F40E943C2B888301C03D
:101B7000188221960F5F1F4FEECFDF91CF911F91FB
:101B80000F91FF90EF900895EF92FF920F931F93A4
:101B9000CF93DF93EA017A01E60EF71E8C01C801AC
:101BA0008696CE15DF0559F0003521E0120718F4AE
:101BB00068810E944A2B21960F5F1F4FF0CFDF9163
:101BC000CF911F910F91FF90EF900895462F843091
:101BD00038F4763028F4673018F4672F0C94330DFE
:101BE00080E090E0089580E108958AE892E0089509
:101BF000EF92FF920F931F93CF93DF93EA017A0145
:101C0000E60EF71E8C01C8018A589E4FCE15DF05DF
:101C100069F00A3822E0120720F40E943C2B8883E6
:101C200001C0188221960F5F1F4FEDCFDF91CF913A
:101C30001F910F91FF90EF900895EF92FF920F93F5
:101C40001F93CF93DF93EA017A01E60EF71E8C0112
:101C5000C8018A589E4FCE15DF0559F00A3822E098
:101C6000120718F468810E944A2B21960F5F1F4FBC
:101C7000EFCFDF91CF911F910F91FF90EF900895DB
:101C8000CF93DF93C6E7D1E060E0CE010E944A2BFC
:101C90002196C11584E0D807B9F7DF91CF91089557
:101CA000DF92EF92FF920F931F93CF93DF9300D0B9
:101CB00000D0CDB7DEB7F82E8FE08F15E8F18FEFAB
:101CC00093E00E943C2B811137C006E711E0FF2012
:101CD00069F0011584E0180779F1C8010E943C2BD6
:101CE000811101C0FA940F5F1F4FF1CF19821A8240
:101CF0001B821C82DD24D39478018FEFE81AF80A46
:101D0000C8010E943C2B89831A828823A9F09FEF87
:101D1000980F933058F48A83D9820E5F1F4FC70102
:101D20000E943C2B8B83882339F07801CE010196E9
:101D30000E94FE078701E0CF0F900F900F900F9049
:101D4000DF91CF911F910F91FF90EF90DF90089559
:101D50000F931F93CF93DF93C62FD42F122FFC0125
:101D600082818823C9F06093B1010E94ED1E909397
:101D7000B0018093AF0180E28C0F883008F057C02B
:101D8000C77081E001C0880FCA95EAF7DF91CF9153
:101D90001F910F910C94CF148091B101681330C042
:101DA0008091AF019091B0010E94051F883C910580
:101DB00038F500E20D0FCD17B9F080E28C0F8830B6
:101DC00040F4C77081E001C0880FCA95EAF70E940D
:101DD000D614083028F581E09D2F977001C0880F38
:101DE0009A95EAF70E94CF14812F0E94BC14083004
:101DF000F0F4D77081E001C0880FDA95EAF70AC0E5
:101E000080E28C0F883098F4C77081E001C0880FA1
:101E1000CA95EAF7DF91CF911F910F910C94D614D8
:101E2000812FDF91CF911F910F910C94BC14DF9102
:101E3000CF911F910F9108959C01CB01233F4CE559
:101E40003407F9F078F4283DFCE53F07B9F0293D67
:101E50004CE5340711F1273D3C4531F526E241EED2
:101E600061EE1EC0253FFCE53F0799F070F0263F6C
:101E70003C45D1F427E245EE66EE12C027E245EE7E
:101E80000EC026E241EE60EE0BC027E245EE64EEA6
:101E900007C026E241EE62EE03C028E241E065EEB3
:101EA0000E94A80E80E00895FC018281882319F029
:101EB0001092B101089581E00895CF93DF93EC0172
:101EC000FB018281882309F41FC1C230FCE5DF07D2
:101ED00008F41BC1C6319CE5D90738F09E012A5F82
:101EE0003C452930310508F010C10E94791D9093BE
:101EF000B3028093B202C031ECE5DE0709F4C3C03F
:101F000008F041C0C8308CE5D80709F49AC0F0F455
:101F1000C430ECE5DE0709F487C068F4C2308CE514
:101F2000D80709F477C0C330DC4509F0E3C08091DD
:101F3000B202826076C0C630ECE5DE0709F46EC0FE
:101F400008F07BC08091B20288606BC0CC308CE519
:101F5000D80709F485C068F4CA30ECE5DE0709F457
:101F600074C008F079C00E9456178091B202806850
:101F700058C0CE308CE5D80709F476C008F07FC091
:101F80008091B2028BC0CB3FECE5DE0709F44FC075
:101F900018F5C3318CE5D80709F47DC078F4C13158
:101FA000ECE5DE0709F473C0C231DC4509F0A2C0DC
:101FB0000E9456178091B2028F7733C0C5318CE5ED
:101FC000D80709F472C008F486C0CA3FDC4509F09E
:101FD00091C08091B3023EC0CF3FFCE5DF0709F41A
:101FE0005FC058F4CD3F9CE5D90709F444C008F41C
:101FF0003FC08091B30282602DC0C130FDE5DF0794
:1020000009F475C008F45DC0C230DD4509F072C046
:1020100080E06EC08091B202816003C08091B20204
:1020200080618093B20266C08091B20211C080913B
:10203000B30282608093B3025DC08091B20280627D
:10204000F0CF8091B2028064ECCF8091B2028860C0
:102050008460E7CF8160EECF8091B2028E7FE1CFC6
:102060008091B2028D7FDDCF8091B202877FD9CF80
:102070008091B30218C08091B3028D7FDBCF809135
:10208000B2028F7ECECF8091B2028F7DCACF809177
:10209000B2028F7BC6CF8091B202877F8B7FC1CF88
:1020A0008091B3028D7F8E7FC5CF8091B20282FB7B
:1020B000222720F991E0922790FB82F990FB83F987
:1020C000B0CF8091B302982F909591708E7F892B1D
:1020D00090FB81F9AFCF0E9456178091B20287FB27
:1020E000222720F991E0922790FB87F99ACF81E08F
:1020F0000E94121E8091B2029091B3020E948A1D2A
:102100000E94561780E001C081E0DF91CF910895D1
:10211000CF93DF9386319C4541F5EB010E94A51CCE
:10212000982F8A8120910A0130910B01882379F040
:102130009A7A81E009F480E08093B201911102C0A3
:1021400069E201C065E3C9010E94591E0AC080917D
:10215000B201811102C069E201C065E3C9010E94B8
:102160005B1E0E94E61C80E001C081E0DF91CF9100
:1021700008958EE14A9B02C08150E1F74A9BFECF51
:1021800008955A9880E28A95F1F75A9A0895FC01C9
:102190002AE02A95F1F728E090E080E031E040E184
:1021A0004A95F1F7880F4A9B02C08160932700C0CF
:1021B000000040E14A95F1F7215089F720E12A9586
:1021C000F1F729B100C0000030E13A95F1F722FBA8
:1021D000222720F992272081920F90830895EF9271
:1021E000FF920F931F93CF93DF931F92CDB7DEB76C
:1021F00019828C017C01E60EF11C0E151F0551F0B1
:102200000E94B910CE0101960E94C710F801819377
:102210008F01F3CF81E09981911180E00F90DF91E0
:10222000CF911F910F91FF90EF9008959093B4017B
:102230008093B301529A5A9A08959093B40180936F
:10224000B30152985A9AEA9AE9E6F0E080818F7CCD
:1022500080830895615091E001C0990F6A95EAF773
:1022600020E031E0992361F0492F482319F05A9A70
:10227000232701C05A9840E24A95F1F79695F2CF8C
:10228000222311F05A9A01C05A9880E28A95F1F7F8
:102290005A980895FF920F931F93CF93DF93EC0109
:1022A0008C01060F111DC017D10741F0F9900E9453
:1022B000C11068E08F2D0E942A11F5CFDF91CF91D8
:1022C0001F910F91FF9008951F920F920FB60F92DA
:1022D00011242F933F934F935F936F937F938F932B
:1022E0009F93AF93BF93CF93DF93EF93FF935A984E
:1022F000529AC091B301D091B4016D81662321F04F
:102300008E819F810E944A110E94C11080E18A95AE
:10231000F1F75A9852985A9A80E18A95F1F76A81B2
:10232000662351F08B819C810E94EF10E881F98136
:10233000811104C082E003C0E881F98188E08083D4
:102340000E94B910FF91EF91DF91CF91BF91AF91B2
:102350009F918F917F916F915F914F913F912F91BD
:102360000F900FBE0F901F901895CF93DF93C091E1
:10237000B301D091B401F894529A5A9885E08A95A5
:10238000F1F7000052985A9A80E28A95F1F74A9B39
:102390000AC0529A5A9AE881F98181E08083789440
:1023A00081E090E02CC06D81662381F08E819F8159
:1023B0000E94EF1081110AC0529A5A9AE881F9815D
:1023C00082E08083789482E090E019C00E94B91086
:1023D00080E28A95F1F75A98529A80E18A95F1F74E
:1023E0006A81662321F08B819C810E944A110E94A0
:1023F000C110E881F9811082789480E090E0DF914B
:10240000CF9108959093BA018093B9010895E09116
:10241000B901F091BA01309721F00190F081E02DDF
:10242000099480E00895EF92FF920F931F93CF934A
:10243000DF93E091B901F091BA013097B1F18C01CD
:102440000280F381E02D099580912E0282FF2DC03C
:1024500080FF04C08AE893E00E945403E80118E07A
:1024600084E8E82E83E0F82E80912E0280FF0BC0D6
:1024700088811F928F93FF92EF920E94ED030F903D
:102480000F900F900F90115021961111EDCF809168
:102490002E0280FF0AC082E893E0DF91CF911F9166
:1024A0000F91FF90EF900C945403DF91CF911F9107
:1024B0000F91FF90EF900895E091B901F091BA016A
:1024C000309739F022E0DC012C930480F581E02D77
:1024D000099408952091B7013091B8012817390760
:1024E00071F09093B8018093B701E091B901F09138
:1024F000BA01309721F00680F781E02D0994089504
:102500002091B5013091B6012817390771F09093E9
:10251000B6018093B501E091B901F091BA0130970D
:1025200021F00084F185E02D0994089585B7806835
:1025300085BF85B7806885BF089508950C949D1266
:102540000C949E120C949D120E9496120E94A2124C
:102550000C94A0120C946A0B0E94E41E0E94200BA3
:102560000E94110C0E94611F0C94EB06CF93C82FA0
:1025700080912E0282FF1EC080FF04C083EA93E098
:102580000E94540380912E0280FF0CC01F92CF93B3
:102590008EE993E09F938F930E94ED030F900F902D
:1025A0000F900F9080912E0280FF04C08CE993E081
:1025B0000E9454038C2FCF910C947A08AF92BF9253
:1025C000CF92DF92EF92FF920F931F93CF93DF93FF
:1025D000CDB7DEB72A970FB6F894DEBF0FBECDBFDA
:1025E0000E94D5060E94AA12811111C08FEF898323
:1025F0008A831B820E94ED1E8160782F9D838C83CD
:1026000049815A816B818D810E94761340C08CEB89
:10261000A82E81E0B82E00E010E0C02E802F0E948E
:10262000CB0AE82EF501D1905F01D82631F40F5F77
:102630001F4F0630110589F7D9CF80912E0281FDF9
:102640000E94D10A80E0FF24F3949D2D9F21D1F0B8
:102650008E83CF82EF2081E009F480E088870E949A
:10266000ED1E8160782F9A8789874E815F8168850A
:102670008A850E947613F801E454FE4F8081F82683
:10268000F08205C08F5FFF0C8730F9F6D0CF0E9433
:1026900075210E9407129091BB018917B1F00E9429
:1026A00007128093BB012A960FB6F894DEBF0FBEC7
:1026B000CDBFDF91CF911F910F91FF90EF90DF90F1
:1026C000CF90BF90AF900C94B6122A960FB6F894A4
:1026D000DEBF0FBECDBFDF91CF911F910F91FF9055
:1026E000EF90DF90CF90BF90AF900895CF93DF939E
:1026F000CDB7DEB72B970FB6F894DEBF0FBECDBFB8
:102700004F83588769877A878B87DE01119686E029
:10271000FD0111928A95E9F785E0FE013796019057
:102720000D928A95E1F749815A816B817C818D8177
:102730009E810E940F1A2B960FB6F894DEBF0FBE33
:10274000CDBFDF91CF910895FC01808191810E94DE
:10275000661C0895CF93882309F4A4C0C82F82383B
:10276000C1F40E94071281FD9DC069E380910A01B6
:1027700090910B010E94591E0E94E61C2FEF81EEE2
:1027800094E0215080409040E1F700C0000069E3F0
:1027900019C0833801F50E94071280FD83C063E5EC
:1027A00080910A0190910B010E94591E0E94E61C23
:1027B0002FEF81EE94E0215080409040E1F700C07F
:1027C000000063E580910A0190910B010E945B1E5D
:1027D000CF910C94E61C8438C1F40E94071282FD4C
:1027E00061C067E480910A0190910B010E94591E1B
:1027F0000E94E61C2FEF81EE94E021508040904033
:10280000E1F700C0000067E4DDCF8CEF8C0F813A68
:10281000D0F46C2F80910A0190910B010E94231E2D
:10282000882349F06C2F80910A0190910B010E943E
:102830005B1E0E94E61C6C2F80910A0190910B0197
:102840000E94591EC5CF80E28C0F883048F4C770B3
:1028500081E001C0880FCA95EAF70E94A81CB8CF92
:10286000EBE5EC0FE33040F4F0E0E557FE4F8081FC
:1028700090E0CF910C946A12E8E5EC0FE73150F448
:10288000F0E0EE0FFF1FE35AFE4F80819181CF9160
:102890000C948012C03F30F08C2F0E94FB1FCF9110
:1028A0000C94E820CF910895882309F464C08238FD
:1028B00079F40E94071281FF5EC069E380910A01EA
:1028C00090910B010E94591E0E94E61C69E310C002
:1028D0008338B1F40E94071280FF4DC063E58091F8
:1028E0000A0190910B010E94591E0E94E61C63E5AB
:1028F00080910A0190910B010E945B1E0C94E61CD2
:10290000843879F40E94071282FF35C067E4809111
:102910000A0190910B010E94591E0E94E61C67E477
:10292000E7CF9CEF980F913A10F4682FE1CF90E237
:10293000980F983050F4877091E001C0990F8A95F4
:10294000EAF7892F0E94AE1CD9CF9BE5980F9330F0
:1029500020F480E090E00C946A1298E5980F97318B
:1029600020F480E090E00C948012803F20F00E94E0
:1029700063200C94E8200895CF93C82F0E94AA13D7
:10298000C93349F42FEF87EE93E021508040904007
:10299000E1F700C000008C2FCF910C9454148823D1
:1029A00021F00E94A81C0C94E61C0895882321F0B5
:1029B0000E94AE1C0C94E61C0895CF92DF92EF9219
:1029C000FF920F931F93CF93DF937C01D62FC72FD6
:1029D000FC01058102950F70128111110E94C51C26
:1029E0000E949E1C882399F0112389F08C2F807FF0
:1029F000803421F080E28D0F883048F082E00E9420
:102A0000301D0E949E1C91E0D82ED92601C0D12CE9
:102A1000CC2EC2948FE0C8228C2D90E08C30910592
:102A200008F0B6C1FC01E759FF4F0C941B2B8C2F0B
:102A3000807FCF70882311F0C295C07F112399F059
:102A4000CC2309F491C180E28D0F883010F0D111B0
:102A500004C08C2F0E94A81C03C08C2F0E94B81C9D
:102A60000E94E61C81C18D2F0E945414CC2309F4CE
:102A70008FC180E28D0F883010F0D11104C08C2FEF
:102A80000E94AE1C03C08C2F0E94BE1C0E94E61C3C
:102A90007FC18C2F807FCF70803211F0C295C07FB4
:102AA000DD2319F0D130C9F022C0112371F00023C9
:102AB00041F0013031F40E94CB1C8C2B0E94D31CBE
:102AC00067C10E94CB1C8C2B1DC0002319F0013064
:102AD00009F45EC10E94DC1C25C0112321F00630E0
:102AE00008F056C10EC0053008F052C11BC01123BA
:102AF00061F0002331F0F701858180FF35C18F70CF
:102B000085838C2F0E94CF1443C1002359F0D93301
:102B100009F03BC1FFEF07EE13E0F1500040104019
:102B2000E1F731C18C2F0E94D61432C18C2F8695CB
:102B30008695837019F0813061F02AC1112321F04C
:102B40008D2F9C2F937002C080E090E00E946A124B
:102B500027C1112321F08D2F9C2F937002C080E09C
:102B600090E00E9480121CC18D2F112319F00E9449
:102B7000FB1F02C00E9463200E94E82011C18C2F1D
:102B8000837009F047C0111107C12D2F229526959A
:102B90002770220F220F6D2F6F70862F90E0A0E01C
:102BA000B0E0022E04C0880F991FAA1FBB1F0A9411
:102BB000D2F7D4FF10C04FE050E060E070E004C0F6
:102BC000440F551F661F771F2A95D2F740955095E1
:102BD0006095709503C040E050E0BA01C695C69577
:102BE000C3708A019B01082B192B2A2B3B2BC9018F
:102BF000B801C23049F058F4C13019F00E94E31A0C
:102C0000CBC00E94D11AC8C00E94F51AC5C00E944C
:102C1000CF1AC2C0112319F08C2F817001C0869584
:102C2000882309F4B9C02D2F229526952770220FED
:102C3000220F6D2F6F70862F90E0A0E0B0E0022E83
:102C400004C0880F991FAA1FBB1F0A94D2F7D4FF94
:102C500010C04FE050E060E070E004C0440F551F2A
:102C6000661F771F2A95D2F740955095609570950D
:102C700003C040E050E0BA01C695C695C3708A0112
:102C80009B01082B192B2A2B3B2BC901B801C23001
:102C900049F058F4C13019F00E94A81B7DC00E9471
:102CA000961B7AC00E94BA1B77C00E94091B74C091
:102CB000CF70112339F08C2F0E942F1B8D2F0E9473
:102CC000CF146AC08D2F0E94D6148C2F0E94501BE7
:102CD00063C0D23F01F128F4D03F41F0D13FA1F0D1
:102CE0003FC0D33FF9F0D43F39F13AC0112341F04E
:102CF000053008F04DC08C2F8F710E94751B48C0A5
:102D0000063008F045C0F7CF112339F08C2F8F71B2
:102D10000E942F1B3DC01123C9F38C2F8F710E947D
:102D2000501B36C0112329F08C2F8F710E941A1B63
:102D30002FC00E94151B2CC0112349F0CF718C2F7E
:102D40000E942F1B63E08C2F0E941B1D21C081E07D
:102D50000E94301D0230E0F082E00E94301D18C059
:102D6000112331F0002391F28D2F0E94AA1310C07D
:102D7000002399F2D93349F41FEF27EE33E01150C5
:102D800020403040E1F700C000008D2F0E94541415
:102D900088EF8C0D843020F40E9407120E947A087C
:102DA000DD20C9F00E949A1C80FD15C0F701128237
:102DB0000E94941C0E942F1BC7010E940C170E94A6
:102DC000941CDF91CF911F910F91FF90EF90DF90B6
:102DD000CF900C94501BDF91CF911F910F91FF90DA
:102DE000EF90DF90CF9008950F931F93CF93DF93D1
:102DF000EC01688179818A810E94711C8C010E949A
:102E0000CC1B0E94BD1AB801CE010E94DD14DF91D7
:102E1000CF911F910F910895CF93DF93EC0198818B
:102E200089812B813C81232B31F08F3F31F481E06C
:102E30009F3F19F403C081E001C080E080FD19C00C
:102E4000CE010E94930881110CC00E949E1C882311
:102E500081F08A81882369F082E0DF91CF910C9420
:102E6000301DCE010E94F416CE01DF91CF910C945B
:102E70003E07DF91CF9108950E94C51C0E94C81C97
:102E80000E94E61C0E9494220E94E82080E090E0CC
:102E90000E946A1280E090E00C94801280910A01F6
:102EA00090910B010E945D1E0C943C170E94B51C72
:102EB0000C944E17E92FE295EF704E2F50E0FA0177
:102EC0003297EE30F105B0F4EB58FF4F0C941B2B0A
:102ED000803F91F018F4883E68F40EC0843F51F4AE
:102EE0000BC0883E48F0813F29F406C093FB882739
:102EF00080F9089580E0089581E008950E94661C9D
:102F00000E945A170895CF93DF9300D000D01F92EC
:102F1000CDB7DEB70F900F900F900F900F90DF910D
:102F2000CF910895CF93DF9300D000D000D0CDB7DC
:102F3000DEB726960FB6F894DEBF0FBECDBFDF9189
:102F4000CF9108951F93CF93DF93C091C30116E0F3
:102F50008091C401C81799F0D0E01C9FF0011D9F1B
:102F6000F00D1124EB53FE4F40815181628173813A
:102F7000848195810E9492172196C770E9CFDF91D5
:102F8000CF911F9108954091F5015091F601609104
:102F9000F7017091F8018091F9019091FA010C9478
:102FA00092170F931F93CF93DF938091FA0182952D
:102FB0008F7009F05DC08091F701882309F458C033
:102FC0008091C3011091C4016091F5017091F601E7
:102FD000C091F801D091F90191E06F3F09F090E0C4
:102FE000292F06E0811709F443C0209721F07F3F85
:102FF00021F030E003C031E001C0322F90E030FD1D
:1030000034C0089FF001099FF00D1124DF01AB537C
:10301000BE4F11963C911197371327C03C91361340
:1030200024C012963C91129731111FC013964D91F6
:103030005C9114974C1B5D0B483C5105B0F480919A
:10304000FA018F7080618093FA01E653FE4F808110
:103050008F708061808385EF91E00E940C17DF9173
:10306000CF911F910F910C94A21701968770BACF40
:10307000DF91CF911F910F9108959F92AF92BF92D0
:10308000CF92DF92EF92FF920F931F93CF93DF9334
:10309000CDB7DEB761970FB6F894DEBF0FBECDBFD8
:1030A0008C0185E0F801DE011D9601900D928A9554
:1030B000E1F7F80140815181E2809091F501609142
:1030C000F6012091F8013091F9012115310531F017
:1030D0006F3F31F481E09F3F19F403C081E001C0EC
:1030E00080E0F82FF1709F2E80FD46C1F801A3808B
:1030F000B48085EFC82E81E0D82EF090F701F5015D
:10310000E21BF30BFF2009F4DFC08091FA01E83CD9
:10311000F10508F09BC0282F207F09F052C05613FC
:1031200013C0491311C0FE2CE1100EC08F708061D6
:103130008093FA010E94C317C6010E940C17809168
:10314000FA01F801858358C1AB2831F05F3F31F4B3
:1031500081E04F3F19F403C081E001C080E080FDB1
:1031600003C081E08E2502C080E090E0F82FF1706E
:10317000FF2E80FF1CC08091C3012091C40136E066
:10318000821709F417C190E0389FF001399FF00DC4
:103190001124EB53FE4F6181561306C06081461324
:1031A00003C06281E61203C001968770E9CFFE2C4E
:1031B000EE2009F421C18091FA0181608093FA0127
:1031C0005AC0561306C0491304C0E11002C0F801EA
:1031D0009FC04D875E878D859E850E947E178823C0
:1031E00079F1EE2069F12091FA01822F82958F709A
:1031F00090E0029774F08091F5019091F601988724
:103200008F831986BB86AA862C87CE0107960E94DB
:103210000C1786E0F801A5EFB1E001900D928A95B8
:10322000E1F70E94D1170E94C3170DC0561729F16C
:103230004D875E878D859E850E947E1781112CC0EB
:10324000C8010E940C17FF24F394D6C0282F207FBA
:1032500069F77A2DB98AA88A6E2D89890E94831709
:1032600085EF91E00E940C1786E0F60111928A9595
:10327000E9F70E94C317F12CBFC04913D9CFE11061
:10328000D7CFF8018583C8010E940C1786E0F601AC
:1032900011928A95E9F7B0C0EE2091F22091FA01DF
:1032A000822F82958F7090E002970CF4B2CF8091BC
:1032B000F5019091F6019A8389831B82BD82AC82CD
:1032C0002E83CE010196A3CFE83CF10508F047C05C
:1032D000FE2CEE2009F4B4CF561330C049132EC093
:1032E0002091FA0120FD21C0822F82958F70482FF6
:1032F00050E041155105C9F0F80125834F305105C3
:1033000041F08F5F982F9295907F822F8F70892B3D
:103310008583C8010E940C1786E0F801A5EFB1E093
:1033200001900D928A95E1F742C086E0F801A5EF81
:10333000B1E001900D928A95E1F75EC04D875E87FE
:103340008D859E850E947E17811163CF8091FA0141
:1033500081608093FA01C8010E940C174DC07A2D3C
:10336000B98AA88A6E2D89890E94831786E0F601A2
:1033700011928A95E9F71BC0EE2009F461CF4D87C1
:103380005E878D859E850E947E17F82E882309F41E
:1033900057CF86E0F801A5EFB1E001900D928A9534
:1033A000E1F785EF91E00E94A4130E94D1170E94DB
:1033B000C31722C04D875E878D859E850E94661C3F
:1033C000292F22952F70223028F49F7039F0811117
:1033D00005C00BC0243028F49F7049F4805E88300B
:1033E00020F0C8010E940C179F2CF92C05C0F80191
:1033F0009581907F99F7F9CF8F2D61960FB6F8944C
:10340000DEBF0FBECDBFDF91CF911F910F91FF9017
:10341000EF90DF90CF90BF90AF909F9008951F9353
:10342000CF93DF93CDB7DEB72C970FB6F894DEBFFE
:103430000FBECDBF4F83588769877A878B879C875C
:10344000CE0107960E943D188823D1F09F81888580
:103450002A853B85232B31F08F3F31F481E09F3F5C
:1034600019F403C081E001C080E080FD47C04F81B6
:10347000588569857A858B859C850E9492173EC008
:1034800086E0FE013796DE01119601900D928A9535
:10349000E1F7FF81E8856A857B856115710531F06B
:1034A000EF3F31F481E0FF3F19F403C081E001C038
:1034B00080E080FD23C02091C40130E0C901019665
:1034C000877099274091C30150E084179507F1F167
:1034D000F983EA837D836C8396E0929FD001939F6A
:1034E000B00D1124AB53BE4FFE01319601900D92E9
:1034F0009A95E1F78093C4010E94A21716E080918B
:10350000C3019091C401891771F1189FC001112462
:103510008B539E4F0E943D18882329F1E091C301EF
:103520001E9FF0011124EB53FE4F408151816281B7
:103530007381848195810E9492178091C30190E0EC
:103540000196877099278093C301D9CF0E9456179F
:103550001092C4011092C301E5EFF1E086E0DF01B3
:103560001D928A95E9F72C960FB6F894DEBF0FBE30
:10357000CDBFDF91CF911F910895089508950C94C8
:10358000BE1A0C94BF1A0E94C11A60931D02709358
:103590001E0280931F02909320020C943C170C94FF
:1035A000C31A0F931F9300911D0210911E022091C8
:1035B0001F0230912002602B712B822B932B1F91C5
:1035C0000F910C94C31A0F931F9300911D02109139
:1035D0001E0220911F02309120026023712382235A
:1035E00093231F910F910C94C31A0F931F93009173
:1035F0001D0210911E0220911F02309120026027AF
:103600007127822793271F910F910C94C31A0C9452
:10361000F1060E94071B6093190270931A028093AF
:103620001B0290931C020C943C1760E070E0CB01ED
:103630000C94091B0F931F9341E050E060E070E091
:103640008A019B0104C0000F111F221F331F8A959E
:10365000D2F7C901B8011F910F910C94091B0F9368
:103660001F9341E050E060E070E004C0440F551F3C
:10367000661F771F8A95D2F78091190290911A02DE
:10368000A0911B02B0911C028A019B01082B192BEF
:103690002A2B3B2BC901B8011F910F910C94091BD8
:1036A0000F931F9341E050E060E070E004C0440FCE
:1036B000551F661F771F8A95D2F7409550956095E4
:1036C00070958091190290911A02A0911B02B091FD
:1036D0001C028A019B01082319232A233B23C901C9
:1036E000B8011F910F910C94091B0F931F9341E098
:1036F00050E060E070E004C0440F551F661F771F64
:103700008A95D2F78091190290911A02A0911B021A
:10371000B0911C028A019B01082719272A273B2701
:10372000C901B8011F910F910C94091B0F931F93AE
:103730000091190210911A0220911B0230911C0273
:10374000602B712B822B932B1F910F910C94091BD3
:103750000F931F930091190210911A0220911B02DE
:1037600030911C0260237123822393231F910F91B8
:103770000C94091B0F931F930091190210911A02C8
:1037800020911B0230911C0260277127822793270A
:103790001F910F910C94091B089527E0929F800DB3
:1037A0001124E82FE695E695E695877051E001C073
:1037B000550F8A95EAF785E0E89FF0011124E5505E
:1037C000FE4F20E030E070E04081CB01022E02C0CD
:1037D000969587950A94E2F78170819584278523D1
:1037E000842781932F5F3F4F2530310569F7089576
:1037F00027E0929F800D1124682F66956695669547
:10380000982F977085E0689FB001112440E050E048
:1038100080E0FB01E40FF51FE550FE4F208130E012
:10382000092E02C0369527950A94E2F721703327B6
:10383000042E01C0220F0A94EAF7822B4F5F5F4FDC
:103840004530510531F70895BF92CF92DF92EF9244
:10385000FF920F931F93CF93DF938C01C0901902B7
:10386000D0901A02E0901B02F0901C0280911D0281
:1038700090911E02A0911F02B0912002C82AD92A5D
:10388000EA2AFB2ACFE1D0E0D701C6010C2E04C002
:10389000B695A795979587950A94D2F780FD04C0B1
:1038A000219790F7B12C07C0BC2EB8018C2F0E9435
:1038B000F2080197A9F38B2DDF91CF911F910F9102
:1038C000FF90EF90DF90CF90BF900895CF93DF935C
:1038D000EC010E94241CBE010E94F208DF91CF91EE
:1038E00008951F93CF93DF93EB019091C201992329
:1038F00021F0CB010E94661C13C0882349F0CB0144
:103900000E94241C182F682FCE010E94CD1B04C0DA
:10391000CB010E94F81B182FBE01812F0E94F208D4
:10392000DF91CF911F910895809121028595859512
:1039300085950895809121028770089590912102C4
:10394000977081E009F480E0089580912D02089538
:1039500090912D02892B80932D020895809590914E
:103960002D02892380932D02089510922D0208952F
:1039700090912C02892B80932C0208958095909130
:103980002C02892380932C02089510922C02089512
:1039900010922B02089580912202089508950C94AC
:1039A000CE1C0C94CF1C90912202981721F080938A
:1039B00022020C94D11C089580912202882329F0C0
:1039C0001092220280E00C94D11C0895E0910A012B
:1039D000F0910B0180912D028083E0910A01F0911A
:1039E0000B01908180912C02892B8083E0910A0148
:1039F000F0910B01908180912B02892B8083809123
:103A00002202882381F0E0910A01F0910B0190815C
:103A1000892B808380910A0190910B010E94171ECF
:103A200081110E94DC1C80910A0190910B010C9481
:103A300013120C94CE1C98E0899F90011124262B20
:103A4000209321020E942F1B80912102859585954C
:103A500085950C94191D1092210280E00C94191D7B
:103A6000209121028095822380932102982F9770C4
:103A700079F430E0482F082E000C550B2417350739
:103A800039F08595859585950E94501B0C942B1DCA
:103A900008959093A3018093A20108958295982F91
:103AA000937344E0949F900111248C7C86958695B5
:103AB000282B822F8575880F2A7A2695822B0895C8
:103AC0006FEF7FEF80E090E00C94682B80E090E057
:103AD0000E94442B21E08C3E9E4F09F020E0822F73
:103AE000089582E090E00C943C2B83E090E00C94ED
:103AF0003C2BCF9384E090E00E943C2BC82F81E2C6
:103B000090E00E943C2B2C2F30E0A901582BCA01D9
:103B1000CF910895CF93C92F682F84E090E00E9441
:103B20004A2B6C2F81E290E0CF910C944A2BAB0191
:103B3000BC018FE090E00C945C2BAB01BC0183E1F5
:103B400090E00C945C2B60E070E0CB010C949D1D28
:103B500060E070E0CB010E94971D0C94A31D6CEEF9
:103B60007EEF80E090E00E94682B60E082E090E0D1
:103B70000E944A2B60E083E090E00E944A2B109262
:103B80001D0210921E0210921F021092200260E08D
:103B900084E090E00E944A2B60E081E290E00E9485
:103BA0004A2B60E085E090E00E944A2B60E086E0CE
:103BB00090E00E944A2B6FEF87E090E00E944A2B32
:103BC00040E050E0BA0188E090E00E945C2B60E0A9
:103BD0008DE090E00E944A2B40E050E0BA0188E17D
:103BE00090E00E945C2B60E087E190E00E944A2B0D
:103BF00040E050E0BA018CE190E00E945C2B60E074
:103C000080E290E00E944A2B0C94A81D0C94AF1DFA
:103C10008EE090E00E943C2B91E0811101C090E089
:103C2000892F0895682F8EE090E00C944A2BFC01B8
:103C3000329697E080E0915029F021912223D9F328
:103C40008F5FF9CF0895662349F0FC0132960896FC
:103C50002191621729F0E817F907D1F780E008955C
:103C600081E008959C01FC0132969FEF80E0419134
:103C7000461789F09F3F19F4411101C0982F8F5FBB
:103C80008630A9F79F3F39F0F901E90FF11D97FD43
:103C9000FA956283089508959C012A5F3F4FFC01C5
:103CA0004281461301C01282019682179307B9F729
:103CB00008950C94321E0C944C1E029626E0FC01D2
:103CC00011922A95E9F7089508950C94641E0C94B6
:103CD000641ECF930E94671E0E94D5060E94651E37
:103CE000C0E08C2F0E94CB0A811104C0CF5FC63088
:103CF000C1F701C081E0CF9108950C94641E0C942B
:103D00007D1E0E947F1E8091B802843049F110927E
:103D10002F0220E488E190E00FB6F894A8958093F4
:103D200060000FBE2093600080E00E947A080E942D
:103D30007F1E83B7817F846083BF83B7816083BF29
:103D40007894889583B78E7F83BF0FB6F894A89533
:103D500080916000886180936000109260000FBEC7
:103D600008950C94641E0E9456170E9407120E9428
:103D70007A080C94B11E1F920F920FB60F92112465
:103D80008F939F93AF93BF9380912F02811113C0A4
:103D90008091AE029091AF02A091B002B091B102B9
:103DA0004196A11DB11D8093AE029093AF02A093E6
:103DB000B002B093B102BF91AF919F918F910F90DC
:103DC0000FBE0F901F90189582E084BD93E095BDC3
:103DD0009AEF97BD80936E0008952FB7F894809165
:103DE000AE029091AF02A091B002B091B1022FBF8C
:103DF00008952FB7F8946091AE027091AF02809150
:103E0000B0029091B1022FBF08959C014FB7F89472
:103E10008091AE029091AF02A091B002B091B10238
:103E20004FBF821B930B089578941F920F920FB689
:103E30000F9211248F939F93AF93BF938091AE0203
:103E40009091AF02A091B002B091B1020196A11D74
:103E5000B11D8093AE029093AF02A093B002B093D5
:103E6000B102BF91AF919F918F910F900FBE0F90B4
:103E70001F90189587E797E79093010880930008B3
:103E80009AE088E10FB6F894A895809360000FBE81
:103E900090936000FFCF0C94FE0B0E94D5068FE339
:103EA0009CE90197F1F700C000000E94D50680E070
:103EB0000E94CB0A80FF04C00E944B1F0C943A1F43
:103EC00008950E94661D811102C00E94061E0E9474
:103ED000711D80932E020E94791D9093B3028093EE
:103EE000B2020E94751D682F70E080E090E00C9493
:103EF000CF1A8091370280FF0BC06091110185E0DD
:103F0000689FB001112475956795759567952BC0CD
:103F100081FF09C06091110185E0689FB001112403
:103F20007595679520C082FF07C06091110185E0FB
:103F3000689FB001112417C0909136029923D1F0E7
:103F400060911001961788F72091110185E0289F54
:103F500090011124929FA001939F500D112470E0B5
:103F6000CA010E94072B6038710540F46115710584
:103F700019F406C065E070E0862F08958FE7089574
:103F800081E008958091370280FF08C060910D01A3
:103F900070E0759567957595679521C081FF06C09E
:103FA00060910D0170E07595679519C082FF04C09E
:103FB00060910D0170E010C090913602992399F044
:103FC00060910C019617A0F780910D01899FC001A7
:103FD000112470E00E94072B6038710540F46115D0
:103FE000710519F406C061E070E0862F08958FE72F
:103FF000089581E00895803F21F40E94791F819502
:1040000004C0813F29F40E94791F80933B020895E8
:10401000823F21F40E94791F819504C0833F29F4D7
:104020000E94791F80933A020895893F19F40E94F3
:10403000C21F05C08A3F31F40E94C21F8195809340
:104040003C0208958B3F21F40E94C21F819504C059
:104050008C3F29F40E94C21F80933D020895843F43
:1040600021F480913902816017C0853F21F480914D
:104070003902826011C0863F21F480913902846048
:104080000BC0873F21F480913902886005C0883FCA
:1040900031F48091390280618093390208958D3F17
:1040A00021F48091370281600BC08E3F21F4809112
:1040B0003702826005C08F3F29F480913702846007
:1040C000809337020895803F39F480913B0287FF47
:1040D0006CC010923B0269C0813F29F480913B0281
:1040E0001816BCF362C090913A02823F29F497FF00
:1040F0005CC010923A0259C0833F19F41916CCF3F0
:1041000054C0893F41F480913C0218160CF04DC018
:1041100010923C024AC08A3F29F480913C0287FFFA
:1041200044C0F6CF8B3F39F480913D0287FF3DC0FC
:1041300010923D023AC08C3F29F480913D0218163E
:10414000BCF333C0843F21F4809139028E7F17C0C5
:10415000853F21F4809139028D7F11C0863F21F483
:10416000809139028B7F0BC0873F21F48091390207
:10417000877F05C0883F31F4809139028F7E80931C
:10418000390213C08D3F21F4809137028E7F0BC01E
:104190008E3F21F4809137028D7F05C08F3F29F437
:1041A000809137028B7F8093370280913A02811190
:1041B0000EC080913B0281110AC080913C028111A6
:1041C00006C080913D02811102C01092360208950E
:1041D00080912E0283FF7EC08DED93E00E945403F8
:1041E000809139021F928F9388ED93E09F938F9374
:1041F0000E94ED0386ED93E00E94540380913A0201
:10420000282F082E000C330B3F938F9383ED93E000
:104210009F938F930E94ED0381ED93E00E945403DE
:1042200080913B02282F082E000C330B3F938F9375
:104230008EEC93E09F938F930E94ED038CEC93E0C0
:104240000E94540380913C02282F082E000C330B4F
:104250003F938F9389EC93E09F938F930E94ED039C
:1042600087EC93E00E94540380913D02282F082E92
:10427000000C330B3F938F9384EC93E09F938F93C9
:104280000E94ED0381EC93E00E945403809136027A
:104290001F928F938EEB93E09F938F930E94ED0379
:1042A0008CEB93E00E945403809137021F928F930E
:1042B00089EB93E09F938F930E94ED0386EB93E04D
:1042C0000E9454038DB79EB74C960FB6F8949EBFCC
:1042D0000FBE8DBF88E392E00E945C120E94ED1E2B
:1042E00090933502809334020895CF93DF9300D0EA
:1042F00000D000D0CDB7DEB786E0E8E3F2E0DE0123
:10430000119601900D928A95E1F780913A02811100
:1043100005C080913B02882309F47AC08091320263
:10432000909133020E94051FAC01909136029923AF
:1043300039F02091120130E02417350758F068C099
:10434000209113018AE0289F90011124241735073A
:1043500018F05EC09F3F19F09F5F90933602109255
:104360003C0210923D0280913A02181624F40E94F9
:10437000791F80933A0280913A0287FF05C00E941C
:10438000791F819580933A0280913B02181624F49C
:104390000E94791F80933B0280913B0287FF05C0FA
:1043A0000E94791F819580933B0230913A0233231A
:1043B000E1F020913B022223C1F045EB3403C00120
:1043C0001124992319F090933A0203C081E080935D
:1043D0003A0235EB2303C0011124992319F090937D
:1043E0003B0203C081E080933B020E94E820809161
:1043F000340290913502909333028093320286E02A
:10440000FE013196A8E3B2E001900D928A95E1F7A2
:1044100080913C02811105C080913D02882309F4FE
:104420007AC080913002909131020E94051FAC0148
:1044300090913602992339F020910E0130E0241733
:10444000350758F068C020910F018AE0289F90013D
:1044500011242417350718F05EC09F3F19F09F5FA5
:104460009093360210923A0210923B0280913C02E5
:10447000181624F40E94C21F80933C0280913C02D3
:1044800087FF05C00E94C21F819580933C028091E6
:104490003D02181624F40E94C21F80933D028091B1
:1044A0003D0287FF05C00E94C21F819580933D0297
:1044B00030913C023323E1F020913D022223C1F0F0
:1044C00045EB3403C0011124992319F090933C0269
:1044D00003C081E080933C0235EB2303C00111242B
:1044E000992319F090933D0203C081E080933D022F
:1044F0000E94E8208091340290913502909331021D
:104500008093300286E0FE013196A8E3B2E001908C
:104510000D928A95E1F726960FB6F894DEBF0FBE8E
:10452000CDBFDF91CF910895E8E3F2E086E0DF01AF
:104530001D928A95E9F7109236021092370208957B
:104540008091490208959FB7F894109240029FBF4E
:104550009091B802943009F057C09091E9009F7093
:104560003091EC00232F217030FD20E8922B25E0C4
:104570002093E9002091EB0020FF43C02091EE0042
:1045800027FF3FC020913E02222321F02091E80026
:1045900025FF37C010923E0226E03091E80035FD3D
:1045A00015C03091B802343061F53091EB0035FD23
:1045B00028C0215021F481E080933E0222C0EFE91F
:1045C000FFE03197F1F700C00000E7CF8093F100E2
:1045D0008091E80085FD0AC08091E80080FFFCCF53
:1045E0008091E8008E778093E80006C08FB7F8943A
:1045F00021E0209340028FBF9F709093E90080E0FC
:1046000008959F709093E9008FEF0895CF93DF9303
:1046100000D01F92CDB7DEB79091B802943011F55B
:1046200089837B836A839093E9008FEF9091E80000
:10463000815095FD06C095ED9A95F1F70000811126
:10464000F5CF8091E80085FF0DC040E050E063E0C9
:1046500070E0CE0101960E9413268091E8008E77CB
:104660008093E8000F900F900F90DF91CF91089505
:10467000CF93DF93EC010E94F625823011F0843055
:1046800031F4BE0184E0DF91CF910C940623DF91D9
:10469000CF910895BC0183E00C940623CF93DF9360
:1046A000EC010E94F625823011F08430F9F484E0A8
:1046B0008093E9008FEF9091E800815095FD06C04E
:1046C00095ED9A95F1F700008111F5CF8091E80002
:1046D00085FF0CC040E050E066E070E0CE010E9433
:1046E00013268091E8008E778093E800DF91CF91C8
:1046F0000895CF93DF93EC010E94F625823011F0EC
:10470000843039F581E08093E9008FEF9091E800E3
:10471000815095FD06C095ED9A95F1F70000811145
:10472000F5CF8091E80085FF14C040E050E068E0DC
:1047300070E0CE010E9413268091E8008E7780936E
:10474000E80088E0FE01A1E4B2E001900D928A95B4
:10475000E1F7DF91CF910895CF93603219F5209161
:10476000B8022430F9F4C091E900CF703091EC0028
:10477000232F217030FD20E8C22B22E02093E90096
:104780002091E80020FF0BC040E050E060E270E0C4
:104790000E9413268091E8008E778093E800CF7006
:1047A000C093E900CF91089585E294E00E945403FC
:1047B0008091B702811109C00E94EF270E944C2806
:1047C0008091E20084608093E200089581E294E0A9
:1047D0000E9454031092B70208958DE194E00C9466
:1047E000540389E194E00C94540385E194E00E9421
:1047F00054030C94B31E20913F022F5F822F62E37B
:104800000E94FB2A992319F020933F0208951092E9
:104810003F0280914002882371F18091B802843078
:1048200041F58091E9008F702091EC00922F9170FA
:1048300020FD90E8892B95E09093E9009091EB00A2
:1048400090FF14C09091EE0097FF10C09091E80087
:1048500095FF03C01092F100F9CF9091E80090FF0E
:1048600005C09091E8009E779093E8008F70809348
:10487000E90010924002089542E061EC81E00E945C
:10488000682742E261EC84E00E94682742E261EC22
:1048900082E00E94682742E260EC83E00E94682781
:1048A00042E261EC85E00C9468278091BA02833083
:1048B00009F462C030F4813071F0823009F49BC099
:1048C00008958A3009F487C08B3009F46DC08930AF
:1048D00009F0A9C020C08091B902813A09F0A3C0B3
:1048E0008091E800877F8093E8008091BD029091DD
:1048F000BE02892B21F468E081E492E003C060E00D
:1049000080E090E070E00E94A9268091E8008B771B
:104910008093E80008958091B902813209F083C044
:104920008091BD029091BE02009719F0029709F0A4
:104930007AC08091E800877F8093E8008091E8004A
:1049400082FD05C08091B8028111F8CF6CC0209122
:10495000F3008091F20090E0922B029729F480916D
:10496000F1008B7F813021F48091F1008093490226
:104970008091E8008B7753C08091B902813A09F0A9
:1049800052C08091BD029091BE02892B09F04BC0AC
:104990008091E800877F8093E8008091E80080FFA5
:1049A000FCCF80911E0136C08091B9028132D9F5C9
:1049B0008091BD029091BE02892BA9F58091E800FB
:1049C000877F8093E8000E949D278091BB0280939F
:1049D0001E010C9456178091B902813221F5809105
:1049E000E800877F8093E8000E949D278091BC02A9
:1049F00080934A0208958091B902813AA1F480918E
:104A0000E800877F8093E8008091E80080FFFCCF7A
:104A100080914A028093F1008091E8008E77809324
:104A2000E8000C949D2708951F93CF93DF93CDB793
:104A3000DEB7A0970FB6F894DEBF0FBECDBF84B728
:104A4000877F84BF0FB6F894A89580916000886135
:104A500080936000109260000FBE90E080E80FB677
:104A6000F89480936100909361000FBE0E94A4129D
:104A70000E94EF270E944C288091E200846080937E
:104A8000E20083EA92E20E94491D78940E94E02AA3
:104A90000E94AC1284E191E00E94021284E094E052
:104AA0000E94540313E08091B802853089F480E0BD
:104AB00094E00E9454030E94811E8091B6028823D4
:104AC00091F30E94691E882371F30E94FD25EBCFAC
:104AD0000E94DE128091B802843029F71093E90019
:104AE0008091E80082FFDFCF8091E80085FF0AC057
:104AF00040E050E060E270E0CE0101960E945E2648
:104B000091E001C090E08091E8008B778093E8000D
:104B1000992349F260E2CE0101960E94600CC3CF56
:104B20000C949225292F332723303105C9F060F4E6
:104B30002130310581F02230310509F047C08BE783
:104B400090E02BE634E046C02132310511F12232EB
:104B5000310561F13BC082E190E026EE34E03AC0DD
:104B600099278130910561F040F08230910559F02C
:104B7000039761F5E9E2F4E008C0E7E6F4E005C078
:104B8000E7E4F4E002C0EFE2F4E0849190E09F01FA
:104B900021C064307105D0F4660F771FFB01E65623
:104BA000FE4F2081318189E090E014C064307105AE
:104BB00068F4FB01EE0FFF1FEE56FE4F208131819E
:104BC000FB01E257FE4F808190E004C080E090E05E
:104BD00020E030E0FA013183208308958091B8020B
:104BE000843011F081E0089582E0089580914B02B5
:104BF000811102C00C94EE25089580E189BD82E107
:104C000089BD09B400FEFDCF8091D8008F7D8093CF
:104C1000D8008091E00082608093E0008091E00005
:104C200081FDFCCF0895CF92DF92EF92FF920F9318
:104C30001F93CF93DF93EC018B017A010E94BC2775
:104C4000811133C0E114F10439F0F70180819181C1
:104C5000081B190BC80FD91FC12CD12C0115110528
:104C600019F18091E80085FD16C08091E8008E77EB
:104C70008093E800E114F10449F0F701808191810B
:104C8000C80ED91ED182C08285E00FC00E94BC2709
:104C9000882321F30AC089918093F1000150110902
:104CA000FFEFCF1ADF0ADACF80E0DF91CF911F91BB
:104CB0000F91FF90EF90DF90CF900895CF92DF9209
:104CC000EF92FF920F931F93CF93DF93EC018B0131
:104CD0007A010E94BC27811133C0E114F10439F03C
:104CE000F70180819181081B190BC80FD91FC12CB6
:104CF000D12C0115110519F18091E80085FD16C030
:104D00008091E8008B778093E800E114F10449F08A
:104D1000F70180819181C80ED91ED182C08285E0C1
:104D20000FC00E94BC27882321F30AC08091F100A4
:104D3000899301501109FFEFCF1ADF0ADACF80E023
:104D4000DF91CF911F910F91FF90EF90DF90CF9067
:104D500008952091BF023091C0022617370748F00E
:104D60006115710539F42091E8002E772093E80051
:104D700001C0B901FC0120E06115710579F1809154
:104D8000B8028823F1F18530F1F18091E80083FDCC
:104D90003CC08091E80082FD2EC08091E80080FF39
:104DA000EBCF2091F3008091F20090E0922B6115FF
:104DB000710551F08830910538F421912093F1006C
:104DC000615071090196F3CF21E0089709F020E0C6
:104DD0008091E8008E778093E800CECF2111CFCF6D
:104DE0000AC08091B802882361F0853061F080911B
:104DF000E80083FD0AC08091E80082FFF2CF80E0E6
:104E0000089582E0089583E0089581E00895209157
:104E1000BF023091C0022617370748F061157105AF
:104E200039F42091E8002E772093E80001C0B90101
:104E3000FC0120E06115710591F18091B802882391
:104E400009F440C0853009F43FC08091E80083FD3B
:104E50003DC08091E80082FD2FC08091E80080FF76
:104E6000E9CF2091F3008091F20090E0922B611540
:104E7000710559F08830910540F424912093F10098
:104E80003196615071090196F2CF21E0089709F03F
:104E900020E08091E8008E778093E800CBCF21114D
:104EA000CCCF0AC08091B802882361F0853061F0D0
:104EB0008091E80083FD0AC08091E80082FFF2CF74
:104EC00080E0089582E0089583E0089581E00895E8
:104ED000982F973068F59093E900981739F0709102
:104EE000EC002091ED005091F00003C0242F762FAC
:104EF00050E021FD02C09F5FECCF3091EB003E7F80
:104F00003093EB003091ED003D7F3093ED00309118
:104F1000EB0031603093EB007093EC002093ED00D8
:104F20005093F0002091EE0027FDE5CF80E008953A
:104F30008F708093E90081E008958091B90287FF26
:104F400011C08091E80082FD05C08091B8028111F6
:104F5000F8CF11C08091E8008B770BC08091B80228
:104F6000882349F08091E80080FFF8CF8091E80025
:104F70008E778093E80008952091E4003091E50059
:104F800095E64091EC00842F817040FF23C0809112
:104F9000E80080FD1DC08091B802882399F085301B
:104FA00099F08091EB0085FD11C04091E400509193
:104FB000E5002417350729F3915011F09A01E1CF4C
:104FC00084E0089582E0089583E0089581E00895E3
:104FD00080E008954091E80042FFDDCF08950E94EF
:104FE0005D280E946528E0EEF0E08081816080838A
:104FF000E8EDF0E080818F77808319BCA7EDB0E009
:105000008C918E7F8C9380818F7E80831092B702EB
:1050100008950F931F93CF93DF930E945D280E9402
:105020006528C8EDD0E088818F7788838881806883
:10503000888388818F7D888319BC1092B802109272
:10504000B4021092B6021092B50200EE10E0F80120
:1050500080818B7F808388818160888342E060E0EB
:1050600080E00E946827E1EEF0E080818E7F8083FF
:10507000E2EEF0E0808181608083808188608083BF
:10508000F80180818E7F8083888180618883DF91B1
:10509000CF911F910F910895E8EDF0E080818F7E10
:1050A0008083E7EDF0E080818160808384E082BFCF
:1050B00081E08093B7020C940928E8EDF0E080814C
:1050C0008E7F80831092E20008951092DA00109291
:1050D000E10008951F920F920FB60F9211242F93A3
:1050E0003F934F935F936F937F938F939F93AF9370
:1050F000BF93EF93FF938091E10082FF0BC08091FB
:10510000E20082FF07C08091E1008B7F8093E10085
:105110000E94FB238091DA0080FF1FC08091D8009D
:1051200080FF1BC08091DA008E7F8093DA0080912F
:10513000D90080FF0DC080E189BD82E189BD09B43D
:1051400000FEFDCF81E08093B8020E94D42305C009
:1051500019BC1092B8020E94E6238091E10080FF02
:1051600019C08091E20080FF15C08091E2008E7F1F
:105170008093E2008091E20080618093E200809160
:10518000D80080628093D80019BC85E08093B80273
:105190000E94F1238091E10084FF30C08091E20001
:1051A00084FF2CC080E189BD82E189BD09B400FE85
:1051B000FDCF8091D8008F7D8093D8008091E10051
:1051C0008F7E8093E1008091E2008F7E8093E200E9
:1051D0008091E20081608093E2008091B402882394
:1051E00011F084E007C08091E30087FD02C081E0F8
:1051F00001C083E08093B8020E94F5238091E10012
:1052000083FF29C08091E20083FF25C08091E100E7
:10521000877F8093E10082E08093B8021092B4020D
:105220008091E1008E7F8093E1008091E2008E7F8B
:105230008093E2008091E20080618093E20042E08E
:1052400060E080E00E9468278091F0008860809391
:10525000F0000E94ED23FF91EF91BF91AF919F91DC
:105260008F917F916F915F914F913F912F910F900F
:105270000FBE0F901F9018951F920F920FB60F92AE
:1052800011242F933F934F935F936F937F938F934B
:105290009F93AF93BF93CF93DF93EF93FF93C0910F
:1052A000E900CF708091EC00D82FD17080FDD0E85C
:1052B0001092E9008091F000877F8093F00078944D
:1052C0000E9480291092E9008091F000886080930C
:1052D000F000CD2BCF70C093E900FF91EF91DF91EB
:1052E000CF91BF91AF919F918F917F916F915F917E
:1052F0004F913F912F910F900FBE0F901F901895D7
:105300001F93CF93DF93CDB7DEB7AA970FB6F8946C
:10531000DEBF0FBECDBFE9EBF2E08091F1008193DB
:1053200022E0E13CF207C9F70E9455248091E80091
:1053300083FF2EC18091B9029091BA02492F50E0AB
:105340004A30510508F024C1FA01ED57FF4F0C9483
:105350001B2B803821F0823809F01AC108C08091D7
:10536000B5029091B602992389F082600FC08091B6
:10537000BD028F70873008F00BC18093E9008091E7
:10538000EB0085FB882780F91092E9009091E800F6
:10539000977F9093E8008093F1001092F100D1C0C4
:1053A000282F2D7F09F0F4C0882319F0823061F096
:1053B000EFC08091BB02813009F0EAC0933009F060
:1053C00080E08093B6022EC08091BB0281112AC07A
:1053D0008091BD028F702FEF280F263008F0D8C0C3
:1053E0008093E9002091EB0020FF1CC0933021F452
:1053F0008091EB00806214C09091EB0090619093DB
:10540000EB0021E030E0A90102C0440F551F8A954E
:10541000E2F74093EA001092EA008091EB00886086
:105420008093EB001092E9008091E800877F8093E1
:10543000E8000E949D27ACC08111AAC01091BB0258
:105440001F778091E3008078812B8093E300809127
:10545000E800877F8093E8000E949D278091E80004
:1054600080FFFCCF8091E30080688093E3001111FE
:1054700002C082E001C083E08093B80289C08058F6
:10548000823008F085C08091BB029091BC028C3DB7
:1054900053E0950779F583E08A838AE289834FB7E1
:1054A000F894DE01139620E03EE051E2E32FF0E0B5
:1054B00050935700E49120FF03C0E295EF703F5FE7
:1054C000EF708E2F90E0EA3010F0C79601C0C096C2
:1054D0008D939D932F5F243149F74FBF8091E80052
:1054E000877F8093E8006AE270E0CE0101960E9417
:1054F000A92616C06091BD027091BE02AE014F5F39
:105500005F4F0E949025BC01892B09F441C0909106
:10551000E800977F9093E80089819A810E9407278D
:105520008091E8008B778093E80032C0803881F565
:105530008091E800877F8093E8008091B402809397
:10554000F1008091E8008E7772CF811121C08091A7
:10555000BB029091BC0299270297D4F48091E80095
:10556000877F8093E8008091BB028093B4020E9401
:105570009D278091B402811106C08091E30087FDD0
:1055800002C081E001C084E08093B8020E943C2404
:105590008091E80083FF0AC08091E800877F8093B4
:1055A000E8008091EB0080628093EB00AA960FB632
:1055B000F894DEBF0FBECDBFDF91CF911F9108954C
:1055C000CF938091B8028823A1F0C091E900CF70F9
:1055D0009091EC00892F817090FD80E8C82B10928B
:1055E000E9008091E80083FD0E948029CF70C0937C
:1055F000E900CF910895991B79E004C0991F96178F
:1056000008F0961B881F7A95C9F78095089597FB37
:10561000072E16F4009407D077FD09D00E94282B9E
:1056200007FC05D03EF4909581959F4F08957095A5
:1056300061957F4F0895EE0FFF1F0590F491E02DC7
:105640000994692796276927782787277827089557
:10565000AA1BBB1B51E107C0AA1FBB1FA617B70798
:1056600010F0A61BB70B881F991F5A95A9F78095B4
:105670009095BC01CD010895F999FECF92BD81BDF1
:10568000F89A992780B50895A8E1B0E042E050E08B
:105690000C94702B262FF999FECF92BD81BDF89AFC
:1056A000019700B4021639F01FBA20BD0FB6F89466
:1056B000FA9AF99A0FBE08950396272F0E944B2B52
:1056C0000E944A2B252F0E944B2B242F0C944B2BEE
:1056D0000196272F0E944B2B0C944A2BDC01CB0107
:1056E000FC01F999FECF06C0F2BDE1BDF89A3196F2
:1056F00000B40D9241505040B8F70895F894FFCF90
:105700004001AB0100AC0103AC0123022808641E78
:10571000140A321EA02279234E234A23382301067D
:10572000040300010205333236946697E200E90073
:10573000EA00B500B600B700CD008301CC008A01B5
:10574000920194012102230224022502260227024B
:105750002A02B300B4006F007000818283E200E986
:1057600000EA00B500B600B700CD008301CC008A86
:10577000019201940121022302240225022602271C
:10578000022A02B300B4006F0070008182834022BD
:105790008122BD051A053C05F8047D049604B60473
:0257A000CF0434
:00000001FF
