:100000000C94CF020C9416030C9416030C94A127A5
:100010000C9416030C9416030C9416030C941603FC
:100020000C9416030C9416030C941E150C945A147D
:100030000C94D61D0C9416030C9416030C94160302
:100040000C9416030C9416030C9416030C941603CC
:100050000C9416030C94571C0C9416030C94160362
:100060000C9416030C9416030C9416030C941603AC
:100070000C9416030C9416030C9416030C9416039C
:100080000C9416030C9416030C9416030C9416038C
:100090000C9416030C9416030C9416030C9416037C
:1000A0000C9416030C9416030C9416034C074C077F
:1000B0007E077E07F0070C08DF09DF0953083109C6
:1000C00042094209711298123C1498123C14E4122D
:1000D00007133C14FD130C14F016F0160317031746
:1000E000F916031703170317F016F016FE16031779
:1000F0000317FE16084AD73B3BCE016E84BCBFFDFA
:10010000C12F3D6C74319ABD56833DDA3D00C77FE7
:1001100011BED9E4BB4C3E916BAAAABE0000008080
:100120003F05A84CCDB2D44EB93836A9020C50B90F
:10013000918688083CA6AAAA2ABE000000803F003B
:100140000A00253464000A004572726F723A206416
:100150006973636F6E6E6563742073706C6974206D
:1001600068616C660A0044454255473A20646973E9
:1001700061626C65642E0A0044454255473A206529
:100180006E61626C65642E0A005B735D000A002577
:10019000303862003A200025303258000A722F634E
:1001A0002030313233343536370A000A00253032F8
:1001B00058006B6579626F6172645F7365745F6C20
:1001C00065643A2000290A002575002F0025750076
:1001D0005D280025640020002564002000256400BF
:1001E00020002564007C0025303258006D6F757347
:1001F000656B6579205B62746E7C7820792076204F
:10020000685D287265702F61636C293A205B000677
:1002100031FF0974A1010975150026FF00952075AD
:100220000881020976150026FF00952075089102C5
:10023000C005010902A10185020901A100050919F2
:10024000012908150025019508750181020501099C
:100250003009311581257F95027508810609381509
:1002600081257F950175088106050C0A38021581E4
:10027000257F950175088106C0C005010980A1018F
:10028000850319012AB700150126B70095017510DD
:100290008100C0050C0901A101850419012AA002F1
:1002A000150126A002950175108100C005010906FF
:1002B000A101050719E029E7150025019508750139
:1002C00081029501750881010507190029FF1500B4
:1002D00026FF009506750881000508190129059576
:1002E0000575019102950175039101C05B435D00A5
:1002F0005B445D005B535D005B575D005B525D00DE
:1003000009025B00030100A0FA09040000010301D7
:1003100001000921110100012240000705810308A5
:10032000000A090401000103000000092111010075
:1003300001227B000705820320000A090402000253
:10034000030000000921110100012222000705839A
:100350000320000107050303200001120100020031
:10036000000008EDFE716B01000102000122034351
:10037000006F0072006E0065002000450043002001
:10038000005200650076006900760061006C000094
:1003900000100343006900700075006C006F00746A
:1003A000000000040309042B0014001A00080015C3
:1003B000001700E300E00004001600070009000A2F
:1003C000000151E1001D001B000600190005002C72
:1003D000002A00130012000C0018001C00AB5D3452
:1003E0000033000F000E000D000B000251E5003835
:1003F000003700360010001100280029001E001FE1
:1004000000200021002200E300E0000000000000C6
:1004100000000000000151E10000000000000000A9
:100420000000002C002A00270026002500240023BD
:1004300000AB5D000000004F005200510050000270
:10044000510000000000000000000000002800290A
:10045000001E021F02200221022202E300E000002F
:100460000000000000000000000151E10000000059
:10047000000000000000002C002A002702260225B0
:100480000224022302AB5D3500310230022F022E1E
:10049000002D0002513502310030002F002E022DB8
:1004A000022800005CAC5D0000000000000000E3DA
:1004B00000C35CC65CC85CCA5C000000000151C49B
:1004C0005CC75CC95CCB5C000000002C0000000035
:1004D000000000000000000000AB5D000000000014
:1004E00000000000000000025100000000000000B9
:1004F00000000000002800547261636B62616C6C44
:100500002052454144206932635F7374617475738E
:100510005F743A202564204C3A20256420523A200A
:1005200025642055703A20256420443A2025642013
:1005300053573A2025640A00547261636B62616C00
:100540006C2052474257206932635F73746174753F
:10055000735F743A2025640A004F6E6573686F7488
:100560003A206163746976653A2025640A000A00BE
:100570002530325820006B6579626F6172645F725A
:1005800065706F72743A20004661696C656420740E
:100590006F20657865637574652025730A001124E2
:1005A0001FBECFEFDAE0DEBFCDBF04B603FE27C02B
:1005B0008091E9029091EA02A091EB02B091EC02E5
:1005C0008730904BA740B04BD1F41092E9021092C3
:1005D000EA021092EB021092EC0214BE84B7877FFD
:1005E00084BF0FB6F894A8958091600088618093CD
:1005F0006000109260000FBEE0E0F8E3099511E0A2
:10060000A0E0B1E0E8E4FAE502C005900D92A83957
:10061000B107D9F722E0A8E9B1E001C01D92A93ED7
:10062000B207E1F70E94210E0C94222D0C940000D9
:10063000FF93EF93E0919801F0919901309709F0C1
:100640000995EF91FF910895FC018591803011F09B
:10065000EFDFFBCF0895FF27E0E230E247FF0CC059
:10066000419597FF09C0EDE2609570958095909552
:10067000611D711D811D911D27FF02C0219530E371
:1006800050E2AA27660F771F881F991FAA1FA41779
:1006900010F0A41B63955A95A9F7AA3008F0A95F3A
:1006A000A05DAF93F395611571058105910541F743
:1006B000ED3211F4EF93F395F21718F43F93F3959D
:1006C000FBCF8F91B5DFFA95E1F70895E991F991A4
:1006D0008591803021F0853219F0AADFF9CF089595
:1006E00020E0E89455915532C1F3503311F46894E9
:1006F00055915A3348F4505390F3220F022E220F93
:10070000220F200D250FF4CF0EF421958991999198
:10071000533619F3533729F1533559F1BC01882762
:100720009927E8945C3621F48991999168945591C0
:10073000543639F446EF7EF077FF0DC08FEF9FEF10
:100740000AC055374AE039F0583540E121F05236B9
:1007500042E009F00895FF93EF937DDFEF91FF9161
:10076000B7CFFF93EF93FC0181918030B9F360DF45
:10077000FBCFFF93EF9368DFF1CFDF93CF93CDB73C
:10078000DEB72596A3DFCF91DF9108951F93CF9316
:10079000DF93CDB7DEB767970FB6F894DEBF0FBE15
:1007A000CDBF4B8B5C8B6D8B7E8B8F8B61111092D1
:1007B000CE0286E09E01235F3F4FD901E82F1D92B4
:1007C000EA95E9F795E0FE017396D90101900D9243
:1007D0009A95E1F79C894E895F897B897D879E8701
:1007E0006F87598B488BF901DE01179601900D92A6
:1007F0008A95E1F7CE0107960E94071781113EC046
:1008000086E0FE013796DE01119601900D928A95E1
:10081000E1F7FF81E8856A857B856115710531F017
:10082000EF3F31F481E0FF3F19F403C081E001C0E4
:1008300080E080FD23C020919A0230E0C90101963A
:10084000877099274091CB0250E08417950779F182
:10085000F983EA837D836C8396E0929FD001939F16
:10086000B00D1124A556BD4FFE01319601900D9299
:100870009A95E1F780939A020E940E2516E08091E6
:10088000CB0290919A028917F9F0189FC0011124A8
:1008900085569D4F0E9407178823B1F08091CB02A7
:1008A00090E00196877099278093CB02E8CF0E9451
:1008B0006D1910929A021092CB02E4E9F2E086E000
:1008C000DF011D928A95E9F767960FB6F894DEBFAF
:1008D0000FBECDBFDF91CF911F9108958F929F9250
:1008E000AF92BF92CF92DF92EF92FF920F931F933E
:1008F000CF93DF93CDB7DEB767970FB6F894DEBF1F
:100900000FBECDBFFC010081D18083819481892BF2
:1009100039F01FEFD11206C091E00F3F19F403C068
:1009200091E001C090E090FD89C57F0185E0DE0186
:10093000539601900D928A95E1F7F70122818B89F8
:100940009C89222349F00E946616182F682F8B89F4
:100950009C890E94D41803C00E94A818182F2AE26C
:10096000129FF001112437E0D39EE00DF11D1124F8
:10097000E00FF11DEE0FFF1FE955FC4F059114919B
:100980000B3A8DE5180761F4F7018281882309F499
:100990004EC090915A0281E0892780935A024CC040
:1009A000043FFCE51F0741F190F4093D3CE51307C6
:1009B000E9F00A3D8CE5180789F1083D9CE5190727
:1009C000B1F506E221EE41EE68ED7CE52CC0063F74
:1009D000ECE51E07E9F0B0F0073F2CE5120739F50A
:1009E00007E225EE46EE67EF7CE51DC007E225EE47
:1009F00045EE69ED7CE517C006E221EE40EE64EFBE
:100A00007CE511C007E225EE44EE65EF7CE50BC006
:100A100006E221EE42EE66EF7CE505C008E221E049
:100A200045EE6AED7CE5C7010E94701EB6C1F70174
:100A30008281882309F445C110927B020430FDE5D0
:100A40001F0758F40B3F2CE5120760F4C8018250D1
:100A50009C45449708F01FC105C002363DE51307C9
:100A600009F019C10E94CF239093080280930702D6
:100A700000318CE5180709F4CAC008F041C00830FD
:100A8000ECE51E0709F4A4C0F0F404302CE51207CD
:100A900009F48CC068F402308CE5180709F482C0B0
:100AA00003301C4509F0E7C0809107028260E1C075
:100AB0000630ECE51E0709F483C008F085C080917C
:100AC00007028860D6C00C302CE5120709F490C0EC
:100AD00068F40A308CE5180709F47EC008F084C079
:100AE0000E946D19809107028068C3C00E30ECE54A
:100AF0001E0709F481C008F086C08091070294C0E7
:100B00000D3F2CE5120709F47BC038F504318CE564
:100B1000180709F49AC058F40231ECE51E0709F4ED
:100B20007AC008F07EC0809107028F7BA2C00B3F85
:100B30002CE51207F1F108F03FC005311C4509F022
:100B40009AC08091070282FB222720F991E0922728
:100B500090FB82F990FB83F98CC001309DE5190769
:100B600009F467C050F4809108020F3FFCE51F07AD
:100B7000C1F108F05BC08D7F65C003303DE5130710
:100B800009F471C008F46DC002361D4509F073C048
:100B90008091070284FB222720F991E0922790FBA5
:100BA00084F967C080910702816063C08091070269
:100BB00016C08091080216C080910802826042C06F
:100BC00080910702806155C080910702806251C008
:100BD0008091070280644DC0809107028860846024
:100BE00048C0826081602EC0809107028E7F41C024
:100BF000809107028D7F3DC080910702877F39C0B9
:100C00008091080214C0809107028F7E32C08091CB
:100C100007028F7D2EC00E946D19809107028F7789
:100C200028C080910702877F8B7F23C08D7F8E7FB6
:100C300009C080910802982F909591708E7F892B22
:100C400090FB81F98093080216C00E946D19809173
:100C5000070287FB222720F991E0922790FB87F972
:100C600008C061E001C060E08EE090E00E9442298F
:100C700002C080930702609107021091080284E08D
:100C800090E00E944229612F82E290E00E94422976
:100C90000E946D1982C006312CE5120719F580916A
:100CA000CF028A7A91E009F490E09093F8018823CA
:100CB00011F065E301C069E28BE892E00E940C1E2E
:100CC0000EC006311C4509F08BC08091F8018823C5
:100CD00009F4B2C365E38BE892E00E94FF1D0E9415
:100CE00058245BC00F3DECE51E0709F447C040F4F3
:100CF00001152CE5120799F001301C4561F170C017
:100D00000C358DE5180709F444C00D359DE519072C
:100D1000C1F10B351D4509F063C081E03BC00E9465
:100D20006D19FFEF04E31CE0F15000401040E1F7C3
:100D300000C0000087E797E79093010880930008C0
:100D40009AE088E10FB6F894A895809360000FBEF2
:100D500090936000FFCF80917802982F90959170CA
:100D600090FB80F980937802992319F088E791E04D
:100D700002C086E691E00E9424030FC00E94E02397
:100D80000CC08091080282FB882780F991E08927B6
:100D900001C080E00E94DF2423C08091CC028770D4
:100DA00009F44CC3F7018281882309F447C3809179
:100DB000080282FD43C382E067960FB6F894DEBF57
:100DC0000FBECDBFDF91CF911F910F91FF90EF909C
:100DD000DF90CF90BF90AF909F908F900C94C224E3
:100DE000F70182810081D180882359F0802F9D2DC9
:100DF0000E946616182F682F802F9D2D0E94D418F0
:100E000005C0802F9D2D0E94A818182F2AE2129F3E
:100E1000F001112437E0D39EE00DF11D1124E00F05
:100E2000F11DEE0FFF1FE955FC4F859194910E9433
:100E300035228C01982EF701D280A580A2943FE044
:100E4000A3228091CC028770B9F0DD20A9F0812F18
:100E5000807F803421F080E2800F883068F08091BC
:100E6000080282FD09C082E00E94C2248091CC0267
:100E70008770CC24C3948111C12CB12EB2949FE011
:100E8000B9228B2D90E08C30910508F098C2FC01BE
:100E9000EA5AFF4F0C94062D812F807F1F70882304
:100EA00011F01295107FDD20B9F0112309F474C2FE
:100EB00080E2800F883010F0911006C08091CF0240
:100EC000182B1093CF0205C08091CE02182B1093DF
:100ED000CE020E94582460C2802F0E9489191123DB
:100EE00009F46DC2005E083078F1992069F110951F
:100EF0008091CE0218231093CE0229C0812F807FCB
:100F00001F70803211F01295107F992021F0F1E0CE
:100F10009F16D9F149C08091080282FF1BC0DD20D5
:100F200069F0112339F08091CF02182B1093CF0272
:100F30000E94582480E00E94E91941C280E00E948A
:100F40008919112309F43BC2812F0E9451240E9468
:100F5000582435C2DD2081F08091D002AA2051F0C2
:100F600001E0A01207C0182B181709F428C210932B
:100F7000D00225C2812B10C0AA2021F021E0A216A8
:100F800009F41DC20E944B2427C0DD2041F035E04A
:100F90003A1508F414C2812F0E947F1910C284E010
:100FA0008A1508F40CC218C0DD2049F0AA2099F374
:100FB000F701858180FFF0C18F708583ECCFAA2077
:100FC00059F0093309F0F8C1FFEF17EE23E0F150B3
:100FD00010402040E1F7EEC1812F0E947819EFC147
:100FE000812F86958695837019F0813059F0E7C17D
:100FF000DD2019F0C801937002C080E090E00E94EB
:101000003C1EE3C1DD2019F0C801937002C080E0EE
:1010100090E00E94261ED9C1802FDD2019F00E9489
:10102000260D02C00E94AF0C8FE0800F8830C0F503
:10103000082F81E090E09C0101C0220F0A95EAF799
:1010400086E0E7E6F2E0DE01179601900D928A95C0
:10105000E1F786E0FE013796DE011D9601900D92C4
:101060008A95E1F79885DD2019F0892F822B03C03E
:10107000822F809589238E8796E0FE013D96DE01C2
:10108000119601900D929A95E1F78A8386E0FE0110
:101090003196A7E6B2E001900D928A95E1F795C1ED
:1010A0000E94810D92C1812F837009F069C0D11017
:1010B0008AC1902F929596959770990F990F802FCE
:1010C0008F70882E912CA12CB12C092E04C0880C75
:1010D000991CAA1CBB1C0A94D2F704FF12C04FE053
:1010E00050E060E070E004C0440F551F661F771F9A
:1010F0009A95D2F7DB01CA0180959095A095B0959D
:1011000003C080E090E0DC0116951695412F4370F6
:10111000423019F1C8F40091D1021091D20220910D
:10112000D3023091D402413059F088299929AA2953
:10113000BB29BC01CD0160237123822393230AC004
:10114000802A912AA22AB32ABC01CD0168297929D3
:101150008A299B290E94631936C188299929AA29BD
:10116000BB290091D1021091D2022091D30230917B
:10117000D402BC01CD016027712782279327EACFD3
:10118000DD2019F0812F817001C08695882309F434
:101190001AC1902F929596959770990F990F802F5D
:1011A0008F70882E912CA12CB12C092E04C0880C94
:1011B000991CAA1CBB1C0A94D2F704FF12C04FE072
:1011C00050E060E070E004C0440F551F661F771FB9
:1011D0009A95D2F7DB01CA0180959095A095B095BC
:1011E00003C080E090E0DC0116951695412F437016
:1011F0004230D9F068F50091030210910402209169
:10120000050230910602413059F088299929AA290E
:10121000BB29BC01CD0160237123822393231EC00F
:10122000802A912AA22AB32A13C088299929AA2997
:10123000BB29009103021091040220910502309114
:101240000602BC01CD01602771278227932706C0C3
:10125000BC01CD01682979298A299B290E94FF18A0
:10126000B2C01F70DD2039F0812F0E944219802FFB
:101270000E947F19A8C0802F0E947819812F0E9498
:101280001D19A1C0802F32EF931609F443C0391500
:1012900038F090EF991659F0E1EF9E16B1F177C052
:1012A000F3EF9F16F1F124EF921659F170C0DD2093
:1012B00019F134E03A1508F482C01F7181E090E022
:1012C000A0E0B0E0AC01BD0104C0440F551F661F93
:1012D000771F1A95D2F78091030290910402A09192
:1012E0000502B09106028A019B01082719272A27C7
:1012F0003B27C901B80129C025E02A1508F45FC0C1
:10130000DCCF8091080282FF23C0DD2029F0812FED
:101310008F7130C0DD20D9F3812F8F710E941D198C
:101320004EC0DD2079F01F7181E090E0A0E0B0E0D8
:10133000BC01CD0104C0660F771F881F991F1A9545
:10134000D2F703C060E070E0CB010E94FF1837C005
:10135000DD2099F01F71812F0E94421980910802AF
:1013600082FD07C038E0139FC00111248360809381
:10137000CC02812F0E94421922C081E00E94C22427
:1013800081E08A15E0F482E00E94C22418C0DD20CA
:1013900029F0AA2009F4BBCF802FCDCDAA2009F4D3
:1013A000BBCF893349F49FEFE7EEF3E09150E04083
:1013B000F040E1F700C00000802F0E94891988EFFB
:1013C0008B0D843010F40E94601ECC20A9F0809117
:1013D000CC0280FD11C0F701128285958595859517
:1013E0000E944219C7010E946E048091CC0285952B
:1013F000859585950E941D1985E0F701DE011D96F2
:1014000001900D928A95E1F78D859E850E94A8181E
:101410009E850AE2809FF001112417E0919FE00D64
:10142000F11D11248D85E80FF11DEE0FFF1FE95509
:10143000FC4F8591949102C069E24DCC67960FB63E
:10144000F894DEBF0FBECDBFDF91CF911F910F91FA
:10145000FF90EF90DF90CF90BF90AF909F908F90D4
:1014600008958295982F937344E0949F90011124DE
:101470008C7C86958695282B822F8575880F2A7AF5
:101480002695822B08952F923F924F925F926F92F2
:101490007F928F929F92AF92BF92CF92DF92EF9204
:1014A000FF920F931F93CF93DF93CDB7DEB72797AC
:1014B0000FB6F894DEBF0FBECDBF0AE911E069E4B4
:1014C000662E61E0762E1D830C83512C80E090E027
:1014D00061E070E0219A769AD3012D913D0120FFC1
:1014E00002C02B9A01C02B9821FF02C02A9A01C08A
:1014F0002A9822FF02C02E9A01C02E987698B0EA50
:10150000BA95F1F75B01082E02C0AA0CBB1C0A9425
:10151000E2F73A2C4A2C4094E9E0F2E050E5852EBF
:1015200051E0952E20E030E0219A45E04A95F1F710
:10153000000040E5E42E41E0F42EB3E5EB16B1E007
:10154000FB06D9F0D701DD907D01AD2DA295AF70DE
:101550004A2F50E0DA0192962C90BD2DBF70DB2E01
:10156000DB0102C0AA0FBB1FDA94E2F76D01C09441
:10157000C220DA019296CC92E0CFF8942198299873
:10158000D401FD904D01AF2DA295AF704A2F50E0D0
:10159000DA019296DC90BF2DBF70FB2EDB0102C0FA
:1015A000AA0FBB1FFA94E2F77D01ED28DA019296AB
:1015B000EC92B5E1BA95F1F7000046E840937A0065
:1015C00050E850937B00A0910001A660A0937C009E
:1015D000A0917A00A064A0937A00A0917A00A6FD61
:1015E000FCCFA0917800F0907900B0E0AD015F29C8
:1015F0005F834E83F0907A005F2D5F7750937A007F
:101600007894EC80FD80E20EF31E4E815F81D7015D
:101610004D935C93D080ED2CF12CEA20FB20EF2839
:1016200049F0E090FD01F090FE014E155F0578F461
:10163000D4200AC0E090FF01F0900002AE81BF818B
:10164000EA16FB0620F4D328D082A1E001C0A0E076
:101650005A2A3196225F3F4F2A32310509F064CF72
:101660000196EC81FD813296FD83EC8387309105F4
:1016700009F030CF219A8091EE019091EF019C0109
:101680002F5F3F4F8C32914029F03093EF01209330
:10169000EE0135C01092EF011092EE0182E4C82EE7
:1016A00081E0D82E90E4A92E91E0B92E41E0043CCF
:1016B000140709F1E12CF12CF801EE0DFF1D8181D9
:1016C0008F9380818F93DF92CF920E94BD0322E09F
:1016D000E20EF11C0F900F900F900F903EE0E3167A
:1016E000F10451F7BF92AF920E94BD03025F1F4FFA
:1016F0000F900F90DBCF86E491E00E9424035110FD
:101700006EC00E949621882311F119821A821B82D1
:101710000091010210E0015F1D4F26EA30E241E333
:1017200051E0BE016F5F7F4FC8010E9448218823AE
:1017300009F482C029EB31E24EE351E0BE016F5F54
:101740007F4FC8010E944821811195C075C0E0916A
:101750000202F0E0E15FFD4FF89483E0AEEDB2E00D
:1017600001900D928A95E1F78EED92E00E94491169
:101770008093DD027894F894C090E102D090E20268
:10178000E090E302F090E4028091F0019091F10189
:10179000A091F201B091F301C816D906EA06FB0642
:1017A000D1F0C092F001D092F101E092F201F092FA
:1017B000F3010E94962181110EC00E948C1CC61A52
:1017C000D70AE80AF90AC092F901D092FA01E09228
:1017D000FB01F092FC01789400E010E002C001E00F
:1017E00010E0F090020200FF09C081E08093F70151
:1017F0000E94981C9093F6018093F5018091F70167
:10180000882309F450C08091F5019091F6010E945F
:101810007D1C059708F447C0EF2DF0E0E15FFD4F18
:1018200080910902808380910A02818380910B025A
:1018300082831092F70137C08091F4018F5F80930B
:10184000F4018531B0F08091780280FF08C088E40F
:1018500091E09F938F930E94BD030F900F90E091B2
:101860000102F0E0E15FFD4F10821182128201E07F
:10187000B8CF00E0B6CF1092F401E0910102F0E0A1
:10188000E15FFD4FDE0111969E012C5F3F4F00E0AE
:101890008D919081981711F0808301E031962A177D
:1018A0003B07B1F79ECF802F27960FB6F894DEBF87
:1018B0000FBECDBFDF91CF911F910F91FF90EF90A1
:1018C000DF90CF90BF90AF909F908F907F906F9060
:1018D0005F904F903F902F90089580911D0280FD62
:1018E00016C081FD16C082FD18C080911C0288239D
:1018F00091F0883290F428E0829FC001112468E2C0
:1019000070E00E94F22C862F672B29F007C082E03E
:10191000089584E0089581E0089588E00895809115
:101920001D0280FD14C081FD14C082FD16C080918F
:101930001E02882381F0843180F422E3829FC0015B
:10194000112464E170E00E94F22C862F08958CE04F
:10195000089589E1089585E0089582E308958D3E14
:1019600039F490915E0297FF35C010925E0259C023
:101970008E3E29F490915E021916BCF32BC0909113
:101980005D028F3E29F497FF25C010925D0249C089
:10199000803F19F41916CCF31DC090915F02893F66
:1019A00029F41916BCF410925F023BC08A3F19F467
:1019B00097FF10C0F8CF8B3F39F49091600297FFEA
:1019C00009C0109260022DC08C3F21F490916002FA
:1019D0001916BCF39FE0980F983080F421E030E0B6
:1019E000A90102C0440F551F9A95E2F7CA018095DC
:1019F00090915C02892380935C0213C08D3F21F497
:101A000080911D028E7F0BC08E3F21F480911D02BC
:101A10008D7F05C08F3F29F480911D028B7F8093BD
:101A20001D0280915D02811106C080915E028111CC
:101A300002C010921E0280915F02811106C0809147
:101A40006002811102C010921C0208958D3E21F4A3
:101A50000E948F0C819504C08E3E29F40E948F0C49
:101A600080935E0208958F3E21F40E948F0C819531
:101A700004C0803F29F40E948F0C80935D0208957A
:101A8000893F19F40E946D0C05C08A3F31F40E9411
:101A90006D0C819580935F0208958B3F21F40E9425
:101AA0006D0C819504C08C3F29F40E946D0C8093CD
:101AB000600208959FE0980F983078F421E030E0BC
:101AC000A90102C0440F551F9A95E2F7CA019091EF
:101AD0005C02892B80935C0208958D3F21F48091F4
:101AE0001D0281600BC08E3F21F480911D02826037
:101AF00005C08F3F29F480911D02846080931D02F0
:101B000008958091780283FF7EC08CEE91E00E9460
:101B1000240380915C021F928F9387EE91E09F9344
:101B20008F930E94BD0385EE91E00E942403809173
:101B30005D02282F082E000C330B3F938F9382EE0B
:101B400091E09F938F930E94BD0380EE91E00E94ED
:101B5000240380915E02282F082E000C330B3F9344
:101B60008F938DED91E09F938F930E94BD038BED3A
:101B700091E00E94240380915F02282F082E000C20
:101B8000330B3F938F9388ED91E09F938F930E9447
:101B9000BD0386ED91E00E94240380916002282F0E
:101BA000082E000C330B3F938F9383ED91E09F93AE
:101BB0008F930E94BD0380ED91E00E9424038091E9
:101BC0001E021F928F938DEC91E09F938F930E9442
:101BD000BD038BEC91E00E94240380911D021F92B3
:101BE0008F9388EC91E09F938F930E94BD0385ECC7
:101BF00091E00E9424038DB79EB74C960FB6F894DF
:101C00009EBF0FBE8DBF0E94981C20915D022111C6
:101C100004C020915E02222321F09093220280933F
:101C2000210220915F02211104C020916002222331
:101C300021F09093200280931F028BE592E00C9498
:101C4000521ECF93DF93CDB7DEB763970FB6F894EC
:101C5000DEBF0FBECDBF84B7877F84BF0FB6F894B9
:101C6000A895809160008861809360001092600068
:101C70000FBE90E080E80FB6F894809361009093D7
:101C800061000FBE85B7806885BF85B7806885BF56
:101C900081E99AE190939901809398010E949E14A2
:101CA0000E94BD148091E20084608093E2007894E9
:101CB000809132028823A1F01091E9001F70909169
:101CC000EC00892F817090FD80E8182B1092E900BC
:101CD0008091E80083FD0E948C111F701093E90031
:101CE00082E084BD93E095BD9AEF97BD80936E002E
:101CF0001092F9011092FA011092FB011092FC016E
:101D00000E942B2280912D0190912E01A0912F01F4
:101D1000B09130018093FD019093FE01A093FF01EB
:101D2000B09300020E942B22A0E5B1E041E050E018
:101D300011E0A335B107B1F08D91E82FE295EF7076
:101D4000F0E021A18F708A0102C0000F111F8A9557
:101D5000E2F7C801922F982B91A392A18095892335
:101D600082A3E6CFA3E5B1E026E531E041E050E013
:101D70002A173B07B1F08D91E82FE295EF70F0E064
:101D800061A18F708A0102C0000F111F8A95E2F7CE
:101D9000C801962F982B91A392A18095892382A3A5
:101DA000E7CF249A2C9A849A8C9A6E9A76982998DE
:101DB000219A80E4809300010E949621811102C043
:101DC0000E945E2780910101811102C093E001C051
:101DD00090E09093020283E0891B809301020E94AD
:101DE0009621811102C00E945E27E9E0F2E0AFE097
:101DF000B2E011921D9212E0EF30F107D1F780E0CE
:101E000090E00E943C29893E9E4F11F00E94E02301
:101E100082E090E00E943429809378020E94CF23D0
:101E2000909308028093070283E090E00E94342997
:101E3000682F70E080E090E00E9463190E942D1FDF
:101E400020E044E661E08FE70E94FB1E82E091E023
:101E500090937F0280937E0238E1232E312C47E954
:101E6000442E41E0542E5FE8652E51E0752E80919E
:101E70003202853009F048C089E891E00E942403CD
:101E800000E112E180913202853009F039C0809181
:101E90003202843021F10E94351F1092820230E418
:101EA0000FB6F894A895209260000FBE30936000A2
:101EB00083B7817F846083BF83B7816083BF789459
:101EC000889583B78E7F83BF0FB6F894A8958091CD
:101ED0006000886180936000109260000FBE809166
:101EE0003102882309F4CECF0E94430AEFE0F2E0EA
:101EF00081918111AEC142E0E531F407C9F7C2CF4B
:101F00000E946D190E94601E0E94430A81110E9466
:101F10008C1C96E1A92E92E0B92E2FE0C22E22E071
:101F2000D22E00E010E00B8BF60121916F012A8B7D
:101F3000F50181915F012827298B211116C00F5FC0
:101F40001F4F0630110579F78FEF8C878D871E861E
:101F50000E94981C8160782F988B8F874C855D85B7
:101F60006E8588890E94C60360C08091780281FDD9
:101F700004C0E12CFF24F39436C08CE991E00E9468
:101F800024038FE0882E82E0982EE12CF12CFF9222
:101F9000EF925F924F920E94BD0384E991E00E940C
:101FA0002403F40181914F010E94310A1F928F9303
:101FB0007F926F920E94BD038DE891E00E942403FE
:101FC000FFEFEF1AFF0A0FB6F894DEBF0FBECDBFCA
:101FD00036E0E316F104D9F6CCCFE394FF0C67E0CA
:101FE000E61609F4ACCF89898F21B9F30E949621B6
:101FF0008823A9F0EF824B8948879A899F2181E045
:1020000009F480E089870E94981C8160782F9B8763
:102010008A874F81588569858B850E94C603F801A0
:10202000EA5EFD4F8081F826F08286E0EBE5F2E083
:10203000DE01119601900D928A95E1F7E0905D0224
:10204000F0905E0200915F021091600210925D02BA
:1020500010925E0210925F0210926002E11003C0C3
:10206000FF2009F451C080912102909122020E9428
:102070007D1C9C0190911E02992309F400C1233319
:10208000310508F441C09F3F19F09F5F90931E02F5
:10209000EE2061F00E948F0C1E1414F09FEF01C01F
:1020A00091E0899F802D112480935D02FF2061F0D3
:1020B0000E948F0C1F1414F09FEF01C091E0899FC4
:1020C000802D112480935E0230915D023323E1F074
:1020D00020915E022223C1F075EB3703C001112469
:1020E000992319F090935D0203C081E080935D0213
:1020F00035EB2303C0011124992319F090935E025C
:1021000003C081E080935E02011103C0112309F432
:1021100051C080911F02909120020E947D1C9C0161
:1021200090911C02992309F4AFC02536310508F4BB
:1021300041C09F3F19F09F5F90931C02002361F004
:102140000E946D0C101614F09FEF01C091E0899F62
:10215000802D112480935F02112361F00E946D0C89
:10216000111614F09FEF01C091E0899F802D11247A
:102170008093600230915F023323E1F0209160028E
:102180002223C1F045EB3403C0011124992319F037
:1021900090935F0203C081E080935F0265EB2603AA
:1021A000C0011124992319F09093600203C081E0CB
:1021B0008093600280915D0281110BC080915E026C
:1021C000811107C080915F02811103C0809160027C
:1021D00081110E94810DEB82FC820D831E8386E0BB
:1021E000FE013196ABE5B2E001900D928A95E1F7E0
:1021F0000E94351F0E94601E90911502891709F4F4
:1022000036CE0E94601E182F8093150280917802AE
:1022100082FF2DCE80FF04C082EB91E00E94240358
:102220008091780280FF0CC01F921F938DEA91E08D
:102230009F938F930E94BD030F900F900F900F906C
:102240008091780280FF13CE8BEA91E00E942403F4
:102250000ECE09BD19BD09B400FEFDCF8091D80096
:102260008F7D8093D8008091E00082608093E000B1
:102270008091E00081FDFCCF0E946D1903CE2D32CC
:10228000314008F002CF40CF2D32314008F053CF1B
:1022900091CFFC01AC014D5F5F4F8FEF91E3219136
:1022A000822728E030E087FF03C0880F892701C01C
:1022B000880F21503109B9F7E417F50781F7089520
:1022C000EF92FF920F931F93CF93DF937C018B01CB
:1022D0000E94721B811119C0E70101151105A1F0BF
:1022E0008091E80085FD0AC08091E8008E77809398
:1022F000E8000E94721B882381F307C089918093B4
:10230000F10001501109E9CF80E0DF91CF911F91D9
:102310000F91FF90EF9008951F93CF93DF93CDB768
:10232000DEB7AA970FB6F894DEBF0FBECDBFE4E3C9
:10233000F2E08091F100819342E0EC33F407C9F7B9
:1023400080913502833009F461C030F4813071F03E
:10235000823009F49BC0B2C08A3009F487C08B3048
:1023600009F46CC0893009F0A9C020C08091340202
:10237000813A09F0A3C08091E800877F8093E8004C
:102380008091380290913902892B21F468E088E22B
:1023900092E003C060E080E090E070E00E94F91BF2
:1023A0008091E8008B778093E80088C080913402A8
:1023B000813209F083C080913802909139020297EE
:1023C00008F07CC08091E800877F8093E8008091CE
:1023D000E80082FD05C0809132028111F8CF6EC005
:1023E0002091F3008091F20090E0922B029731F45B
:1023F0008091F100813011F0863021F48091F1005C
:10240000809327028091E8008B7754C0809134023A
:10241000813A09F053C08091380290913902892B9A
:1024200009F04CC08091E800877F8093E80080919C
:10243000E80080FFFCCF80910E0137C0809134020C
:102440008132E1F58091380290913902892BB1F502
:102450008091E800877F8093E8000E94A51B80910F
:10246000360280930E010E946D1928C080913402BB
:10247000813221F58091E800877F8093E8000E94F7
:10248000A51B809137028093260218C080913402E8
:10249000813AA1F48091E800877F8093E8008091E1
:1024A000E80080FFFCCF809126028093F1008091AC
:1024B000E8008E778093E8000E94A51B8091E800D9
:1024C00083FFDAC18091340290913502492F50E0A8
:1024D0004A30510508F0D0C1FA01EE59FF4F0C9473
:1024E000062D803821F0823809F0C6C108C08091DD
:1024F000300290913102992389F082600FC080915F
:1025000038028F70873008F0B7C18093E90080915E
:10251000EB0085FB882780F91092E9009091E80094
:10252000977F9093E8008093F1001092F10070C1C2
:10253000282F2D7F09F0A0C1882319F0823061F087
:102540009BC180913602813009F096C1933009F029
:1025500080E0809331022EC08091360281112AC022
:10256000809138028F702FEF280F263008F084C139
:102570008093E9002091EB0020FF1CC0933021F4F0
:102580008091EB00806214C09091EB009061909379
:10259000EB0021E030E0A90102C0440F551F8A95ED
:1025A000E2F74093EA001092EA008091EB00886025
:1025B0008093EB001092E9008091E800877F809380
:1025C000E8000E94A51B58C1811156C11091360226
:1025D0001F778091E3008078812B8093E3008091C6
:1025E000E800877F8093E8000E94A51B8091E800A7
:1025F00080FFFCCF8091E30080688093E30011119D
:1026000002C082E001C083E08093320235C180586D
:10261000823008F031C120913602309137022C3DD2
:1026200053E0350779F583E08A838AE289834FB7DF
:10263000F894DE01139620E03EE051E2E32FF0E053
:1026400050935700E49120FF03C0E295EF703F5F85
:10265000EF708E2F90E0EA3010F0C79601C0C09660
:102660008D939D932F5F243149F74FBF8091E800F0
:10267000877F8093E8006AE270E0CE0101960E94B5
:10268000F91BB5C08091380290913902432F55272C
:1026900043305105A9F068F44130510509F4FBC0FD
:1026A0004230510509F0E8C08BE590E0E0E0F3E04E
:1026B0004BC04132510529F14232510589F1DCC04C
:1026C000C901992781309105A1F058F0029709F0CE
:1026D000D3C0EDE6F3E0E4918E2F90E0EDE6F3E079
:1026E00030C0E3EAF3E0E4918E2F90E0E3EAF3E018
:1026F00028C0E1E9F3E0E4918E2F90E0E1E9F3E016
:1027000020C08330910508F0B7C0880F991FFC01E5
:10271000E15AFE4F0190F081E02D89E090E014C075
:102720008330910508F0A8C0FC01EE0FFF1FE75AA7
:10273000FE4F0190F081E02DDC01AA5ABE4F8C9132
:1027400090E0009709F498C02091E800277F20933B
:10275000E80020913A0230913B028217930708F477
:102760009C0140E02115310589F1809132028823D6
:1027700009F43DC08530D9F18091E80083FD37C070
:102780008091E80082FD2FC08091E80080FFEACFB1
:102790004091F3008091F20090E0942B21153105D7
:1027A00059F08830910540F444914093F1003196FE
:1027B000215031090196F2CF41E0089709F040E03D
:1027C0008091E8008E778093E800CCCF4111CDCF87
:1027D0000AC080913202882351F0853041F0809107
:1027E000E80083FD04C08091E80082FFF2CF809171
:1027F000E8008B778093E8003FC08038E9F580914E
:10280000E800877F8093E800809133028093F10095
:102810008091E8008E77D3CE81112EC08091360250
:1028200090913702992702973CF58091E800877FC5
:102830008093E80010913602109333020E94A51B8A
:10284000111106C08091E30087FD02C081E001C044
:1028500084E08093320242E061EC81E00E94C41B7C
:1028600042E261EC82E00E94C41B42E261EC83E040
:102870000E94C41B809132028091E80083FF10C047
:102880008091E800877F8093E8008091EB00806270
:102890008093EB0005C082E190E0EBE5F3E054CFDC
:1028A000AA960FB6F894DEBF0FBECDBFDF91CF91D1
:1028B0001F9108951F920F920FB60F9211242F931C
:1028C0003F934F935F936F937F938F939F93AF93B8
:1028D000BF93CF93DF93EF93FF93C091E900CF7045
:1028E0008091EC00D82FD17080FDD0E81092E900E3
:1028F0008091F000877F8093F00078940E948C1183
:102900001092E9008091F00088608093F000CD2B58
:10291000CF70C093E900FF91EF91DF91CF91BF910C
:10292000AF919F918F917F916F915F914F913F9167
:102930002F910F900FBE0F901F901895E8EDF0E0CB
:1029400080818E7F80831092E2001092DA001092D4
:10295000E100A0EEB0E08C9181608C9380818F7754
:10296000808319BCA7EDB0E08C918E7F8C93808121
:102970008F7E8083109225020895CF92DF92EF928E
:10298000FF920F931F93CF93DF93C8EDD0E0888120
:102990008F7E8883E7EDF0E080818160808384E032
:1029A00082BF81E08093250288818E7F888302EE3A
:1029B00010E0F80110821092DA0081EEC82ED12CBE
:1029C000F601108288818F77888388818068888368
:1029D00088818F7D888319BC109232021092330255
:1029E000109231021092300290EEE92EF12CF70194
:1029F00080818B7F808388818160888342E060E072
:102A000080E00E94C41BF60180818E7F8083F801E4
:102A1000808181608083808188608083F7018081EC
:102A20008E7F8083888180618883DF91CF911F9121
:102A30000F91FF90EF90DF90CF9008951F920F922B
:102A40000FB60F9211242F933F934F935F936F9381
:102A50007F938F939F93AF93BF93EF93FF93809157
:102A6000E10082FF49C08091E20082FF45C0809171
:102A7000E1008B7F8093E100209124022F5F822F61
:102A800062E30E94E62C992319F02093240234C0BB
:102A90001092240280912302882371F180913202E6
:102AA000843041F58091E9008F702091EC00922FE5
:102AB000917020FD90E8892B93E09093E90090912C
:102AC000EB0090FF14C09091EE0097FF10C0909122
:102AD000E80095FF03C01092F100F9CF9091E80053
:102AE00090FF05C09091E8009E779093E8008F706A
:102AF0008093E900109223028091DA0080FF32C0B7
:102B00008091D80080FF2EC08091DA008E7F809364
:102B1000DA008091D90080FF1CC080E189BD82E18C
:102B200089BD09B400FEFDCF81E0809332028CEEB6
:102B300092E00E94240380912502811113C00E941B
:102B40009E140E94BD148091E20084608093E20094
:102B500009C019BC1092320280EF92E00E94240357
:102B6000109225028091E10080FF1BC08091E2005D
:102B700080FF17C08091E2008E7F8093E2008091F9
:102B8000E20080618093E2008091D80080628093AF
:102B9000D80019BC85E08093320284EF92E00E9455
:102BA00024038091E10084FF34C08091E20084FF1F
:102BB00030C080E189BD82E189BD09B400FEFDCF4E
:102BC0008091D8008F7D8093D8008091E1008F7E26
:102BD0008093E1008091E2008F7E8093E2008091FB
:102BE000E20081608093E20080913302882311F03B
:102BF00084E007C08091E30087FD02C081E001C04E
:102C000083E08093320288EF92E00E942403809157
:102C100032028091E10083FF2BC08091E20083FFAC
:102C200027C08091E100877F8093E10082E080935C
:102C30003202109233028091E1008E7F8093E10096
:102C40008091E2008E7F8093E2008091E2008061BB
:102C50008093E20042E060E080E00E94C41B80912B
:102C6000F00088608093F0008CEF92E00E942403D3
:102C7000FF91EF91BF91AF919F918F917F916F9154
:102C80005F914F913F912F910F900FBE0F901F902A
:102C9000189580E090E00E943C1E80E090E00E9449
:102CA000261E1092CE021092CD020E945824EBE50F
:102CB000F2E086E0DF011D928A95E9F710921E028C
:102CC00010921C0210921D020C94810D8F929F9203
:102CD000AF92BF92DF92EF92FF920F931F93CF9329
:102CE000DF938090030290900402A0900502B090C0
:102CF00006024091D1025091D2026091D3027091AC
:102D0000D402842A952AA62AB72ACFE1D0E027E068
:102D1000929F700111249AE2D92E082F10E0D5015C
:102D2000C4010C2E04C0B695A795979587950A9473
:102D3000D2F780FD04C0219790F780E014C0DC9E9C
:102D4000F001DD9EF00D1124EE0DFF1DE00FF11FCF
:102D5000EE0FFF1FE955FC4F859194910E9435229B
:102D6000019749F38C2FDF91CF911F910F91FF9025
:102D7000EF90DF90BF90AF909F908F900895CF938A
:102D8000DF93EC010E9466162AE2829FC0011124A3
:102D9000FC0127E0D29FE00DF11D1124EC0FF11D85
:102DA000EE0FFF1FE955FC4F859194910E9435224B
:102DB000DF91CF910895FC01808191810E94BF161F
:102DC000292F2F70E92FE295EF704E2F50E0FA0176
:102DD0003297EE30F105B8F4E459FF4F0C94062D0C
:102DE000803F99F018F4883E70F40FC0843F59F486
:102DF0000CC0883E50F0813F31F407C0822F869589
:102E000086958695089580E0089581E008959F92C3
:102E1000AF92BF92CF92DF92EF92FF920F931F93E8
:102E2000CF93DF93CDB7DEB761970FB6F894DEBFCF
:102E30000FBECDBF8C0185E0F801DE011D9601902B
:102E40000D928A95E1F7F801E280909194026091E9
:102E5000950240919702509198024115510531F029
:102E60006F3F31F481E09F3F19F403C081E001C05E
:102E700080E0F82FF1709F2E80FD1AC1F80130819B
:102E80002181C380D48084E9A82E82E0B82EF090FE
:102E90009602F601E41BF50BFF2009F4C6C08091F1
:102EA0009902E83CF10508F091C0482F407F09F0F5
:102EB00050C0621311C093130FC0FE2CE1100CC060
:102EC0008F70806180939902C5010E946E04809189
:102ED0009902F801858329C1CD2831F02F3F31F4C3
:102EE00081E03F3F19F403C081E001C080E080FD34
:102EF00003C081E08E2502C080E090E0F82FF170E1
:102F0000FF2E80FF1CC08091CB0240919A0256E0B8
:102F1000841709F4E8C090E0589FF001599FF00D24
:102F20001124E556FD4F6181261306C060816313AD
:102F300003C06281E61203C001968770E9CFFE2CC0
:102F4000EE2009F4F2C08091990281608093990289
:102F500049C0621306C0931304C0E11002C0F80117
:102F600086C0C8010E94DB16882351F1EE2041F192
:102F700020919902822F82958F7090E0029774F0D1
:102F8000809194029091950298878F831986DB86B1
:102F9000CA862C87CE0107960E946E0486E0F8014F
:102FA000A4E9B2E001900D928A95E1F70E941825FC
:102FB0000AC06217C9F0C8010E94DB1681111EC049
:102FC000C8010E946E04FF24F394AFC0482F407FD5
:102FD00081F784E992E00E946E0486E0F501119287
:102FE0008A95E9F7F12CA1C09313E5CFE110E3CF67
:102FF000F8018583C8010E946E0454C0EE2001F3DD
:1030000020919902822F82958F7090E0029734F27E
:1030100080919402909195029A8389831B82DD822C
:10302000CC822E83CE010196B7CFE83CF105D0F5D6
:10303000FE2CEE2029F2621327C0931325C02091A5
:10304000990220FD18C0822F82958F70482F50E082
:103050004115510581F0F80125834F30510541F0AC
:103060008F5F982F9295907F822F8F70892B858309
:10307000C8010E946E0486E0F801A4E9B2E0019064
:103080000D928A95E1F751C0C8010E94DB168111AB
:1030900085CF80919902816080939902C8010E9436
:1030A0006E0443C086E0F50111928A95E9F73DC0B0
:1030B000EE2009F485CFC8010E94DB16F82E882384
:1030C00009F47ECF86E0F801A4E9B2E001900D9208
:1030D0008A95E1F780919402909195020E94BF1623
:1030E0000E94182522C03D872E878D859E850E94CF
:1030F000BF16292F22952F70223028F49F7039F0A7
:10310000811105C00BC0243028F49F7049F4805E03
:10311000883020F0C8010E946E049F2CF92C05C055
:10312000F8019581907F99F7F9CF8F2D61960FB6B1
:10313000F894DEBF0FBECDBFDF91CF911F910F91ED
:10314000FF90EF90DF90CF90BF90AF909F90089549
:1031500027E0929F800D1124682F669566956695ED
:10316000982F977085E0689FB001112440E050E0EF
:1031700080E0FB01E40FF51FE45CFD4F208130E0AF
:10318000092E02C0369527950A94E2F7217033275D
:10319000042E01C0220F0A94EAF7822B4F5F5F4F83
:1031A0004530510531F7089527E0929F800D112495
:1031B000E82FE695E695E695877051E001C0550F3A
:1031C0008A95EAF785E0E89FF0011124E45CFD4F61
:1031D00020E030E070E04081CB01022E02C09695E5
:1031E00087950A94E2F78170819584278523842747
:1031F00081932F5F3F4F2530310569F708950F9375
:103200001F938B019C010670112722273327DC01B5
:10321000CB01063011052105310511F4886001C08C
:10322000877F8093030290930402A0930502B093DA
:1032300006021F910F910C9449160F931F9341E0C2
:1032400050E060E070E004C0440F551F661F771F18
:103250008A95D2F7409550956095709580910302BC
:1032600090910402A0910502B09106028A019B018F
:10327000082319232A233B23C901B8011F910F9169
:103280000C94FF180F931F9341E050E060E070E052
:1032900004C0440F551F661F771F8A95D2F780918F
:1032A000030290910402A0910502B09106028A01E6
:1032B0009B01082B192B2A2B3B2BC901B8011F910D
:1032C0000F910C94FF186093D1027093D2028093F7
:1032D000D3029093D4020C9449161092CF0286E048
:1032E000EDE8F2E0DF011D928A95E9F70C944916AA
:1032F000882321F00E9451240C9458240895882397
:1033000039F09091CF02892B8093CF020C945824EE
:103310000895882309F45CC0823869F40E94601E15
:1033200081FF56C069E38BE892E00E940C1E0E9468
:10333000582469E30EC0833891F40E94601E80FF18
:1033400047C063E58BE892E00E940C1E0E9458245F
:1033500063E58BE892E00E94FF1D0C9458248438AA
:1033600069F40E94601E82FF33C067E48BE892E03C
:103370000E940C1E0E94582467E4EBCF9CEF980F2C
:10338000913A10F4682FE5CF90E2980F983050F4FE
:10339000877091E001C0990F8A95EAF7892F0E9402
:1033A0005124DBCF9BE5980F933020F480E090E030
:1033B0000C943C1E98E5980F973120F480E090E043
:1033C0000C94261E8D3E20F00E94AF0C0C94810DB3
:1033D0000895CF93882309F49EC0C82F8238B1F492
:1033E0000E94601E81FD97C069E38BE892E00E9415
:1033F0000C1E0E9458242FEF81EE94E02150804053
:103400009040E1F700C0000069E317C08338E1F4A1
:103410000E94601E80FD7FC063E58BE892E00E9401
:103420000C1E0E9458242FEF81EE94E02150804022
:103430009040E1F700C0000063E58BE892E00E9455
:10344000FF1DCF910C9458248438B1F40E94601E63
:1034500082FD61C067E48BE892E00E940C1E0E942E
:1034600058242FEF81EE94E0215080409040E1F706
:1034700000C0000067E4E1CF8CEF8C0F813A80F44C
:10348000EDE8F2E083E992E02191C217E1F18E17B5
:103490009F07D1F76C2F8BE892E00E940C1ED1CFD2
:1034A00080E28C0F883068F4C77081E090E001C042
:1034B000880FCA95EAF79091CF02892B8093CF02AB
:1034C000C0CFEBE5EC0FE33040F4F0E0EB59FE4FFA
:1034D000808190E0CF910C943C1EE8E5EC0FE73141
:1034E00050F4F0E0EE0FFF1FE859FE4F808191810C
:1034F000CF910C94261ECD3E70F08C2F0E94260D8D
:10350000CF910C94810D6C2F8BE892E00E94FF1DEF
:103510000E945824BFCFCF9108950895809127022B
:1035200008959FB7F894109223029FBF90913202A2
:10353000943009F057C09091E9009F703091EC00F1
:10354000232F217030FD20E8922B23E02093E90007
:103550002091EB0020FF43C02091EE0027FF3FC0E9
:1035600020918A02222321F02091E80025FF37C014
:1035700010928A0226E03091E80035FD15C03091A6
:103580003202343061F53091EB0035FD28C0215016
:1035900021F481E080938A0222C0EFE9FFE03197B5
:1035A000F1F700C00000E7CF8093F1008091E800C0
:1035B00085FD0AC08091E80080FFFCCF8091E80083
:1035C0008E778093E80006C08FB7F89421E02093AF
:1035D00023028FBF9F709093E90080E008959F7051
:1035E0009093E9008FEF089580938702709389028A
:1035F0006093880280913202843001F582E08093EA
:10360000E9008FEF9091E800815095FD06C095ED9F
:103610009A95F1F700008111F5CF8091E80085FFC0
:103620000DC040E050E063E070E087E892E00E9467
:1036300060118091E8008E778093E8000895BC01C6
:1036400084E00C94F41ABC0183E00C94F41A22E098
:103650002093E9002FEF3091E800215035FD06C09E
:1036600035ED3A95F1F700002111F5CF2091E800F2
:1036700025FF0BC040E050E066E070E00E94601162
:103680008091E8008E778093E8000895CF93DF93D0
:1036900021E02093E9002FEF3091E800215035FD23
:1036A00006C035ED3A95F1F700002111F5CF2091D4
:1036B000E80025FF14C0EC0140E050E068E070E055
:1036C0000E9460118091E8008E778093E80088E086
:1036D000FE01A8E2B2E001900D928A95E1F7DF9138
:1036E000CF9108952091E4003091E50095E6409156
:1036F000EC00842F817040FF23C08091E80080FDA2
:103700001DC080913202882399F0853099F0809114
:10371000EB0085FD11C04091E4005091E5002417B5
:10372000350729F3915011F09A01E1CF84E0089513
:1037300082E0089583E0089581E0089580E008958F
:103740004091E80042FFDDCF08958091340287FF69
:1037500011C08091E80082FD05C080913202811184
:10376000F8CF11C08091E8008B770BC080913202B6
:10377000882349F08091E80080FFF8CF8091E8002D
:103780008E778093E8000895982F973068F590938E
:10379000E900981739F07091EC002091ED005091FC
:1037A000F00003C0242F762F50E021FD02C09F5F60
:1037B000ECCF3091EB003E7F3093EB003091ED0089
:1037C0003D7F3093ED003091EB0031603093EB00A2
:1037D0007093EC002093ED005093F0002091EE00E8
:1037E00027FDE5CF80E008958F708093E90081E0A8
:1037F000089520913A0230913B022617370748F08E
:103800006115710539F42091E8002E772093E800C6
:1038100001C0B901FC0120E06115710579F18091C9
:1038200032028823F1F18530F1F18091E80083FDC7
:103830003CC08091E80082FD2EC08091E80080FFAE
:10384000EBCF2091F3008091F20090E0922B611574
:10385000710551F08830910538F421912093F100E1
:10386000615071090196F3CF21E0089709F020E03B
:103870008091E8008E778093E800CECF2111CFCFE2
:103880000AC080913202882361F0853061F0809116
:10389000E80083FD0AC08091E80082FFF2CF80E05B
:1038A000089582E0089583E0089581E00895789472
:1038B0001F920F920FB60F9211248F939F93AF9385
:1038C000BF938091830290918402A0918502B09170
:1038D00086020196A11DB11D8093830290938402FC
:1038E000A0938502B0938602BF91AF919F918F9173
:1038F0000F900FBE0F901F9018959C014FB7F89432
:103900008091830290918402A0918502B0918602F9
:103910004FBF821B930B08952FB7F89460918302D9
:103920007091840280918502909186022FBF089544
:103930002FB7F8948091830290918402A091850220
:10394000B09186022FBF0895AF92BF92DF92EF929F
:10395000FF920F931F93CF93DF93CDB7DEB761979D
:103960000FB6F894DEBF0FBECDBF4C87888B998B06
:10397000D52E7B015E0127E0A20EB11C85E0F5018A
:1039800011928A95E9F7809177028A3008F0EAC0AF
:1039900080917502909176020E947D1C039708F435
:1039A000E1C004E610E025E030E0A50164E084E138
:1039B0000E94B2268C018091780283FF2FC08091F3
:1039C0006D0290916E020E947D1C8536910530F14A
:1039D0008091780280FF1CC08B851F928F938A850F
:1039E0001F928F9389851F928F9388851F928F9343
:1039F0008F811F928F931F930F9387EF94E09F9374
:103A00008F930E94BD030FB6F894DEBF0FBECDBFEB
:103A10000E94981C90936E0280936D02012B09F016
:103A200096C0109277028B8587FD87C09D2D9E7F63
:103A3000D92E8091730290917402009709F07BC097
:103A40008F819885891720F4981B892F91E002C0F7
:103A5000891B90E0E3E08E9F90011124829FB001CA
:103A6000839F700D11247170992319F071956195E0
:103A700071098091710290917202680F791F898596
:103A80002A85821718F4281B31E003C0821B282FD7
:103A900030E0F3E02F9FA0011124249FC001259F57
:103AA000900D11249170332319F09195819591090E
:103AB00020916F0230917002820F931F6038710560
:103AC0004CF06F57710970937202609371023FE777
:103AD000E32E12C061382FEF72074CF461587F4F0C
:103AE000709372026093710221E8E22E05C0E62E07
:103AF0001092720210927102803891054CF08F572B
:103B000091099093700280936F029FE7F92E24C071
:103B100081384FEF94074CF481589F4F9093700277
:103B200080936F0281E8F82E17C0F82E1092700271
:103B300010926F0211C0019705C08D2D8160D82EA3
:103B400084E190E0909374028093730205C08091A9
:103B500077028F5F809377020E94981C9093760281
:103B600080937502DD86EE86FF8686E0FE013C9638
:103B7000DE01119601900D928A95E1F729813A8133
:103B80004B815C816D817E8180E090E061960FB613
:103B9000F894DEBF0FBECDBFDF91CF911F910F9183
:103BA000FF90EF90DF90BF90AF9008951F920F921B
:103BB0000FB60F9211248F939F93AF93BF93809171
:103BC0008202811113C08091830290918402A0919E
:103BD0008502B09186024196A11DB11D809383029A
:103BE00090938402A0938502B0938602BF91AF9117
:103BF0009F918F910F900FBE0F901F9018959C0171
:103C00002A5F3F4FFC014281461301C01282019698
:103C100082179307B9F708959C01FC0132969FEF34
:103C200080E04191461789F09F3F19F4411101C08E
:103C3000982F8F5F8630A9F79F3F39F0F901E90F80
:103C4000F11D97FDFA9562830895089520918002F1
:103C5000309181022817390771F090938102809387
:103C60008002E0917E02F0917F02309721F0008483
:103C7000F185E02D0994089520917C0230917D0218
:103C80002817390771F090937D0280937C02E091B0
:103C90007E02F0917F02309721F00680F781E02DBF
:103CA00009940895E0917E02F0917F02309739F0F7
:103CB00022E0DC012C930480F581E02D0994089525
:103CC0000E949621882351F0E0917E02F0917F02BC
:103CD000309721F00190F081E02D099480E0089563
:103CE000EF92FF920F93CF93DF93C42FD22FFC015B
:103CF00082818823D1F040937B020E94981C90938C
:103D00007A028093790280E28C0F883008F06DC0CF
:103D1000C77081E001C0880FCA95EAF7DF91CF91A3
:103D20000F91FF90EF900C947F1980917B024813C4
:103D30004BC08091790290917A020E947D1C883C50
:103D4000910508F041C0CD17C9F080E28C0F883092
:103D500040F4C77081E001C0880FCA95EAF70E945D
:103D6000781980E28D0F883048F481E09D2F97709C
:103D700001C0880F9A95EAF70E947F19093319F05C
:103D8000E12CF12C03C080E5E82EF12C802F0E945D
:103D9000E919E114F10451F08FE99FE00197F1F77F
:103DA00000C0000091E0E91AF108F3CF802F0E94D3
:103DB000891980E28D0F8830C0F4D77081E001C08E
:103DC000880FDA95EAF70AC080E28C0F883068F431
:103DD000C77081E001C0880FCA95EAF7DF91CF91E3
:103DE0000F91FF90EF900C947819DF91CF910F9184
:103DF000FF90EF9008950F931F93CF93DF9300D020
:103E000000D0CDB7DEB789836A834B832C8304E669
:103E100010E024E030E0AE014F5F5F4F60E084E1EE
:103E20000E9485262091780223FF0EC020FF0CC03F
:103E30009F938F9388E395E09F938F930E94BD0398
:103E40000F900F900F900F900F900F900F900F907A
:103E5000DF91CF911F910F9108950E94842520E05A
:103E600040E060E080E00C94FB1E2F923F924F9266
:103E70005F926F927F928F929F92AF92BF92CF92FA
:103E8000DF92EF92FF920F931F93CF93DF93CDB703
:103E9000DEB7E0970FB6F894DEBF0FBECDBF4091FE
:103EA0006702509168026091690270916A02809184
:103EB0006B0290916C020E94A41C142F2093670245
:103EC0003093680260936B0270936C02652F61956A
:103ED0006093690210936A0286E0E7E6F2E0DE0191
:103EE000959601900D928A95E1F786E0FE01B596D0
:103EF000DE01539601900D928A95E1F729A43AA428
:103F0000062E000C770B880B990B0E94002B4B019F
:103F10005C01612F110F770B880B990B0E94002B0E
:103F20006B017C01A50194010E94F6292B013C0143
:103F3000A5019401C501B4010E94FA2B4B015C015B
:103F4000A7019601C701B6010E94FA2B9B01AC01A3
:103F5000C501B4010E9477290E94752C4B015C01B8
:103F6000C301B2010E94552A9B01AC01C501B401F5
:103F70000E94FA2B0E94C82A162F062FC301B201F5
:103F80000E94672C9B01AC01C501B4010E94FA2B71
:103F90000E94C82A962F80915A02811104C0922D46
:103FA000812F032D02C060E080E08D8B6E8B9F8B94
:103FB000088F26E0FE017396DE011D9601900D929A
:103FC0002A95E1F78F87688B998B0A8B26E0FE0193
:103FD0003D96DE01599601900D922A95E1F78B8F5F
:103FE0006C8F9D8F0E8F26E0FE017996DE015F9625
:103FF00001900D922A95E1F789A36AA39BA30CA3D4
:1040000086E0FE017F96A7E6B2E001900D928A95C8
:10401000E1F786E0EBE5F2E0DE019B9601900D9280
:104020008A95E1F7909168028CA5892B80936802AC
:1040300086E0E7E6F2E0DE01179601900D928A95A0
:10404000E1F786E0E1E6F2E0DE01119601900D92E3
:104050008A95E1F746E050E0BE016F5F7F4FCE01E9
:1040600007960E940C2D892B21F087E692E00E9492
:10407000521E1092690210926A0210926B02109204
:104080006C0286E0E7E6F2E0A1E6B2E001900D9274
:104090008A95E1F7E0960FB6F894DEBF0FBECDBF6C
:1040A000DF91CF911F910F91FF90EF90DF90CF9014
:1040B000BF90AF909F908F907F906F905F904F9048
:1040C0003F902F9008959091070292FF0DC0282FE6
:1040D0002871283019F4877F846006C0282F247146
:1040E000243011F48B7F886093FF0DC0282F287136
:1040F000283119F4877E846106C0282F2471243169
:1041000011F48B7E88612091080220FF0DC0382FAA
:104110003871383019F4877F816006C0382F3171CB
:10412000313011F48E7F886021FF0DC0282F287157
:10413000283119F4877E816106C0282F2171213131
:1041400011F48E7E886194FD877E0895EF92FF9230
:104150001F93CF93DF9300D000D0CDB7DEB77B01A4
:1041600080E090E00E946828892B09F065C04091AA
:10417000140150E04115510511F041E050E060910B
:1041800015017091160163527D4FCE0104960E9475
:10419000192D4091D9025091DA026091DB027091A1
:1041A000DC022FB7F8948091830290918402A09151
:1041B0008502B09186022FBF841B950BA60BB70B0F
:1041C00084369105A105B10538F48EED92E00E9488
:1041D00049119C81891791F181E090E00E94682843
:1041E000892BA1F440911E0150E04430510510F09C
:1041F00043E050E060911F017091200163527D4FB8
:10420000CE0101960E94192D11E001C010E08EED43
:1042100092E00E94491191E02C81281390E019232B
:1042200011F10E948C1C6093D9027093DA02809382
:10423000DB029093DC020CC010E001C011E0809121
:10424000DE029091DF02A091E00289839A83AB8322
:10425000112349F089819A81AB818093D602909392
:10426000D702A093D8028091D6029091D702A09154
:10427000D802F70180839183A283812F0F900F9042
:104280000F900F90DF91CF911F91FF90EF900895C5
:10429000AF92BF92CF92DF92EF92FF920F931F9354
:1042A000CF93DF937C015B01142F052F6901C1E0DF
:1042B000D0E0F894B501C701F60109957894811111
:1042C00029C02196CB30D10589F0CC9F9001CD9F9C
:1042D000300D300D112480E090E045E34A95F1F770
:1042E0000000019628173907C1F7E3CF90917802B3
:1042F000892F817090FF0FC00F931F9388E895E07E
:104300009F938F930E94BD030F900F900F900F907B
:1043100080E001C081E0DF91CF911F910F91FF906C
:10432000EF90DF90CF90BF90AF9008958091D5022D
:10433000811118C08091D80080618093D8008AE1F3
:104340008A95F1F700C08091D90080FD02C082E01B
:1043500001C081E08093D502823021F40E949E1436
:104360001092320281E09091D502913009F080E004
:1043700008950F931F93CF93DF9300D000D0CDB754
:10438000DEB74091E5025091E6026091E70270913C
:10439000E8022FB7F8948091830290918402A09153
:1043A0008502B09186022FBF841B950BA60BB70B1D
:1043B00084369105A105B10508F443C00E949621F9
:1043C000882319F00E948C1C0EC00E948C1C009146
:1043D000F9011091FA012091FB013091FC01600F6D
:1043E000711F821F931FDC01CB010296A11DB11D1D
:1043F00089839A83AB83BC838091260190912701A6
:1044000083529D4F4091250150E04530510510F0F9
:1044100044E050E0BE016F5F7F4F0E94192D82E0A3
:1044200090E00E946828892B11F080E00BC00E9468
:104430008C1C6093E5027093E6028093E7029093F0
:10444000E80281E00F900F900F900F90DF91CF91D5
:104450001F910F9108950E949621809301010E945F
:10446000962181110C945B270895CF93DF938238B6
:10447000910569F1B0F48133910509F46FC048F4F6
:104480008932910509F465C08A32910509F46BC03F
:104490008AC08533910509F457C089339105B9F075
:1044A00082C0833E910571F138F4803E9105B1F0F0
:1044B000823E910511F177C0863E9105B9F1873EA4
:1044C0009105C9F1843E910509F06DC024C0209189
:1044D000070220FD53C021FD51C065C08091070235
:1044E00080FD46C08091080280FF48C0809107028D
:1044F00084FD50C183EE90E04FC18091070282FF9E
:104500003AC0F4CF8091070282FD35C08091080245
:1045100080FD34C0EBCF8091080281FF35C08091CF
:10452000070284FD37C187EE90E036C18091070213
:1045300083FF27C0F4CF8091070283FD22C08091C2
:10454000080281FD21C0EBCF8091070285FD1FC0CD
:1045500021C08091070285FD1DC019C0809107020E
:1045600086FD1BC01DC08091070286FD19C015C0C5
:1045700089E390E011C182EE90E00EC180EE90E000
:104580000BC186EE90E008C184EE90E005C189E29F
:1045900090E002C185E390E0FFC08AE290E0FCC0B9
:1045A00081E390E0F9C0811531E5930708F069C017
:1045B000811540E59407F0F09C0174E0369527954D
:1045C0007A95E1F7922F9370482F437021E030E005
:1045D00002C0220F331F4A95E2F73C68392B982F0F
:1045E0009F709695969540E2949FC0011124822B6E
:1045F000932BD2C0883E910568F5803E910508F066
:10460000CBC0883A9105B8F4853A910548F0855AAF
:10461000E82FF0E0EB59FE4F808190E09064BCC041
:104620008130910509F4B3C008F4B4C08430910519
:1046300008F4B0C0B1C08F3B910508F0ABC0885AF8
:10464000E82FF0E0EE0FFF1FE859FE4F80819181C7
:104650009464A2C0811520E2920758F4811531E0DC
:10466000930708F099C08D3E910508F493C09065BA
:1046700093C0811540E4940708F48CC09F70906A41
:104680008BC0811525E5920708F042C0811534E5FD
:10469000930728F0982F8827846F906A7DC0811532
:1046A00043E59407B0F09C012370332741E050E0CC
:1046B00002C0440F551F2A95E2F7282F269526950C
:1046C00080E2289F90011124CA01822B932B9A68C3
:1046D00063C0811522E5920728F4982F8827816FFF
:1046E000906A5AC09C012370332741E050E002C019
:1046F000440F551F2A95E2F7282F2695269580E22C
:10470000289F90011124CA01822B932B9C6844C0DE
:10471000EC01811539E59307A8F48115984528F037
:104720009C2F8827806F906A37C0C11586E5D8070F
:1047300088F58C2F0E9463208F7190E0982F882736
:1047400090622AC081152AE5920790F48C2F8F7011
:104750000E94632094E0D695C7959A95E1F7CF70B3
:10476000D0E0DC2FCC27D0699E01282BC90114C0D2
:1047700090568115904270F48D2F8F710E946320A6
:10478000282F2F71CE0199279062922B05C081E0CE
:1047900090E002C080E090E0DF91CF910895CF9348
:1047A00084E090E00E943429C82F82E290E00E94C9
:1047B00034292C2F30E0A901582BCA01CF9108953C
:1047C00069EE7EEF80E090E00E94602960E082E088
:1047D00090E00E94422960E083E090E00E9442293C
:1047E0001092D1021092D2021092D3021092D402EF
:1047F00060E084E090E00E94422960E082E290E084
:104800000E94422960E085E090E00E94422960E039
:1048100086E090E00E9442296FEF87E090E00E94DE
:10482000422940E050E0BA0188E090E00E9454291B
:1048300060E08DE090E00E94422940E050E0BA0143
:1048400088E190E00E94542960E087E190E00E94B6
:10485000422940E050E0BA018CE190E00E945429E6
:1048600060E070E080E290E00E94602940E050E06B
:10487000BA0188E190E00E94542940E050E0BA017A
:104880008FE090E00E94542940E050E0BA0183E1BB
:1048900090E00C9454298091D00281111092D002A2
:1048A000089580959091CF0289238093CF02089537
:1048B000EF92FF920F931F93CF939091CF0280912D
:1048C000CE02892B2091CD02982F922B90938B02B0
:1048D0008091D002882389F0892B80938B02EDE8A8
:1048E000F2E097E080E0915029F021912223D9F362
:1048F0008F5FF9CF81110E944B24E0917E02F091ED
:104900007F023097C9F10280F381E02D8BE892E0BD
:1049100009958091780282FF2FC080FF04C086E74E
:1049200095E00E9424030BE812E0C8E080E7E82E3F
:1049300085E0F82E8091780280FF0CC0F80180811C
:104940001F928F93FF92EF920E94BD030F900F90E2
:104950000F900F90C1500F5F1F4FC111EBCF80918F
:10496000780280FF09C08EE695E0CF911F910F91EC
:10497000FF90EF900C942403CF911F910F91FF9023
:10498000EF9008952091CC02809582238093CC02F1
:10499000982F977099F430E0482F082E000C550B93
:1049A0002417350759F09091080292FD07C08595AC
:1049B000859585950E941D191092CC020895CF937C
:1049C000DF93C0910802C2FB992790F9981719F15B
:1049D000D82F80FBC2F9C09308026091070284E0DF
:1049E00090E00E9442296C2F82E290E00E944229CE
:1049F00082E00E94C2248091780280FF0CC01F9246
:104A0000DF9389E595E09F938F930E94BD030F90FC
:104A10000F900F900F90DF91CF9108958091CB026E
:104A200090919A02891719F08F5F8770FBCF0895D4
:104A30000F931F93CF93DF938091990282958F708C
:104A400009F05DC080919602882309F458C08091D6
:104A5000CB0210919A026091940270919502C091DC
:104A60009702D091980291E06F3F09F090E0292FD2
:104A700006E0811709F443C0209721F07F3F21F021
:104A800030E003C031E001C0322F90E030FD34C08F
:104A9000089FF001099FF00D1124DF01A556BD4FBD
:104AA00011963C911197371327C03C91361324C0BF
:104AB00012963C91129731111FC013964D915C9143
:104AC00014974C1B5D0B483C5105B0F48091990242
:104AD0008F70806180939902E056FD4F80818F70C6
:104AE0008061808384E992E00E946E04DF91CF911F
:104AF0001F910F910C940E2501968770BACFDF910C
:104B0000CF911F910F9108951092B9008CE080937E
:104B1000B80008959F92AF92BF92CF92DF92EF922A
:104B2000FF920F931F93CF93DF93B82EEB010E9458
:104B3000981C6C01C431D10558F0CF3F8FEFD807D6
:104B400059F0CE0164E170E00E9420297B0107C08A
:104B5000EE24E394F12C03C025E0E22EF12C84E84E
:104B6000A82E94EA992E1092BC009092BC000E944C
:104B7000981C8C018091BC0087FD08C00E94981C85
:104B8000801B910B8E159F05A8F32AC08091B90058
:104B9000887F883041F08091B900887F803119F09A
:104BA0000FEF1FEF1FC0B092BB00A092BC000E948D
:104BB000981C8C018091BC0087FD08C00E94981C45
:104BC000801B910B8E159F05A8F30AC08091B90038
:104BD000887F883111F0803419F700E010E00EC0B2
:104BE0000EEF1FEFCF3F8FEFD80709F4BCCFC60100
:104BF0000E947D1C8C179D0708F4B5CFC801DF917A
:104C0000CF911F910F91FF90EF90DF90CF90BF90C9
:104C1000AF909F9008950F931F93CF93DF93EB0175
:104C20008093BB0084E88093BC000E94981C8C0198
:104C30008091BC0087FD0EC0CF3F8FEFD807C1F336
:104C40000E94981C801B910B8C179D0788F38EEF98
:104C50009FEF0CC02091B900287F81E090E02832BE
:104C600011F480E090E0919581959109DF91CF91C9
:104C70001F910F9108950F931F93CF93DF93EC0132
:104C800084EC8093BC000E94981C8C018091BC0035
:104C900087FD0EC0CF3F8FEFD807C1F30E94981C4D
:104CA000801B910B8C179D0788F38EEF9FEF03C03D
:104CB0008091BB0090E0DF91CF911F910F910895FB
:104CC0000F931F93CF93DF93EC0184E88093BC0094
:104CD0000E94981C8C018091BC0087FD0EC0CF3FC4
:104CE0008FEFD807C1F30E94981C801B910B8C1783
:104CF0009D0788F38EEF9FEF03C08091BB0090E08B
:104D0000DF91CF911F910F910895CF92DF92EF9293
:104D1000FF920F931F93CF93DF93C62F6A01790100
:104D2000B8010E948A2597FD11C0B8018C2F0E94FE
:104D30000B26E601EC0CFD1CCE15DF0539F097FDC6
:104D400005C0B80189910E940B26F6CF24E9209373
:104D5000BC00DF91CF911F910F91FF90EF90DF90FA
:104D6000CF900895CF92DF92EF92FF920F931F930F
:104D7000CF93DF93D82EC62E7A01E901B8010E94A5
:104D80008A2597FD2AC0B8018C2D0E940B2697FD1D
:104D900024C0B8018D2D81600E948A25670121976A
:104DA00096012E193F092C173D0768F497FD15C091
:104DB000C8010E943B2697FD02C0F6018083FFEFE9
:104DC000CF1ADF0AEDCF97FD08C0C8010E94602608
:104DD00097FD03C0CE0DDF1D888324E92093BC001E
:104DE0001816190614F480E090E0DF91CF911F911E
:104DF0000F91FF90EF90DF90CF9008958EE14A9B46
:104E000002C08150E1F74A9BFECF08955A9880E294
:104E10008A95F1F75A9A0895FC012AE02A95F1F74C
:104E200028E090E080E031E040E14A95F1F7880F1A
:104E30004A9B02C08160932700C0000040E14A9570
:104E4000F1F7215089F720E12A95F1F729B100C047
:104E5000000030E13A95F1F722FB222720F9922752
:104E60002081920F90830895EF92FF920F931F93EA
:104E7000CF93DF931F92CDB7DEB719828C017C01EF
:104E8000E60EF11C0E151F0551F00E94FE26CE0104
:104E900001960E940C27F80181938F01F3CF81E0E6
:104EA0009981911180E00F90DF91CF911F910F9127
:104EB000FF90EF900895529A5A9A089552985A9AEC
:104EC000EA9AE9E6F0E080818F7C80830895615062
:104ED00091E001C0990F6A95EAF720E031E099234B
:104EE00061F0492F482319F05A9A232701C05A9894
:104EF00040E24A95F1F79695F2CF222311F05A9AA3
:104F000001C05A9880E28A95F1F75A980895FF9265
:104F10000F931F93CF93DF93EC018C01060F111DAC
:104F2000C017D10741F0F9900E94062768E08F2D45
:104F30000E946727F5CFDF91CF911F910F91FF90CE
:104F400008951F920F920FB60F921124EF92FF92C5
:104F50000F931F932F933F934F935F936F937F9381
:104F60008F939F93AF93BF93EF93FF93CF93DF9371
:104F70001F92CDB7DEB719820E94FE26CE010196A0
:104F80000E940C27A82FA695A695A6959A2F9695D0
:104F900095702A2F2570920F292F2370969596953C
:104FA000920F877089137CC08981811179C0A430E8
:104FB00008F076C080E18A95F1F75A9A529AB2E0E9
:104FC000BA95F1F700C05A98EA2EF12CEAE0AE9FAC
:104FD000D0011124A15FBE4F1896ED91FC91199755
:104FE0003097B1F0609196017091970116962D91CE
:104FF0003C911797260F371F13968D919C9114970C
:10500000680F791F15964C91159712968C910995FA
:105010008AE08E9DF0018F9DF00D1124E15FFE4F1F
:105020006581662351F080919601909197012681C8
:105030003781820F931F0E9487270E940627F0E185
:10504000FA95F1F75A9852985A9A80E18A95F1F7B1
:105050008AE08E9D80018F9D100D1124015F1E4FEF
:10506000D80112966C911297662399F0809196015F
:105070009091970113962D913C911497820F931F55
:105080000E943427D801ED91FC91811105C082E086
:1050900004C0D801ED91FC9188E080830E94FE2637
:1050A0000F90DF91CF91FF91EF91BF91AF919F91C1
:1050B0008F917F916F915F914F913F912F911F91B0
:1050C0000F91FF90EF900F900FBE0F901F901895CB
:1050D0000F931F93CF93DF93843091050CF0A9C0F9
:1050E0002AE0289FF001299FF00D1124E15FFE4F77
:1050F00020813181232B09F49CC0EC01F894529A51
:105100005A9885E08A95F1F700008C2F8695857076
:105110009C2F9570890F982F9370869586958E0198
:1051200023E0000F111F2A95E1F7890F082B0E9439
:105130000627A4E0AA95F1F700C068E0802F0E943E
:105140006727B0E1BA95F1F752985A9A4A9902C086
:1051500000C0FCCF87E090E04A9B17C0019799F40C
:10516000529A5A9A8AE08C9FF0018D9FF00D11247B
:10517000E15FFE4F0190F081E02D81E08083789423
:1051800081E090E058C000C0E7CF8AE08C9F8001AA
:105190008D9F100D1124015F1E4FF801658166235C
:1051A000B9F0809196019091970126813781820F05
:1051B000931F0E94342781110BC0529A5A9AD8012A
:1051C000ED91FC9182E08083789482E090E033C09E
:1051D0000E94FE26B0E2BA95F1F75A98529AE0E1A1
:1051E000EA95F1F78AE08C9FF0018D9FF00D112474
:1051F000E15FFE4F6281662351F0809196019091AC
:10520000970123813481820F931F0E9487270E9478
:1052100006278AE08C9FF0018D9FF00D1124E15F3D
:10522000FE4F0190F081E02D1082789480E090E0B4
:1052300002C084E090E0DF91CF911F910F9108951B
:10524000AA1BBB1B51E107C0AA1FBB1FA617B707AC
:1052500010F0A61BB70B881F991F5A95A9F78095C8
:105260009095BC01CD010895F999FECF92BD81BD05
:10527000F89A992780B50895A8E1B0E042E050E09F
:105280000C946829262FF999FECF92BD81BDF89A1A
:10529000019700B4021639F01FBA20BD0FB6F8947A
:1052A000FA9AF99A0FBE08950396272F0E94432970
:1052B0000E944229252F0E944329242F0C94432920
:1052C0000196272F0E9443290C944229DC01CB012F
:1052D000FC01F999FECF06C0F2BDE1BDF89A319606
:1052E00000B40D9241505040B8F708955058BB2774
:1052F000AA270E948E290C94A42B0E946B2B38F0B5
:105300000E94722B20F039F49F3F19F426F40C947C
:10531000412B0EF4E095E7FB0C943B2BE92F0E9408
:10532000C92B58F3BA17620773078407950720F053
:1053300079F4A6F50C94EB2B0EF4E0950B2EBA2F16
:10534000A02D0B01B90190010C01CA01A00111248B
:10535000FF27591B99F0593F50F4503E68F11A1637
:10536000F040A22F232F342F4427585FF3CF4695C8
:1053700037952795A795F0405395C9F77EF41F16EA
:10538000BA0B620B730B840BBAF09150A1F0FF0FB4
:10539000BB1F661F771F881FC2F70EC0BA0F621FA0
:1053A000731F841F48F4879577956795B795F79590
:1053B0009E3F08F0B0CF9395880F08F09927EE0F25
:1053C0009795879508950E946B2B60F080E891E097
:1053D00009F49EEF0E94722B28F040E851E071F42E
:1053E0005EEF0CC00C94412B0C94EB2BE92FE07872
:1053F0000E94C92B40F3092E052AB1F3261737075F
:105400004807590738F00E2E07F8E02569F0E02527
:10541000E0640AC0EF6307F8009407FADB01B90102
:105420009D01DC01CA01AD01EF930E946D2A0E942B
:10543000A42B0E94262A5F91552339F02BED3FE0E3
:1054400049E450FD49EC0C9477290895DF93DD275A
:10545000B92FBF7740E85FE31616170648075B07CA
:1054600018F4D92F0E94F22B9F938F937F936F9301
:105470000E94B52CE4EFF0E00E94442B0E94A42B84
:105480002F913F914F915F910E940D2CDD2351F0A0
:105490009058A2EA2AED3FE049EC5FE3D0785D271F
:1054A0000E948E29DF910C94A42B0E947B2BE39504
:1054B0000C94B52B0E94722B58F00E946B2B40F07D
:1054C00029F45F3F29F00C943B2B51110C94EC2BE9
:1054D0000C94412B0E94C92B68F39923B1F35523F7
:1054E00091F3951B550BBB27AA27621773078407F7
:1054F00038F09F5F5F4F220F331F441FAA1FA9F38D
:1055000035D00E2E3AF0E0E832D091505040E6957A
:10551000001CCAF72BD0FE2F29D0660F771F881FDB
:10552000BB1F261737074807AB07B0E809F0BB0BCE
:10553000802DBF01FF2793585F4F3AF09E3F5105E2
:1055400078F00C943B2B0C94EC2B5F3FE4F3983EEB
:10555000D4F3869577956795B795F7959F5FC9F7CB
:10556000880F911D9695879597F90895E1E0660F4C
:10557000771F881FBB1F621773078407BA0720F0C5
:10558000621B730B840BBA0BEE1F88F7E09508952E
:105590000E94CF2A6894B1110C94EC2B08950E94BC
:1055A000D12B88F09F5798F0B92F9927B751B0F0B9
:1055B000E1F0660F771F881F991F1AF0BA95C9F797
:1055C00014C0B13091F00E94EB2BB1E008950C941F
:1055D000EB2B672F782F8827B85F39F0B93FCCF3D2
:1055E000869577956795B395D9F73EF49095809514
:1055F000709561957F4F8F4F9F4F0895E89409C034
:1056000097FB3EF490958095709561957F4F8F4FF5
:105610009F4F9923A9F0F92F96E9BB279395F6950B
:10562000879577956795B795F111F8CFFAF4BB0F89
:1056300011F460FF1BC06F5F7F4F8F4F9F4F16C0ED
:10564000882311F096E911C0772321F09EE8872F77
:10565000762F05C0662371F096E8862F70E060E033
:105660002AF09A95660F771F881FDAF7880F9695AC
:10567000879597F9089597F99F6780E870E060E053
:1056800008959FEF80EC0895DF93CF931F930F93BE
:10569000FF92EF92DF927B018C01689406C0DA2EB4
:1056A000EF010E940D2CFE01E894A5912591359102
:1056B00045915591A6F3EF010E948E29FE019701B5
:1056C000A801DA9469F7DF90EF90FF900F911F9196
:1056D000CF91DF91089500240A9416161706180634
:1056E0000906089500240A941216130614060506E6
:1056F00008950C94412B0E94D12BD8F3E894E0E05C
:10570000BB279F57F0F02AED3FE049EC06C0EE0FB3
:10571000BB0F661F771F881F28F0B23A6207730716
:10572000840728F0B25A620B730B840BE3959A95A9
:1057300072F7803830F49A95BB0F661F771F881F69
:10574000D2F790480C94BF2C092E0394000C11F44E
:10575000882352F0BB0F40F4BF2B11F460FF04C04C
:105760006F5F7F4F8F4F9F4F0895EF93E0FF07C00C
:10577000A2EA2AED3FE049EC5FEB0E948E290E94ED
:10578000A42B0F90039401FC9058E1E2F1E00C94FB
:10579000D22C57FD9058440F551F59F05F3F71F0C0
:1057A0004795880F97FB991F61F09F3F79F0879588
:1057B0000895121613061406551FF2CF4695F1DF11
:1057C00008C0161617061806991FF1CF86957105A1
:1057D000610508940895E894BB2766277727CB01D5
:1057E00097F908959B01AC0160E070E080E89FE3C9
:1057F0000C94B92C0E940D2C0C94A42B0E946B2BA2
:1058000038F00E94722B20F0952311F00C943B2B62
:105810000C94412B11240C94EC2B0E94C92B70F397
:10582000959FC1F3950F50E0551F629FF001729F45
:10583000BB27F00DB11D639FAA27F00DB11DAA1F54
:10584000649F6627B00DA11D661F829F2227B00DA1
:10585000A11D621F739FB00DA11D621F839FA00D2C
:10586000611D221F749F3327A00D611D231F849F7C
:10587000600D211D822F762F6A2F11249F575040D3
:105880009AF0F1F088234AF0EE0FFF1FBB1F661F4E
:10589000771F881F91505040A9F79E3F510580F017
:1058A0000C943B2B0C94EC2B5F3FE4F3983ED4F329
:1058B000869577956795B795F795E7959F5FC1F7BB
:1058C000FE2B880F911D9695879597F908959F93C4
:1058D0000E947B2B0F9007FCEE5F0C94B52B19F404
:1058E00016F40C94412B0C94BD2C0E94D12BB8F3D0
:1058F0009923C9F3B6F39F57550B87FF0E94CB2C12
:105900000024A0E640EA900180585695979528F427
:10591000805C660F771F881F20F02617370748071F
:1059200030F4621B730B840B202931294A2BA69576
:1059300017940794202531254A2758F7660F771FBB
:10594000881F20F026173707480730F4620B730BC7
:10595000840B200D311D411DA09581F7B901842FC5
:105960009158880F9695879508959B01AC010C94EA
:10597000FA2B0E946A2A0C94A42B9F3F31F091507D
:1059800020F4879577956795B795880F911D969523
:10599000879597F9089591505040660F771F881F9B
:1059A000D2F708959F938F937F936F93FF93EF9315
:1059B0009B01AC010E94FA2BEF91FF910E94442BB6
:1059C0002F913F914F915F910C94FA2B991B79E0A5
:1059D00004C0991F961708F0961B881F7A95C9F77F
:1059E0008095089597FB072E16F4009407D077FD55
:1059F00009D00E94202907FC05D03EF4909581959E
:105A00009F4F0895709561957F4F0895EE0FFF1F8A
:105A10000590F491E02D0994FB01DC0104C08D9107
:105A20000190801921F441505040C8F7881B990B10
:105A30000895FB01DC0102C001900D9241505040DD
:085A4000D8F70895F894FFCF98
:105A480040018E1A461B271B231B1F1B8D1A01930F
:105A580002000000010000000093020000000301A2
:105A680000000093020404000000000000DC0004B1
:105A780001736C6176655F6D617472697800737922
:105A88006E635F74696D65720006040300010205A8
:105A9800946697333236407B22AC0231020F0212F1
:105AA800032B034403818283E200E900EA00B50086
:105AB800B600B700CD008301CC008A0192019401A1
:105AC8002102230224022502260227022A02B30009
:085AD800B4006F007000DD0254
:00000001FF
