:100000000C9478020C94BF020C94BF020C94D92279
:100010000C94BF020C94BF020C94BF020C94BF025C
:100020000C94BF020C94BF020C9496190C94D21835
:100030000C94D81C0C94BF020C94BF020C94BF0209
:100040000C94BF020C94BF020C94BF020C94BF022C
:100050000C94BF020C948B1C0C94BF020C94BF0236
:100060000C94BF020C94BF020C94BF020C94BF020C
:100070000C94BF020C94BF020C94BF020C94BF02FC
:100080000C94BF020C94BF020C94BF020C94BF02EC
:100090000C94BF020C94BF020C94BF020C94BF02DC
:1000A0000C94BF020C94BF020C94BF02C106C1069F
:1000B000F306F30665078107180918098C076A0813
:1000C0007B087B08E9161017B4181017B4185C17D2
:1000D0007F17B41875188418FF20FF2012211221F1
:1000E0000821122112211221FF20FF200D211221AF
:1000F00012210D210A00253464000A004572726F36
:10010000723A20646973636F6E6E656374207370F6
:100110006C69742068616C660A0044454255473A30
:100120002064697361626C65642E0A00444542551F
:10013000473A20656E61626C65642E0A004661690B
:100140006C656420746F206578656375746520251F
:10015000730A005B735D000A0025303862003A20A4
:100160000025303258000A722F6320303132333488
:100170003536370A000A0025303258006B6579623F
:100180006F6172645F7365745F6C65643A20002B05
:100190000014001A00080015001700E300E0000436
:1001A000001600070009000A000151E1001D001BB4
:1001B000000600190005002C002A00130012000C94
:1001C0000018001C00E600340033000F000E000D84
:1001D000000B000251E50038003700360010001116
:1001E00000280029001E001F00200021002200E33B
:1001F00000E000000000000000000000000151E1EC
:1002000000000000000000000000002C002A002771
:10021000002600250024002300E600000000004F17
:100220000052005100500002510000000000000088
:100230000000000000280029001E021F02200221E9
:10024000022202E300E000000000000000000000C5
:10025000000151E100000000000000000000002C3F
:10026000002A0027022602250224022302E6003586
:1002700000310230022F022E002D000251350231D2
:100280000030002F002E022D022800005CAB5D0024
:1002900000000000000000E300C35CC65CC85CCA4C
:1002A0005C000000000151C45CC75CC95CCB5C0011
:1002B0000000002C00000000000000000000000012
:1002C00000E6000000000000000000000000000246
:1002D0005100000000000000000000000028004F56
:1002E0006E6573686F743A206163746976653A204D
:1002F00025640A000A002530325820006B657962B7
:100300006F6172645F7265706F72743A20000631BB
:10031000FF0974A1010975150026FF0095207508D5
:1003200081020976150026FF00952075089102C00C
:1003300005010902A10185020901A10005091901B0
:10034000290815002501950875018102050109306C
:1003500009311581257F95027508810609381581B7
:10036000257F950175088106050C0A38021581253F
:100370007F950175088106C0C005010980A101852E
:100380000319012AB700150126B7009501751081E0
:1003900000C0050C0901A101850419012AA002155C
:1003A0000126A002950175108100C005010906A172
:1003B00001050719E029E715002501950875018158
:1003C000029501750881010507190029FF1500260E
:1003D000FF00950675088100050819012905950596
:1003E00075019102950175039101C05B435D005B4E
:1003F000445D005B535D005B575D005B525D00092F
:10040000025B00030100A0FA0904000001030101DE
:1004100000092111010001224000070581030800A5
:100420000A09040100010300000009211101000173
:10043000227B000705820320000A09040200020350
:100440000000000921110100012222000705830399
:100450002000010705030320000112010002000033
:100460000008EDFE716B0100010200012203430050
:100470006F0072006E006500200045004300200000
:100480005200650076006900760061006C00000093
:10049000100343006900700075006C006F00740069
:1004A000000004030904290A002575002F002575A2
:1004B000005D2800256400200025640020002564DC
:1004C0000020002564007C0025303258006D6F75D7
:1004D00073656B6579205B62746E7C782079207619
:1004E00020685D287265702F61636C293A205B007B
:1004F00011241FBECFEFDAE0DEBFCDBF04B603FE8E
:1005000027C08091D1029091D202A091D302B091E4
:10051000D4028730904BA740B04BD1F41092D10257
:100520001092D2021092D3021092D40214BE84B759
:10053000877F84BF0FB6F894A8958091600088618A
:1005400080936000109260000FBEE0E0F8E3099530
:1005500011E0A0E0B1E0EEEBF9E402C005900D92ED
:10056000A839B107D9F722E0A8E9B1E001C01D928E
:10057000A13DB207E1F70E94DB0C0C94DD240C9442
:100580000000FF93EF93E0919801F091990130976B
:1005900009F00995EF91FF910895FC018591803054
:1005A00011F0EFDFFBCF0895FF27E0E230E247FFD5
:1005B0000CC0419597FF09C0EDE26095709580955C
:1005C0009095611D711D811D911D27FF02C0219510
:1005D00030E350E2AA27660F771F881F991FAA1FD2
:1005E000A41710F0A41B63955A95A9F7AA3008F038
:1005F000A95FA05DAF93F395611571058105910524
:1006000041F7ED3211F4EF93F395F21718F43F939D
:10061000F395FBCF8F91B5DFFA95E1F70895E99156
:10062000F9918591803021F0853219F0AADFF9CF58
:10063000089520E0E89455915532C1F3503311F4F8
:10064000689455915A3348F4505390F3220F022E78
:10065000220F220F200D250FF4CF0EF42195899142
:100660009991533619F3533729F1533559F1BC0198
:1006700088279927E8945C3621F4899199916894A8
:100680005591543639F446EF7EF077FF0DC08FEF69
:100690009FEF0AC055374AE039F0583540E121F064
:1006A000523642E009F00895FF93EF937DDFEF911A
:1006B000FF91B7CFFF93EF93FC0181918030B9F3A5
:1006C00060DFFBCFFF93EF9368DFF1CFDF93CF9332
:1006D000CDB7DEB72596A3DFCF91DF9108951F93A5
:1006E000CF93DF93CDB7DEB767970FB6F894DEBF31
:1006F0000FBECDBF4B8B5C8B6D8B7E8B8F8B611157
:100700001092720286E09E01235F3F4FD901E82FCD
:100710001D92EA95E9F795E0FE017396D9010190E3
:100720000D929A95E1F79C894E895F897B897D8737
:100730009E876F87598B488BF901DE0117960190D0
:100740000D928A95E1F7CE0107960E94201481113F
:100750003EC086E0FE013796DE01119601900D92B3
:100760008A95E1F7FF81E8856A857B8561157105CA
:1007700031F0EF3F31F481E0FF3F19F403C081E035
:1007800001C080E080FD23C020913E0230E0C9011D
:1007900001968770992740916F0250E08417950762
:1007A00079F1F983EA837D836C8396E0929FD0018F
:1007B000939FB00D1124A15CBD4FFE0131960190B5
:1007C0000D929A95E1F780933E020E948E1316E0F7
:1007D00080916F0290913E028917F9F0189FC00135
:1007E0001124815C9D4F0E9420148823B1F08091D8
:1007F0006F0290E001968770992780936F02E8CF8F
:100800000E94162110923E0210926F02E8E3F2E07D
:1008100086E0DF011D928A95E9F767960FB6F89496
:10082000DEBF0FBECDBFDF91CF911F9108958F9294
:100830009F92AF92BF92CF92DF92EF92FF920F936F
:100840001F93CF93DF93CDB7DEB72A970FB6F894F7
:10085000DEBF0FBECDBFFC010081D18083819481BA
:10086000892B39F01FEFD11206C091E00F3F19F428
:1008700003C091E001C090E090FD3AC57F0185E0A2
:10088000DE01169601900D928A95E1F7F70122811B
:100890008E819F81222349F00E94CC1F182F682F40
:1008A0008E819F810E94512003C00E942520182F15
:1008B0002AE2129FF001112437E0D39EE00DF11DD2
:1008C0001124E00FF11DEE0FFF1FE157FE4F0591C0
:1008D0001491043F8CE5180741F190F4093DECE5D3
:1008E0001E07E9F00A3DFCE51F0789F1083D2CE5EC
:1008F0001207B1F506E221EE41EE68ED7CE52CC071
:10090000063F3CE51307E9F0B0F0073F9CE5190707
:1009100039F507E225EE46EE67EF7CE51DC007E2FC
:1009200025EE45EE69ED7CE517C006E221EE40EECE
:1009300064EF7CE511C007E225EE44EE65EF7CE54F
:100940000BC006E221EE42EE66EF7CE505C008E250
:1009500021E045EE6AED7CE5C7010E94641DA5C457
:10096000F7018281882309F445C11092A302043063
:10097000FDE51F0758F40B3F2CE5120760F4C80192
:1009800082509C45449708F01FC105C002363DE5E2
:10099000130709F019C10E944F1290931C02809313
:1009A0001B0200318CE5180709F4CAC008F041C0E9
:1009B0000830ECE51E0709F4A4C0F0F404302CE57F
:1009C000120709F48CC068F402308CE5180709F4AA
:1009D00082C003301C4509F0E7C080911B02826091
:1009E000E1C00630ECE51E0709F483C008F085C0BD
:1009F00080911B028860D6C00C302CE5120709F4E8
:100A000090C068F40A308CE5180709F47EC008F03D
:100A100084C00E94162180911B028068C3C00E30E2
:100A2000ECE51E0709F481C008F086C080911B0226
:100A300094C00D3F2CE5120709F47BC038F5043152
:100A40008CE5180709F49AC058F40231ECE51E074A
:100A500009F47AC008F07EC080911B028F7BA2C08F
:100A60000B3F2CE51207F1F108F03FC005311C45A2
:100A700009F09AC080911B0282FB222720F991E0A5
:100A8000922790FB82F990FB83F98CC001309DE5A1
:100A9000190709F467C050F480911C020F3FFCE570
:100AA0001F07C1F108F05BC08D7F65C003303DE5D5
:100AB000130709F471C008F46DC002361D4509F032
:100AC00073C080911B0284FB222720F991E09227BA
:100AD00090FB84F967C080911B02816063C08091A4
:100AE0001B0216C080911C0216C080911C028260FD
:100AF00042C080911B02806155C080911B028062C0
:100B000051C080911B0280644DC080911B0288609F
:100B1000846048C0826081602EC080911B028E7FFD
:100B200041C080911B028D7F3DC080911B02877F59
:100B300039C080911C0214C080911B028F7E32C08C
:100B400080911B028F7D2EC00E94162180911B0276
:100B50008F7728C080911B02877F8B7F23C08D7F7A
:100B60008E7F09C080911C02982F909591708E7F86
:100B7000892B90FB81F980931C0216C00E941621DC
:100B800080911B0287FB222720F991E0922790FB9E
:100B900087F908C061E001C060E08EE090E00E944B
:100BA000662402C080931B0260911B0210911C02FC
:100BB00084E090E00E946624612F82E290E00E942F
:100BC00066240E94162171C306312CE5120719F51F
:100BD000809173028A7A91E009F490E09093F80191
:100BE000882311F065E301C069E280E392E00E948E
:100BF0000E1D0EC006311C4509F067C08091F8013A
:100C0000882309F473C365E380E392E00E94011D29
:100C10000E94D8124AC30F3DECE51E0709F447C0F5
:100C200040F401152CE5120799F001301C4561F1E3
:100C30004CC00C358DE5180709F444C00D359DE511
:100C40001907C1F10B351D4509F03FC081E03BC0DC
:100C50000E941621FFEF04E31CE0F1500040104019
:100C6000E1F700C0000087E797E7909301088093C1
:100C700000089AE088E10FB6F894A8958093600088
:100C80000FBE90936000FFCF80919602982F9095B1
:100C9000917090FB80F980939602992319F08CE271
:100CA00091E002C08AE191E00E94CD02FEC20E9462
:100CB0006012FBC280911C0282FB882780F991E0C0
:100CC000892701C080E00E945F13F70182810081C3
:100CD000D180882359F0802F9D2D0E94CC1F182F82
:100CE000682F802F9D2D0E94512005C0802F9D2DA3
:100CF0000E942520182F2AE2129FF001112437E0CC
:100D0000D39EE00DF11D1124E00FF11DEE0FFF1F2A
:100D1000E157FE4F859194910E94B5108C01982E59
:100D2000F701D280A580A2943FE0A32280917002B7
:100D30008770B9F0DD20A9F0812F807F803421F009
:100D400080E2800F883068F080911C0282FD09C02B
:100D500082E00E944213809170028770CC24C39479
:100D60008111C12CB12EB2949FE0B9228B2D90E05D
:100D70008C30910508F05CC2FC01EA5AFF4F0C94DC
:100D8000BA24812F807F1F70882311F01295107F65
:100D9000DD20B9F0112309F438C280E2800F8830D9
:100DA00010F0911006C080917302182B10937302FB
:100DB00005C080917202182B109372020E94D81203
:100DC00024C2802F0E943221112309F431C2005E17
:100DD000083078F1992069F11095809172021823FA
:100DE0001093720229C0812F807F1F70803211F012
:100DF0001295107F992021F0F1E09F16D9F149C09A
:100E000080911C0282FF1BC0DD2069F0112339F0A4
:100E100080917302182B109373020E94D81280E005
:100E20000E94922105C280E00E943221112309F420
:100E3000FFC1812F0E94D1120E94D812F9C1DD207A
:100E400081F080917402AA2051F001E0A01207C045
:100E5000182B181709F4ECC110937402E9C1812B07
:100E600010C0AA2021F021E0A21609F4E1C10E94DD
:100E7000CB1227C0DD2041F035E03A1508F4D8C187
:100E8000812F0E942821D4C184E08A1508F4D0C1A2
:100E900018C0DD2049F0AA2099F3F701858180FF71
:100EA000B4C18F708583ECCFAA2059F0093309F0C3
:100EB000BCC1FFEF17EE23E0F15010402040E1F7F6
:100EC000B2C1812F0E942121B3C1812F86958695C1
:100ED000837019F0813059F0ABC1DD2019F0C801E1
:100EE000937002C080E090E00E943E1DA7C1DD200B
:100EF00019F0C801937002C080E090E00E94281DA4
:100F00009DC1802FDD2019F00E94541F02C00E9455
:100F10009B1E0E94EF1D92C1812F837009F069C052
:100F2000D1108AC1902F929596959770990F990F2D
:100F3000802F8F70882E912CA12CB12C092E04C0EB
:100F4000880C991CAA1CBB1C0A94D2F704FF12C07F
:100F50004FE050E060E070E004C0440F551F661F92
:100F6000771F9A95D2F7DB01CA0180959095A095DD
:100F7000B09503C080E090E0DC0116951695412FF6
:100F80004370423019F1C8F4009175021091760255
:100F90002091770230917802413059F088299929BF
:100FA000AA29BB29BC01CD0160237123822393238D
:100FB0000AC0802A912AA22AB32ABC01CD0168293D
:100FC00079298A299B290E94E02036C188299929FC
:100FD000AA29BB290091750210917602209177020F
:100FE00030917802BC01CD016027712782279327B9
:100FF000EACFDD2019F0812F817001C0869588230A
:1010000009F41AC1902F929596959770990F990FA0
:10101000802F8F70882E912CA12CB12C092E04C00A
:10102000880C991CAA1CBB1C0A94D2F704FF12C09E
:101030004FE050E060E070E004C0440F551F661FB1
:10104000771F9A95D2F7DB01CA0180959095A095FC
:10105000B09503C080E090E0DC0116951695412F15
:1010600043704230D9F068F50091170210911802D0
:101070002091190230911A02413059F0882999299A
:10108000AA29BB29BC01CD016023712382239323AC
:101090001EC0802A912AA22AB32A13C0882999291E
:1010A000AA29BB2900911702109118022091190258
:1010B00030911A02BC01CD01602771278227932746
:1010C00006C0BC01CD01682979298A299B290E9483
:1010D0007C20B2C01F70DD2039F0812F0E94BF201C
:1010E000802F0E942821A8C0802F0E942121812FBB
:1010F0000E949A20A1C0802F32EF931609F443C0BA
:10110000391538F090EF991659F0E1EF9E16B1F1CC
:1011100077C0F3EF9F16F1F124EF921659F170C0EA
:10112000DD2019F134E03A1508F482C01F7181E026
:1011300090E0A0E0B0E0AC01BD0104C0440F551F39
:10114000661F771F1A95D2F78091170290911802A7
:10115000A0911902B0911A028A019B010827192750
:101160002A273B27C901B80129C025E02A1508F420
:101170005FC0DCCF80911C0282FF23C0DD2029F0FC
:10118000812F8F7130C0DD20D9F3812F8F710E94A4
:101190009A204EC0DD2079F01F7181E090E0A0E040
:1011A000B0E0BC01CD0104C0660F771F881F991FF6
:1011B0001A95D2F703C060E070E0CB010E947C205A
:1011C00037C0DD2099F01F71812F0E94BF208091D0
:1011D0001C0282FD07C038E0139FC0011124836008
:1011E00080937002812F0E94BF2022C081E00E9464
:1011F000421381E08A15E0F482E00E94421318C095
:10120000DD2029F0AA2009F4BBCF802F09CEAA2027
:1012100009F4BBCF893349F49FEFE7EEF3E0915037
:10122000E040F040E1F700C00000802F0E94322132
:1012300088EF8B0D843010F40E94541DCC20A9F04F
:101240008091700280FD11C0F7011282859585950D
:1012500085950E94BF20C7010E94170480917002EB
:101260008595859585950E949A2085E0F701DE0198
:10127000119601900D928A95E1F789819A810E94D9
:1012800025209A810AE2809FF001112417E0919FA6
:10129000E00DF11D11248981E80FF11DEE0FFF1FF4
:1012A000E157FE4F8591949123C080917002877021
:1012B000F9F0F70182818823D9F080911C0282FD28
:1012C00017C082E02A960FB6F894DEBF0FBECDBFDE
:1012D000DF91CF911F910F91FF90EF90DF90CF9012
:1012E000BF90AF909F908F900C94421369E28CCC8A
:1012F0002A960FB6F894DEBF0FBECDBFDF91CF9117
:101300001F910F91FF90EF90DF90CF90BF90AF9023
:101310009F908F9008958295982F937344E0949FA7
:10132000900111248C7C86958695282B822F8575BB
:10133000880F2A7A2695822B08952F923F924F92FA
:101340005F926F927F928F929F92AF92BF92CF9255
:10135000DF92EF92FF920F931F93CF93DF93CDB75E
:10136000DEB727970FB6F894DEBF0FBECDBF0AE9F0
:1013700011E069E4662E61E0762E1D830C83512C0A
:1013800080E090E061E070E0219A769AD3012D919F
:101390003D0120FF02C02B9A01C02B9821FF02C003
:1013A0002A9A01C02A9822FF02C02E9A01C02E98C4
:1013B0007698B0EABA95F1F75B01082E02C0AA0C44
:1013C000BB1C0A94E2F73A2C4A2C4094EDE1F2E07F
:1013D00052E5852E51E0952E20E030E0219A45E03F
:1013E0004A95F1F7000042E5E42E41E0F42EB5E520
:1013F000EB16B1E0FB06D9F0D701DD907D01AD2DF4
:10140000A295AF704A2F50E0DA0192962C90BD2D34
:10141000BF70DB2EDB0102C0AA0FBB1FDA94E2F71C
:101420006D01C094C220DA019296CC92E0CFF8947C
:1014300021982998D401FD904D01AF2DA295AF7050
:101440004A2F50E0DA019296DC90BF2DBF70FB2E40
:10145000DB0102C0AA0FBB1FFA94E2F77D01ED2861
:10146000DA019296EC92B5E1BA95F1F7000046E800
:1014700040937A0050E850937B00A0911E01A66033
:10148000A0937C00A0917A00A064A0937A00A09120
:101490007A00A6FDFCCFA0917800F0907900B0E032
:1014A000AD015F295F834E83F0907A005F2D5F77F7
:1014B00050937A007894EC80FD80E20EF31E4E810A
:1014C0005F81D7014D935C93D080ED2CF12CEA2005
:1014D000FB20EF2849F0E0901102F09012024E1527
:1014E0005F0578F4D4200AC0E0901302F090140253
:1014F000AE81BF81EA16FB0620F4D328D082A1E09A
:1015000001C0A0E05A2A3196225F3F4F2A323105AE
:1015100009F064CF0196EC81FD813296FD83EC8366
:101520008730910509F030CF219A8091EE0190919A
:10153000EF019C012F5F3F4F8C32914029F0309397
:10154000EF012093EE0135C01092EF011092EE01F1
:1015500086EFC82E80E0D82E94EFA92E90E0B92E09
:1015600041E0043C140709F1E12CF12CF801EE0DE7
:10157000FF1D81818F9380818F93DF92CF920E9494
:10158000660322E0E20EF11C0F900F900F900F9077
:101590003EE0E316F10451F7BF92AF920E9466035A
:1015A000025F1F4F0F900F90DBCF8AEF90E00E94F9
:1015B000CD0251106EC00E948810882311F119824B
:1015C0001A821B820091150210E00D5D1D4F29E368
:1015D0003CE041E351E0BE016F5F7F4FC8010E94D4
:1015E000F70F882309F482C027EC3BE04EE351E07B
:1015F000BE016F5F7F4FC8010E94F70F811195C038
:1016000075C0E0911602F0E0ED5DFD4FF89483E0C7
:10161000A2E0B2E001900D928A95E1F782E092E0BB
:101620000E94C115809301027894F894C09005023D
:10163000D0900602E0900702F09008028091F0013D
:101640009091F101A091F201B091F301C816D90671
:10165000EA06FB06D1F0C092F001D092F101E092CF
:10166000F201F092F3010E94881081110EC00E94D5
:10167000C01CC61AD70AE80AF90AC0920D02D09215
:101680000E02E0920F02F0921002789400E010E057
:1016900002C001E010E0F090160200FF09C081E0F6
:1016A0008093F7010E94CC1C9093F6018093F50182
:1016B0008091F701882309F450C08091F501909141
:1016C000F6010E94B11C059708F447C0EF2DF0E029
:1016D000ED5DFD4F80911D02808380911E0281830C
:1016E00080911F0282831092F70137C08091F4012C
:1016F0008F5F8093F4018531B0F08091960280FF76
:1017000008C08CEF90E09F938F930E9466030F9028
:101710000F90E0911502F0E0ED5DFD4F1082118217
:10172000128201E0B8CF00E0B6CF1092F401E09150
:101730001502F0E0ED5DFD4FDE0111969E012C5F7C
:101740003F4F00E08D919081981711F0808301E068
:1017500031962A173B07B1F79ECF802F27960FB6F9
:10176000F894DEBF0FBECDBFDF91CF911F910F91D7
:10177000FF90EF90DF90CF90BF90AF909F908F90B1
:101780007F906F905F904F903F902F9008950F93B0
:101790001F93CF93DF9300D000D0CDB7DEB7409139
:1017A000090250910A0260910B0270910C022FB74E
:1017B000F8948091AB029091AC02A091AD02B091EF
:1017C000AE022FBF841B950BA60BB70B8436910579
:1017D000A105B10508F443C00E948810882319F0C0
:1017E0000E94C01C0EC00E94C01C00910D021091EE
:1017F0000E0220910F0230911002600F711F821FA4
:10180000931FDC01CB010296A11DB11D89839A8330
:10181000AB83BC8380911701909118018F5F9D4F1E
:101820004091160150E04530510510F044E050E081
:10183000BE016F5F7F4F0E94D42482E090E00E943F
:10184000A023892B11F080E00BC00E94C01C609384
:10185000090270930A0280930B0290930C0281E0BC
:101860000F900F900F900F90DF91CF911F910F91DC
:101870000895EF92FF921F93CF93DF9300D000D093
:10188000CDB7DEB77B0180E090E00E94A023892BDA
:1018900009F065C04091050150E04115510511F076
:1018A00041E050E060910601709107016F5F7D4F4C
:1018B000CE0104960E94D4244091FD015091FE0176
:1018C0006091FF01709100022FB7F8948091AB02F4
:1018D0009091AC02A091AD02B091AE022FBF841BDB
:1018E000950BA60BB70B84369105A105B10538F40D
:1018F00082E092E00E94C1159C81891791F181E0FC
:1019000090E00E94A023892BA1F440910F0150E0A8
:101910004430510510F043E050E0609110017091A7
:1019200011016F5F7D4FCE0101960E94D42411E01A
:1019300001C010E082E092E00E94C11591E02C818C
:10194000281390E0192311F10E94C01C6093FD013F
:101950007093FE018093FF01909300020CC010E091
:1019600001C011E08091020290910302A091040253
:1019700089839A83AB83112349F089819A81AB8152
:101980008093FA019093FB01A093FC018091FA01EE
:101990009091FB01A091FC01F70180839183A283C8
:1019A000812F0F900F900F900F90DF91CF911F918B
:1019B000FF90EF900895CF93DF93CDB7DEB7639795
:1019C0000FB6F894DEBF0FBECDBF84B7877F84BF4C
:1019D0000FB6F894A89580916000886180936000AC
:1019E000109260000FBE90E080E80FB6F8948093EC
:1019F0006100909361000FBE85B7806885BF85B791
:101A0000806885BF85EC9AE1909399018093980155
:101A10000E9416190E9435198091E200846080931B
:101A2000E2007894809189028823A1F01091E90066
:101A30001F709091EC00892F817090FD80E8182B29
:101A40001092E9008091E80083FD0E9404161F7047
:101A50001093E90082E084BD93E095BD9AEF97BDB5
:101A600080936E0010920D0210920E0210920F02DF
:101A7000109210020E94AB1080912D0190912E01C6
:101A8000A0912F01B0913001809311029093120226
:101A9000A0931302B09314020E94AB10A2E5B1E030
:101AA00041E050E011E0A535B107B1F08D91E82F8C
:101AB000E295EF70F0E021A18F708A0102C0000F63
:101AC000111F8A95E2F7C801922F982B91A392A13A
:101AD0008095892382A3E6CFA5E5B1E028E531E032
:101AE00041E050E02A173B07B1F08D91E82FE295D5
:101AF000EF70F0E061A18F708A0102C0000F111F2A
:101B00008A95E2F7C801962F982B91A392A1809510
:101B1000892382A3E7CF249A2C9A849A8C9A6E9A6E
:101B200076982998219A80E480931E010E9488105B
:101B3000811102C00E94962280911F01811102C072
:101B400093E001C090E09093160283E0891B80939C
:101B500015020E948810811102C00E949622EDE1B8
:101B6000F2E0A3E2B2E011921D9212E0E332F1073B
:101B7000D1F780E090E00E946024893E9E4F11F0F2
:101B80000E94601282E090E00E94582480939602A6
:101B90000E944F1290931C0280931B0283E090E0FE
:101BA0000E945824682F70E080E090E00E94E020BE
:101BB00080E291E09093A7028093A60238E1232E61
:101BC000312C41E6442E41E0542E59E5652E51E07A
:101BD000752E80918902853009F046C083E591E039
:101BE0000E94CD0200E112E180918902853009F066
:101BF00037C080918902843011F11092AA0230E43A
:101C00000FB6F894A895209260000FBE3093600044
:101C100083B7817F846083BF83B7816083BF7894FB
:101C2000889583B78E7F83BF0FB6F894A89580916F
:101C30006000886180936000109260000FBE809108
:101C40008802882309F4D0CF0E949D09E3E2F2E0E4
:101C500081918111ACC142E0E932F407C9F7C4CFE8
:101C60000E9416210E94541D0E949D0981110E940C
:101C7000C01C9AE2C92E92E0D92E23E2A22E22E0C5
:101C8000B22E00E010E00B8BF50121915F012A8B51
:101C9000F60181916F012827298B211116C00F5F52
:101CA0001F4F0630110579F78FEF8C878D871E86C1
:101CB0000E94CC1C8160782F988B8F874C855D8526
:101CC0006E8588890E946F0360C08091960281FDB5
:101CD00004C0E12CFF24F39436C086E691E00E9414
:101CE000CD0283E2882E82E0982EE12CF12CFF9227
:101CF000EF925F924F920E9466038EE591E00E9400
:101D0000CD02F40181914F010E948B091F928F93A4
:101D10007F926F920E94660387E591E00E94CD0258
:101D2000FFEFEF1AFF0A0FB6F894DEBF0FBECDBF6C
:101D300036E0E316F104D9F6CCCFE394FF0C67E06C
:101D4000E61609F4ACCF89898F21B9F30E94881077
:101D50008823A9F0EF824B8948879A899F2181E0E7
:101D600009F480E089870E94CC1C8160782F9B87D2
:101D70008A874F81588569858B850E946F03F8019A
:101D8000E65DFD4F8081F826F08286E0EBE9F2E027
:101D9000DE01119601900D928A95E1F7E0909D0287
:101DA000F0909E0200919F021091A00210929D025D
:101DB00010929E0210929F021092A002E11003C0A6
:101DC000FF2009F451C08091990290919A020E94DB
:101DD000B11C9C0190919502992309F4FEC0233314
:101DE000310508F441C09F3F19F09F5F9093950221
:101DF000EE2061F00E94341F1E1414F09FEF01C00A
:101E000091E0899F802D112480939D02FF2061F035
:101E10000E94341F1F1414F09FEF01C091E0899FAE
:101E2000802D112480939E0230919D023323E1F096
:101E300020919E022223C1F075EB3703C0011124CB
:101E4000992319F090939D0203C081E080939D0235
:101E500035EB2303C0011124992319F090939E02BE
:101E600003C081E080939E02011103C0112309F495
:101E700051C080919702909198020E94B11C9C01E0
:101E800090919302992309F4ADC02536310508F4E9
:101E900041C09F3F19F09F5F90939302002361F030
:101EA0000E94121F101614F09FEF01C091E0899F4D
:101EB000802D112480939F02112361F00E94121F34
:101EC000111614F09FEF01C091E0899F802D11241D
:101ED0008093A00230919F023323E1F02091A00271
:101EE0002223C1F045EB3403C0011124992319F0DA
:101EF00090939F0203C081E080939F0265EB2603CD
:101F0000C0011124992319F09093A00203C081E02D
:101F10008093A00280919D0281110BC080919E024E
:101F2000811107C080919F02811103C08091A0029E
:101F300081110E94EF1DEB82FC820D831E8386E0DF
:101F4000FE013196ABE9B2E001900D928A95E1F77E
:101F50000E94541D90912902891709F43ACE0E94DB
:101F6000541D182F809329028091960282FF31CE52
:101F700080FF04C08CE791E00E94CD028091960220
:101F800080FF0CC01F921F9387E791E09F938F9370
:101F90000E9466030F900F900F900F908091960211
:101FA00080FF17CE85E791E00E94CD0212CE09BDD9
:101FB00019BD09B400FEFDCF8091D8008F7D8093BC
:101FC000D8008091E00082608093E0008091E00082
:101FD00081FDFCCF0E94162107CE2D32314008F042
:101FE00004CF42CF2D32314008F055CF93CFAF927E
:101FF000BF92CF92DF92EF92FF920F931F93CF93F6
:10200000DF937C015B01142F052F6901C1E0D0E053
:10201000F894B501C701F60109957894811129C09A
:102020002196CB30D10589F0CC9F9001CD9F300D0A
:10203000300D112480E090E045E34A95F1F700006F
:10204000019628173907C1F7E3CF90919602892F9F
:10205000817090FF0FC00F931F938DE391E09F93CA
:102060008F930E9466030F900F900F900F9080E067
:1020700001C081E0DF91CF911F910F91FF90EF9010
:10208000DF90CF90BF90AF90089590911B0292FF88
:102090000DC0282F2871283019F4877F846006C06E
:1020A000282F2471243011F48B7F886093FF0DC09A
:1020B000282F2871283119F4877E846106C0282FC3
:1020C0002471243111F48B7E886120911C0220FF41
:1020D0000DC0382F3871383019F4877F816006C001
:1020E000382F3171313011F48E7F886021FF0DC09F
:1020F000282F2871283119F4877E816106C0282F86
:102100002171213111F48E7E886194FD877E0895BE
:1021100080917902811118C08091D80080618093EC
:10212000D8008AE18A95F1F700C08091D90080FD3E
:1021300002C082E001C081E080937902823021F404
:102140000E9416191092890281E0909179029130D3
:1021500009F080E008950E94881080931F010E947A
:10216000881081110C9493220895CF93DF938238C5
:10217000910569F1B0F48133910509F46FC048F419
:102180008932910509F465C08A32910509F46BC062
:102190008AC08533910509F457C089339105B9F098
:1021A00082C0833E910571F138F4803E9105B1F013
:1021B000823E910511F177C0863E9105B9F1873EC7
:1021C0009105C9F1843E910509F06DC024C02091AC
:1021D0001B0220FD53C021FD51C065C080911B0230
:1021E00080FD46C080911C0280FF48C080911B0288
:1021F00084FD50C183EE90E04FC180911B0282FFAD
:102200003AC0F4CF80911B0282FD35C080911C0240
:1022100080FD34C0EBCF80911C0281FF35C08091DE
:102220001B0284FD37C187EE90E036C180911B020E
:1022300083FF27C0F4CF80911B0283FD22C08091D1
:102240001C0281FD21C0EBCF80911B0285FD1FC0C8
:1022500021C080911B0285FD1DC019C080911B0209
:1022600086FD1BC01DC080911B0286FD19C015C0D4
:1022700089E390E011C182EE90E00EC180EE90E023
:102280000BC186EE90E008C184EE90E005C189E2C2
:1022900090E002C185E390E0FFC08AE290E0FCC0DC
:1022A00081E390E0F9C0811531E5930708F069C03A
:1022B000811540E59407F0F09C0174E03695279570
:1022C0007A95E1F7922F9370482F437021E030E028
:1022D00002C0220F331F4A95E2F73C68392B982F32
:1022E0009F709695969540E2949FC0011124822B91
:1022F000932BD2C0883E910568F5803E910508F089
:10230000CBC0883A9105B8F4853A910548F0855AD2
:10231000E82FF0E0E85AFE4F808190E09064BCC066
:102320008130910509F4B3C008F4B4C0843091053C
:1023300008F4B0C0B1C08F3B910508F0ABC0885A1B
:10234000E82FF0E0EE0FFF1FE55AFE4F80819181EC
:102350009464A2C0811520E2920758F4811531E0FF
:10236000930708F099C08D3E910508F493C09065DD
:1023700093C0811540E4940708F48CC09F70906A64
:102380008BC0811525E5920708F042C0811534E520
:10239000930728F0982F8827846F906A7DC0811555
:1023A00043E59407B0F09C012370332741E050E0EF
:1023B00002C0440F551F2A95E2F7282F269526952F
:1023C00080E2289F90011124CA01822B932B9A68E6
:1023D00063C0811522E5920728F4982F8827816F22
:1023E000906A5AC09C012370332741E050E002C03C
:1023F000440F551F2A95E2F7282F2695269580E24F
:10240000289F90011124CA01822B932B9C6844C001
:10241000EC01811539E59307A8F48115984528F05A
:102420009C2F8827806F906A37C0C11586E5D80732
:1024300088F58C2F0E9445108F7190E0982F882787
:1024400090622AC081152AE5920790F48C2F8F7034
:102450000E94451094E0D695C7959A95E1F7CF7004
:10246000D0E0DC2FCC27D0699E01282BC90114C0F5
:1024700090568115904270F48D2F8F710E944510F7
:10248000282F2F71CE0199279062922B05C081E0F1
:1024900090E002C080E090E0DF91CF910895CF936B
:1024A00084E090E00E945824C82F82E290E00E94CD
:1024B00058242C2F30E0A901582BCA01CF91089540
:1024C00069EE7EEF80E090E00E94842460E082E08C
:1024D00090E00E94662460E083E090E00E94662421
:1024E0001092750210927602109277021092780282
:1024F00060E084E090E00E94662460E082E290E088
:102500000E94662460E085E090E00E94662460E01E
:1025100086E090E00E9466246FEF87E090E00E94E2
:10252000662440E050E0BA0188E090E00E94782400
:1025300060E08DE090E00E94662440E050E0BA0147
:1025400088E190E00E94782460E087E190E00E94BA
:10255000662440E050E0BA018CE190E00E947824CB
:1025600060E070E080E290E00E94842440E050E06F
:10257000BA0188E190E00E94782440E050E0BA017E
:102580008FE090E00E94782440E050E0BA0183E1BF
:1025900090E00C947824809174028111109274025E
:1025A0000895809590917302892380937302089512
:1025B000EF92FF920F931F93CF93909173028091AC
:1025C0007202892B20917102982F922B90933002E6
:1025D00080917402882389F0892B80933002E2E392
:1025E000F2E097E080E0915029F021912223D9F385
:1025F0008F5FF9CF81110E94CB12E091A602F0917A
:10260000A7023097C9F10280F381E02D80E392E0C8
:1026100009958091960282FF2FC080FF04C08CEF45
:1026200092E00E94CD0200E312E0C8E086EFE82EBF
:1026300082E0F82E8091960280FF0CC0F801808124
:102640001F928F93FF92EF920E9466030F900F905C
:102650000F900F90C1500F5F1F4FC111EBCF8091B2
:10266000960280FF09C084EF92E0CF911F910F91F5
:10267000FF90EF900C94CD02CF911F910F91FF909E
:10268000EF900895209170028095822380937002CC
:10269000982F977099F430E0482F082E000C550BB6
:1026A0002417350759F090911C0292FD07C08595BB
:1026B000859585950E949A20109270020895CF9377
:1026C000DF93C0911C02C2FB992790F9981719F16A
:1026D000D82F80FBC2F9C0931C0260911B0284E0DA
:1026E00090E00E9466246C2F82E290E00E946624B3
:1026F00082E00E9442138091960280FF0CC01F92DC
:10270000DF938FED92E09F938F930E9466030F906B
:102710000F900F900F90DF91CF91089580916F02ED
:1027200090913E02891719F08F5F8770FBCF089553
:102730000F931F93CF93DF9380913D0282958F700B
:1027400009F05DC080913A02882309F458C0809155
:102750006F0210913E026091380270913902C0916F
:102760003B02D0913C0291E06F3F09F090E0292FAD
:1027700006E0811709F443C0209721F07F3F21F044
:1027800030E003C031E001C0322F90E030FD34C0B2
:10279000089FF001099FF00D1124DF01A15CBD4FDE
:1027A00011963C911197371327C03C91361324C0E2
:1027B00012963C91129731111FC013964D915C9166
:1027C00014974C1B5D0B483C5105B0F480913D02C1
:1027D0008F70806180933D02EC5BFD4F80818F7034
:1027E0008061808388E392E00E941704DF91CF919B
:1027F0001F910F910C948E1301968770BACFDF91C1
:10280000CF911F910F910895CF93DF93EC010E9418
:10281000CC1F2AE2829FC0011124FC0127E0D29F35
:10282000E00DF11D1124EC0FF11DEE0FFF1FE1571C
:10283000FE4F859194910E94B510DF91CF9108953C
:102840009F92AF92BF92CF92DF92EF92FF920F933F
:102850001F93CF93DF93CDB7DEB761970FB6F89490
:10286000DEBF0FBECDBF8C0185E0F801DE011D96F5
:1028700001900D928A95E1F7F801E280909138027B
:102880006091390240913B0250913C024115510543
:1028900031F06F3F31F481E09F3F19F403C081E0D4
:1028A00001C080E0F82FF1709F2E80FD1AC1F80161
:1028B00030812181C380D48088E3A82E82E0B82EA5
:1028C000F0903A02F601E41BF50BFF2009F4C6C0B4
:1028D00080913D02E83CF10508F091C0482F407F0F
:1028E00009F050C0621311C093130FC0FE2CE11009
:1028F0000CC08F70806180933D02C5010E94170457
:1029000080913D02F801858329C1CD2831F02F3F08
:1029100031F481E03F3F19F403C081E001C080E061
:1029200080FD03C081E08E2502C080E090E0F82F9A
:10293000F170FF2E80FF1CC080916F0240913E021B
:1029400056E0841709F4E8C090E0589FF001599FC1
:10295000F00D1124E15CFD4F6181261306C06081FA
:10296000631303C06281E61203C001968770E9CF4A
:10297000FE2CEE2009F4F2C080913D02816080932C
:102980003D0249C0621306C0931304C0E11002C0A7
:10299000F80186C0C8010E94EA20882351F1EE2088
:1029A00041F120913D02822F82958F7090E0029735
:1029B00074F0809138029091390298878F8319863C
:1029C000DB86CA862C87CE0107960E94170486E014
:1029D000F801A8E3B2E001900D928A95E1F70E9418
:1029E00098130AC06217C9F0C8010E94EA20811139
:1029F0001EC0C8010E941704FF24F394AFC0482FE3
:102A0000407F81F788E392E00E94170486E0F50199
:102A100011928A95E9F7F12CA1C09313E5CFE1104B
:102A2000E3CFF8018583C8010E94170454C0EE204B
:102A300001F320913D02822F82958F7090E00297E2
:102A400034F280913802909139029A8389831B82F3
:102A5000DD82CC822E83CE010196B7CFE83CF10512
:102A6000D0F5FE2CEE2029F2621327C0931325C067
:102A700020913D0220FD18C0822F82958F70482F33
:102A800050E04115510581F0F80125834F30510583
:102A900041F08F5F982F9295907F822F8F70892BB6
:102AA0008583C8010E94170486E0F801A8E3B2E01C
:102AB00001900D928A95E1F751C0C8010E94EA2069
:102AC000811185CF80913D02816080933D02C801D4
:102AD0000E94170443C086E0F50111928A95E9F738
:102AE0003DC0EE2009F485CFC8010E94EA20F82EEF
:102AF000882309F47ECF86E0F801A8E3B2E00190D4
:102B00000D928A95E1F780913802909139020E94E6
:102B100004140E94981322C03D872E878D859E85C0
:102B20000E940414292F22952F70223028F49F70C0
:102B300039F0811105C00BC0243028F49F7049F48E
:102B4000805E883020F0C8010E9417049F2CF92C69
:102B500005C0F8019581907F99F7F9CF8F2D619687
:102B60000FB6F894DEBF0FBECDBFDF91CF911F919E
:102B70000F91FF90EF90DF90CF90BF90AF909F901C
:102B80000895FC01AC014D5F5F4F8FEF91E3219100
:102B9000822728E030E087FF03C0880F892701C023
:102BA000880F21503109B9F7E417F50781F7089527
:102BB000EF92FF920F931F93CF93DF937C018B01D2
:102BC0000E94A61B811119C0E70101151105A1F092
:102BD0008091E80085FD0AC08091E8008E7780939F
:102BE000E8000E94A61B882381F307C08991809387
:102BF000F10001501109E9CF80E0DF91CF911F91E1
:102C00000F91FF90EF9008951F93CF93DF93CDB76F
:102C1000DEB7AA970FB6F894DEBF0FBECDBFEBE8C4
:102C2000F2E08091F100819342E0E339F407C9F7C3
:102C300080918C02833009F461C030F4813071F0EE
:102C4000823009F49BC0B2C08A3009F487C08B304F
:102C500009F46CC0893009F0A9C020C080918B02B2
:102C6000813A09F0A3C08091E800877F8093E80053
:102C700080918F0290919002892B21F468E08FE778
:102C800092E003C060E080E090E070E00E942D1CC4
:102C90008091E8008B778093E80088C080918B0258
:102CA000813209F083C080918F0290919002029747
:102CB00008F07CC08091E800877F8093E8008091D5
:102CC000E80082FD05C0809189028111F8CF6EC0B5
:102CD0002091F3008091F20090E0922B029731F462
:102CE0008091F100813011F0863021F48091F10063
:102CF00080937E028091E8008B7754C080918B0294
:102D0000813A09F053C080918F0290919002892BF3
:102D100009F04CC08091E800877F8093E8008091A3
:102D2000E80080FFFCCF80912C0137C080918B029E
:102D30008132E1F580918F0290919002892BB1F55B
:102D40008091E800877F8093E8000E94D91B8091E2
:102D50008D0280932C010E94162128C080918B0245
:102D6000813221F58091E800877F8093E8000E94FE
:102D7000D91B80918E0280937D0218C080918B02B6
:102D8000813AA1F48091E800877F8093E8008091E8
:102D9000E80080FFFCCF80917D028093F10080915C
:102DA000E8008E778093E8000E94D91B8091E800AC
:102DB00083FFDAC180918B0290918C02492F50E001
:102DC0004A30510508F0D0C1FA01EE59FF4F0C947A
:102DD000BA24803821F0823809F0C6C108C0809139
:102DE000870290918802992389F082600FC08091B8
:102DF0008F028F70873008F0B7C18093E90080910F
:102E0000EB0085FB882780F91092E9009091E8009B
:102E1000977F9093E8008093F1001092F10070C1C9
:102E2000282F2D7F09F0A0C1882319F0823061F08E
:102E30009BC180918D02813009F096C1933009F0D9
:102E400080E0809388022EC080918D0281112AC07B
:102E500080918F028F702FEF280F263008F084C1E9
:102E60008093E9002091EB0020FF1CC0933021F4F7
:102E70008091EB00806214C09091EB009061909380
:102E8000EB0021E030E0A90102C0440F551F8A95F4
:102E9000E2F74093EA001092EA008091EB0088602C
:102EA0008093EB001092E9008091E800877F809387
:102EB000E8000E94D91B58C1811156C110918D02A2
:102EC0001F778091E3008078812B8093E3008091CD
:102ED000E800877F8093E8000E94D91B8091E8007A
:102EE00080FFFCCF8091E30080688093E3001111A4
:102EF00002C082E001C083E08093890235C180581E
:102F0000823008F031C120918D0230918E022C3D2B
:102F100053E0350779F583E08A838AE289834FB7E6
:102F2000F894DE01139620E03EE051E2E32FF0E05A
:102F300050935700E49120FF03C0E295EF703F5F8C
:102F4000EF708E2F90E0EA3010F0C79601C0C09667
:102F50008D939D932F5F243149F74FBF8091E800F7
:102F6000877F8093E8006AE270E0CE0101960E94BC
:102F70002D1CB5C080918F0290919002432F552750
:102F800043305105A9F068F44130510509F4FBC004
:102F90004230510509F0E8C08BE590E0EFEFF3E037
:102FA0004BC04132510529F14232510589F1DCC053
:102FB000C901992781309105A1F058F0029709F0D5
:102FC000D3C0ECE6F4E0E4918E2F90E0ECE6F4E080
:102FD00030C0E2EAF4E0E4918E2F90E0E2EAF4E01F
:102FE00028C0E0E9F4E0E4918E2F90E0E0E9F4E01D
:102FF00020C08330910508F0B7C0880F991FFC01ED
:10300000EE56FE4F0190F081E02D89E090E014C073
:103010008330910508F0A8C0FC01EE0FFF1FE457B4
:10302000FE4F0190F081E02DDC01A757BE4F8C913F
:1030300090E0009709F498C02091E800277F209342
:10304000E80020919102309192028217930708F4D0
:103050009C0140E02115310589F180918902882386
:1030600009F43DC08530D9F18091E80083FD37C077
:103070008091E80082FD2FC08091E80080FFEACFB8
:103080004091F3008091F20090E0942B21153105DE
:1030900059F08830910540F444914093F100319605
:1030A000215031090196F2CF41E0089709F040E044
:1030B0008091E8008E778093E800CCCF4111CDCF8E
:1030C0000AC080918902882351F0853041F08091B7
:1030D000E80083FD04C08091E80082FFF2CF809178
:1030E000E8008B778093E8003FC08038E9F5809155
:1030F000E800877F8093E80080918A028093F10046
:103100008091E8008E77D3CE81112EC080918D0200
:1031100090918E02992702973CF58091E800877F75
:103120008093E80010918D0210938A020E94D91BAF
:10313000111106C08091E30087FD02C081E001C04B
:1031400084E08093890242E061EC81E00E94F81BF8
:1031500042E261EC82E00E94F81B42E261EC83E013
:103160000E94F81B809189028091E80083FF10C0C3
:103170008091E800877F8093E8008091EB00806277
:103180008093EB0005C082E190E0EAE5F4E054CFE3
:10319000AA960FB6F894DEBF0FBECDBFDF91CF91D8
:1031A0001F9108951F920F920FB60F9211242F9323
:1031B0003F934F935F936F937F938F939F93AF93BF
:1031C000BF93CF93DF93EF93FF93C091E900CF704C
:1031D0008091EC00D82FD17080FDD0E81092E900EA
:1031E0008091F000877F8093F00078940E9404160D
:1031F0001092E9008091F00088608093F000CD2B60
:10320000CF70C093E900FF91EF91DF91CF91BF9113
:10321000AF919F918F917F916F915F914F913F916E
:103220002F910F900FBE0F901F901895E8EDF0E0D2
:1032300080818E7F80831092E2001092DA001092DB
:10324000E100A0EEB0E08C9181608C9380818F775B
:10325000808319BCA7EDB0E08C918E7F8C93808128
:103260008F7E808310927C020895CF92DF92EF923E
:10327000FF920F931F93CF93DF93C8EDD0E0888127
:103280008F7E8883E7EDF0E080818160808384E039
:1032900082BF81E080937C0288818E7F888302EEEA
:1032A00010E0F80110821092DA0081EEC82ED12CC5
:1032B000F601108288818F7788838881806888836F
:1032C00088818F7D888319BC1092890210928A02AE
:1032D000109288021092870290EEE92EF12CF701ED
:1032E00080818B7F808388818160888342E060E079
:1032F00080E00E94F81BF60180818E7F8083F801B8
:10330000808181608083808188608083F7018081F3
:103310008E7F8083888180618883DF91CF911F9128
:103320000F91FF90EF90DF90CF9008951F920F9232
:103330000FB60F9211242F933F934F935F936F9388
:103340007F938F939F93AF93BF93EF93FF9380915E
:10335000E10082FF49C08091E20082FF45C0809178
:10336000E1008B7F8093E10020917B022F5F822F11
:1033700062E30E949A24992319F020937B0234C0BF
:1033800010927B0280917A02882371F180918902E8
:10339000843041F58091E9008F702091EC00922FEC
:1033A000917020FD90E8892B93E09093E900909133
:1033B000EB0090FF14C09091EE0097FF10C0909129
:1033C000E80095FF03C01092F100F9CF9091E8005A
:1033D00090FF05C09091E8009E779093E8008F7071
:1033E0008093E90010927A028091DA0080FF32C067
:1033F0008091D80080FF2EC08091DA008E7F80936C
:10340000DA008091D90080FF1CC080E189BD82E193
:1034100089BD09B400FEFDCF81E0809389028BEE67
:1034200093E00E94CD0280917C02811113C00E9422
:1034300016190E9435198091E20084608093E200A1
:1034400009C019BC109289028FEE93E00E94CD0250
:1034500010927C028091E10080FF1BC08091E2000D
:1034600080FF17C08091E2008E7F8093E200809100
:10347000E20080618093E2008091D80080628093B6
:10348000D80019BC85E08093890283EF93E00E9405
:10349000CD028091E10084FF34C08091E20084FF7E
:1034A00030C080E189BD82E189BD09B400FEFDCF55
:1034B0008091D8008F7D8093D8008091E1008F7E2D
:1034C0008093E1008091E2008F7E8093E200809102
:1034D000E20081608093E20080918A02882311F0EB
:1034E00084E007C08091E30087FD02C081E001C055
:1034F00083E08093890287EF93E00E94CD02809160
:1035000089028091E10083FF2BC08091E20083FF5C
:1035100027C08091E100877F8093E10082E0809363
:10352000890210928A028091E1008E7F8093E100EF
:103530008091E2008E7F8093E2008091E2008061C2
:103540008093E20042E060E080E00E94F81B8091FE
:10355000F00088608093F0008BEF93E00E94CD0232
:10356000FF91EF91BF91AF919F918F917F916F915B
:103570005F914F913F912F910F900FBE0F901F9031
:103580001895089580917E0208959FB7F89410923F
:103590007A029FBF90918902943009F057C09091B0
:1035A000E9009F703091EC00232F217030FD20E85E
:1035B000922B23E02093E9002091EB0020FF43C0F1
:1035C0002091EE0027FF3FC02091B202222321F07C
:1035D0002091E80025FF37C01092B20226E030911A
:1035E000E80035FD15C030918902343061F5309125
:1035F000EB0035FD28C0215021F481E08093B20218
:1036000022C0EFE9FFE03197F1F700C00000E7CFFB
:103610008093F1008091E80085FD0AC08091E80068
:1036200080FFFCCF8091E8008E778093E80006C091
:103630008FB7F89421E020937A028FBF9F70909308
:10364000E90080E008959F709093E9008FEF08955E
:103650008093AF027093B1026093B00280918902AF
:10366000843001F582E08093E9008FEF9091E800CB
:10367000815095FD06C095ED9A95F1F700008111F6
:10368000F5CF8091E80085FF0DC040E050E063E099
:1036900070E08FEA92E00E94D8158091E8008E7762
:1036A0008093E8000895BC0184E00C94281BBC01C1
:1036B00083E00C94281B22E02093E9002FEF309147
:1036C000E800215035FD06C035ED3A95F1F70000D0
:1036D0002111F5CF2091E80025FF0BC040E050E01C
:1036E00066E070E00E94D8158091E8008E778093A4
:1036F000E8000895CF93DF9321E02093E9002FEFB6
:103700003091E800215035FD06C035ED3A95F1F7CE
:1037100000002111F5CF2091E80025FF14C0EC0135
:1037200040E050E068E070E00E94D8158091E80029
:103730008E778093E80088E0FE01AFE7B2E0019069
:103740000D928A95E1F7DF91CF9108952091E400E1
:103750003091E50095E64091EC00842F817040FFA8
:1037600023C08091E80080FD1DC0809189028823DC
:1037700099F0853099F08091EB0085FD11C0409162
:10378000E4005091E5002417350729F3915011F01A
:103790009A01E1CF84E0089582E0089583E00895DE
:1037A00081E0089580E008954091E80042FFDDCF78
:1037B000089580918B0287FF11C08091E80082FDFF
:1037C00005C0809189028111F8CF11C08091E80075
:1037D0008B770BC080918902882349F08091E800A3
:1037E00080FFF8CF8091E8008E778093E8000895FD
:1037F000982F973068F59093E900981739F07091F9
:10380000EC002091ED005091F00003C0242F762FA2
:1038100050E021FD02C09F5FECCF3091EB003E7F76
:103820003093EB003091ED003D7F3093ED0030910F
:10383000EB0031603093EB007093EC002093ED00CF
:103840005093F0002091EE0027FDE5CF80E0089531
:103850008F708093E90081E008952091910230916A
:1038600092022617370748F06115710539F4209147
:10387000E8002E772093E80001C0B901FC0120E0A8
:103880006115710579F1809189028823F1F1853004
:10389000F1F18091E80083FD3CC08091E80082FD59
:1038A0002EC08091E80080FFEBCF2091F300809143
:1038B000F20090E0922B6115710551F0883091056E
:1038C00038F421912093F100615071090196F3CFF2
:1038D00021E0089709F020E08091E8008E7780933E
:1038E000E800CECF2111CFCF0AC080918902882372
:1038F00061F0853061F08091E80083FD0AC080911D
:10390000E80082FFF2CF80E0089582E0089583E02E
:10391000089581E0089578941F920F920FB60F9248
:1039200011248F939F93AF93BF938091AB0290919B
:10393000AC02A091AD02B091AE020196A11DB11DE5
:103940008093AB029093AC02A093AD02B093AE0211
:10395000BF91AF919F918F910F900FBE0F901F90CD
:1039600018959C014FB7F8948091AB029091AC02EE
:10397000A091AD02B091AE024FBF821B930B089590
:103980002FB7F8946091AB027091AC028091AD02B8
:103990009091AE022FBF08952FB7F8948091AB029B
:1039A0009091AC02A091AD02B091AE022FBF0895EC
:1039B0001F920F920FB60F9211248F939F93AF9384
:1039C000BF938091AA02811113C08091AB029091A4
:1039D000AC02A091AD02B091AE024196A11DB11D05
:1039E0008093AB029093AC02A093AD02B093AE0271
:1039F000BF91AF919F918F910F900FBE0F901F902D
:103A000018959C012A5F3F4FFC014281461301C07B
:103A10001282019682179307B9F708959C01FC0161
:103A200032969FEF80E04191461789F09F3F19F44D
:103A3000411101C0982F8F5F8630A9F79F3F39F061
:103A4000F901E90FF11D97FDFA9562830895089534
:103A50002091A8023091A9022817390771F090939C
:103A6000A9028093A802E091A602F091A7023097E4
:103A700021F00084F185E02D099408952091A4029D
:103A80003091A5022817390771F09093A502809311
:103A9000A402E091A602F091A702309721F00680DF
:103AA000F781E02D099408950E948810882351F031
:103AB000E091A602F091A702309721F00190F081E9
:103AC000E02D099480E00895EF92FF920F93CF9339
:103AD000DF93C42FD22FFC0182818823D1F0409341
:103AE000A3020E94CC1C9093A2028093A10280E2C8
:103AF0008C0F883008F06DC0C77081E001C0880F5E
:103B0000CA95EAF7DF91CF910F91FF90EF900C9457
:103B100028218091A30248134BC08091A10290916B
:103B2000A2020E94B11C883C910508F041C0CD174B
:103B3000C9F080E28C0F883040F4C77081E001C08A
:103B4000880FCA95EAF70E94212180E28D0F883004
:103B500048F481E09D2F977001C0880F9A95EAF78D
:103B60000E942821093319F0E12CF12C03C080E5D3
:103B7000E82EF12C802F0E949221E114F10451F0E3
:103B80008FE99FE00197F1F700C0000091E0E91A8A
:103B9000F108F3CF802F0E94322180E28D0F883010
:103BA000C0F4D77081E001C0880FDA95EAF70AC047
:103BB00080E28C0F883068F4C77081E001C0880F04
:103BC000CA95EAF7DF91CF910F91FF90EF900C9497
:103BD0002121DF91CF910F91FF90EF900895809177
:103BE000960283FF7EC08DEC94E00E94CD0280910E
:103BF0009C021F928F9388EC94E09F938F930E9476
:103C0000660386EC94E00E94CD0280919D02282FED
:103C1000082E000C330B3F938F9383EC94E09F931B
:103C20008F930E94660381EC94E00E94CD02809104
:103C30009E02282F082E000C330B3F938F938EEBA0
:103C400094E09F938F930E9466038CEB94E00E9414
:103C5000CD0280919F02282F082E000C330B3F933A
:103C60008F9389EB94E09F938F930E94660387EB79
:103C700094E00E94CD028091A002282F082E000C13
:103C8000330B3F938F9384EB94E09F938F930E9429
:103C9000660381EB94E00E94CD02809195021F9211
:103CA0008F938EEA94E09F938F930E9466038CEA31
:103CB00094E00E94CD02809194021F928F9389EA32
:103CC00094E09F938F930E94660386EA94E00E949B
:103CD000CD028DB79EB74C960FB6F8949EBF0FBE1F
:103CE0008DBF0E94CC1C20919D02211104C0209107
:103CF0009E02222321F090939A02809399022091B0
:103D00009F02211104C02091A002222321F0909350
:103D1000980280939702E091A602F091A702309753
:103D200049F082E080939B020480F581E02D8BE9CD
:103D300092E0099408958D3E39F490919E0297FF88
:103D400035C010929E0259C08E3E29F490919E0279
:103D50001916BCF32BC090919D028F3E29F497FF5A
:103D600025C010929D0249C0803F19F41916CCF36A
:103D70001DC090919F02893F29F41916BCF410923E
:103D80009F023BC08A3F19F497FF10C0F8CF8B3FCA
:103D900039F49091A00297FF09C01092A0022DC0A3
:103DA0008C3F21F49091A0021916BCF39FE0980F6C
:103DB000983080F421E030E0A90102C0440F551F83
:103DC0009A95E2F7CA01809590919C02892380938D
:103DD0009C0213C08D3F21F4809194028E7F0BC012
:103DE0008E3F21F4809194028D7F05C08F3F29F48E
:103DF000809194028B7F8093940280919D02811127
:103E000006C080919E02811102C01092950280919D
:103E10009F02811106C08091A002811102C0109200
:103E2000930208958091940280FD16C081FD16C012
:103E300082FD18C080919302882391F0883290F41B
:103E400028E0829FC001112468E270E00E94A6244D
:103E5000862F672B29F007C082E0089584E008953B
:103E600081E0089588E008958091940280FD14C057
:103E700081FD14C082FD16C080919502882381F0D7
:103E8000843180F422E3829FC001112464E170E058
:103E90000E94A624862F08958CE0089589E1089554
:103EA00085E0089582E308958D3E21F40E94341F39
:103EB000819504C08E3E29F40E94341F80939E0297
:103EC00008958F3E21F40E94341F819504C0803FE5
:103ED00029F40E94341F80939D020895893F19F4AC
:103EE0000E94121F05C08A3F31F40E94121F819563
:103EF00080939F0208958B3F21F40E94121F8195A9
:103F000004C08C3F29F40E94121F8093A0020895E0
:103F10009FE0980F983078F421E030E0A90102C0CA
:103F2000440F551F9A95E2F7CA0190919C02892B84
:103F300080939C0208958D3F21F4809194028160CA
:103F40000BC08E3F21F480919402826005C08F3FA8
:103F500029F480919402846080939402089580E013
:103F600090E00E943E1D80E090E00E94281D10928B
:103F70007202109271020E94D812EBE9F2E086E020
:103F8000DF011D928A95E9F7109295021092930233
:103F9000109294020C94EF1D8F929F92AF92BF9259
:103FA000DF92EF92FF920F931F93CF93DF93809056
:103FB000170290901802A0901902B0901A02409136
:103FC0007502509176026091770270917802842A8E
:103FD000952AA62AB72ACFE1D0E027E0929F700168
:103FE00011249AE2D92E082F10E0D501C4010C2E1D
:103FF00004C0B695A795979587950A94D2F780FD4A
:1040000004C0219790F780E014C0DC9EF001DD9E93
:10401000F00D1124EE0DFF1DE00FF11FEE0FFF1F3D
:10402000E157FE4F859194910E94B510019749F395
:104030008C2FDF91CF911F910F91FF90EF90DF9028
:10404000BF90AF909F908F90089527E0929F800D32
:104050001124682F669566956695982F977085E070
:10406000689FB001112440E050E080E0FB01E40FC4
:10407000F51FED54FD4F208130E0092E02C036952A
:1040800027950A94E2F721703327042E01C0220FEE
:104090000A94EAF7822B4F5F5F4F4530510531F7A5
:1040A000089527E0929F800D1124E82FE695E6956C
:1040B000E695877051E001C0550F8A95EAF785E0D3
:1040C000E89FF0011124ED54FD4F20E030E070E056
:1040D0004081CB01022E02C0969587950A94E2F7A3
:1040E0008170819584278523842781932F5F3F4F9B
:1040F0002530310569F708950F931F938B019C01BB
:104100000670112722273327DC01CB010630110569
:104110002105310511F4886001C0877F8093170263
:1041200090931802A0931902B0931A021F910F9155
:104130000C94AF1F0F931F9341E050E060E070E0DC
:1041400004C0440F551F661F771F8A95D2F740950C
:104150005095609570958091170290911802A091EA
:104160001902B0911A028A019B01082319232A23FC
:104170003B23C901B8011F910F910C947C200F9330
:104180001F9341E050E060E070E004C0440F551F11
:10419000661F771F8A95D2F78091170290911802B7
:1041A000A0911902B0911A028A019B01082B192BC8
:1041B0002A2B3B2BC901B8011F910F910C947C2035
:1041C00060937502709376028093770290937802E1
:1041D0000C94AF1FFC01808191810E940414292F4F
:1041E0002F70E92FE295EF704E2F50E0FA013297D1
:1041F000EE30F105B8F4E459FF4F0C94BA24803F37
:1042000099F018F4883E70F40FC0843F59F40CC044
:10421000883E50F0813F31F407C0822F8695869505
:104220008695089580E0089581E0089510927302C4
:1042300086E0E2E3F2E0DF011D928A95E9F70C9453
:10424000AF1F882321F00E94D1120C94D812089538
:10425000882339F090917302892B809373020C9418
:10426000D8120895882309F45CC0823869F40E944A
:10427000541D81FF56C069E380E392E00E940E1D49
:104280000E94D81269E30EC0833891F40E94541D35
:1042900080FF47C063E580E392E00E940E1D0E940C
:1042A000D81263E580E392E00E94011D0C94D812BD
:1042B000843869F40E94541D82FF33C067E480E3B0
:1042C00092E00E940E1D0E94D81267E4EBCF9CEF93
:1042D000980F913A10F4682FE5CF90E2980F98303C
:1042E00050F4877091E001C0990F8A95EAF7892F01
:1042F0000E94D112DBCF9BE5980F933020F480E031
:1043000090E00C943E1D98E5980F973120F480E0E2
:1043100090E00C94281D8D3E20F00E949B1E0C9472
:10432000EF1D0895CF93882309F49EC0C82F8238CB
:10433000B1F40E94541D81FD97C069E380E392E0CF
:104340000E940E1D0E94D8122FEF81EE94E02150A2
:1043500080409040E1F700C0000069E317C0833857
:10436000E1F40E94541D80FD7FC063E580E392E08C
:104370000E940E1D0E94D8122FEF81EE94E0215072
:1043800080409040E1F700C0000063E580E392E0E8
:104390000E94011DCF910C94D8128438B1F40E9470
:1043A000541D82FD61C067E480E392E00E940E1D0F
:1043B0000E94D8122FEF81EE94E02150804090406F
:1043C000E1F700C0000067E4E1CF8CEF8C0F813A89
:1043D00080F4E2E3F2E088E392E02191C217E1F198
:1043E0008E179F07D1F76C2F80E392E00E940E1D7D
:1043F000D1CF80E28C0F883068F4C77081E090E004
:1044000001C0880FCA95EAF790917302892B8093B7
:104410007302C0CFEBE5EC0FE33040F4F0E0E85A74
:10442000FE4F808190E0CF910C943E1DE8E5EC0FAB
:10443000E73150F4F0E0EE0FFF1FE55AFE4F8081A8
:104440009181CF910C94281DCD3E70F08C2F0E944D
:10445000541FCF910C94EF1D6C2F80E392E00E94CB
:10446000011D0E94D812BFCFCF9108958EE14A9BC3
:1044700002C08150E1F74A9BFECF08955A9880E22E
:104480008A95F1F75A9A0895FC012AE02A95F1F7E6
:1044900028E090E080E031E040E14A95F1F7880FB4
:1044A0004A9B02C08160932700C0000040E14A950A
:1044B000F1F7215089F720E12A95F1F729B100C0E1
:1044C000000030E13A95F1F722FB222720F99227EC
:1044D0002081920F90830895EF92FF920F931F9384
:1044E000CF93DF931F92CDB7DEB719828C017C0189
:1044F000E60EF11C0E151F0551F00E943622CE016A
:1045000001960E944422F80181938F01F3CF81E04C
:104510009981911180E00F90DF91CF911F910F91C0
:10452000FF90EF900895529A5A9A089552985A9A85
:10453000EA9AE9E6F0E080818F7C808308956150FB
:1045400091E001C0990F6A95EAF720E031E09923E4
:1045500061F0492F482319F05A9A232701C05A982D
:1045600040E24A95F1F79695F2CF222311F05A9A3C
:1045700001C05A9880E28A95F1F75A980895FF92FF
:104580000F931F93CF93DF93EC018C01060F111D46
:10459000C017D10741F0F9900E943E2268E08F2DAC
:1045A0000E949F22F5CFDF91CF911F910F91FF9035
:1045B00008951F920F920FB60F921124EF92FF925F
:1045C0000F931F932F933F934F935F936F937F931B
:1045D0008F939F93AF93BF93EF93FF93CF93DF930B
:1045E0001F92CDB7DEB719820E943622CE01019606
:1045F0000E944422A82FA695A695A6959A2F969537
:1046000095702A2F2570920F292F237096959695D5
:10461000920F877089137CC08981811179C0A43081
:1046200008F076C080E18A95F1F75A9A529AB2E082
:10463000BA95F1F700C05A98EA2EF12CEAE0AE9F45
:10464000D0011124A050BF4F1896ED91FC911997FD
:104650003097B1F0609150017091510116962D91F3
:104660003C911797260F371F13968D919C911497A5
:10467000680F791F15964C91159712968C91099594
:104680008AE08E9DF0018F9DF00D1124E050FF4FC8
:104690006581662351F080915001909151012681EE
:1046A0003781820F931F0E94BF220E943E22F0E1B9
:1046B000FA95F1F75A9852985A9A80E18A95F1F74B
:1046C0008AE08E9D80018F9D100D112400501F4F98
:1046D000D80112966C911297662399F0809150013F
:1046E0009091510113962D913C911497820F931F35
:1046F0000E946C22D801ED91FC91811105C082E0ED
:1047000004C0D801ED91FC9188E080830E9436229C
:104710000F90DF91CF91FF91EF91BF91AF919F915A
:104720008F917F916F915F914F913F912F911F9149
:104730000F91FF90EF900F900FBE0F901F90189564
:104740000F931F93CF93DF93843091050CF0A9C092
:104750002AE0289FF001299FF00D1124E050FF4F1F
:1047600020813181232B09F49CC0EC01F894529AEA
:104770005A9885E08A95F1F700008C2F8695857010
:104780009C2F9570890F982F9370869586958E0132
:1047900023E0000F111F2A95E1F7890F082B0E94D3
:1047A0003E22A4E0AA95F1F700C068E0802F0E94A5
:1047B0009F22B0E1BA95F1F752985A9A4A9902C0ED
:1047C00000C0FCCF87E090E04A9B17C0019799F4A6
:1047D000529A5A9A8AE08C9FF0018D9FF00D112415
:1047E000E050FF4F0190F081E02D81E080837894CC
:1047F00081E090E058C000C0E7CF8AE08C9F800144
:104800008D9F100D112400501F4FF8016581662304
:10481000B9F0809150019091510126813781820F2A
:10482000931F0E946C2281110BC0529A5A9AD80190
:10483000ED91FC9182E08083789482E090E033C037
:104840000E943622B0E2BA95F1F75A98529AE0E106
:10485000EA95F1F78AE08C9FF0018D9FF00D11240D
:10486000E050FF4F6281662351F08091500190919A
:10487000510123813481820F931F0E94BF220E9425
:104880003E228AE08C9FF0018D9FF00D1124E050B4
:10489000FF4F0190F081E02D1082789480E090E04D
:1048A00002C084E090E0DF91CF911F910F910895B5
:1048B000F999FECF92BD81BDF89A992780B50895E8
:1048C000A8E1B0E042E050E00C948C24262FF99946
:1048D000FECF92BD81BDF89A019700B4021639F05F
:1048E0001FBA20BD0FB6F894FA9AF99A0FBE089530
:1048F0000396272F0E9467240E946624252F0E947A
:104900006724242F0C9467240196272F0E94672484
:104910000C946624DC01CB01FC01F999FECF06C0A2
:10492000F2BDE1BDF89A319600B40D92415050406D
:10493000B8F70895991B79E004C0991F961708F0FD
:10494000961B881F7A95C9F78095089597FB072EC7
:1049500016F4009407D077FD09D00E94C02407FC0C
:1049600005D03EF4909581959F4F0895709561957F
:104970007F4F0895EE0FFF1F0590F491E02D0994ED
:10498000AA1BBB1B51E107C0AA1FBB1FA617B70775
:1049900010F0A61BB70B881F991F5A95A9F7809591
:1049A0009095BC01CD010895FB01DC0102C001908E
:0E49B0000D9241505040D8F70895F894FFCF73
:1049BE00F9010000000100000000F90100000003F1
:1049CE0001000000F9010404000000000000400195
:1049DE00C21A7A1B5B1B571B531BC11A01DC000446
:1049EE0001736C6176655F6D6174726978007379BD
:1049FE006E635F74696D6572000604030001020543
:104A0E000102946697333236818283E200E900EA2E
:104A1E0000B500B600B700CD008301CC008A01922C
:104A2E000194012102230224022502260227022AD2
:104A3E0002B300B4006F007000407B22AB03300362
:084A4E000E0311042A044304C5
:00000001FF
