:100000000C9410040C9457040C9457040C94CB27B4
:100010000C9457040C9457040C9457040C945704F4
:100020000C9457040C9457040C9452160C948E158F
:100030000C94F9220C9457040C9457040C94570414
:100040000C9457040C9457040C9457040C945704C4
:100050000C9457040C94AC220C9457040C94570441
:100060000C9457040C9457040C9457040C945704A4
:100070000C9457040C9457040C9457040C94570494
:100080000C9457040C9457040C9457040C94570484
:100090000C9457040C9457040C9457040C94570474
:1000A0000C9457040C9457040C945704590859089D
:1000B0008B088B08FD081909B00AB00A2409020A46
:1000C000130A130AA513CC137015CC13701518144A
:1000D0003B1470153115401524182418371837189B
:1000E0002D183718371837182418241832183718CD
:1000F000371832180A00253464000A004572726FFE
:10010000723A20646973636F6E6E656374207370F6
:100110006C69742068616C660A0044454255473A30
:100120002064697361626C65642E0A00444542551F
:10013000473A20656E61626C65642E0A00736574CF
:100140005F6272696768746E65737320636D6420A3
:100150006661696C65640A00646973706C61795FDB
:10016000736574757032206661696C65640A00009D
:10017000DA0281FFD9F1DB20A4A62EAF6469737087
:100180006C61795F666C6970706564206661696C2A
:1001900065640A0000A0C06F6C65645F696E697475
:1001A00020636D64206E6F726D616C20726F74617C
:1001B00074696F6E206661696C65640A0000A1C88D
:1001C0006F6C65645F696E697420636D642073652C
:1001D000742031206661696C65640A0000AED580C8
:1001E000A81FD300408D1420005B735D000A00251A
:1001F000303862003A200025303258000A722F63EE
:100200002030313233343536370A00000000000028
:1002100000000000000000000000303C3F3F3F3F76
:100220003F3FFFFFFFFFFFFFFFFF7F3F3F3F3F3F9E
:100230003F3F3F3F3F0F0300000000000000000071
:1002400000000000000000000000000000000000AE
:10025000000000000000000000000000000000009E
:10026000000000000000000000000000000000008E
:10027000000000000000000000000000000000007E
:10028000000000000000000000000000000000006E
:10029000000000000000000000000000000000E07E
:1002A000F8FEFFFFFFFFFF1F07C1F0F8F8F8FCFCA6
:1002B000FC7C7C7C7CFCFCFCFCFCFCFCFCF830004A
:1002C000C0F0F8F8F8F8F8F878787878F8F8F8F8EE
:1002D000F8F8F8F8700080E0F8F8F8F8F8F8F8C0E6
:1002E000E0E0F0F0F0F0780880E0F0F8F8F8F87866
:1002F0007878787878F8F8F8F8F8F8700000000066
:1003000000000000000000000000000000000000ED
:10031000000000000000000000000080F0FCFFFF73
:10032000FFFFFF3F1F03E0FCFFFFFFFFFFFFFFE3B7
:10033000E0E0E0E0F0FCFFFFFFFF7F1F87E0F8FE5A
:10034000FFFFFFFFFFFFE3C0C0C0E0F0FCFFFFFFC7
:10035000FF3F0FC1F0FEFFFFFFFF7F1F0F070703E7
:100360000303030303C1F0FEFFFFFFFFFFCFCFCE68
:10037000CECECECECECFCFCF0707030000000000F9
:10038000000000000000000000000000000000006D
:10039000000000000000000000000203030303034C
:1003A0000303010000000303030303030303030328
:1003B000030303030303030301C0F0FCFFFFFFFF7C
:1003C0007F1F070303030303030303030303030163
:1003D0000000030303030303030100000000000007
:1003E00000000000000103030303030303030303EE
:1003F00003030303030303010000000000000000E7
:1004000000000000000000000000006F6C65645FE9
:1004100072656E6465723930206461746120666152
:10042000696C65640A006F6C65645F72656E646513
:10043000722064617461206661696C65640A006F92
:100440006C65645F72656E646572206F6666736565
:100450007420636F6D6D616E64206661696C6564A4
:100460000A000A0025303258006B6579626F6172AC
:10047000645F7365745F6C65643A20000631FF0940
:1004800074A1010975150026FF00952075088102E9
:100490000976150026FF00952075089102C0050118
:1004A0000902A10185020901A10005091901290814
:1004B00015002501950875018102050109300931F2
:1004C0001581257F95027508810609381581257FDC
:1004D000950175088106050C0A38021581257F955E
:1004E0000175088106C0C005010980A101850319B5
:1004F000012AB700150126B700950175108100C0CB
:10050000050C0901A101850419012AA00215012683
:10051000A002950175108100C005010906A1010521
:100520000719E029E7150025019508750181029555
:1005300001750881010507190029FF150026FF0034
:1005400095067508810005081901290595057501AD
:100550009102950175039101C05B435D005B445DB1
:10056000005B535D005B575D005B525D0009025B01
:1005700000030100A0FA09040000010301010009C1
:1005800021110100012240000705810308000A092A
:100590000401000103000000092111010001227B78
:1005A000000705820320000A09040200020300007C
:1005B0000009211101000122220007058303200008
:1005C00001070503032000011201000200000008DA
:1005D000EDFE716B010001020001220343006F0078
:1005E00072006E00650020004500430020005200AC
:1005F000650076006900760061006C000000100361
:1006000043006900700075006C006F00740000000A
:10061000040309042B0014001A0008001500170039
:10062000E300E00004001600070009000A00015181
:10063000E1001D001B000600190005002C002A0027
:10064000130012000C0018001C00E60034003300F8
:100650000F000E000D000B000251E50038003700BE
:10066000360010001100280029001E001F00200085
:1006700021002200E300E000000000000000000074
:1006800000000151E1000000000000000000000037
:100690002C002A0027002600250024002300E60065
:1006A000000000004F0052005100500002510000B5
:1006B00000000000000000000000280029001E02C9
:1006C0001F02200221022202E300E00000000000DD
:1006D0000000000000000151E100000000000000E7
:1006E000000000002C002A00270226022502240216
:1006F0002302E6003500310230022F022E002D00C9
:1007000002513502310030002F002E022D02280048
:10071000005CAB5D0000000000000000E300C35C73
:10072000C65CC85CCA5C000000000151C45CC75CC8
:10073000C95CCB5C000000002C0000000000000041
:10074000000000000000E6000000000000000000C3
:100750000000000002510000000000000000000046
:10076000000028004F6E6573686F743A20616374EF
:100770006976653A2025640A000A0025303258203F
:10078000006B6579626F6172645F7265706F72741D
:100790003A20004661696C656420746F2065786555
:1007A000637574652025730A00290A002575002FDA
:1007B000002575005D2800256400200025640020C8
:1007C0000025640020002564007C0025303258009C
:1007D0006D6F7573656B6579205B62746E7C7820D4
:1007E00079207620685D287265702F61636C293AE4
:1007F000205B006F6C65645F6F6E20636D642066C4
:1008000061696C65640A0000AF6F6C65645F6F6658
:100810006620636D64206661696C65640A0000AEE1
:1008200011241FBECFEFDAE0DEBFCDBF04B603FE5A
:1008300027C08091100590911105A0911205B091EB
:1008400013058730904BA740B04BD1F410921005A0
:1008500010921105109212051092130514BE84B760
:10086000877F84BF0FB6F894A89580916000886157
:1008700080936000109260000FBEE0E0F8E30995FD
:1008800011E0A0E0B1E0E2EAF3E502C005900D92CC
:10089000A83AB107D9F725E0A8EAB1E001C01D9256
:1008A000A031B207E1F70E945F0D0C94CF290C94A0
:1008B0000000FF93EF93E091A801F091A901309718
:1008C00009F00995EF91FF910895FC018591803021
:1008D00011F0EFDFFBCF0895FF27E0E230E247FFA2
:1008E0000CC0419597FF09C0EDE260957095809529
:1008F0009095611D711D811D911D27FF02C02195DD
:1009000030E350E2AA27660F771F881F991FAA1F9E
:10091000A41710F0A41B63955A95A9F7AA3008F004
:10092000A95FA05DAF93F3956115710581059105F0
:1009300041F7ED3211F4EF93F395F21718F43F936A
:10094000F395FBCF8F91B5DFFA95E1F70895E99123
:10095000F9918591803021F0853219F0AADFF9CF25
:10096000089520E0E89455915532C1F3503311F4C5
:10097000689455915A3348F4505390F3220F022E45
:10098000220F220F200D250FF4CF0EF4219589910F
:100990009991533619F3533729F1533559F1BC0165
:1009A00088279927E8945C3621F489919991689475
:1009B0005591543639F446EF7EF077FF0DC08FEF36
:1009C0009FEF0AC055374AE039F0583540E121F031
:1009D000523642E009F00895FF93EF937DDFEF91E7
:1009E000FF91B7CFFF93EF93FC0181918030B9F372
:1009F00060DFFBCFFF93EF9368DFF1CFDF93CF93FF
:100A0000CDB7DEB72596A3DFCF91DF9108951F9371
:100A1000CF93DF93CDB7DEB767970FB6F894DEBFFD
:100A20000FBECDBF4B8B5C8B6D8B7E8B8F8B611123
:100A30001092CF0486E09E01235F3F4FD901E82F3B
:100A40001D92EA95E9F795E0FE017396D9010190B0
:100A50000D929A95E1F79C894E895F897B897D8704
:100A60009E876F87598B488BF901DE01179601909D
:100A70000D928A95E1F7CE0107960E943B188111ED
:100A80003EC086E0FE013796DE01119601900D9280
:100A90008A95E1F7FF81E8856A857B856115710597
:100AA00031F0EF3F31F481E0FF3F19F403C081E002
:100AB00001C080E080FD23C020919B0430E0C9018B
:100AC0000196877099274091CC0450E084179507D0
:100AD00079F1F983EA837D836C8396E0929FD0015C
:100AE000939FB00D1124A456BB4FFE013196019087
:100AF0000D929A95E1F780939B040E946C2016E07A
:100B00008091CC0490919B048917F9F0189FC00143
:100B1000112484569B4F0E943B188823B1F080918A
:100B2000CC0490E00196877099278093CC04E8CF9D
:100B30000E94A11A10929B041092CC04E5E9F4E003
:100B400086E0DF011D928A95E9F767960FB6F89463
:100B5000DEBF0FBECDBFDF91CF911F9108958F9261
:100B60009F92AF92BF92CF92DF92EF92FF920F933C
:100B70001F93CF93DF93CDB7DEB72A970FB6F894C4
:100B8000DEBF0FBECDBFFC010081D1808381948187
:100B9000892B39F01FEFD11206C091E00F3F19F4F5
:100BA00003C091E001C090E090FD3AC57F0185E06F
:100BB000DE01169601900D928A95E1F7F7012281E8
:100BC0008E819F81222349F00E949A17182F682F47
:100BD0008E819F810E94081A03C00E94DC19182F81
:100BE0002AE2129FF001112437E0D39EE00DF11D9F
:100BF0001124E00FF11DEE0FFF1FEC5EF94F059180
:100C00001491043F8CE5180741F190F4093DECE59F
:100C10001E07E9F00A3DFCE51F0789F1083D2CE5B8
:100C20001207B1F506E221EE41EE68ED7CE52CC03D
:100C3000063F3CE51307E9F0B0F0073F9CE51907D4
:100C400039F507E225EE46EE67EF7CE51DC007E2C9
:100C500025EE45EE69ED7CE517C006E221EE40EE9B
:100C600064EF7CE511C007E225EE44EE65EF7CE51C
:100C70000BC006E221EE42EE66EF7CE505C008E21D
:100C800021E045EE6AED7CE5C7010E948523A5C4FD
:100C9000F7018281882309F445C1109200050430D0
:100CA000FDE51F0758F40B3F2CE5120760F4C8015F
:100CB00082509C45449708F01FC105C002363DE5AF
:100CC000130709F019C10E942D1F909318028093F9
:100CD000170200318CE5180709F4CAC008F041C0BA
:100CE0000830ECE51E0709F4A4C0F0F404302CE54C
:100CF000120709F48CC068F402308CE5180709F477
:100D000082C003301C4509F0E7C080911702826061
:100D1000E1C00630ECE51E0709F483C008F085C089
:100D2000809117028860D6C00C302CE5120709F4B8
:100D300090C068F40A308CE5180709F47EC008F00A
:100D400084C00E94A11A809117028068C3C00E302F
:100D5000ECE51E0709F481C008F086C080911702F7
:100D600094C00D3F2CE5120709F47BC038F504311F
:100D70008CE5180709F49AC058F40231ECE51E0717
:100D800009F47AC008F07EC0809117028F7BA2C060
:100D90000B3F2CE51207F1F108F03FC005311C456F
:100DA00009F09AC08091170282FB222720F991E076
:100DB000922790FB82F990FB83F98CC001309DE56E
:100DC000190709F467C050F4809118020F3FFCE541
:100DD0001F07C1F108F05BC08D7F65C003303DE5A2
:100DE000130709F471C008F46DC002361D4509F0FF
:100DF00073C08091170284FB222720F991E092278B
:100E000090FB84F967C080911702816063C0809174
:100E1000170216C08091180216C0809118028260D5
:100E200042C080911702806155C080911702806294
:100E300051C08091170280644DC080911702886074
:100E4000846048C0826081602EC0809117028E7FCE
:100E500041C0809117028D7F3DC080911702877F2E
:100E600039C08091180214C0809117028F7E32C061
:100E7000809117028F7D2EC00E94A11A80911702C7
:100E80008F7728C080911702877F8B7F23C08D7F4B
:100E90008E7F09C080911802982F909591708E7F57
:100EA000892B90FB81F98093180216C00E94A11A29
:100EB0008091170287FB222720F991E0922790FB6F
:100EC00087F908C061E001C060E08EE090E00E9418
:100ED0006C2902C0809317026091170210911802CA
:100EE00084E090E00E946C29612F82E290E00E94F1
:100EF0006C290E94A11A71C306312CE5120719F55D
:100F00008091D0048A7A91E009F490E090930802ED
:100F1000882311F065E301C069E28CE894E00E9447
:100F20002F230EC006311C4509F067C080910802CE
:100F3000882309F473C365E38CE894E00E942223BC
:100F40000E94B61F4AC30F3DECE51E0709F447C0D7
:100F500040F401152CE5120799F001301C4561F1B0
:100F60004CC00C358DE5180709F444C00D359DE5DE
:100F70001907C1F10B351D4509F03FC081E03BC0A9
:100F80000E94A11AFFEF04E31CE0F1500040104062
:100F9000E1F700C0000087E797E79093010880938E
:100FA00000089AE088E10FB6F894A8958093600055
:100FB0000FBE90936000FFCF8091ED04982F909525
:100FC000917090FB80F98093ED04992319F08CE2E5
:100FD00091E002C08AE191E00E946504FEC20E9495
:100FE0003E1FFBC28091180282FB882780F991E0A6
:100FF000892701C080E00E943D20F70182810081A5
:10100000D180882359F0802F9D2D0E949A17182F88
:10101000682F802F9D2D0E94081A05C0802F9D2DBE
:101020000E94DC19182F2AE2129FF001112437E0E8
:10103000D39EE00DF11D1124E00FF11DEE0FFF1FF7
:10104000EC5EF94F859194910E94931D8C01982E2E
:10105000F701D280A580A2943FE0A3228091CD0425
:101060008770B9F0DD20A9F0812F807F803421F0D6
:1010700080E2800F883068F08091180282FD09C0FC
:1010800082E00E9420208091CD048770CC24C394FC
:101090008111C12CB12EB2949FE0B9228B2D90E02A
:1010A0008C30910508F05CC2FC01EA5AFF4F0C94A9
:1010B000C029812F807F1F70882311F01295107F27
:1010C000DD20B9F0112309F438C280E2800F8830A6
:1010D00010F0911006C08091D004182B1093D0040A
:1010E00005C08091CF04182B1093CF040E94B61F27
:1010F00024C2802F0E94BD1A112309F431C2005E60
:10110000083078F1992069F110958091CF04182367
:101110001093CF0429C0812F807F1F70803211F07F
:101120001295107F992021F0F1E09F16D9F149C066
:101130008091180282FF1BC0DD2069F0112339F075
:101140008091D004182B1093D0040E94B61F80E029
:101150000E941D1B05C280E00E94BD1A112309F4E4
:10116000FFC1812F0E94AF1F0E94B61FF9C1DD2071
:1011700081F08091D104AA2051F001E0A01207C0B3
:10118000182B181709F4ECC11093D104E9C1812B75
:1011900010C0AA2021F021E0A21609F4E1C10E94AA
:1011A000A91F27C0DD2041F035E03A1508F4D8C169
:1011B000812F0E94B31AD4C184E08A1508F4D0C1EB
:1011C00018C0DD2049F0AA2099F3F701858180FF3E
:1011D000B4C18F708583ECCFAA2059F0093309F090
:1011E000BCC1FFEF17EE23E0F15010402040E1F7C3
:1011F000B2C1812F0E94AC1AB3C1812F869586950A
:10120000837019F0813059F0ABC1DD2019F0C801AD
:10121000937002C080E090E00E945F23A7C1DD20B0
:1012200019F0C801937002C080E090E00E94492349
:101230009DC1802FDD2019F00E94BE2502C00E94B2
:1012400005250E94592492C1812F837009F069C03D
:10125000D1108AC1902F929596959770990F990FFA
:10126000802F8F70882E912CA12CB12C092E04C0B8
:10127000880C991CAA1CBB1C0A94D2F704FF12C04C
:101280004FE050E060E070E004C0440F551F661F5F
:10129000771F9A95D2F7DB01CA0180959095A095AA
:1012A000B09503C080E090E0DC0116951695412FC3
:1012B0004370423019F1C8F40091D2041091D30464
:1012C0002091D4043091D504413059F088299929CE
:1012D000AA29BB29BC01CD0160237123822393235A
:1012E0000AC0802A912AA22AB32ABC01CD0168290A
:1012F00079298A299B290E94971A36C18829992918
:10130000AA29BB290091D2041091D3042091D404BE
:101310003091D504BC01CD01602771278227932726
:10132000EACFDD2019F0812F817001C086958823D6
:1013300009F41AC1902F929596959770990F990F6D
:10134000802F8F70882E912CA12CB12C092E04C0D7
:10135000880C991CAA1CBB1C0A94D2F704FF12C06B
:101360004FE050E060E070E004C0440F551F661F7E
:10137000771F9A95D2F7DB01CA0180959095A095C9
:10138000B09503C080E090E0DC0116951695412FE2
:1013900043704230D9F068F50091130210911402A5
:1013A0002091150230911602413059F0882999296F
:1013B000AA29BB29BC01CD01602371238223932379
:1013C0001EC0802A912AA22AB32A13C088299929EB
:1013D000AA29BB2900911302109114022091150231
:1013E00030911602BC01CD01602771278227932717
:1013F00006C0BC01CD01682979298A299B290E9450
:10140000331AB2C01F70DD2039F0812F0E94761A86
:10141000802F0E94B31AA8C0802F0E94AC1A812F7F
:101420000E94511AA1C0802F32EF931609F443C0D5
:10143000391538F090EF991659F0E1EF9E16B1F199
:1014400077C0F3EF9F16F1F124EF921659F170C0B7
:10145000DD2019F134E03A1508F482C01F7181E0F3
:1014600090E0A0E0B0E0AC01BD0104C0440F551F06
:10147000661F771F1A95D2F780911302909114027C
:10148000A0911502B09116028A019B010827192725
:101490002A273B27C901B80129C025E02A1508F4ED
:1014A0005FC0DCCF8091180282FF23C0DD2029F0CD
:1014B000812F8F7130C0DD20D9F3812F8F710E9471
:1014C000511A4EC0DD2079F01F7181E090E0A0E05C
:1014D000B0E0BC01CD0104C0660F771F881F991FC3
:1014E0001A95D2F703C060E070E0CB010E94331A76
:1014F00037C0DD2099F01F71812F0E94761A8091EC
:10150000180282FD07C038E0139FC00111248360D8
:101510008093CD04812F0E94761A22C081E00E9420
:10152000202081E08A15E0F482E00E94202018C08B
:10153000DD2029F0AA2009F4BBCF802F09CEAA20F4
:1015400009F4BBCF893349F49FEFE7EEF3E0915004
:10155000E040F040E1F700C00000802F0E94BD1A7B
:1015600088EF8B0D843010F40E947523CC20A9F0F5
:101570008091CD0480FD11C0F7011282859585957B
:1015800085950E94761AC7010E94AF058091CD040F
:101590008595859585950E94511A85E0F701DE01B4
:1015A000119601900D928A95E1F789819A810E94A6
:1015B000DC199A810AE2809FF001112417E0919FC3
:1015C000E00DF11D11248981E80FF11DEE0FFF1FC1
:1015D000EC5EF94F8591949123C08091CD04877082
:1015E000F9F0F70182818823D9F08091180282FDF9
:1015F00017C082E02A960FB6F894DEBF0FBECDBFAB
:10160000DF91CF911F910F91FF90EF90DF90CF90DE
:10161000BF90AF909F908F900C94202069E28CCC6B
:101620002A960FB6F894DEBF0FBECDBFDF91CF91E3
:101630001F910F91FF90EF90DF90CF90BF90AF90F0
:101640009F908F9008958295982F937344E0949F74
:10165000900111248C7C86958695282B822F857588
:10166000880F2A7A2695822B08952F923F924F92C7
:101670005F926F927F928F929F92AF92BF92CF9222
:10168000DF92EF92FF920F931F93CF93DF93CDB72B
:10169000DEB727970FB6F894DEBF0FBECDBF0AEABC
:1016A00011E061E5662E61E0762E1D830C83512CDE
:1016B00080E090E061E070E0219A769AD3012D916C
:1016C0003D0120FF02C02B9A01C02B9821FF02C0D0
:1016D0002A9A01C02A9822FF02C02E9A01C02E9891
:1016E0007698B0EABA95F1F75B01082E02C0AA0C11
:1016F000BB1C0A94E2F73A2C4A2C4094E9E1F2E050
:1017000058E5852E51E0952E20E030E0219A45E005
:101710004A95F1F7000048E5E42E41E0F42EBBE5E0
:10172000EB16B1E0FB06D9F0D701DD907D01AD2DC0
:10173000A295AF704A2F50E0DA0192962C90BD2D01
:10174000BF70DB2EDB0102C0AA0FBB1FDA94E2F7E9
:101750006D01C094C220DA019296CC92E0CFF89449
:1017600021982998D401FD904D01AF2DA295AF701D
:101770004A2F50E0DA019296DC90BF2DBF70FB2E0D
:10178000DB0102C0AA0FBB1FFA94E2F77D01ED282E
:10179000DA019296EC92B5E1BA95F1F7000046E8CD
:1017A00040937A0050E850937B00A0910001A6601E
:1017B000A0937C00A0917A00A064A0937A00A091ED
:1017C0007A00A6FDFCCFA0917800F0907900B0E0FF
:1017D000AD015F295F834E83F0907A005F2D5F77C4
:1017E00050937A007894EC80FD80E20EF31E4E81D7
:1017F0005F81D7014D935C93D080ED2CF12CEA20D2
:10180000FB20EF2849F0E0900D02F0900E024E15FB
:101810005F0578F4D4200AC0E0900F02F090100227
:10182000AE81BF81EA16FB0620F4D328D082A1E066
:1018300001C0A0E05A2A3196225F3F4F2A3231057B
:1018400009F064CF0196EC81FD813296FD83EC8333
:101850008730910509F030CF219A8091FE01909157
:10186000FF019C012F5F3F4F8C32914029F0309354
:10187000FF012093FE0135C01092FF011092FE017E
:1018800086EFC82E80E0D82E94EFA92E90E0B92ED6
:1018900041E0043D140709F1E12CF12CF801EE0DB3
:1018A000FF1D81818F9380818F93DF92CF920E9461
:1018B000FE0422E0E20EF11C0F900F900F900F90AB
:1018C0003EE0E316F10451F7BF92AF920E94FE048E
:1018D000025F1F4F0F900F90DBCF8AEF90E00E94C6
:1018E000650451106EC00E94F41C882311F1198206
:1018F0001A821B820091110210E0015E1D4F24E04C
:101900003CE149E351E0BE016F5F7F4FC8010E9497
:10191000A61C882309F482C027E13DE146E451E09A
:10192000BE016F5F7F4FC8010E94A61C811195C048
:1019300075C0E0911202F0E0E15EFD4FF89483E0A3
:10194000AFEDB4E001900D928A95E1F78FED94E050
:101950000E9454128093DE047894F894C090E204BC
:10196000D090E304E090E404F090E504809100025C
:1019700090910102A0910202B0910302C816D9060B
:10198000EA06FB06D1F0C0920002D0920102E0927A
:101990000202F09203020E94F41C81110EC00E9408
:1019A000E122C61AD70AE80AF90AC0920902D092BF
:1019B0000A02E0920B02F0920C02789400E010E030
:1019C00002C001E010E0F090120200FF09C081E0C7
:1019D000809307020E94ED229093060280930502F5
:1019E00080910702882309F450C0809105029091EC
:1019F00006020E94D222059708F447C0EF2DF0E0BE
:101A0000E15EFD4F80911902808380911A028183EB
:101A100080911B0282831092070237C080910402DA
:101A20008F5F809304028531B0F08091ED0480FFD8
:101A300008C08CEF90E09F938F930E94FE040F905C
:101A40000F90E0911102F0E0E15EFD4F10821182F3
:101A5000128201E0B8CF00E0B6CF10920402E0910C
:101A60001102F0E0E15EFD4FDE0111969E012C5F58
:101A70003F4F00E08D919081981711F0808301E035
:101A800031962A173B07B1F79ECF802F27960FB6C6
:101A9000F894DEBF0FBECDBFDF91CF911F910F91A4
:101AA000FF90EF90DF90CF90BF90AF909F908F907E
:101AB0007F906F905F904F903F902F900895CF93BD
:101AC000DF93CDB7DEB762970FB6F894DEBF0FBED7
:101AD000CDBF84B7877F84BF0FB6F894A895809157
:101AE0006000886180936000109260000FBE90E0FB
:101AF00080E80FB6F89480936100909361000FBE68
:101B000085B7806885BF85B7806885BF86EE90E21F
:101B10009093A9018093A8010E94D2150E94F1150B
:101B20008091E20084608093E20078948091640464
:101B30008823A1F01091E9001F709091EC00892F8B
:101B4000817090FD80E8182B1092E9008091E800E8
:101B500083FD0E94C0121F701093E90082E084BDD3
:101B600093E095BD9AEF97BD80936E0010920902A5
:101B700010920A0210920B0210920C020E94891D10
:101B80008091350190913601A0913701B0913801D3
:101B900080930D0290930E02A0930F02B093100257
:101BA0000E94891DA8E5B1E041E050E011E0AB35AD
:101BB000B107B1F08D91E82FE295EF70F0E021A12F
:101BC0008F708A0102C0000F111F8A95E2F7C801C9
:101BD000922F982B91A392A18095892382A3E6CF7F
:101BE000ABE5B1E02EE531E041E050E02A173B07DC
:101BF000B1F08D91E82FE295EF70F0E061A18F7068
:101C00008A0102C0000F111F8A95E2F7C801962FC2
:101C1000982B91A392A18095892382A3E7CF249A40
:101C20002C9A849A8C9A6E9A76982998219A80E4B4
:101C3000809300010E94F41C811102C00E94882739
:101C400080910101811102C093E001C090E0909366
:101C5000120283E0891B809311020E94F41C8111FF
:101C600002C00E948827E9E1F2E08FE192E0AFE153
:101C7000B2E011921D928E179F07D9F780E090E095
:101C80000E946629893E9E4F11F00E943E1F82E00D
:101C900090E00E945E298093ED040E942D1F909396
:101CA00018028093170283E090E00E945E29682F5B
:101CB00070E080E090E00E94971A8091FD048823F4
:101CC000E1F0198281E88A831FE71B83809102017A
:101CD0008F3799F024E630E043E050E0BE016F5FBB
:101CE0007F4F88E70E94D026892B29F08DE391E071
:101CF0000E94650402C01093020182E080934804B0
:101D000080E8809325020E9419266DE070E08CED3A
:101D100091E00E946B12892B19F080EC91E00EC0CB
:101D20008091480463E070E081FD0BC08DEB91E091
:101D30000E946B12892B71F087E991E00E94650483
:101D40003FC084E991E00E946B12892B19F08CE767
:101D500091E0F4CF6DE070E08FE691E00E946B12AD
:101D6000892B19F088E591E0E9CF0E94E122DC019E
:101D7000CB01805A9541AF4FBF4F8093F8049093A9
:101D8000F904A093FA04B093FB04E8E4F2E080E0E5
:101D900092E0DF018C011D9201501040E1F7F093B9
:101DA0002702E09326028FEF9FEF90934B048093DE
:101DB0004A0481E08093FD048093FC04109249045E
:101DC00083E091E09093040580930305809164047F
:101DD000853009F04CC089EE91E00E94650410E462
:101DE000F12E00E112E180916404853009F03BC0DE
:101DF00080916404843029F10E9410241092070518
:101E000028E130E00FB6F894A895209360000FBE4B
:101E1000F092600083B7817F846083BF83B7816065
:101E200083BF7894889583B78E7F83BF0FB6F8946D
:101E3000A895809160008861809360001092600096
:101E40000FBE80916304882309F4CDCF0E94350B27
:101E5000EFE1F2E08191811107C365E272E06E1754
:101E60007F07C1F7C0CF0E94A11A0E9475230E946C
:101E7000350BD82E81110E94E122AFE4AA2EA4E0F6
:101E8000BA2EBFE1EB2EB2E0FB2E00E010E0302EC8
:101E9000D7017D907D01F501C1905F01C724B1F4A8
:101EA0000F5F1F4F0630110591F78FEF8C878D87DD
:101EB0001E860E94ED228160782F988B8F874C853B
:101EC0005D856E8588890E94070562C08091ED045A
:101ED00081FD04C0812C992493943AC08CEF91E049
:101EE0000E946504FFE18F2EF2E09F2E412C512CC1
:101EF0005F924F9227EF31E03F932F930E94FE04B1
:101F000084EF91E00E946504D4018D914D010E94FF
:101F1000230B1F928F93EFEEF1E0FF93EF930E945C
:101F2000FE048DEE91E00E9465043FEF431A530AD0
:101F30000FB6F894DEBF0FBECDBF76E04716510452
:101F4000B9F6C8CF8394990C87E0881609F4A8CF16
:101F50008C2D8921B9F30E94F41C882399F08F827B
:101F60003886792081E009F480E089870E94ED229B
:101F70008160782F9B878A874F81588569858B85FB
:101F80000E940705F801E15BFB4F80819826908253
:101F90008091FD04882309F452C180914C049091F2
:101FA0004D040E94D222C29728F48091FD04811131
:101FB00037C02AC10E94ED2290934D0480934C04B7
:101FC00088E492E0909327028093260220914A04AD
:101FD00030914B04DC0180E090E041E050E0FC01F6
:101FE000E55FFD4FE4916C91E61779F0EC93BC014D
:101FF000E5E076956795EA95E1F7FA0102C0EE0F04
:10200000FF1F6A95E2F72E2B3F2B01961196811543
:10201000F2E09F0721F730934B0420934A04C5CF89
:1020200020914A0430914B042115310509F4ECC08C
:10203000809149048111E8C061E070E0482E512C84
:102040007B01082E02C0EE0CFF1C0A94E2F7A901E6
:102050004E215F21452B11F48F5FF0CF9091480402
:10206000920165E0220F331F6A95E1F790FD12C0DF
:102070008295880F807680931101220F232F221FD3
:10208000330B319520931401815E809312011092DD
:10209000150112C045E0369527954A95E1F7220FC4
:1020A000220F220F2093110110921401295F209317
:1020B000120183E08093150124E630E047E050E010
:1020C0006FE071E088E70E94D026892B19F08FE33A
:1020D00094E089C08091480480FD17C0C20125E0CA
:1020E000880F991F2A95E1F7AC01485B5D4F04E624
:1020F00010E020E230E060E488E70E94F726892BB8
:1021000009F474C086E294E06EC080E2E8E2F2E096
:10211000DF011D928A95E9F785E0440C551C8A95EC
:10212000E1F7E2E6F1E0FA8BE98B0EE511E096E6E5
:10213000292E91E0392E88248394A989BA892D917A
:10214000BA8BA98BF80181918F01B201680F711DC3
:10215000685B7D4F30E0285D3D4FF90197E0AF01AE
:10216000421B530B982C01C0990C4A95EAF75B016E
:10217000C12CD5018D915D018921492F4C194770E2
:10218000742E042E000C550BB82F01C0BB0F7A948F
:10219000EAF77B2E5195419551094770552701C0AB
:1021A00086954A95EAF7782A8081782A7082C394C6
:1021B00048E0C412DECF915031969F3F81F6698985
:1021C0007A892616370609F0B8CF04E610E020E237
:1021D00030E048E252E060E488E70E94F726892B6D
:1021E00029F08BE094E00E9465040EC00E942E242A
:1021F000E094F09480914A0490914B04E822F922F3
:10220000F0924B04E0924A048091FC048823B9F0D8
:102210000E94E1220091F8041091F9042091FA043F
:102220003091FB04DC01CB01801B910BA20BB30BA3
:102230008F3F9F4FAF4FBF4710F40E941024D11023
:102240000E942E2486E0E2EFF4E0DE011196019078
:102250000D928A95E1F7E090F404F090F504009176
:10226000F6041091F7041092F4041092F504109201
:10227000F6041092F704E11003C0FF2009F451C0E6
:102280008091F0049091F1040E94D2229C019091DF
:10229000EC04992309F4FEC02333310508F441C04E
:1022A0009F3F19F09F5F9093EC04EE2061F00E9435
:1022B0009E251E1414F09FEF01C091E0899F802D90
:1022C00011248093F404FF2061F00E949E251F14C6
:1022D00014F09FEF01C091E0899F802D112480931D
:1022E000F5043091F4043323E1F02091F504222326
:1022F000C1F045EB3403C0011124992319F09093E8
:10230000F40403C081E08093F40465EB2603C0016C
:102310001124992319F09093F50403C081E0809370
:10232000F504011103C0112309F451C08091EE049A
:102330009091EF040E94D2229C019091EA0499238B
:1023400009F4ADC02536310508F441C09F3F19F0AE
:102350009F5F9093EA04002361F00E947C25101691
:1023600014F09FEF01C091E0899F802D112480938C
:10237000F604112361F00E947C25111614F09FEFE2
:1023800001C091E0899F802D11248093F704309142
:10239000F6043323E1F02091F7042223C1F075EB1A
:1023A0003703C0011124992319F09093F60403C058
:1023B00081E08093F60435EB2303C00111249923B7
:1023C00019F09093F70403C081E08093F7048091A3
:1023D000F40481110BC08091F504811107C0809134
:1023E000F604811103C08091F70481110E945924E1
:1023F000EB82FC820D831E8386E0FE013196A2EF04
:10240000B4E001900D928A95E1F70E9475239091B6
:102410004E04891709F4DACC0E947523182F809393
:102420004E048091ED0482FFD1CC80FF04C089E688
:1024300094E00E9465048091ED0480FF0CC01F921F
:102440001F9384E694E09F938F930E94FE040F9065
:102450000F900F900F908091ED0480FFB7CC82E633
:1024600094E00E946504B2CC09BD19BD09B400FE18
:10247000FDCF8091D8008F7D8093D8008091E000BF
:1024800082608093E0008091E00081FDFCCF0E949B
:10249000A11AA9CC2D32314008F004CF42CF2D3201
:1024A000314008F055CF93CFFC01AC014D5F5F4F39
:1024B0008FEF91E32191822728E030E087FF03C06E
:1024C000880F892701C0880F21503109B9F7E41717
:1024D000F50781F70895EF92FF920F931F93CF9323
:1024E000DF93EC017B0164E670E088E70E941F2621
:1024F0008C01EC0EFD1ECE15DF0561F017FD0AC044
:10250000FE01849164E670E00E94A0268C01219671
:10251000892B89F30E942427C801DF91CF911F9155
:102520000F91FF90EF900895EF92FF920F931F93FA
:10253000CF93DF937C018B010E94C721811119C0C9
:10254000E70101151105A1F08091E80085FD0AC0A1
:102550008091E8008E778093E8000E94C72188234D
:1025600081F307C089918093F10001501109E9CFEF
:1025700080E0DF91CF911F910F91FF90EF90089530
:102580001F93CF93DF93CDB7DEB7AA970FB6F8941A
:10259000DEBF0FBECDBFE6E6F4E08091F10081938F
:1025A00044E0EE36F407C9F780916704833009F4FC
:1025B00061C030F4813071F0823009F49BC0B2C048
:1025C0008A3009F487C08B3009F46CC0893009F077
:1025D000A9C020C080916604813A09F0A3C080910F
:1025E000E800877F8093E80080916A0490916B04F3
:1025F000892B21F468E08AE594E003C060E080E084
:1026000090E070E00E944E228091E8008B778093EA
:10261000E80088C080916604813209F083C080910F
:102620006A0490916B04029708F07CC08091E800E6
:10263000877F8093E8008091E80082FD05C080914B
:1026400064048111F8CF6EC02091F3008091F200F4
:1026500090E0922B029731F48091F100813011F0DB
:10266000863021F48091F100809359048091E80034
:102670008B7754C080916604813A09F053C08091F1
:102680006A0490916B04892B09F04CC08091E8009A
:10269000877F8093E8008091E80080FFFCCF8091E5
:1026A000160137C0809166048132E1F580916A0499
:1026B00090916B04892BB1F58091E800877F80931E
:1026C000E8000E94FA2180916804809316010E941C
:1026D000A11A28C080916604813221F58091E8001A
:1026E000877F8093E8000E94FA218091690480939B
:1026F000580418C080916604813AA1F48091E800E2
:10270000877F8093E8008091E80080FFFCCF809174
:1027100058048093F1008091E8008E778093E80060
:102720000E94FA218091E80083FFDAC1809166045B
:1027300090916704492F50E04A30510508F0D0C10C
:10274000FA01EE59FF4F0C94C029803821F08238ED
:1027500009F0C6C108C08091620490916304992376
:1027600089F082600FC080916A048F70873008F012
:10277000B7C18093E9008091EB0085FB882780F941
:102780001092E9009091E800977F9093E800809381
:10279000F1001092F10070C1282F2D7F09F0A0C127
:1027A000882319F0823061F09BC1809168048130E8
:1027B00009F096C1933009F080E0809363042EC045
:1027C0008091680481112AC080916A048F702FEF74
:1027D000280F263008F084C18093E9002091EB0097
:1027E00020FF1CC0933021F48091EB00806214C064
:1027F0009091EB0090619093EB0021E030E0A90113
:1028000002C0440F551F8A95E2F74093EA001092E8
:10281000EA008091EB0088608093EB001092E90061
:102820008091E800877F8093E8000E94FA2158C1D8
:10283000811156C1109168041F778091E300807860
:10284000812B8093E3008091E800877F8093E800EC
:102850000E94FA218091E80080FFFCCF8091E30084
:1028600080688093E300111102C082E001C083E020
:102870008093640435C18058823008F031C12091C2
:102880006804309169042C3D53E0350779F583E005
:102890008A838AE289834FB7F894DE01139620E099
:1028A0003EE051E2E32FF0E050935700E49120FF27
:1028B00003C0E295EF703F5FEF708E2F90E0EA303B
:1028C00010F0C79601C0C0968D939D932F5F243161
:1028D00049F74FBF8091E800877F8093E8006AE264
:1028E00070E0CE0101960E944E22B5C080916A042C
:1028F00090916B04432F552743305105A9F068F49C
:102900004130510509F4FBC04230510509F0E8C0DF
:102910008BE590E0EDE6F5E04BC04132510529F141
:102920004232510589F1DCC0C901992781309105F6
:10293000A1F058F0029709F0D3C0EAEDF5E0E49178
:102940008E2F90E0EAEDF5E030C0E0E1F6E0E491B2
:102950008E2F90E0E0E1F6E028C0EEEFF5E0E491A4
:102960008E2F90E0EEEFF5E020C08330910508F067
:10297000B7C0880F991FFC01E159FE4F0190F0810B
:10298000E02D89E090E014C08330910508F0A8C0E4
:10299000FC01EE0FFF1FE759FE4F0190F081E02D83
:1029A000DC01AA59BE4F8C9190E0009709F498C0C1
:1029B0002091E800277F2093E80020916C0430915B
:1029C0006D048217930708F49C0140E0211531053E
:1029D00089F180916404882309F43DC08530D9F1E0
:1029E0008091E80083FD37C08091E80082FD2FC010
:1029F0008091E80080FFEACF4091F3008091F200DF
:102A000090E0942B2115310559F08830910540F460
:102A100044914093F1003196215031090196F2CF53
:102A200041E0089709F040E08091E8008E778093BC
:102A3000E800CCCF4111CDCF0AC080916404882337
:102A400051F0853041F08091E80083FD04C0809111
:102A5000E80082FFF2CF8091E8008B778093E80056
:102A60003FC08038E9F58091E800877F8093E800D7
:102A7000809165048093F1008091E8008E77D3CE39
:102A800081112EC080916804909169049927029762
:102A90003CF58091E800877F8093E80010916804FE
:102AA000109365040E94FA21111106C08091E30081
:102AB00087FD02C081E001C084E08093640442E0AD
:102AC00061EC81E00E94192242E261EC82E00E9406
:102AD000192242E261EC83E00E9419228091640491
:102AE0008091E80083FF10C08091E800877F809389
:102AF000E8008091EB0080628093EB0005C082E1EA
:102B000090E0E8ECF5E054CFAA960FB6F894DEBF5B
:102B10000FBECDBFDF91CF911F9108951F920F92ED
:102B20000FB60F9211242F933F934F935F936F93A0
:102B30007F938F939F93AF93BF93CF93DF93EF9345
:102B4000FF93C091E900CF708091EC00D82FD17035
:102B500080FDD0E81092E9008091F000877F80939B
:102B6000F00078940E94C0121092E9008091F00069
:102B700088608093F000CD2BCF70C093E900FF9167
:102B8000EF91DF91CF91BF91AF919F918F917F9105
:102B90006F915F914F913F912F910F900FBE0F90CA
:102BA0001F901895E8EDF0E080818E7F8083109271
:102BB000E2001092DA001092E100A0EEB0E08C91F9
:102BC00081608C9380818F77808319BCA7EDB0E002
:102BD0008C918E7F8C9380818F7E8083109257049E
:102BE0000895CF92DF92EF92FF920F931F93CF93AE
:102BF000DF93C8EDD0E088818F7E8883E7EDF0E039
:102C000080818160808384E082BF81E0809357046B
:102C100088818E7F888302EE10E0F8011082109286
:102C2000DA0081EEC82ED12CF601108288818F77D0
:102C3000888388818068888388818F7D888319BC98
:102C4000109264041092650410926304109262045E
:102C500090EEE92EF12CF70180818B7F80838881B3
:102C60008160888342E060E080E00E941922F601E2
:102C700080818E7F8083F801808181608083808164
:102C800088608083F70180818E7F80838881806166
:102C90008883DF91CF911F910F91FF90EF90DF908C
:102CA000CF9008951F920F920FB60F9211242F9379
:102CB0003F934F935F936F937F938F939F93AF93C4
:102CC000BF93EF93FF938091E10082FF49C0809111
:102CD000E20082FF45C08091E1008B7F8093E1009C
:102CE000209156042F5F822F62E30E94A02999232E
:102CF00019F02093560434C0109256048091550464
:102D0000882371F180916404843041F58091E90059
:102D10008F702091EC00922F917020FD90E8892B0C
:102D200093E09093E9009091EB0090FF14C0909194
:102D3000EE0097FF10C09091E80095FF03C010923D
:102D4000F100F9CF9091E80090FF05C09091E80064
:102D50009E779093E8008F708093E900109255045D
:102D60008091DA0080FF32C08091D80080FF2EC0B1
:102D70008091DA008E7F8093DA008091D90080FF05
:102D80001CC080E189BD82E189BD09B400FEFDCF90
:102D900081E08093640489E595E00E946504809158
:102DA0005704811113C00E94D2150E94F115809121
:102DB000E20084608093E20009C019BC10926404B0
:102DC0008DE595E00E946504109257048091E10022
:102DD00080FF1BC08091E20080FF17C08091E2005D
:102DE0008E7F8093E2008091E20080618093E20018
:102DF0008091D80080628093D80019BC85E08093D0
:102E0000640481E695E00E9465048091E10084FFFE
:102E100034C08091E20084FF30C080E189BD82E14E
:102E200089BD09B400FEFDCF8091D8008F7D8093CD
:102E3000D8008091E1008F7E8093E1008091E200D4
:102E40008F7E8093E2008091E20081608093E200B7
:102E500080916504882311F084E007C08091E3002D
:102E600087FD02C081E001C083E08093640485E6B1
:102E700095E00E946504809164048091E10083FFE5
:102E80002BC08091E20083FF27C08091E100877F03
:102E90008093E10082E08093640410926504809145
:102EA000E1008E7F8093E1008091E2008E7F80932D
:102EB000E2008091E20080618093E20042E060E005
:102EC00080E00E9419228091F00088608093F000D9
:102ED00089E695E00E946504FF91EF91BF91AF9163
:102EE0009F918F917F916F915F914F913F912F9122
:102EF0000F900FBE0F901F90189580E090E00E94F9
:102F00005F2380E090E00E9449231092CF0410924A
:102F1000CE040E94B61FE2EFF4E086E0DF011D92CE
:102F20008A95E9F71092EC041092EA041092EB04EF
:102F30000C9459248F929F92AF92BF92DF92EF929E
:102F4000FF920F931F93CF93DF9380901302909083
:102F50001402A0901502B09016024091D204509134
:102F6000D3046091D4047091D504842A952AA62AAA
:102F7000B72ACFE1D0E027E0929F700111249AE2B6
:102F8000D92E082F10E0D501C4010C2E04C0B6952F
:102F9000A795979587950A94D2F780FD04C021974D
:102FA00090F780E014C0DC9EF001DD9EF00D11244E
:102FB000EE0DFF1DE00FF11FEE0FFF1FEC5EF94F4E
:102FC000859194910E94931D019749F38C2FDF9175
:102FD000CF911F910F91FF90EF90DF90BF90AF9036
:102FE0009F908F900895CF93DF93EC010E949A17E2
:102FF0002AE2829FC0011124FC0127E0D29FE00D4C
:10300000F11D1124EC0FF11DEE0FFF1FEC5EF94FC7
:10301000859194910E94931DDF91CF910895FC01B9
:10302000808191810E94F317292F2F70E92FE2955B
:10303000EF704E2F50E0FA013297EE30F105B8F400
:10304000E459FF4F0C94C029803F99F018F4883E52
:1030500070F40FC0843F59F40CC0883E50F0813F9B
:1030600031F407C0822F869586958695089580E075
:10307000089581E008959F92AF92BF92CF92DF9220
:10308000EF92FF920F931F93CF93DF93CDB7DEB7ED
:1030900061970FB6F894DEBF0FBECDBF8C0185E0FF
:1030A000F801DE011D9601900D928A95E1F7F80175
:1030B000E28090919504609196044091980450911B
:1030C00099044115510531F06F3F31F481E09F3F84
:1030D00019F403C081E001C080E0F82FF1709F2E49
:1030E00080FD1AC1F80130812181C380D48085E937
:1030F000A82E84E0B82EF0909704F601E41BF50B9F
:10310000FF2009F4C6C080919A04E83CF10508F05C
:1031100091C0482F407F09F050C0621311C0931333
:103120000FC0FE2CE1100CC08F70806180939A0458
:10313000C5010E94AF0580919A04F801858329C1D9
:10314000CD2831F02F3F31F481E03F3F19F403C027
:1031500081E001C080E080FD03C081E08E2502C0D7
:1031600080E090E0F82FF170FF2E80FF1CC080916E
:10317000CC0440919B0456E0841709F4E8C090E029
:10318000589FF001599FF00D1124E456FB4F6181C7
:10319000261306C06081631303C06281E61203C078
:1031A00001968770E9CFFE2CEE2009F4F2C08091E1
:1031B0009A04816080939A0449C0621306C09313F5
:1031C00004C0E11002C0F80186C0C8010E940F18B7
:1031D000882351F1EE2041F120919A04822F8295AB
:1031E0008F7090E0029774F080919504909196040E
:1031F00098878F831986DB86CA862C87CE0107962F
:103200000E94AF0586E0F801A5E9B4E001900D92B7
:103210008A95E1F70E9476200AC06217C9F0C801BA
:103220000E940F1881111EC0C8010E94AF05FF2423
:10323000F394AFC0482F407F81F785E994E00E9466
:10324000AF0586E0F50111928A95E9F7F12CA1C04E
:103250009313E5CFE110E3CFF8018583C8010E9405
:10326000AF0554C0EE2001F320919A04822F82957D
:103270008F7090E0029734F28091950490919604BB
:103280009A8389831B82DD82CC822E83CE010196B4
:10329000B7CFE83CF105D0F5FE2CEE2029F2621301
:1032A00027C0931325C020919A0420FD18C0822FB7
:1032B00082958F70482F50E04115510581F0F8013B
:1032C00025834F30510541F08F5F982F9295907F65
:1032D000822F8F70892B8583C8010E94AF0586E0FD
:1032E000F801A5E9B4E001900D928A95E1F751C08B
:1032F000C8010E940F18811185CF80919A048160C6
:1033000080939A04C8010E94AF0543C086E0F5018E
:1033100011928A95E9F73DC0EE2009F485CFC801E6
:103320000E940F18F82E882309F47ECF86E0F8015A
:10333000A5E9B4E001900D928A95E1F7809195049A
:10334000909196040E94F3170E94762022C03D8738
:103350002E878D859E850E94F317292F22952F7029
:10336000223028F49F7039F0811105C00BC0243041
:1033700028F49F7049F4805E883020F0C8010E94D4
:10338000AF059F2CF92C05C0F8019581907F99F726
:10339000F9CF8F2D61960FB6F894DEBF0FBECDBF6B
:1033A000DF91CF911F910F91FF90EF90DF90CF9021
:1033B000BF90AF909F90089527E0929F800D1124B9
:1033C000682F669566956695982F977085E0689F3B
:1033D000B001112440E050E080E0FB01E40FF51F54
:1033E000E259FB4F208130E0092E02C03695279527
:1033F0000A94E2F721703327042E01C0220F0A94A9
:10340000EAF7822B4F5F5F4F4530510531F7089542
:1034100027E0929F800D1124E82FE695E695E6952A
:10342000877051E001C0550F8A95EAF785E0E89F63
:10343000F0011124E259FB4F20E030E070E04081C0
:10344000CB01022E02C0969587950A94E2F781700F
:10345000819584278523842781932F5F3F4F2530D3
:10346000310569F708950F931F938B019C01067036
:10347000112722273327DC01CB0106301105210556
:10348000310511F4886001C0877F80931302909307
:103490001402A0931502B09316021F910F910C9481
:1034A0007D170F931F9341E050E060E070E004C08F
:1034B000440F551F661F771F8A95D2F74095509588
:1034C000609570958091130290911402A09115025D
:1034D000B09116028A019B01082319232A233B235A
:1034E000C901B8011F910F910C94331A0F931F93C8
:1034F00041E050E060E070E004C0440F551F661FDB
:10350000771F8A95D2F78091130290911402A091AF
:103510001502B09116028A019B01082B192B2A2B48
:103520003B2BC901B8011F910F910C94331A609382
:10353000D2047093D3048093D4049093D5040C9454
:103540007D171092D00486E0EEE8F4E0DF011D92D2
:103550008A95E9F70C947D17882321F00E94AF1F0C
:103560000C94B61F0895882339F09091D004892BCC
:103570008093D0040C94B61F0895882309F45CC08E
:10358000823869F40E94752381FF56C069E38CE894
:1035900094E00E942F230E94B61F69E30EC0833877
:1035A00091F40E94752380FF47C063E58CE894E0A6
:1035B0000E942F230E94B61F63E58CE894E00E94CE
:1035C00022230C94B61F843869F40E94752382FF6D
:1035D00033C067E48CE894E00E942F230E94B61F5A
:1035E00067E4EBCF9CEF980F913A10F4682FE5CF8A
:1035F00090E2980F983050F4877091E001C0990FD5
:103600008A95EAF7892F0E94AF1FDBCF9BE5980FC1
:10361000933020F480E090E00C945F2398E5980FBD
:10362000973120F480E090E00C9449238D3E20F007
:103630000E9405250C9459240895CF93882309F4FA
:103640009EC0C82F8238B1F40E94752381FD97C0B7
:1036500069E38CE894E00E942F230E94B61F2FEFAD
:1036600081EE94E0215080409040E1F700C00000DE
:1036700069E317C08338E1F40E94752380FD7FC0A1
:1036800063E58CE894E00E942F230E94B61F2FEF81
:1036900081EE94E0215080409040E1F700C00000AE
:1036A00063E58CE894E00E942223CF910C94B61F2E
:1036B0008438B1F40E94752382FD61C067E48CE810
:1036C00094E00E942F230E94B61F2FEF81EE94E01A
:1036D000215080409040E1F700C0000067E4E1CF56
:1036E0008CEF8C0F813A80F4EEE8F4E084E994E00A
:1036F0002191C217E1F18E179F07D1F76C2F8CE84B
:1037000094E00E942F23D1CF80E28C0F883068F4A0
:10371000C77081E090E001C0880FCA95EAF79091E8
:10372000D004892B8093D004C0CFEBE5EC0FE330BD
:1037300040F4F0E0EB58FE4F808190E0CF910C9484
:103740005F23E8E5EC0FE73150F4F0E0EE0FFF1FE8
:10375000E858FE4F80819181CF910C944923CD3E52
:1037600070F08C2F0E94BE25CF910C9459246C2FA1
:103770008CE894E00E9422230E94B61FBFCFCF9115
:1037800008959091170292FF0DC0282F28712830BC
:1037900019F4877F846006C0282F2471243011F427
:1037A0008B7F886093FF0DC0282F2871283119F472
:1037B000877E846106C0282F2471243111F48B7E0A
:1037C00088612091180220FF0DC0382F38713830E1
:1037D00019F4877F816006C0382F3171313011F4C0
:1037E0008E7F886021FF0DC0282F2871283119F4A1
:1037F000877E816106C0282F2171213111F48E7ED0
:10380000886194FD877E0895EF92FF921F93CF9376
:10381000DF9300D000D0CDB7DEB77B0180E090E031
:103820000E949228892B09F065C040911C0150E04C
:103830004115510511F041E050E060911D0170917A
:103840001E0162527B4FCE0104960E94C629409110
:10385000DA045091DB046091DC047091DD042FB731
:10386000F8948091080590910905A0910A05B091FE
:103870000B052FBF841B950BA60BB70B8436910548
:10388000A105B10538F48FED94E00E9454129C819B
:10389000891791F181E090E00E949228892BA1F490
:1038A0004091260150E04430510510F043E050E0D3
:1038B000609127017091280162527B4FCE010196E1
:1038C0000E94C62911E001C010E08FED94E00E9433
:1038D000541291E02C81281390E0192311F10E94D9
:1038E000E1226093DA047093DB048093DC0490930C
:1038F000DD040CC010E001C011E08091DF04909164
:10390000E004A091E10489839A83AB83112349F0F9
:1039100089819A81AB818093D7049093D804A09336
:10392000D9048091D7049091D804A091D904F701CB
:1039300080839183A283812F0F900F900F900F901F
:10394000DF91CF911F91FF90EF900895AF92BF92BA
:10395000CF92DF92EF92FF920F931F93CF93DF935B
:103960007C015B01142F052F6901C1E0D0E0F894C0
:10397000B501C701F60109957894811129C02196F6
:10398000CB30D10589F0CC9F9001CD9F300D300D0B
:10399000112480E090E045E34A95F1F7000001969C
:1039A00028173907C1F7E3CF9091ED04892F817073
:1039B00090FF0FC00F931F9383E997E09F938F931E
:1039C0000E94FE040F900F900F900F9080E001C0B6
:1039D00081E0DF91CF911F910F91FF90EF90DF90E9
:1039E000CF90BF90AF9008958091D604811118C0F8
:1039F0008091D80080618093D8008AE18A95F1F7A0
:103A000000C08091D90080FD02C082E001C081E049
:103A10008093D604823021F40E94D215109264045F
:103A200081E09091D604913009F080E008950F93E1
:103A30001F93CF93DF9300D000D0CDB7DEB7409176
:103A4000E6045091E7046091E8047091E9042FB70F
:103A5000F8948091080590910905A0910A05B0910C
:103A60000B052FBF841B950BA60BB70B8436910556
:103A7000A105B10508F443C00E94F41C882319F085
:103A80000E94E1220EC00E94E122009109021091E1
:103A90000A0220910B0230910C02600F711F821FED
:103AA000931FDC01CB010296A11DB11D89839A836E
:103AB000AB83BC8380912E0190912F0182529B4F4A
:103AC00040912D0150E04530510510F044E050E0A8
:103AD000BE016F5F7F4F0E94C62982E090E00E9486
:103AE0009228892B11F080E00BC00E94E1226093A4
:103AF000E6047093E7048093E8049093E90481E07E
:103B00000F900F900F900F90DF91CF911F910F9119
:103B100008950E94F41C809301010E94F41C8111FD
:103B20000C9485270895CF93DF938238910569F12E
:103B3000B0F48133910509F46FC048F489329105DE
:103B400009F465C08A32910509F46BC08AC08533D7
:103B5000910509F457C089339105B9F082C0833EBD
:103B6000910571F138F4803E9105B1F0823E9105E6
:103B700011F177C0863E9105B9F1873E9105C9F1F3
:103B8000843E910509F06DC024C02091170220FDEC
:103B900053C021FD51C065C08091170280FD46C011
:103BA0008091180280FF48C08091170284FD50C1A7
:103BB00083EE90E04FC18091170282FF3AC0F4CFAC
:103BC0008091170282FD35C08091180280FD34C0BB
:103BD000EBCF8091180281FF35C08091170284FDE0
:103BE00037C187EE90E036C18091170283FF27C06E
:103BF000F4CF8091170283FD22C08091180281FDCD
:103C000021C0EBCF8091170285FD1FC021C080919C
:103C1000170285FD1DC019C08091170286FD1BC0CB
:103C20001DC08091170286FD19C015C089E390E080
:103C300011C182EE90E00EC180EE90E00BC186EEE5
:103C400090E008C184EE90E005C189E290E002C1F5
:103C500085E390E0FFC08AE290E0FCC081E390E061
:103C6000F9C0811531E5930708F069C0811540E579
:103C70009407F0F09C0174E0369527957A95E1F76A
:103C8000922F9370482F437021E030E002C0220F42
:103C9000331F4A95E2F73C68392B982F9F70969511
:103CA000969540E2949FC0011124822B932BD2C0A1
:103CB000883E910568F5803E910508F0CBC0883AB2
:103CC0009105B8F4853A910548F0855AE82FF0E05F
:103CD000EB58FE4F808190E09064BCC0813091052C
:103CE00009F4B3C008F4B4C08430910508F4B0C03E
:103CF000B1C08F3B910508F0ABC0885AE82FF0E0C7
:103D0000EE0FFF1FE858FE4F808191819464A2C09E
:103D1000811520E2920758F4811531E0930708F0ED
:103D200099C08D3E910508F493C0906593C08115AC
:103D300040E4940708F48CC09F70906A8BC0811592
:103D400025E5920708F042C0811534E5930728F075
:103D5000982F8827846F906A7DC0811543E594076A
:103D6000B0F09C012370332741E050E002C0440FC3
:103D7000551F2A95E2F7282F2695269580E2289F41
:103D800090011124CA01822B932B9A6863C081157C
:103D900022E5920728F4982F8827816F906A5AC0ED
:103DA0009C012370332741E050E002C0440F551FAF
:103DB0002A95E2F7282F2695269580E2289F9001E4
:103DC0001124CA01822B932B9C6844C0EC018115FD
:103DD00039E59307A8F48115984528F09C2F88278A
:103DE000806F906A37C0C11586E5D80788F58C2F9B
:103DF0000E94C11B8F7190E0982F882790622AC083
:103E000081152AE5920790F48C2F8F700E94C11BB8
:103E100094E0D695C7959A95E1F7CF70D0E0DC2F66
:103E2000CC27D0699E01282BC90114C0905681155A
:103E3000904270F48D2F8F710E94C11B282F2F711B
:103E4000CE0199279062922B05C081E090E002C0DC
:103E500080E090E0DF91CF910895CF9384E090E0EF
:103E60000E945E29C82F82E290E00E945E292C2FDA
:103E700030E0A901582BCA01CF91089569EE7EEF79
:103E800080E090E00E948A2960E082E090E00E9459
:103E90006C2960E083E090E00E946C291092D204CB
:103EA0001092D3041092D4041092D50460E084E000
:103EB00090E00E946C2960E082E290E00E946C2910
:103EC00060E085E090E00E946C2960E086E090E090
:103ED0000E946C296FEF87E090E00E946C2940E01F
:103EE00050E0BA0188E090E00E947E2960E08DE019
:103EF00090E00E946C2940E050E0BA0188E190E037
:103F00000E947E2960E087E190E00E946C2940E0F9
:103F100050E0BA018CE190E00E947E2960E070E000
:103F200080E290E00E948A2940E050E0BA0188E1F6
:103F300090E00E947E2940E050E0BA018FE090E0DE
:103F40000E947E2940E050E0BA0183E190E00C94A9
:103F50007E298091D10481111092D1040895809519
:103F60009091D00489238093D0040895EF92FF921A
:103F70000F931F93CF939091D0048091CF04892BFE
:103F80002091CE04982F922B90938C048091D10491
:103F9000882389F0892B80938C04EEE8F4E097E085
:103FA00080E0915029F021912223D9F38F5FF9CF3E
:103FB00081110E94A91FE0910305F091040530973B
:103FC000C9F10280F381E02D8CE894E0099580919D
:103FD000ED0482FF2FC080FF04C081E897E00E94BB
:103FE00065040CE814E0C8E08BE7E82E87E0F82EC3
:103FF0008091ED0480FF0CC0F80180811F928F93A7
:10400000FF92EF920E94FE040F900F900F900F907E
:10401000C1500F5F1F4FC111EBCF8091ED0480FFA6
:1040200009C089E797E0CF911F910F91FF90EF9022
:104030000C946504CF911F910F91FF90EF9008951C
:104040002091CD04809582238093CD04982F977082
:1040500099F430E0482F082E000C550B2417350733
:1040600059F09091180292FD07C085958595859528
:104070000E94511A1092CD040895CF93DF93C091FE
:104080001802C2FB992790F9981719F1D82F80FBD5
:10409000C2F9C09318026091170284E090E00E9478
:1040A0006C296C2F82E290E00E946C2982E00E94D1
:1040B00020208091ED0480FF0CC01F92DF9384E6E6
:1040C00097E09F938F930E94FE040F900F900F90A4
:1040D0000F90DF91CF9108958091CC0490919B0433
:1040E000891719F08F5F8770FBCF08950F931F9387
:1040F000CF93DF9380919A0482958F7009F05DC011
:1041000080919704882309F458C08091CC041091C1
:104110009B046091950470919604C0919804D0918D
:10412000990491E06F3F09F090E0292F06E0811794
:1041300009F443C0209721F07F3F21F030E003C015
:1041400031E001C0322F90E030FD34C0089FF00113
:10415000099FF00D1124DF01A456BB4F11963C912D
:104160001197371327C03C91361324C012963C9107
:10417000129731111FC013964D915C9114974C1BEF
:104180005D0B483C5105B0F480919A048F708061BA
:1041900080939A04EF55FB4F80818F7080618083FC
:1041A00085E994E00E94AF05DF91CF911F910F91B7
:1041B0000C946C2001968770BACFDF91CF911F913C
:1041C0000F91089508958091590408959FB7F89428
:1041D000109255049FBF90916404943009F057C029
:1041E0009091E9009F703091EC00232F217030FDF9
:1041F00020E8922B23E02093E9002091EB0020FFA0
:1042000043C02091EE0027FF3FC020910F052223DD
:1042100021F02091E80025FF37C010920F0526E01D
:104220003091E80035FD15C030916404343061F5FB
:104230003091EB0035FD28C0215021F481E08093BE
:104240000F0522C0EFE9FFE03197F1F700C0000051
:10425000E7CF8093F1008091E80085FD0AC080914E
:10426000E80080FFFCCF8091E8008E778093E80023
:1042700006C08FB7F89421E0209355048FBF9F703C
:104280009093E90080E008959F709093E9008FEF8C
:10429000089580930C0570930E0560930D05809131
:1042A0006404843001F582E08093E9008FEF9091FF
:1042B000E800815095FD06C095ED9A95F1F7000054
:1042C0008111F5CF8091E80085FF0DC040E050E0FE
:1042D00063E070E08CE095E00E9494128091E80029
:1042E0008E778093E8000895BC0184E00C94492106
:1042F000BC0183E00C94492122E02093E9002FEFD8
:104300003091E800215035FD06C035ED3A95F1F7C2
:1043100000002111F5CF2091E80025FF0BC040E0FF
:1043200050E066E070E00E9494128091E8008E7781
:104330008093E8000895CF93DF9321E02093E90074
:104340002FEF3091E800215035FD06C035ED3A954C
:10435000F1F700002111F5CF2091E80025FF14C0EE
:10436000EC0140E050E068E070E00E94941280911F
:10437000E8008E778093E80088E0FE01AAE5B4E0CB
:1043800001900D928A95E1F7DF91CF9108952091E8
:10439000E4003091E50095E64091EC00842F8170B7
:1043A00040FF23C08091E80080FD1DC0809164041F
:1043B000882399F0853099F08091EB0085FD11C03C
:1043C0004091E4005091E5002417350729F39150FE
:1043D00011F09A01E1CF84E0089582E0089583E02E
:1043E000089581E0089580E008954091E80042FF3B
:1043F000DDCF08958091660487FF11C08091E800A9
:1044000082FD05C0809164048111F8CF11C08091B4
:10441000E8008B770BC080916404882349F0809179
:10442000E80080FFF8CF8091E8008E778093E80065
:104430000895982F973068F59093E900981739F010
:104440007091EC002091ED005091F00003C0242FFA
:10445000762F50E021FD02C09F5FECCF3091EB0042
:104460003E7F3093EB003091ED003D7F3093ED00C7
:104470003091EB0031603093EB007093EC002093AF
:10448000ED005093F0002091EE0027FDE5CF80E095
:1044900008958F708093E90081E0089520916C0465
:1044A00030916D042617370748F06115710539F40E
:1044B0002091E8002E772093E80001C0B901FC01AB
:1044C00020E06115710579F1809164048823F1F190
:1044D0008530F1F18091E80083FD3CC08091E800D7
:1044E00082FD2EC08091E80080FFEBCF2091F30089
:1044F0008091F20090E0922B6115710551F08830A7
:10450000910538F421912093F100615071090196D1
:10451000F3CF21E0089709F020E08091E8008E7742
:104520008093E800CECF2111CFCF0AC080916404E0
:10453000882361F0853061F08091E80083FD0AC036
:104540008091E80082FFF2CF80E0089582E0089534
:1045500083E0089581E0089578941F920F920FB63A
:104560000F9211248F939F93AF93BF93809108056F
:1045700090910905A0910A05B0910B050196A11D26
:10458000B11D8093080590930905A0930A05B09387
:104590000B05BF91AF919F918F910F900FBE0F9020
:1045A0001F9018959C014FB7F89480910805909141
:1045B0000905A0910A05B0910B054FBF821B930B13
:1045C00008952FB7F89460910805709109058091BE
:1045D0000A0590910B052FBF08952FB7F89480918D
:1045E000080590910905A0910A05B0910B052FBF10
:1045F00008951F920F920FB60F9211248F939F93DD
:10460000AF93BF9380910705811113C08091080576
:1046100090910905A0910A05B0910B054196A11D45
:10462000B11D8093080590930905A0930A05B093E6
:104630000B05BF91AF919F918F910F900FBE0F907F
:104640001F9018959C012A5F3F4FFC014281461341
:1046500001C01282019682179307B9F708959C0151
:10466000FC0132969FEF80E04191461789F09F3F11
:1046700019F4411101C0982F8F5F8630A9F79F3F31
:1046800039F0F901E90FF11D97FDFA95628308955C
:10469000089520910505309106052817390771F016
:1046A0009093060580930505E0910305F0910405BC
:1046B000309721F00084F185E02D09940895209130
:1046C0000105309102052817390771F09093020512
:1046D00080930105E0910305F0910405309721F0E6
:1046E0000680F781E02D099408950E94F41C882328
:1046F00051F0E0910305F0910405309721F001900D
:10470000F081E02D099480E00895EF92FF920F93DD
:10471000CF93DF93C42FD22FFC0182818823D1F065
:10472000409300050E94ED229093FF048093FE04C5
:1047300080E28C0F883008F06DC0C77081E001C046
:10474000880FCA95EAF7DF91CF910F91FF90EF9014
:104750000C94B31A8091000548134BC08091FE045D
:104760009091FF040E94D222883C910508F041C03C
:10477000CD17C9F080E28C0F883040F4C77081E01B
:1047800001C0880FCA95EAF70E94AC1A80E28D0F2B
:10479000883048F481E09D2F977001C0880F9A956A
:1047A000EAF70E94B31A093319F0E12CF12C03C087
:1047B00080E5E82EF12C802F0E941D1BE114F104EE
:1047C00051F08FE99FE00197F1F700C0000091E000
:1047D000E91AF108F3CF802F0E94BD1A80E28D0FF5
:1047E0008830C0F4D77081E001C0880FDA95EAF70D
:1047F0000AC080E28C0F883068F4C77081E001C085
:10480000880FCA95EAF7DF91CF910F91FF90EF9053
:104810000C94AC1ADF91CF910F91FF90EF90089517
:104820008091FD049091FC048823A9F0992389F0DC
:1048300062E070E08EE198E00E946B12892B39F003
:1048400089E098E00E9465048091FC04089510922C
:10485000FC049091FC0481E0892708958091FD0477
:10486000882321F10E94E122DC01CB01805A95418D
:10487000AF4FBF4F8093F8049093F904A093FA04CC
:10488000B093FB048091FC04811110C062E070E0E1
:1048900087E098E00E946B12892B29F083EF97E064
:1048A0000E94650403C081E08093FC048091FC04B5
:1048B00008958091ED0483FF7EC080ED97E00E9413
:1048C00065048091F3041F928F938BEC97E09F9384
:1048D0008F930E94FE0489EC97E00E94650480910A
:1048E000F404282F082E000C330B3F938F9386EC93
:1048F00097E09F938F930E94FE0484EC97E00E94C0
:1049000065048091F504282F082E000C330B3F938B
:104910008F9381EC97E09F938F930E94FE048FEB1F
:1049200097E00E9465048091F604282F082E000C61
:10493000330B3F938F938CEB97E09F938F930E9461
:10494000FE048AEB97E00E9465048091F704282F0B
:10495000082E000C330B3F938F9387EB97E09F93C8
:104960008F930E94FE0484EB97E00E94650480917F
:10497000EC041F928F9381EB97E09F938F930E949B
:10498000FE048FEA97E00E9465048091EB041F9279
:104990008F938CEA97E09F938F930E94FE0489EA9D
:1049A00097E00E9465048DB79EB74C960FB6F894B9
:1049B0009EBF0FBE8DBF0E94ED222091F4042111F5
:1049C00004C02091F504222321F09093F1048093F8
:1049D000F0042091F604211104C02091F704222351
:1049E00021F09093EF048093EE04E0910305F091A1
:1049F0000405309749F082E08093F2040480F58149
:104A0000E02D82EF94E0099408958D3E39F4909161
:104A1000F50497FF35C01092F50459C08E3E29F475
:104A20009091F5041916BCF32BC09091F4048F3EBD
:104A300029F497FF25C01092F40449C0803F19F46F
:104A40001916CCF31DC09091F604893F29F419166C
:104A5000BCF41092F6043BC08A3F19F497FF10C0D3
:104A6000F8CF8B3F39F49091F70497FF09C010926B
:104A7000F7042DC08C3F21F49091F7041916BCF374
:104A80009FE0980F983080F421E030E0A90102C047
:104A9000440F551F9A95E2F7CA0180959091F3044F
:104AA00089238093F30413C08D3F21F48091EB049C
:104AB0008E7F0BC08E3F21F48091EB048D7F05C06B
:104AC0008F3F29F48091EB048B7F8093EB048091DE
:104AD000F404811106C08091F504811102C0109286
:104AE000EC048091F604811106C08091F7048111D5
:104AF00002C01092EA0408958091EB0480FD16C074
:104B000081FD16C082FD18C08091EA04882391F0CF
:104B1000883290F428E0829FC001112468E270E09E
:104B20000E94AC29862F672B29F007C082E00895E8
:104B300084E0089581E0089588E008958091EB0471
:104B400080FD14C081FD14C082FD16C08091EC046C
:104B5000882381F0843180F422E3829FC0011124F4
:104B600064E170E00E94AC29862F08958CE00895DE
:104B700089E1089585E0089582E308958D3E21F44A
:104B80000E949E25819504C08E3E29F40E949E2598
:104B90008093F50408958F3E21F40E949E2581950F
:104BA00004C0803F29F40E949E258093F404089558
:104BB000893F19F40E947C2505C08A3F31F40E9488
:104BC0007C2581958093F60408958B3F21F40E9403
:104BD0007C25819504C08C3F29F40E947C2580931C
:104BE000F70408959FE0980F983078F421E030E0C2
:104BF000A90102C0440F551F9A95E2F7CA0190918E
:104C0000F304892B8093F30408958D3F21F4809160
:104C1000EB0481600BC08E3F21F48091EB04826035
:104C200005C08F3F29F48091EB0484608093EB04EE
:104C300008951092B9008CE08093B80008959F9277
:104C4000AF92BF92CF92DF92EF92FF920F931F939A
:104C5000CF93DF93B82EEB010E94ED226C01C4319B
:104C6000D10558F0CF3F8FEFD80759F0CE0164E15E
:104C700070E00E944A297B0107C0EE24E394F12CE6
:104C800003C025E0E22EF12C84E8A82E94EA992EA8
:104C90001092BC009092BC000E94ED228C01809189
:104CA000BC0087FD08C00E94ED22801B910B8E1571
:104CB0009F05A8F32AC08091B900887F883041F011
:104CC0008091B900887F803119F00FEF1FEF1FC06E
:104CD000B092BB00A092BC000E94ED228C0180919A
:104CE000BC0087FD08C00E94ED22801B910B8E1531
:104CF0009F05A8F30AC08091B900887F883111F020
:104D0000803419F700E010E00EC00EEF1FEFCF3F28
:104D10008FEFD80709F4BCCFC6010E94D2228C17AE
:104D20009D0708F4B5CFC801DF91CF911F910F9176
:104D3000FF90EF90DF90CF90BF90AF909F9008953D
:104D40000F931F93CF93DF93EB018093BB0084E815
:104D50008093BC000E94ED228C018091BC0087FDF5
:104D60000EC0CF3F8FEFD807C1F30E94ED22801B0A
:104D7000910B8C179D0788F38EEF9FEF0CC020914D
:104D8000B900287F81E090E0283211F480E090E0C3
:104D9000919581959109DF91CF911F910F91089580
:104DA000CF92DF92EF92FF920F931F93CF93DF93F7
:104DB0006B018A017901B9010E941F26E6010C0DE1
:104DC0001D1DC017D10761F424E92093BC00DF91B9
:104DD000CF911F910F91FF90EF90DF90CF900895AA
:104DE00097FDF2CFB70189910E94A026EACFCF921A
:104DF000DF92EF92FF920F931F93CF93DF93C62F13
:104E00006A017901B8010E941F2697FD11C0B801FF
:104E10008C2F0E94A026E601EC0CFD1CCE15DF05B0
:104E200039F097FD05C0B80189910E94A026F6CF00
:104E300024E92093BC00DF91CF911F910F91FF9047
:104E4000EF90DF90CF90089584E98093BC0008959F
:104E50008EE14A9B02C08150E1F74A9BFECF089544
:104E60005A9880E28A95F1F75A9A0895FC012AE04F
:104E70002A95F1F728E090E080E031E040E14A95A2
:104E8000F1F7880F4A9B02C08160932700C00000A1
:104E900040E14A95F1F7215089F720E12A95F1F791
:104EA00029B100C0000030E13A95F1F722FB22273A
:104EB00020F992272081920F90830895EF92FF921C
:104EC0000F931F93CF93DF931F92CDB7DEB7198255
:104ED0008C017C01E60EF11C0E151F0551F00E949D
:104EE0002827CE0101960E943627F80181938F0171
:104EF000F3CF81E09981911180E00F90DF91CF9104
:104F00001F910F91FF90EF900895529A5A9A089529
:104F100052985A9AEA9AE9E6F0E080818F7C808381
:104F20000895615091E001C0990F6A95EAF720E079
:104F300031E0992361F0492F482319F05A9A232729
:104F400001C05A9840E24A95F1F79695F2CF222394
:104F500011F05A9A01C05A9880E28A95F1F75A984E
:104F60000895FF920F931F93CF93DF93EC018C0171
:104F7000060F111DC017D10741F0F9900E9430278C
:104F800068E08F2D0E949127F5CFDF91CF911F917F
:104F90000F91FF9008951F920F920FB60F92112458
:104FA000EF92FF920F931F932F933F934F935F9333
:104FB0006F937F938F939F93AF93BF93EF93FF93E1
:104FC000CF93DF931F92CDB7DEB719820E942827B7
:104FD000CE0101960E943627A82FA695A695A695E4
:104FE0009A2F969595702A2F2570920F292F23704E
:104FF00096959695920F877089137CC0898181114F
:1050000079C0A43008F076C080E18A95F1F75A9A09
:10501000529AB2E0BA95F1F700C05A98EA2EF12CF4
:10502000EAE0AE9FD0011124A95EBE4F1896ED9123
:10503000FC9119973097B1F06091A6017091A7018A
:1050400016962D913C911797260F371F13968D9129
:105050009C911497680F791F15964C91159712968D
:105060008C9109958AE08E9DF0018F9DF00D1124A1
:10507000E95EFE4F6581662351F08091A601909113
:10508000A70126813781820F931F0E94B1270E94BA
:105090003027F0E1FA95F1F75A9852985A9A80E140
:1050A0008A95F1F78AE08E9D80018F9D100D112465
:1050B000095E1E4FD80112966C911297662399F0E3
:1050C0008091A6019091A70113962D913C91149780
:1050D000820F931F0E945E27D801ED91FC918111F0
:1050E00005C082E004C0D801ED91FC9188E0808386
:1050F0000E9428270F90DF91CF91FF91EF91BF91F0
:10510000AF919F918F917F916F915F914F913F915F
:105110002F911F910F91FF90EF900F900FBE0F9066
:105120001F9018950F931F93CF93DF9384309105B1
:105130000CF0A9C02AE0289FF001299FF00D11244E
:10514000E95EFE4F20813181232B09F49CC0EC01E4
:10515000F894529A5A9885E08A95F1F700008C2FBE
:10516000869585709C2F9570890F982F93708695E2
:1051700086958E0123E0000F111F2A95E1F7890F14
:10518000082B0E943027A4E0AA95F1F700C068E040
:10519000802F0E949127B0E1BA95F1F752985A9A60
:1051A0004A9902C000C0FCCF87E090E04A9B17C03C
:1051B000019799F4529A5A9A8AE08C9FF0018D9F38
:1051C000F00D1124E95EFE4F0190F081E02D81E0A9
:1051D0008083789481E090E058C000C0E7CF8AE0F7
:1051E0008C9F80018D9F100D1124095E1E4FF801C8
:1051F00065816623B9F08091A6019091A70126816F
:105200003781820F931F0E945E2781110BC0529A33
:105210005A9AD801ED91FC9182E08083789482E0E3
:1052200090E033C00E942827B0E2BA95F1F75A986F
:10523000529AE0E1EA95F1F78AE08C9FF0018D9FA8
:10524000F00D1124E95EFE4F6281662351F08091DA
:10525000A6019091A70123813481820F931F0E94A0
:10526000B1270E9430278AE08C9FF0018D9FF00DBE
:105270001124E95EFE4F0190F081E02D10827894B8
:1052800080E090E002C084E090E0DF91CF911F9138
:105290000F910895AA1BBB1B51E107C0AA1FBB1F9A
:1052A000A617B70710F0A61BB70B881F991F5A95B2
:1052B000A9F780959095BC01CD010895F999FECF8D
:1052C00092BD81BDF89A992780B50895A8E1B0E014
:1052D00042E050E00C949229262FF999FECF92BD1E
:1052E00081BDF89A019700B4021639F01FBA20BDAB
:1052F0000FB6F894FA9AF99A0FBE08950396272FDD
:105300000E946D290E946C29252F0E946D29242F4F
:105310000C946D290196272F0E946D290C946C29FD
:10532000DC01CB01FC01F999FECF06C0F2BDE1BD65
:10533000F89A319600B40D9241505040B8F7089554
:10534000991B79E004C0991F961708F0961B881FD7
:105350007A95C9F78095089597FB072E16F4009467
:1053600007D077FD09D00E944A2907FC05D03EF4FA
:10537000909581959F4F0895709561957F4F089501
:10538000EE0FFF1F0590F491E02D0994FB01DC0165
:1053900002C001900D9241505040D8F70895F89402
:0253A000FFCF3D
:1053A2004001FFE3209B217C2178217421E220002F
:1053B20021007F220003019404000000010000008C
:1053C200009404000000030100000094040404009F
:1053D200000000000022014A01736C6176655F6D76
:1053E20061747269780073796E635F74696D657256
:1053F2000006040300010205946697333236000862
:10540200101818100800407B2219059E047C047FA6
:10541200059805B105818283E200E900EA00B50042
:10542200B600B700CD008301CC008A01920194013D
:105432002102230224022502260227022A02B300A5
:08544200B4006F007000DE04ED
:00000001FF
