:100000000C9410040C9457040C9457040C94DE27A1
:100010000C9457040C9457040C9457040C945704F4
:100020000C9457040C9457040C9465160C94A11569
:100030000C940C230C9457040C9457040C94570400
:100040000C9457040C9457040C9457040C945704C4
:100050000C9457040C94BF220C9457040C9457042E
:100060000C9457040C9457040C9457040C945704A4
:100070000C9457040C9457040C9457040C94570494
:100080000C9457040C9457040C9457040C94570484
:100090000C9457040C9457040C9457040C94570474
:1000A0000C9457040C9457040C9457048D088D0835
:1000B000BF08BF0831094D09E40AE40A5809360AA5
:1000C000470A470AB813DF138315DF1383152B1470
:1000D0004E14831544155315371837184A184A1803
:1000E00040184A184A184A183718371845184A1835
:1000F0004A1845180A00253464000A004572726FD8
:10010000723A20646973636F6E6E656374207370F6
:100110006C69742068616C660A0044454255473A30
:100120002064697361626C65642E0A00444542551F
:10013000473A20656E61626C65642E0A00736574CF
:100140005F6272696768746E65737320636D6420A3
:100150006661696C65640A00646973706C61795FDB
:10016000736574757032206661696C65640A00009D
:10017000DA0281FFD9F1DB20A4A62EAF6469737087
:100180006C61795F666C6970706564206661696C2A
:1001900065640A0000A0C06F6C65645F696E697475
:1001A00020636D64206E6F726D616C20726F74617C
:1001B00074696F6E206661696C65640A0000A1C88D
:1001C0006F6C65645F696E697420636D642073652C
:1001D000742031206661696C65640A0000AED580C8
:1001E000A81FD300408D1420005B735D000A00251A
:1001F000303862003A200025303258000A722F63EE
:100200002030313233343536370A00000000000028
:1002100000000000000000000000303C3F3F3F3F76
:100220003F3FFFFFFFFFFFFFFFFF7F3F3F3F3F3F9E
:100230003F3F3F3F3F0F0300000000000000000071
:1002400000000000000000000000000000000000AE
:10025000000000000000000000000000000000009E
:10026000000000000000000000000000000000008E
:10027000000000000000000000000000000000007E
:10028000000000000000000000000000000000006E
:10029000000000000000000000000000000000E07E
:1002A000F8FEFFFFFFFFFF1F07C1F0F8F8F8FCFCA6
:1002B000FC7C7C7C7CFCFCFCFCFCFCFCFCF830004A
:1002C000C0F0F8F8F8F8F8F878787878F8F8F8F8EE
:1002D000F8F8F8F8700080E0F8F8F8F8F8F8F8C0E6
:1002E000E0E0F0F0F0F0780880E0F0F8F8F8F87866
:1002F0007878787878F8F8F8F8F8F8700000000066
:1003000000000000000000000000000000000000ED
:10031000000000000000000000000080F0FCFFFF73
:10032000FFFFFF3F1F03E0FCFFFFFFFFFFFFFFE3B7
:10033000E0E0E0E0F0FCFFFFFFFF7F1F87E0F8FE5A
:10034000FFFFFFFFFFFFE3C0C0C0E0F0FCFFFFFFC7
:10035000FF3F0FC1F0FEFFFFFFFF7F1F0F070703E7
:100360000303030303C1F0FEFFFFFFFFFFCFCFCE68
:10037000CECECECECECFCFCF0707030000000000F9
:10038000000000000000000000000000000000006D
:10039000000000000000000000000203030303034C
:1003A0000303010000000303030303030303030328
:1003B000030303030303030301C0F0FCFFFFFFFF7C
:1003C0007F1F070303030303030303030303030163
:1003D0000000030303030303030100000000000007
:1003E00000000000000103030303030303030303EE
:1003F00003030303030303010000000000000000E7
:1004000000000000000000000000006F6C65645FE9
:1004100072656E6465723930206461746120666152
:10042000696C65640A006F6C65645F72656E646513
:10043000722064617461206661696C65640A006F92
:100440006C65645F72656E646572206F6666736565
:100450007420636F6D6D616E64206661696C6564A4
:100460000A000A0025303258006B6579626F6172AC
:10047000645F7365745F6C65643A20000631FF0940
:1004800074A1010975150026FF00952075088102E9
:100490000976150026FF00952075089102C0050118
:1004A0000902A10185020901A10005091901290814
:1004B00015002501950875018102050109300931F2
:1004C0001581257F95027508810609381581257FDC
:1004D000950175088106050C0A38021581257F955E
:1004E0000175088106C0C005010980A101850319B5
:1004F000012AB700150126B700950175108100C0CB
:10050000050C0901A101850419012AA00215012683
:10051000A002950175108100C005010906A1010521
:100520000719E029E7150025019508750181029555
:1005300001750881010507190029FF150026FF0034
:1005400095067508810005081901290595057501AD
:100550009102950175039101C05B435D005B445DB1
:10056000005B535D005B575D005B525D0009025B01
:1005700000030100A0FA09040000010301010009C1
:1005800021110100012240000705810308000A092A
:100590000401000103000000092111010001227B78
:1005A000000705820320000A09040200020300007C
:1005B0000009211101000122220007058303200008
:1005C00001070503032000011201000200000008DA
:1005D000EDFE716B010001020001220343006F0078
:1005E00072006E00650020004500430020005200AC
:1005F000650076006900760061006C000000100361
:1006000043006900700075006C006F00740000000A
:10061000040309042B0014001A0008001500170039
:10062000E300E00004001600070009000A00015181
:10063000E1001D001B000600190005002C002A0027
:10064000130012000C0018001C00AB5D34003300D6
:100650000F000E000D000B000251E50038003700BE
:10066000360010001100280029001E001F00200085
:1006700021002200E300E000000000000000000074
:1006800000000151E1000000000000000000000037
:100690002C002A0027002600250024002300AB5D43
:1006A000000000004F0052005100500002510000B5
:1006B00000000000000000000000280029001E02C9
:1006C0001F02200221022202E300E00000000000DD
:1006D0000000000000000151E100000000000000E7
:1006E000000000002C002A00270226022502240216
:1006F0002302AB5D3500310230022F022E002D00A7
:1007000002513502310030002F002E022D02280048
:10071000005CAC5D0000000000000000E300C35C72
:10072000C65CC85CCA5C000000000151C45CC75CC8
:10073000C95CCB5C000000002C0000000000000041
:10074000000000000000AB5D0000000000000000A1
:100750000000000002510000000000000000000046
:10076000000028004F6E6573686F743A20616374EF
:100770006976653A2025640A000A0025303258203F
:10078000006B6579626F6172645F7265706F72741D
:100790003A20004661696C656420746F2065786555
:1007A000637574652025730A00290A002575002FDA
:1007B000002575005D2800256400200025640020C8
:1007C0000025640020002564007C0025303258009C
:1007D0006D6F7573656B6579205B62746E7C7820D4
:1007E00079207620685D287265702F61636C293AE4
:1007F000205B006F6C65645F6F6E20636D642066C4
:1008000061696C65640A0000AF6F6C65645F6F6658
:100810006620636D64206661696C65640A0000AEE1
:1008200011241FBECFEFDAE0DEBFCDBF04B603FE5A
:1008300027C08091110590911205A0911305B091E8
:1008400014058730904BA740B04BD1F4109211059E
:1008500010921205109213051092140514BE84B75D
:10086000877F84BF0FB6F894A89580916000886157
:1008700080936000109260000FBEE0E0F8E30995FD
:1008800011E0A0E0B1E0E8ECF3E502C005900D92C4
:10089000A83AB107D9F725E0A8EAB1E001C01D9256
:1008A000A131B207E1F70E94720D0C94E2290C9479
:1008B0000000FF93EF93E091A801F091A901309718
:1008C00009F00995EF91FF910895FC018591803021
:1008D00011F0EFDFFBCF0895FF27E0E230E247FFA2
:1008E0000CC0419597FF09C0EDE260957095809529
:1008F0009095611D711D811D911D27FF02C02195DD
:1009000030E350E2AA27660F771F881F991FAA1F9E
:10091000A41710F0A41B63955A95A9F7AA3008F004
:10092000A95FA05DAF93F3956115710581059105F0
:1009300041F7ED3211F4EF93F395F21718F43F936A
:10094000F395FBCF8F91B5DFFA95E1F70895E99123
:10095000F9918591803021F0853219F0AADFF9CF25
:10096000089520E0E89455915532C1F3503311F4C5
:10097000689455915A3348F4505390F3220F022E45
:10098000220F220F200D250FF4CF0EF4219589910F
:100990009991533619F3533729F1533559F1BC0165
:1009A00088279927E8945C3621F489919991689475
:1009B0005591543639F446EF7EF077FF0DC08FEF36
:1009C0009FEF0AC055374AE039F0583540E121F031
:1009D000523642E009F00895FF93EF937DDFEF91E7
:1009E000FF91B7CFFF93EF93FC0181918030B9F372
:1009F00060DFFBCFFF93EF9368DFF1CFDF93CF93FF
:100A0000CDB7DEB72596A3DFCF91DF9108951F9371
:100A1000CF93DF93CDB7DEB767970FB6F894DEBFFD
:100A20000FBECDBF4B8B5C8B6D8B7E8B8F8B611123
:100A30001092D00486E09E01235F3F4FD901E82F3A
:100A40001D92EA95E9F795E0FE017396D9010190B0
:100A50000D929A95E1F79C894E895F897B897D8704
:100A60009E876F87598B488BF901DE01179601909D
:100A70000D928A95E1F7CE0107960E944E188111DA
:100A80003EC086E0FE013796DE01119601900D9280
:100A90008A95E1F7FF81E8856A857B856115710597
:100AA00031F0EF3F31F481E0FF3F19F403C081E002
:100AB00001C080E080FD23C020919C0430E0C9018A
:100AC0000196877099274091CD0450E084179507CF
:100AD00079F1F983EA837D836C8396E0929FD0015C
:100AE000939FB00D1124A356BB4FFE013196019088
:100AF0000D929A95E1F780939C040E947F2016E066
:100B00008091CD0490919C048917F9F0189FC00141
:100B1000112483569B4F0E944E188823B1F0809178
:100B2000CD0490E00196877099278093CD04E8CF9B
:100B30000E94B41A10929C041092CD04E6E9F4E0ED
:100B400086E0DF011D928A95E9F767960FB6F89463
:100B5000DEBF0FBECDBFDF91CF911F9108958F9261
:100B60009F92AF92BF92CF92DF92EF92FF920F933C
:100B70001F93CF93DF93CDB7DEB72A970FB6F894C4
:100B8000DEBF0FBECDBFFC010081D1808381948187
:100B9000892B39F01FEFD11206C091E00F3F19F4F5
:100BA00003C091E001C090E090FD4DC57F0185E05C
:100BB000DE01169601900D928A95E1F7F7012281E8
:100BC0008E819F81222349F00E94AD17182F682F34
:100BD0008E819F810E941B1A03C00E94EF19182F5B
:100BE0002AE2129FF001112437E0D39EE00DF11D9F
:100BF0001124E00FF11DEE0FFF1FEC5EF94F059180
:100C000014910B3A8DE5180761F4F701828188236E
:100C100009F44EC09091080281E089278093080270
:100C20004CC0043FFCE51F0741F190F4093D3CE551
:100C30001307E9F00A3D8CE5180789F1083D9CE5AA
:100C40001907B1F506E221EE41EE68ED7CE52CC016
:100C5000063FECE51E07E9F0B0F0073F2CE5120770
:100C600039F507E225EE46EE67EF7CE51DC007E2A9
:100C700025EE45EE69ED7CE517C006E221EE40EE7B
:100C800064EF7CE511C007E225EE44EE65EF7CE5FC
:100C90000BC006E221EE42EE66EF7CE505C008E2FD
:100CA00021E045EE6AED7CE5C7010E949823B6C1BC
:100CB000F7018281882309F445C1109201050430AF
:100CC000FDE51F0758F40B3F2CE5120760F4C8013F
:100CD00082509C45449708F01FC105C002363DE58F
:100CE000130709F019C10E94401F909319028093C5
:100CF000180200318CE5180709F4CAC008F041C099
:100D00000830ECE51E0709F4A4C0F0F404302CE52B
:100D1000120709F48CC068F402308CE5180709F456
:100D200082C003301C4509F0E7C080911802826040
:100D3000E1C00630ECE51E0709F483C008F085C069
:100D4000809118028860D6C00C302CE5120709F497
:100D500090C068F40A308CE5180709F47EC008F0EA
:100D600084C00E94B41A809118028068C3C00E30FB
:100D7000ECE51E0709F481C008F086C080911802D6
:100D800094C00D3F2CE5120709F47BC038F50431FF
:100D90008CE5180709F49AC058F40231ECE51E07F7
:100DA00009F47AC008F07EC0809118028F7BA2C03F
:100DB0000B3F2CE51207F1F108F03FC005311C454F
:100DC00009F09AC08091180282FB222720F991E055
:100DD000922790FB82F990FB83F98CC001309DE54E
:100DE000190709F467C050F4809119020F3FFCE520
:100DF0001F07C1F108F05BC08D7F65C003303DE582
:100E0000130709F471C008F46DC002361D4509F0DE
:100E100073C08091180284FB222720F991E0922769
:100E200090FB84F967C080911802816063C0809153
:100E3000180216C08091190216C0809119028260B2
:100E400042C080911802806155C080911802806272
:100E500051C08091180280644DC080911802886052
:100E6000846048C0826081602EC0809118028E7FAD
:100E700041C0809118028D7F3DC080911802877F0C
:100E800039C08091190214C0809118028F7E32C03F
:100E9000809118028F7D2EC00E94B41A8091180292
:100EA0008F7728C080911802877F8B7F23C08D7F2A
:100EB0008E7F09C080911902982F909591708E7F36
:100EC000892B90FB81F98093190216C00E94B41AF5
:100ED0008091180287FB222720F991E0922790FB4E
:100EE00087F908C061E001C060E08EE090E00E94F8
:100EF0007F2902C080931802609118021091190294
:100F000084E090E00E947F29612F82E290E00E94BD
:100F10007F290E94B41A82C006312CE5120719F508
:100F20008091D1048A7A91E009F490E090930902CB
:100F3000882311F065E301C069E28DE894E00E9426
:100F400042230EC006311C4509F08BC08091090276
:100F5000882309F476C365E38DE894E00E94352385
:100F60000E94C91F5BC00F3DECE51E0709F447C096
:100F700040F401152CE5120799F001301C4561F190
:100F800070C00C358DE5180709F444C00D359DE59A
:100F90001907C1F10B351D4509F063C081E03BC065
:100FA0000E94B41AFFEF04E31CE0F150004010402F
:100FB000E1F700C0000087E797E79093010880936E
:100FC00000089AE088E10FB6F894A8958093600035
:100FD0000FBE90936000FFCF8091EE04982F909504
:100FE000917090FB80F98093EE04992319F08CE2C4
:100FF00091E002C08AE191E00E9465040FC00E9466
:10100000511F0CC08091190282FB882780F991E062
:10101000892701C080E00E94502023C08091CE0427
:10102000877009F410C3F7018281882309F40BC388
:101030008091190282FD07C382E02A960FB6F894C8
:10104000DEBF0FBECDBFDF91CF911F910F91FF90FB
:10105000EF90DF90CF90BF90AF909F908F900C94C7
:101060003320F70182810081D180882359F0802FBD
:101070009D2D0E94AD17182F682F802F9D2D0E9447
:101080001B1A05C0802F9D2D0E94EF19182F2AE2F0
:10109000129FF001112437E0D39EE00DF11D1124C1
:1010A000E00FF11DEE0FFF1FEC5EF94F859194915B
:1010B0000E94A61D8C01982EF701D280A580A294D3
:1010C0003FE0A3228091CE048770B9F0DD20A9F023
:1010D000812F807F803421F080E2800F883068F09B
:1010E0008091190282FD09C082E00E943320809124
:1010F000CE048770CC24C3948111C12CB12EB2943C
:101100009FE0B9228B2D90E08C30910508F05CC2F5
:10111000FC01EA5AFF4F0C94D329812F807F1F7066
:10112000882311F01295107FDD20B9F0112309F406
:1011300038C280E2800F883010F0911006C0809194
:10114000D104182B1093D10405C08091D004182B22
:101150001093D0040E94C91F24C2802F0E94D01A6D
:10116000112309F431C2005E083078F1992069F149
:1011700010958091D00418231093D00429C0812F9A
:10118000807F1F70803211F01295107F992021F01E
:10119000F1E09F16D9F149C08091190282FF1BC06E
:1011A000DD2069F0112339F08091D104182B1093C0
:1011B000D1040E94C91F80E00E94301B05C280E05C
:1011C0000E94D01A112309F4FFC1812F0E94C21F6F
:1011D0000E94C91FF9C1DD2081F08091D204AA20AC
:1011E00051F001E0A01207C0182B181709F4ECC148
:1011F0001093D204E9C1812B10C0AA2021F021E074
:10120000A21609F4E1C10E94BC1F27C0DD2041F0F5
:1012100035E03A1508F4D8C1812F0E94C61AD4C10E
:1012200084E08A1508F4D0C118C0DD2049F0AA2056
:1012300099F3F701858180FFB4C18F708583ECCF6E
:10124000AA2059F0093309F0BCC1FFEF17EE23E0E3
:10125000F15010402040E1F7B2C1812F0E94BF1A27
:10126000B3C1812F86958695837019F0813059F02E
:10127000ABC1DD2019F0C801937002C080E090E09E
:101280000E947223A7C1DD2019F0C801937002C02B
:1012900080E090E00E945C239DC1802FDD2019F04A
:1012A0000E94D12502C00E9418250E946C2492C180
:1012B000812F837009F069C0D1108AC1902F929557
:1012C00096959770990F990F802F8F70882E912C7B
:1012D000A12CB12C092E04C0880C991CAA1CBB1C83
:1012E0000A94D2F704FF12C04FE050E060E070E0D3
:1012F00004C0440F551F661F771F9A95D2F7DB0174
:10130000CA0180959095A095B09503C080E090E0CB
:10131000DC0116951695412F4370423019F1C8F43F
:101320000091D3041091D4042091D5043091D604B7
:10133000413059F088299929AA29BB29BC01CD013E
:1013400060237123822393230AC0802A912AA22A30
:10135000B32ABC01CD01682979298A299B290E94D9
:10136000AA1A36C188299929AA29BB290091D30430
:101370001091D4042091D5043091D604BC01CD0144
:101380006027712782279327EACFDD2019F0812F6C
:10139000817001C08695882309F41AC1902F929517
:1013A00096959770990F990F802F8F70882E912C9A
:1013B000A12CB12C092E04C0880C991CAA1CBB1CA2
:1013C0000A94D2F704FF12C04FE050E060E070E0F2
:1013D00004C0440F551F661F771F9A95D2F7DB0193
:1013E000CA0180959095A095B09503C080E090E0EB
:1013F000DC0116951695412F43704230D9F068F5FF
:1014000000911402109115022091160230911702DA
:10141000413059F088299929AA29BB29BC01CD015D
:1014200060237123822393231EC0802A912AA22A3B
:10143000B32A13C088299929AA29BB29009114022B
:10144000109115022091160230911702BC01CD01B6
:10145000602771278227932706C0BC01CD01682928
:1014600079298A299B290E94461AB2C01F70DD2063
:1014700039F0812F0E94891A802F0E94C61AA8C0B5
:10148000802F0E94BF1A812F0E94641AA1C0802F52
:1014900032EF931609F443C0391538F090EF9916DE
:1014A00059F0E1EF9E16B1F177C0F3EF9F16F1F11D
:1014B00024EF921659F170C0DD2019F134E03A158D
:1014C00008F482C01F7181E090E0A0E0B0E0AC01C0
:1014D000BD0104C0440F551F661F771F1A95D2F730
:1014E0008091140290911502A0911602B0911702FA
:1014F0008A019B01082719272A273B27C901B80120
:1015000029C025E02A1508F45FC0DCCF80911902BC
:1015100082FF23C0DD2029F0812F8F7130C0DD20B4
:10152000D9F3812F8F710E94641A4EC0DD2079F0AB
:101530001F7181E090E0A0E0B0E0BC01CD0104C0EB
:10154000660F771F881F991F1A95D2F703C060E0B6
:1015500070E0CB010E94461A37C0DD2099F01F7160
:10156000812F0E94891A8091190282FD07C038E0FC
:10157000139FC001112483608093CE04812F0E94A9
:10158000891A22C081E00E94332081E08A15E0F4AC
:1015900082E00E94332018C0DD2029F0AA2009F43F
:1015A000BBCF802F09CEAA2009F4BBCF893349F4E1
:1015B0009FEFE7EEF3E09150E040F040E1F700C02C
:1015C0000000802F0E94D01A88EF8B0D843010F419
:1015D0000E948823CC20A9F08091CE0480FD11C008
:1015E000F70112828595859585950E94891AC70114
:1015F0000E94AF058091CE048595859585950E94C2
:10160000641A85E0F701DE01119601900D928A952A
:10161000E1F789819A810E94EF199A810AE2809FFD
:10162000F001112417E0919FE00DF11D1124898133
:10163000E80FF11DEE0FFF1FEC5EF94F85919491BD
:1016400002C069E289CC2A960FB6F894DEBF0FBEBD
:10165000CDBFDF91CF911F910F91FF90EF90DF9061
:10166000CF90BF90AF909F908F9008958295982FC4
:10167000937344E0949F900111248C7C8695869509
:10168000282B822F8575880F2A7A2695822B08951C
:101690002F923F924F925F926F927F928F929F9282
:1016A000AF92BF92CF92DF92EF92FF920F931F9370
:1016B000CF93DF93CDB7DEB727970FB6F894DEBF91
:1016C0000FBECDBF0AEA11E061E5662E61E0762E1D
:1016D0001D830C83512C80E090E061E070E0219A42
:1016E000769AD3012D913D0120FF02C02B9A01C0B3
:1016F0002B9821FF02C02A9A01C02A9822FF02C01B
:101700002E9A01C02E987698B0EABA95F1F75B014F
:10171000082E02C0AA0CBB1C0A94E2F73A2C4A2CF1
:101720004094EAE1F2E058E5852E51E0952E20E064
:1017300030E0219A45E04A95F1F7000048E5E42EB3
:1017400041E0F42EBBE5EB16B1E0FB06D9F0D70182
:10175000DD907D01AD2DA295AF704A2F50E0DA01EA
:1017600092962C90BD2DBF70DB2EDB0102C0AA0F1C
:10177000BB1FDA94E2F76D01C094C220DA019296A1
:10178000CC92E0CFF89421982998D401FD904D0196
:10179000AF2DA295AF704A2F50E0DA019296DC90FF
:1017A000BF2DBF70FB2EDB0102C0AA0FBB1FFA9436
:1017B000E2F77D01ED28DA019296EC92B5E1BA9557
:1017C000F1F7000046E840937A0050E850937B0020
:1017D000A0910001A660A0937C00A0917A00A06473
:1017E000A0937A00A0917A00A6FDFCCFA09178008A
:1017F000F0907900B0E0AD015F295F834E83F090F7
:101800007A005F2D5F7750937A007894EC80FD80AA
:10181000E20EF31E4E815F81D7014D935C93D08021
:10182000ED2CF12CEA20FB20EF2849F0E0900E028D
:10183000F0900F024E155F0578F4D4200AC0E090B6
:101840001002F0901102AE81BF81EA16FB0620F46F
:10185000D328D082A1E001C0A0E05A2A3196225FAD
:101860003F4F2A32310509F064CF0196EC81FD81AA
:101870003296FD83EC838730910509F030CF219AB1
:101880008091FE019091FF019C012F5F3F4F8C32B0
:10189000914029F03093FF012093FE0135C0109252
:1018A000FF011092FE0186EFC82E80E0D82E94EF43
:1018B000A92E90E0B92E41E0043D140709F1E12C76
:1018C000F12CF801EE0DFF1D81818F9380818F93A4
:1018D000DF92CF920E94FE0422E0E20EF11C0F90F4
:1018E0000F900F900F903EE0E316F10451F7BF9276
:1018F000AF920E94FE04025F1F4F0F900F90DBCF4C
:101900008AEF90E00E94650451106EC00E94071D8E
:10191000882311F119821A821B820091120210E0B1
:10192000005E1D4F27E13CE149E351E0BE016F5FDE
:101930007F4FC8010E94B91C882309F482C02AE2A3
:101940003DE146E451E0BE016F5F7F4FC8010E9458
:10195000B91C811195C075C0E0911302F0E0E05E02
:10196000FD4FF89483E0A0EEB4E001900D928A95CB
:10197000E1F780EE94E00E9467128093DF04789490
:10198000F894C090E304D090E404E090E504F09073
:10199000E6048091000290910102A0910202B091B0
:1019A0000302C816D906EA06FB06D1F0C09200026F
:1019B000D0920102E0920202F09203020E94071DFF
:1019C00081110EC00E94F422C61AD70AE80AF90A49
:1019D000C0920A02D0920B02E0920C02F0920D0229
:1019E000789400E010E002C001E010E0F0901302F3
:1019F00000FF09C081E0809307020E9400239093BA
:101A000006028093050280910702882309F450C0E2
:101A100080910502909106020E94E522059708F444
:101A200047C0EF2DF0E0E05EFD4F80911A02808309
:101A300080911B02818380911C0282831092070295
:101A400037C0809104028F5F809304028531B0F02B
:101A50008091EE0480FF08C08CEF90E09F938F93FD
:101A60000E94FE040F900F90E0911202F0E0E05E01
:101A7000FD4F10821182128201E0B8CF00E0B6CF94
:101A800010920402E0911202F0E0E05EFD4FDE01F0
:101A900011969E012C5F3F4F00E08D919081981729
:101AA00011F0808301E031962A173B07B1F79ECFF2
:101AB000802F27960FB6F894DEBF0FBECDBFDF9103
:101AC000CF911F910F91FF90EF90DF90CF90BF903B
:101AD000AF909F908F907F906F905F904F903F90CE
:101AE0002F900895CF93DF93CDB7DEB762970FB6EF
:101AF000F894DEBF0FBECDBF84B7877F84BF0FB61B
:101B0000F894A8958091600088618093600010929D
:101B100060000FBE90E080E80FB6F89480936100FB
:101B2000909361000FBE85B7806885BF85B78068D8
:101B300085BF89EF90E29093A9018093A8010E944C
:101B4000E5150E9404168091E20084608093E20013
:101B50007894809165048823A1F01091E9001F70AA
:101B60009091EC00892F817090FD80E8182B1092E5
:101B7000E9008091E80083FD0E94D3121F7010934A
:101B8000E90082E084BD93E095BD9AEF97BD809314
:101B90006E0010920A0210920B0210920C02109228
:101BA0000D020E949C1D8091350190913601A091FB
:101BB0003701B091380180930E0290930F02A093E9
:101BC0001002B09311020E949C1DA8E5B1E041E013
:101BD00050E011E0AB35B107B1F08D91E82FE295FF
:101BE000EF70F0E021A18F708A0102C0000F111F79
:101BF0008A95E2F7C801922F982B91A392A1809524
:101C0000892382A3E6CFABE5B1E02EE531E041E0E8
:101C100050E02A173B07B1F08D91E82FE295EF7065
:101C2000F0E061A18F708A0102C0000F111F8A9538
:101C3000E2F7C801962F982B91A392A18095892352
:101C400082A3E7CF249A2C9A849A8C9A6E9A7698DB
:101C50002998219A80E4809300010E94071D811138
:101C600002C00E949B2780910101811102C093E074
:101C700001C090E09093130283E0891B80931202CD
:101C80000E94071D811102C00E949B27EAE1F2E039
:101C900080E292E0A0E2B2E011921D928E179F07BF
:101CA000D9F780E090E00E947929893E9E4F11F09B
:101CB0000E94511F82E090E00E9471298093EE04FF
:101CC0000E94401F909319028093180283E090E0D5
:101CD0000E947129682F70E080E090E00E94AA1AAB
:101CE0008091FE048823E1F0198281E88A831FE74E
:101CF0001B83809102018F3799F024E630E043E0A6
:101D000050E0BE016F5F7F4F88E70E94E326892B7A
:101D100029F08DE391E00E94650402C01093020156
:101D200082E08093490480E8809326020E942C265A
:101D30006DE070E08CED91E00E947E12892B19F02D
:101D400080EC91E00EC08091490463E070E081FD79
:101D50000BC08DEB91E00E947E12892B71F087E918
:101D600091E00E9465043FC084E991E00E947E12E8
:101D7000892B19F08CE791E0F4CF6DE070E08FE6ED
:101D800091E00E947E12892B19F088E591E0E9CF5D
:101D90000E94F422DC01CB01805A9541AF4FBF4F26
:101DA0008093F9049093FA04A093FB04B093FC048D
:101DB000E9E4F2E080E092E0DF018C011D92015045
:101DC0001040E1F7F0932802E09327028FEF9FEF96
:101DD00090934C0480934B0481E08093FE048093A5
:101DE000FD0410924A0483E091E0909305058093EE
:101DF000040580916504853009F04CC089EE91E0BE
:101E00000E94650410E4F12E00E112E18091650466
:101E1000853009F03BC080916504843029F10E942F
:101E200023241092080528E130E00FB6F894A89515
:101E3000209360000FBEF092600083B7817F8460C2
:101E400083BF83B7816083BF7894889583B78E7F83
:101E500083BF0FB6F894A895809160008861809345
:101E60006000109260000FBE80916404882309F422
:101E7000CDCF0E94480BE0E2F2E08191811107C3CF
:101E800066E272E06E177F07C1F7C0CF0E94B41AF6
:101E90000E9488230E94480BD82E81110E94F422B0
:101EA000A0E5AA2EA4E0BA2EB0E2EB2EB2E0FB2E03
:101EB00000E010E0302ED7017D907D01F501C1904A
:101EC0005F01C724B1F40F5F1F4F0630110591F772
:101ED0008FEF8C878D871E860E9400238160782F6C
:101EE000988B8F874C855D856E8588890E94070554
:101EF00062C08091EE0481FD04C0812C99249394EA
:101F00003AC08CEF91E00E946504F0E28F2EF2E07F
:101F10009F2E412C512C5F924F9227EF31E03F933F
:101F20002F930E94FE0484EF91E00E946504D40187
:101F30008D914D010E94360B1F928F93EFEEF1E0D1
:101F4000FF93EF930E94FE048DEE91E00E946504E2
:101F50003FEF431A530A0FB6F894DEBF0FBECDBF52
:101F600076E047165104B9F6C8CF8394990C87E000
:101F7000881609F4A8CF8C2D8921B9F30E94071D7A
:101F8000882399F08F823886792081E009F480E0F7
:101F900089870E9400238160782F9B878A874F81E1
:101FA000588569858B850E940705F801E05BFB4F2A
:101FB0008081982690828091FE04882309F452C182
:101FC00080914D0490914E040E94E522C29728F41E
:101FD0008091FE04811137C02AC10E940023909392
:101FE0004E0480934D0489E492E0909328028093FC
:101FF000270220914B0430914C04DC0180E090E0FA
:1020000041E050E0FC01E55FFD4FE4916C91E61783
:1020100079F0EC93BC01E5E076956795EA95E1F7F8
:10202000FA0102C0EE0FFF1F6A95E2F72E2B3F2B3D
:10203000019611968115F2E09F0721F730934C0429
:1020400020934B04C5CF20914B0430914C042115B3
:10205000310509F4ECC080914A048111E8C061E0C7
:1020600070E0482E512C7B01082E02C0EE0CFF1CA4
:102070000A94E2F7A9014E215F21452B11F48F5FED
:10208000F0CF90914904920165E0220F331F6A95C9
:10209000E1F790FD12C08295880F80768093110140
:1020A000220F232F221F330B319520931401815EC1
:1020B000809312011092150112C045E036952795C4
:1020C0004A95E1F7220F220F220F2093110110925F
:1020D0001401295F2093120183E08093150124E607
:1020E00030E047E050E06FE071E088E70E94E326CF
:1020F000892B19F08FE394E089C08091490480FD19
:1021000017C0C20125E0880F991F2A95E1F7AC019D
:10211000475B5D4F04E610E020E230E060E488E7D2
:102120000E940A27892B09F474C086E294E06EC0ED
:1021300080E2E9E2F2E0DF011D928A95E9F785E0AD
:10214000440C551C8A95E1F7E2E6F1E0FA8BE98B45
:102150000EE511E096E6292E91E0392E882483942D
:10216000A989BA892D91BA8BA98BF80181918F0128
:10217000B201680F711D675B7D4F30E0275D3D4FF9
:10218000F90197E0AF01421B530B982C01C0990C49
:102190004A95EAF75B01C12CD5018D915D0189213A
:1021A000492F4C194770742E042E000C550BB82F74
:1021B00001C0BB0F7A94EAF77B2E519541955109E6
:1021C0004770552701C086954A95EAF7782A80819D
:1021D000782A7082C39448E0C412DECF91503196C1
:1021E0009F3F81F669897A892616370609F0B8CFAC
:1021F00004E610E020E230E049E252E060E488E7E3
:102200000E940A27892B29F08BE094E00E94650444
:102210000EC00E944124E094F09480914B04909170
:102220004C04E822F922F0924C04E0924B04809195
:10223000FD048823B9F00E94F4220091F904109162
:10224000FA042091FB043091FC04DC01CB01801BDB
:10225000910BA20BB30B8F3F9F4FAF4FBF4710F4B3
:102260000E942324D1100E94412486E0E3EFF4E091
:10227000DE01119601900D928A95E1F7E090F50448
:10228000F090F6040091F7041091F8041092F50410
:102290001092F6041092F7041092F804E11003C0B3
:1022A000FF2009F451C08091F1049091F2040E9442
:1022B000E5229C019091ED04992309F4FEC023339B
:1022C000310508F441C09F3F19F09F5F9093ED04E2
:1022D000EE2061F00E94B1251E1414F09FEF01C0A2
:1022E00091E0899F802D11248093F504FF2061F0F7
:1022F0000E94B1251F1414F09FEF01C091E0899F47
:10230000802D11248093F6043091F5043323E1F0FD
:102310002091F6042223C1F045EB3403C0011124BF
:10232000992319F09093F50403C081E08093F5049C
:1023300065EB2603C0011124992319F09093F6044C
:1023400003C081E08093F604011103C0112309F456
:1023500051C08091EF049091F0040E94E5229C010D
:102360009091EB04992309F4ADC02536310508F4AA
:1023700041C09F3F19F09F5F9093EB04002361F0F1
:102380000E948F25101614F09FEF01C091E0899FE5
:10239000802D11248093F704112361F00E948F2572
:1023A000111614F09FEF01C091E0899F802D112438
:1023B0008093F8043091F7043323E1F02091F8047E
:1023C0002223C1F075EB3703C0011124992319F0C2
:1023D0009093F70403C081E08093F70435EB230367
:1023E000C0011124992319F09093F80403C081E0EF
:1023F0008093F8048091F50481110BC08091F6045C
:10240000811107C08091F704811103C08091F80405
:1024100081110E946C24EB82FC820D831E8386E076
:10242000FE013196A3EFB4E001900D928A95E1F799
:102430000E94882390914F04891709F4DACC0E94F6
:102440008823182F80934F048091EE0482FFD1CC13
:1024500080FF04C089E694E00E9465048091EE0448
:1024600080FF0CC01F921F9384E694E09F938F938C
:102470000E94FE040F900F900F900F908091EE0439
:1024800080FFB7CC82E694E00E946504B2CC09BD1F
:1024900019BD09B400FEFDCF8091D8008F7D8093D7
:1024A000D8008091E00082608093E0008091E0009D
:1024B00081FDFCCF0E94B41AA9CC2D32314008F026
:1024C00004CF42CF2D32314008F055CF93CFFC01DD
:1024D000AC014D5F5F4F8FEF91E32191822728E0A0
:1024E00030E087FF03C0880F892701C0880F215083
:1024F0003109B9F7E417F50781F70895EF92FF92D4
:102500000F931F93CF93DF93EC017B0164E670E0A0
:1025100088E70E9432268C01EC0EFD1ECE15DF05E9
:1025200061F017FD0AC0FE01849164E670E00E942C
:10253000B3268C012196892B89F30E943727C80185
:10254000DF91CF911F910F91FF90EF900895EF923F
:10255000FF920F931F93CF93DF937C018B010E9417
:10256000DA21811119C0E70101151105A1F080914F
:10257000E80085FD0AC08091E8008E778093E8002E
:102580000E94DA21882381F307C089918093F100AA
:1025900001501109E9CF80E0DF91CF911F910F9198
:1025A000FF90EF9008951F93CF93DF93CDB7DEB7E1
:1025B000AA970FB6F894DEBF0FBECDBFE7E6F4E0F2
:1025C0008091F100819344E0EF36F407C9F78091E0
:1025D0006804833009F461C030F4813071F08230D6
:1025E00009F49BC0B2C08A3009F487C08B3009F46B
:1025F0006CC0893009F0A9C020C080916704813A7D
:1026000009F0A3C08091E800877F8093E800809163
:102610006B0490916C04892B21F468E08BE594E0C5
:1026200003C060E080E090E070E00E946122809151
:10263000E8008B778093E80088C08091670481323E
:1026400009F083C080916B0490916C04029708F0AC
:102650007CC08091E800877F8093E8008091E8004B
:1026600082FD05C0809165048111F8CF6EC0209174
:10267000F3008091F20090E0922B029731F4809168
:10268000F100813011F0863021F48091F1008093C7
:102690005A048091E8008B7754C080916704813A96
:1026A00009F053C080916B0490916C04892B09F060
:1026B0004CC08091E800877F8093E8008091E8001B
:1026C00080FFFCCF8091160137C080916704813272
:1026D000E1F580916B0490916C04892BB1F58091A8
:1026E000E800877F8093E8000E940D2280916904B2
:1026F000809316010E94B41A28C080916704813229
:1027000021F58091E800877F8093E8000E940D22E8
:1027100080916A048093590418C080916704813ABB
:10272000A1F48091E800877F8093E8008091E80021
:1027300080FFFCCF809159048093F1008091E800E4
:102740008E778093E8000E940D228091E80083FF3D
:10275000DAC18091670490916804492F50E04A30B3
:10276000510508F0D0C1FA01EE59FF4F0C94D3295E
:10277000803821F0823809F0C6C108C08091630416
:1027800090916404992389F082600FC080916B045A
:102790008F70873008F0B7C18093E9008091EB001B
:1027A00085FB882780F91092E9009091E800977FD7
:1027B0009093E8008093F1001092F10070C1282FEF
:1027C0002D7F09F0A0C1882319F0823061F09BC1F0
:1027D00080916904813009F096C1933009F080E05E
:1027E000809364042EC08091690481112AC0809175
:1027F0006B048F702FEF280F263008F084C1809370
:10280000E9002091EB0020FF1CC0933021F480915F
:10281000EB00806214C09091EB0090619093EB000C
:1028200021E030E0A90102C0440F551F8A95E2F76C
:102830004093EA001092EA008091EB008860809358
:10284000EB001092E9008091E800877F8093E80018
:102850000E940D2258C1811156C1109169041F7741
:102860008091E3008078812B8093E3008091E800E1
:10287000877F8093E8000E940D228091E80080FF0E
:10288000FCCF8091E30080688093E300111102C0C7
:1028900082E001C083E08093650435C180588230B6
:1028A00008F031C12091690430916A042C3D53E055
:1028B000350779F583E08A838AE289834FB7F894F4
:1028C000DE01139620E03EE051E2E32FF0E050936A
:1028D0005700E49120FF03C0E295EF703F5FEF7077
:1028E0008E2F90E0EA3010F0C79601C0C0968D930D
:1028F0009D932F5F243149F74FBF8091E800877F78
:102900008093E8006AE270E0CE0101960E946122A5
:10291000B5C080916B0490916C04432F55274330D0
:102920005105A9F068F44130510509F4FBC042306B
:10293000510509F0E8C08BE590E0EDE6F5E04BC00D
:102940004132510529F14232510589F1DCC0C901FA
:10295000992781309105A1F058F0029709F0D3C072
:10296000EAEDF5E0E4918E2F90E0EAEDF5E030C07D
:10297000E0E1F6E0E4918E2F90E0E0E1F6E028C09F
:10298000EEEFF5E0E4918E2F90E0EEEFF5E020C061
:102990008330910508F0B7C0880F991FFC01E159F9
:1029A000FE4F0190F081E02D89E090E014C083306B
:1029B000910508F0A8C0FC01EE0FFF1FE759FE4F7C
:1029C0000190F081E02DDC01AA59BE4F8C9190E07E
:1029D000009709F498C02091E800277F2093E80031
:1029E00020916D0430916E048217930708F49C01C6
:1029F00040E02115310589F180916504882309F4AF
:102A00003DC08530D9F18091E80083FD37C08091C9
:102A1000E80082FD2FC08091E80080FFEACF40915E
:102A2000F3008091F20090E0942B2115310559F0CC
:102A30008830910540F444914093F1003196215043
:102A400031090196F2CF41E0089709F040E080910A
:102A5000E8008E778093E800CCCF4111CDCF0AC03B
:102A600080916504882351F0853041F08091E80021
:102A700083FD04C08091E80082FFF2CF8091E800DE
:102A80008B778093E8003FC08038E9F58091E800BB
:102A9000877F8093E800809166048093F1008091A5
:102AA000E8008E77D3CE81112EC080916904909179
:102AB0006A04992702973CF58091E800877F80930C
:102AC000E80010916904109366040E940D22111110
:102AD00006C08091E30087FD02C081E001C084E070
:102AE0008093650442E061EC81E00E942C2242E286
:102AF00061EC82E00E942C2242E261EC83E00E94C1
:102B00002C22809165048091E80083FF10C08091A1
:102B1000E800877F8093E8008091EB0080628093DB
:102B2000EB0005C082E190E0E8ECF5E054CFAA9616
:102B30000FB6F894DEBF0FBECDBFDF91CF911F91CE
:102B400008951F920F920FB60F9211242F933F9367
:102B50004F935F936F937F938F939F93AF93BF93A5
:102B6000CF93DF93EF93FF93C091E900CF708091F3
:102B7000EC00D82FD17080FDD0E81092E900809150
:102B8000F000877F8093F00078940E94D312109217
:102B9000E9008091F00088608093F000CD2BCF7029
:102BA000C093E900FF91EF91DF91CF91BF91AF9179
:102BB0009F918F917F916F915F914F913F912F9155
:102BC0000F900FBE0F901F901895E8EDF0E08081F8
:102BD0008E7F80831092E2001092DA001092E10062
:102BE000A0EEB0E08C9181608C9380818F778083A0
:102BF00019BCA7EDB0E08C918E7F8C9380818F7E85
:102C00008083109258040895CF92DF92EF92FF9242
:102C10000F931F93CF93DF93C8EDD0E088818F7E11
:102C20008883E7EDF0E080818160808384E082BF6B
:102C300081E08093580488818E7F888302EE10E0C3
:102C4000F80110821092DA0081EEC82ED12CF60124
:102C5000108288818F7788838881806888838881C3
:102C60008F7D888319BC10926504109266041092BF
:102C700064041092630490EEE92EF12CF701808138
:102C80008B7F808388818160888342E060E080E080
:102C90000E942C22F60180818E7F8083F801808142
:102CA00081608083808188608083F70180818E7F4E
:102CB0008083888180618883DF91CF911F910F91FC
:102CC000FF90EF90DF90CF9008951F920F920FB674
:102CD0000F9211242F933F934F935F936F937F93A2
:102CE0008F939F93AF93BF93EF93FF938091E100F6
:102CF00082FF49C08091E20082FF45C08091E100DF
:102D00008B7F8093E100209157042F5F822F62E335
:102D10000E94B329992319F02093570434C01092CC
:102D2000570480915604882371F1809165048430A2
:102D300041F58091E9008F702091EC00922F917005
:102D400020FD90E8892B93E09093E9009091EB00AF
:102D500090FF14C09091EE0097FF10C09091E80092
:102D600095FF03C01092F100F9CF9091E80090FF19
:102D700005C09091E8009E779093E8008F70809353
:102D8000E900109256048091DA0080FF32C08091F1
:102D9000D80080FF2EC08091DA008E7F8093DA0009
:102DA0008091D90080FF1CC080E189BD82E189BD8E
:102DB00009B400FEFDCF81E08093650489E595E0CC
:102DC0000E94650480915804811113C00E94E5158A
:102DD0000E9404168091E20084608093E20009C0A2
:102DE00019BC109265048DE595E00E94650410926F
:102DF00058048091E10080FF1BC08091E20080FFB9
:102E000017C08091E2008E7F8093E2008091E20003
:102E100080618093E2008091D80080628093D80026
:102E200019BC85E08093650481E695E00E94650405
:102E30008091E10084FF34C08091E20084FF30C0C3
:102E400080E189BD82E189BD09B400FEFDCF80919A
:102E5000D8008F7D8093D8008091E1008F7E809391
:102E6000E1008091E2008F7E8093E2008091E20099
:102E700081608093E20080916604882311F084E0F1
:102E800007C08091E30087FD02C081E001C083E0BC
:102E90008093650485E695E00E9465048091650451
:102EA0008091E10083FF2BC08091E20083FF27C067
:102EB0008091E100877F8093E10082E08093650448
:102EC000109266048091E1008E7F8093E1008091F2
:102ED000E2008E7F8093E2008091E2008061809327
:102EE000E20042E060E080E00E942C228091F0004D
:102EF00088608093F00089E695E00E946504FF9168
:102F0000EF91BF91AF919F918F917F916F915F9161
:102F10004F913F912F910F900FBE0F901F901895DA
:102F200080E090E00E94722380E090E00E945C23A9
:102F30001092D0041092CF040E94C91FE3EFF4E076
:102F400086E0DF011D928A95E9F71092ED04109258
:102F5000EB041092EC040C946C248F929F92AF922D
:102F6000BF92DF92EF92FF920F931F93CF93DF9365
:102F70008090140290901502A0901602B090170253
:102F80004091D3045091D4046091D5047091D6043B
:102F9000842A952AA62AB72ACFE1D0E027E0929F7B
:102FA000700111249AE2D92E082F10E0D501C40136
:102FB0000C2E04C0B695A795979587950A94D2F7DD
:102FC00080FD04C0219790F780E014C0DC9EF001E2
:102FD000DD9EF00D1124EE0DFF1DE00FF11FEE0F31
:102FE000FF1FEC5EF94F859194910E94A61D0197F9
:102FF00049F38C2FDF91CF911F910F91FF90EF90AC
:10300000DF90BF90AF909F908F900895CF93DF9304
:10301000EC010E94AD172AE2829FC0011124FC013D
:1030200027E0D29FE00DF11D1124EC0FF11DEE0FF2
:10303000FF1FEC5EF94F859194910E94A61DDF91D0
:10304000CF910895FC01808191810E940618292F5B
:103050002F70E92FE295EF704E2F50E0FA01329772
:10306000EE30F105B8F4E459FF4F0C94D329803FBA
:1030700099F018F4883E70F40FC0843F59F40CC0E6
:10308000883E50F0813F31F407C0822F86958695A7
:103090008695089580E0089581E008959F92AF920B
:1030A000BF92CF92DF92EF92FF920F931F93CF9335
:1030B000DF93CDB7DEB761970FB6F894DEBF0FBED2
:1030C000CDBF8C0185E0F801DE011D9601900D92C7
:1030D0008A95E1F7F801E280909196046091970457
:1030E0004091990450919A044115510531F06F3F78
:1030F00031F481E09F3F19F403C081E001C080E01A
:10310000F82FF1709F2E80FD1AC1F80130812181C6
:10311000C380D48086E9A82E84E0B82EF09098046D
:10312000F601E41BF50BFF2009F4C6C080919B0457
:10313000E83CF10508F091C0482F407F09F050C0ED
:10314000621311C093130FC0FE2CE1100CC08F70DE
:10315000806180939B04C5010E94AF0580919B0410
:10316000F801858329C1CD2831F02F3F31F481E06A
:103170003F3F19F403C081E001C080E080FD03C03F
:1031800081E08E2502C080E090E0F82FF170FF2EE4
:1031900080FF1CC08091CD0440919C0456E08417B0
:1031A00009F4E8C090E0589FF001599FF00D1124F8
:1031B000E356FB4F6181261306C06081631303C091
:1031C0006281E61203C001968770E9CFFE2CEE20E3
:1031D00009F4F2C080919B04816080939B0449C0F4
:1031E000621306C0931304C0E11002C0F80186C048
:1031F000C8010E942218882351F1EE2041F120914C
:103200009B04822F82958F7090E0029774F08091DA
:1032100096049091970498878F831986DB86CA86D7
:103220002C87CE0107960E94AF0586E0F801A6E93B
:10323000B4E001900D928A95E1F70E9489200AC0BE
:103240006217C9F0C8010E94221881111EC0C8016E
:103250000E94AF05FF24F394AFC0482F407F81F751
:1032600086E994E00E94AF0586E0F50111928A9507
:10327000E9F7F12CA1C09313E5CFE110E3CFF801FA
:103280008583C8010E94AF0554C0EE2001F3209150
:103290009B04822F82958F7090E0029734F2809188
:1032A0009604909197049A8389831B82DD82CC8255
:1032B0002E83CE010196B7CFE83CF105D0F5FE2C68
:1032C000EE2029F2621327C0931325C020919B049E
:1032D00020FD18C0822F82958F70482F50E0411535
:1032E000510581F0F80125834F30510541F08F5F82
:1032F000982F9295907F822F8F70892B8583C8019C
:103300000E94AF0586E0F801A6E9B4E001900D92B5
:103310008A95E1F751C0C8010E942218811185CF1A
:1033200080919B04816080939B04C8010E94AF053B
:1033300043C086E0F50111928A95E9F73DC0EE2081
:1033400009F485CFC8010E942218F82E882309F4B9
:103350007ECF86E0F801A6E9B4E001900D928A954F
:10336000E1F780919604909197040E9406180E94BC
:10337000892022C03D872E878D859E850E94061854
:10338000292F22952F70223028F49F7039F0811157
:1033900005C00BC0243028F49F7049F4805E88304B
:1033A00020F0C8010E94AF059F2CF92C05C0F80140
:1033B0009581907F99F7F9CF8F2D61960FB6F8948C
:1033C000DEBF0FBECDBFDF91CF911F910F91FF9058
:1033D000EF90DF90CF90BF90AF909F90089527E03F
:1033E000929F800D1124682F669566956695982F9B
:1033F000977085E0689FB001112440E050E080E0C4
:10340000FB01E40FF51FE159FB4F208130E0092E4D
:1034100002C0369527950A94E2F721703327042ECF
:1034200001C0220F0A94EAF7822B4F5F5F4F4530AD
:10343000510531F7089527E0929F800D1124E82F60
:10344000E695E695E695877051E001C0550F8A959F
:10345000EAF785E0E89FF0011124E159FB4F20E0F5
:1034600030E070E04081CB01022E02C09695879536
:103470000A94E2F7817081958427852384278193BC
:103480002F5F3F4F2530310569F708950F931F9344
:103490008B019C010670112722273327DC01CB0109
:1034A000063011052105310511F4886001C0877FC0
:1034B0008093140290931502A0931602B093170202
:1034C0001F910F910C9490170F931F9341E050E0C0
:1034D00060E070E004C0440F551F661F771F8A9597
:1034E000D2F7409550956095709580911402909117
:1034F0001502A0911602B09117028A019B010823C0
:1035000019232A233B23C901B8011F910F910C9461
:10351000461A0F931F9341E050E060E070E004C052
:10352000440F551F661F771F8A95D2F780911402AA
:1035300090911502A0911602B09117028A019B0189
:10354000082B192B2A2B3B2BC901B8011F910F9176
:103550000C94461A6093D3047093D4048093D504DA
:103560009093D6040C9490171092D10486E0EFE863
:10357000F4E0DF011D928A95E9F70C9490178823F7
:1035800021F00E94C21F0C94C91F0895882339F0AE
:103590009091D104892B8093D1040C94C91F089574
:1035A000882309F45CC0823869F40E94882381FF73
:1035B00056C069E38DE894E00E9442230E94C91F2F
:1035C00069E30EC0833891F40E94882380FF47C0CE
:1035D00063E58DE894E00E9442230E94C91F63E5E1
:1035E0008DE894E00E9435230C94C91F843869F457
:1035F0000E94882382FF33C067E48DE894E00E9434
:1036000042230E94C91F67E4EBCF9CEF980F913AC9
:1036100010F4682FE5CF90E2980F983050F487703F
:1036200091E001C0990F8A95EAF7892F0E94C21F85
:10363000DBCF9BE5980F933020F480E090E00C9472
:10364000722398E5980F973120F480E090E00C9475
:103650005C238D3E20F00E9418250C946C24089564
:10366000CF93882309F49EC0C82F8238B1F40E94FA
:10367000882381FD97C069E38DE894E00E9442238E
:103680000E94C91F2FEF81EE94E0215080409040AE
:10369000E1F700C0000069E317C08338E1F40E943D
:1036A000882380FD7FC063E58DE894E00E9442237B
:1036B0000E94C91F2FEF81EE94E02150804090407E
:1036C000E1F700C0000063E58DE894E00E94352337
:1036D000CF910C94C91F8438B1F40E94882382FDD5
:1036E00061C067E48DE894E00E9442230E94C91FF4
:1036F0002FEF81EE94E0215080409040E1F700C030
:10370000000067E4E1CF8CEF8C0F813A80F4EFE8A2
:10371000F4E085E994E02191C217E1F18E179F074B
:10372000D1F76C2F8DE894E00E944223D1CF80E244
:103730008C0F883068F4C77081E090E001C0880F7A
:10374000CA95EAF79091D104892B8093D104C0CF18
:10375000EBE5EC0FE33040F4F0E0EB58FE4F8081F6
:1037600090E0CF910C947223E8E5EC0FE73150F430
:10377000F0E0EE0FFF1FE858FE4F80819181CF915E
:103780000C945C23CD3E70F08C2F0E94D125CF91FC
:103790000C946C246C2F8DE894E00E9435230E94D9
:1037A000C91FBFCFCF9108959091180292FF0DC00D
:1037B000282F2871283019F4877F846006C0282FAD
:1037C0002471243011F48B7F886093FF0DC0282F63
:1037D0002871283119F4877E846106C0282F24714E
:1037E000243111F48B7E88612091190220FF0DC0D5
:1037F000382F3871383019F4877F816006C0382F30
:103800003171313011F48E7F886021FF0DC0282F77
:103810002871283119F4877E816106C0282F217113
:10382000213111F48E7E886194FD877E0895EF9298
:10383000FF921F93CF93DF9300D000D0CDB7DEB7B8
:103840007B0180E090E00E94A528892B09F065C0EB
:1038500040911C0150E04115510511F041E050E04C
:1038600060911D0170911E0161527B4FCE01049643
:103870000E94D9294091DB045091DC046091DD0461
:103880007091DE042FB7F8948091090590910A0594
:10389000A0910B05B0910C052FBF841B950BA60BB7
:1038A000B70B84369105A105B10538F480EE94E09C
:1038B0000E9467129C81891791F181E090E00E943B
:1038C000A528892BA1F44091260150E044305105F0
:1038D00010F043E050E0609127017091280161529F
:1038E0007B4FCE0101960E94D92911E001C010E062
:1038F00080EE94E00E94671291E02C81281390E002
:10390000192311F10E94F4226093DB047093DC040C
:103910008093DD049093DE040CC010E001C011E040
:103920008091E0049091E104A091E20489839A835C
:10393000AB83112349F089819A81AB818093D804AC
:103940009093D904A093DA048091D8049091D9047B
:10395000A091DA04F70180839183A283812F0F90D5
:103960000F900F900F90DF91CF911F91FF90EF90EC
:103970000895AF92BF92CF92DF92EF92FF920F9392
:103980001F93CF93DF937C015B01142F052F6901F7
:10399000C1E0D0E0F894B501C701F601099578942B
:1039A000811129C02196CB30D10589F0CC9F90019F
:1039B000CD9F300D300D112480E090E045E34A9515
:1039C000F1F70000019628173907C1F7E3CF90916E
:1039D000EE04892F817090FF0FC00F931F9383E92E
:1039E00097E09F938F930E94FE040F900F900F908B
:1039F0000F9080E001C081E0DF91CF911F910F9186
:103A0000FF90EF90DF90CF90BF90AF90089580919E
:103A1000D704811118C08091D80080618093D800AC
:103A20008AE18A95F1F700C08091D90080FD02C03B
:103A300082E001C081E08093D704823021F40E94AB
:103A4000E5151092650481E09091D704913009F05A
:103A500080E008950F931F93CF93DF9300D000D0A1
:103A6000CDB7DEB74091E7045091E8046091E904D6
:103A70007091EA042FB7F8948091090590910A0596
:103A8000A0910B05B0910C052FBF841B950BA60BC5
:103A9000B70B84369105A105B10508F443C00E9417
:103AA000071D882319F00E94F4220EC00E94F42200
:103AB00000910A0210910B0220910C0230910D022C
:103AC000600F711F821F931FDC01CB010296A11DA5
:103AD000B11D89839A83AB83BC8380912E01909121
:103AE0002F0181529B4F40912D0150E045305105EF
:103AF00010F044E050E0BE016F5F7F4F0E94D92973
:103B000082E090E00E94A528892B11F080E00BC094
:103B10000E94F4226093E7047093E8048093E90420
:103B20009093EA0481E00F900F900F900F90DF9137
:103B3000CF911F910F9108950E94071D809301015D
:103B40000E94071D81110C9498270895CF93DF934D
:103B50008238910569F1B0F48133910509F46FC0A1
:103B600048F48932910509F465C08A32910509F457
:103B70006BC08AC08533910509F457C0893391051C
:103B8000B9F082C0833E910571F138F4803E910511
:103B9000B1F0823E910511F177C0863E9105B9F1F1
:103BA000873E9105C9F1843E910509F06DC024C09E
:103BB0002091180220FD53C021FD51C065C08091A5
:103BC000180280FD46C08091190280FF48C0809194
:103BD000180284FD50C183EE90E04FC1809118021D
:103BE00082FF3AC0F4CF8091180282FD35C08091E7
:103BF000190280FD34C0EBCF8091190281FF35C0DE
:103C00008091180284FD37C187EE90E036C1809123
:103C1000180283FF27C0F4CF8091180283FD22C0D1
:103C20008091190281FD21C0EBCF8091180285FDA2
:103C30001FC021C08091180285FD1DC019C0809150
:103C4000180286FD1BC01DC08091180286FD19C098
:103C500015C089E390E011C182EE90E00EC180EEC4
:103C600090E00BC186EE90E008C184EE90E005C1C3
:103C700089E290E002C185E390E0FFC08AE290E033
:103C8000FCC081E390E0F9C0811531E5930708F0AD
:103C900069C0811540E59407F0F09C0174E0369509
:103CA00027957A95E1F7922F9370482F437021E082
:103CB00030E002C0220F331F4A95E2F73C68392BEF
:103CC000982F9F709695969540E2949FC00111247D
:103CD000822B932BD2C0883E910568F5803E9105DA
:103CE00008F0CBC0883A9105B8F4853A910548F0C0
:103CF000855AE82FF0E0EB58FE4F808190E0906409
:103D0000BCC08130910509F4B3C008F4B4C084305C
:103D1000910508F4B0C0B1C08F3B910508F0ABC06D
:103D2000885AE82FF0E0EE0FFF1FE858FE4F808121
:103D300091819464A2C0811520E2920758F4811504
:103D400031E0930708F099C08D3E910508F493C0C7
:103D5000906593C0811540E4940708F48CC09F706F
:103D6000906A8BC0811525E5920708F042C0811545
:103D700034E5930728F0982F8827846F906A7DC0D8
:103D8000811543E59407B0F09C012370332741E08F
:103D900050E002C0440F551F2A95E2F7282F2695C0
:103DA000269580E2289F90011124CA01822B932B33
:103DB0009A6863C0811522E5920728F4982F882716
:103DC000816F906A5AC09C012370332741E050E014
:103DD00002C0440F551F2A95E2F7282F26952695F5
:103DE00080E2289F90011124CA01822B932B9C68AA
:103DF00044C0EC01811539E59307A8F48115984575
:103E000028F09C2F8827806F906A37C0C11586E5FF
:103E1000D80788F58C2F0E94D41B8F7190E0982FC3
:103E2000882790622AC081152AE5920790F48C2F8A
:103E30008F700E94D41B94E0D695C7959A95E1F7B0
:103E4000CF70D0E0DC2FCC27D0699E01282BC90190
:103E500014C090568115904270F48D2F8F710E947E
:103E6000D41B282F2F71CE0199279062922B05C069
:103E700081E090E002C080E090E0DF91CF91089572
:103E8000CF9384E090E00E947129C82F82E290E0F5
:103E90000E9471292C2F30E0A901582BCA01CF9123
:103EA000089569EE7EEF80E090E00E949D2960E039
:103EB00082E090E00E947F2960E083E090E00E9431
:103EC0007F291092D3041092D4041092D50410923A
:103ED000D60460E084E090E00E947F2960E082E206
:103EE00090E00E947F2960E085E090E00E947F29B9
:103EF00060E086E090E00E947F296FEF87E090E02D
:103F00000E947F2940E050E0BA0188E090E00E94E2
:103F1000912960E08DE090E00E947F2940E050E030
:103F2000BA0188E190E00E94912960E087E190E089
:103F30000E947F2940E050E0BA018CE190E00E94AD
:103F4000912960E070E080E290E00E949D2940E0CD
:103F500050E0BA0188E190E00E94912940E050E0F1
:103F6000BA018FE090E00E94912940E050E0BA0150
:103F700083E190E00C9491298091D20481111092F8
:103F8000D204089580959091D10489238093D1041F
:103F90000895EF92FF920F931F93CF939091D104C6
:103FA0008091D004892B2091CF04982F922B90934D
:103FB0008D048091D204882389F0892B80938D040D
:103FC000EFE8F4E097E080E0915029F0219122237E
:103FD000D9F38F5FF9CF81110E94BC1FE0910405D6
:103FE000F09105053097C9F10280F381E02D8DE84D
:103FF00094E009958091EE0482FF2FC080FF04C0F9
:1040000081E897E00E9465040DE814E0C8E08BE7C2
:10401000E82E87E0F82E8091EE0480FF0CC0F801B6
:1040200080811F928F93FF92EF920E94FE040F9067
:104030000F900F900F90C1500F5F1F4FC111EBCF2A
:104040008091EE0480FF09C089E797E0CF911F912E
:104050000F91FF90EF900C946504CF911F910F91F9
:10406000FF90EF9008952091CE0480958223809355
:10407000CE04982F977099F430E0482F082E000C4A
:10408000550B2417350759F09091190292FD07C07E
:104090008595859585950E94641A1092CE040895A1
:1040A000CF93DF93C0911902C2FB992790F998171B
:1040B00019F1D82F80FBC2F9C09319026091180240
:1040C00084E090E00E947F296C2F82E290E00E94C1
:1040D0007F2982E00E9433208091EE0480FF0CC093
:1040E0001F92DF9384E697E09F938F930E94FE04D4
:1040F0000F900F900F900F90DF91CF9108958091C6
:10410000CD0490919C04891719F08F5F8770FBCFC5
:1041100008950F931F93CF93DF9380919B04829513
:104120008F7009F05DC080919804882309F458C00D
:104130008091CD0410919C04609196047091970435
:10414000C0919904D0919A0491E06F3F09F090E0FA
:10415000292F06E0811709F443C0209721F07F3F03
:1041600021F030E003C031E001C0322F90E030FD9B
:1041700034C0089FF001099FF00D1124DF01A35600
:10418000BB4F11963C911197371327C03C913613C2
:1041900024C012963C91129731111FC013964D9175
:1041A0005C9114974C1B5D0B483C5105B0F4809119
:1041B0009B048F70806180939B04EE55FB4F808140
:1041C0008F708061808386E994E00E94AF05DF9163
:1041D000CF911F910F910C947F2001968770BACFD9
:1041E000DF91CF911F910F910895089580915A0406
:1041F00008959FB7F894109256049FBF909165045C
:10420000943009F057C09091E9009F703091EC0014
:10421000232F217030FD20E8922B23E02093E9002A
:104220002091EB0020FF43C02091EE0027FF3FC00C
:1042300020911005222321F02091E80025FF37C0AE
:104240001092100526E03091E80035FD15C0309140
:104250006504343061F53091EB0035FD28C0215004
:1042600021F481E08093100522C0EFE9FFE031974F
:10427000F1F700C00000E7CF8093F1008091E800E3
:1042800085FD0AC08091E80080FFFCCF8091E800A6
:104290008E778093E80006C08FB7F89421E02093D2
:1042A00056048FBF9F709093E90080E008959F703F
:1042B0009093E9008FEF089580930D0570930F059B
:1042C00060930E0580916504843001F582E080934F
:1042D000E9008FEF9091E800815095FD06C095EDC3
:1042E0009A95F1F700008111F5CF8091E80085FFE4
:1042F0000DC040E050E063E070E08DE095E00E948A
:10430000A7128091E8008E778093E8000895BC01A1
:1043100084E00C945C21BC0183E00C945C2122E0DD
:104320002093E9002FEF3091E800215035FD06C0C1
:1043300035ED3A95F1F700002111F5CF2091E80015
:1043400025FF0BC040E050E066E070E00E94A7123D
:104350008091E8008E778093E8000895CF93DF93F3
:1043600021E02093E9002FEF3091E800215035FD46
:1043700006C035ED3A95F1F700002111F5CF2091F7
:10438000E80025FF14C0EC0140E050E068E070E078
:104390000E94A7128091E8008E778093E80088E061
:1043A000FE01ABE5B4E001900D928A95E1F7DF9153
:1043B000CF9108952091E4003091E50095E6409179
:1043C000EC00842F817040FF23C08091E80080FDC5
:1043D0001DC080916504882399F0853099F0809103
:1043E000EB0085FD11C04091E4005091E5002417D9
:1043F000350729F3915011F09A01E1CF84E0089537
:1044000082E0089583E0089581E0089580E00895B2
:104410004091E80042FFDDCF08958091670487FF57
:1044200011C08091E80082FD05C080916504811172
:10443000F8CF11C08091E8008B770BC080916504A4
:10444000882349F08091E80080FFF8CF8091E80050
:104450008E778093E8000895982F973068F59093B1
:10446000E900981739F07091EC002091ED0050911F
:10447000F00003C0242F762F50E021FD02C09F5F83
:10448000ECCF3091EB003E7F3093EB003091ED00AC
:104490003D7F3093ED003091EB0031603093EB00C5
:1044A0007093EC002093ED005093F0002091EE000B
:1044B00027FDE5CF80E008958F708093E90081E0CB
:1044C000089520916D0430916E042617370748F047
:1044D0006115710539F42091E8002E772093E800EA
:1044E00001C0B901FC0120E06115710579F18091ED
:1044F00065048823F1F18530F1F18091E80083FDB6
:104500003CC08091E80082FD2EC08091E80080FFD1
:10451000EBCF2091F3008091F20090E0922B611597
:10452000710551F08830910538F421912093F10004
:10453000615071090196F3CF21E0089709F020E05E
:104540008091E8008E778093E800CECF2111CFCF05
:104550000AC080916504882361F0853061F0809104
:10456000E80083FD0AC08091E80082FFF2CF80E07E
:10457000089582E0089583E0089581E00895789495
:104580001F920F920FB60F9211248F939F93AF93A8
:10459000BF938091090590910A05A0910B05B091F8
:1045A0000C050196A11DB11D8093090590930A0584
:1045B000A0930B05B0930C05BF91AF919F918F9184
:1045C0000F900FBE0F901F9018959C014FB7F89455
:1045D0008091090590910A05A0910B05B0910C05F9
:1045E0004FBF821B930B08952FB7F8946091090574
:1045F00070910A0580910B0590910C052FBF0895CD
:104600002FB7F8948091090590910A05A0910B05A8
:10461000B0910C052FBF08951F920F920FB60F9205
:1046200011248F939F93AF93BF93809108058111BD
:1046300013C08091090590910A05A0910B05B091D6
:104640000C054196A11DB11D8093090590930A05A3
:10465000A0930B05B0930C05BF91AF919F918F91E3
:104660000F900FBE0F901F9018959C012A5F3F4F2F
:10467000FC014281461301C0128201968217930702
:10468000B9F708959C01FC0132969FEF80E04191BB
:10469000461789F09F3F19F4411101C0982F8F5F91
:1046A0008630A9F79F3F39F0F901E90FF11D97FD19
:1046B000FA956283089508952091060530910705C3
:1046C0002817390771F09093070580930605E0914C
:1046D0000405F0910505309721F00084F185E02D67
:1046E0000994089520910205309103052817390790
:1046F00071F09093030580930205E0910405F09119
:104700000505309721F00680F781E02D0994089582
:104710000E94071D882351F0E0910405F0910505E2
:10472000309721F00190F081E02D099480E0089508
:10473000EF92FF920F93CF93DF93C42FD22FFC0100
:1047400082818823D1F0409301050E940023909339
:1047500000058093FF0480E28C0F883008F06DC064
:10476000C77081E001C0880FCA95EAF7DF91CF9149
:104770000F91FF90EF900C94C61A80910105481399
:104780004BC08091FF04909100050E94E522883C77
:10479000910508F041C0CD17C9F080E28C0F883038
:1047A00040F4C77081E001C0880FCA95EAF70E9403
:1047B000BF1A80E28D0F883048F481E09D2F9770FA
:1047C00001C0880F9A95EAF70E94C61A093319F0BA
:1047D000E12CF12C03C080E5E82EF12C802F0E9403
:1047E000301BE114F10451F08FE99FE00197F1F7DC
:1047F00000C0000091E0E91AF108F3CF802F0E9479
:10480000D01A80E28D0F8830C0F4D77081E001C0EB
:10481000880FDA95EAF70AC080E28C0F883068F4D6
:10482000C77081E001C0880FCA95EAF7DF91CF9188
:104830000F91FF90EF900C94BF1ADF91CF910F91E1
:10484000FF90EF9008958091FE049091FD048823DD
:10485000A9F0992389F062E070E08EE198E00E946F
:104860007E12892B39F089E098E00E9465048091DE
:10487000FD0408951092FD049091FD0481E08927C4
:1048800008958091FE04882321F10E94F422DC0126
:10489000CB01805A9541AF4FBF4F8093F90490935D
:1048A000FA04A093FB04B093FC048091FD048111F1
:1048B00010C062E070E087E098E00E947E12892BD1
:1048C00029F083EF97E00E94650403C081E08093A4
:1048D000FD048091FD0408958091EE0483FF7EC065
:1048E00080ED97E00E9465048091F4041F928F93FD
:1048F0008BEC97E09F938F930E94FE0489EC97E0E6
:104900000E9465048091F504282F082E000C330BBB
:104910003F938F9386EC97E09F938F930E94FE04C2
:1049200084EC97E00E9465048091F604282F082EFD
:10493000000C330B3F938F9381EC97E09F938F9301
:104940000E94FE048FEB97E00E9465048091F704BB
:10495000282F082E000C330B3F938F938CEB97E09E
:104960009F938F930E94FE048AEB97E00E94650458
:104970008091F804282F082E000C330B3F938F935F
:1049800087EB97E09F938F930E94FE0484EB97E060
:104990000E9465048091ED041F928F9381EB97E054
:1049A0009F938F930E94FE048FEA97E00E94650414
:1049B0008091EC041F928F938CEA97E09F938F93E2
:1049C0000E94FE0489EA97E00E9465048DB79EB7B5
:1049D0004C960FB6F8949EBF0FBE8DBF0E94002369
:1049E0002091F504211104C02091F604222321F026
:1049F0009093F2048093F1042091F704211104C0F4
:104A00002091F804222321F09093F0048093EF0486
:104A1000E0910405F0910505309749F082E080931C
:104A2000F3040480F581E02D83EF94E00994089568
:104A30008D3E39F49091F60497FF35C01092F6043C
:104A400059C08E3E29F49091F6041916BCF32BC080
:104A50009091F5048F3E29F497FF25C01092F5043C
:104A600049C0803F19F41916CCF31DC09091F7048A
:104A7000893F29F41916BCF41092F7043BC08A3F11
:104A800019F497FF10C0F8CF8B3F39F49091F804D8
:104A900097FF09C01092F8042DC08C3F21F490912B
:104AA000F8041916BCF39FE0980F983080F421E0C9
:104AB00030E0A90102C0440F551F9A95E2F7CA01E0
:104AC00080959091F40489238093F40413C08D3F62
:104AD00021F48091EC048E7F0BC08E3F21F48091F5
:104AE000EC048D7F05C08F3F29F48091EC048B7F0F
:104AF0008093EC048091F504811106C08091F60446
:104B0000811102C01092ED048091F704811106C05A
:104B10008091F804811102C01092EB0408958091F5
:104B2000EC0480FD16C081FD16C082FD18C0809186
:104B3000EB04882391F0883290F428E0829FC00132
:104B4000112468E270E00E94BF29862F672B29F0AC
:104B500007C082E0089584E0089581E0089588E028
:104B600008958091EC0480FD14C081FD14C082FD85
:104B700016C08091ED04882381F0843180F422E313
:104B8000829FC001112464E170E00E94BF29862F3A
:104B900008958CE0089589E1089585E0089582E301
:104BA00008958D3E21F40E94B125819504C08E3E6A
:104BB00029F40E94B1258093F60408958F3E21F4D4
:104BC0000E94B125819504C0803F29F40E94B1253F
:104BD0008093F5040895893F19F40E948F2505C03C
:104BE0008A3F31F40E948F2581958093F7040895C0
:104BF0008B3F21F40E948F25819504C08C3F29F4BE
:104C00000E948F258093F80408959FE0980F9830B4
:104C100078F421E030E0A90102C0440F551F9A95B5
:104C2000E2F7CA019091F404892B8093F40408956B
:104C30008D3F21F48091EC0481600BC08E3F21F404
:104C40008091EC04826005C08F3F29F48091EC04D0
:104C500084608093EC0408951092B9008CE08093F6
:104C6000B80008959F92AF92BF92CF92DF92EF92D9
:104C7000FF920F931F93CF93DF93B82EEB010E9407
:104C800000236C01C431D10558F0CF3F8FEFD80716
:104C900059F0CE0164E170E00E945D297B0107C0FC
:104CA000EE24E394F12C03C025E0E22EF12C84E8FD
:104CB000A82E94EA992E1092BC009092BC000E94FB
:104CC00000238C018091BC0087FD08C00E94002356
:104CD000801B910B8E159F05A8F32AC08091B90007
:104CE000887F883041F08091B900887F803119F049
:104CF0000FEF1FEF1FC0B092BB00A092BC000E943C
:104D000000238C018091BC0087FD08C00E94002315
:104D1000801B910B8E159F05A8F30AC08091B900E6
:104D2000887F883111F0803419F700E010E00EC060
:104D30000EEF1FEFCF3F8FEFD80709F4BCCFC601AE
:104D40000E94E5228C179D0708F4B5CFC801DF91BA
:104D5000CF911F910F91FF90EF90DF90CF90BF9078
:104D6000AF909F9008950F931F93CF93DF93EB0124
:104D70008093BB0084E88093BC000E9400238C01D8
:104D80008091BC0087FD0EC0CF3F8FEFD807C1F3E5
:104D90000E940023801B910B8C179D0788F38EEFD8
:104DA0009FEF0CC02091B900287F81E090E028326D
:104DB00011F480E090E0919581959109DF91CF9178
:104DC0001F910F910895CF92DF92EF92FF920F9370
:104DD0001F93CF93DF936B018A017901B9010E9480
:104DE0003226E6010C0D1D1DC017D10761F424E920
:104DF0002093BC00DF91CF911F910F91FF90EF9016
:104E0000DF90CF90089597FDF2CFB70189910E946E
:104E1000B326EACFCF92DF92EF92FF920F931F93C8
:104E2000CF93DF93C62F6A017901B8010E94322621
:104E300097FD11C0B8018C2F0E94B326E601EC0C3F
:104E4000FD1CCE15DF0539F097FD05C0B80189912D
:104E50000E94B326F6CF24E92093BC00DF91CF91C6
:104E60001F910F91FF90EF90DF90CF90089584E90C
:104E70008093BC0008958EE14A9B02C08150E1F707
:104E80004A9BFECF08955A9880E28A95F1F75A9A84
:104E90000895FC012AE02A95F1F728E090E080E0EF
:104EA00031E040E14A95F1F7880F4A9B02C08160EA
:104EB000932700C0000040E14A95F1F7215089F79F
:104EC00020E12A95F1F729B100C0000030E13A95C0
:104ED000F1F722FB222720F992272081920F90835D
:104EE0000895EF92FF920F931F93CF93DF931F923A
:104EF000CDB7DEB719828C017C01E60EF11C0E15D0
:104F00001F0551F00E943B27CE0101960E944927C0
:104F1000F80181938F01F3CF81E09981911180E0B5
:104F20000F90DF91CF911F910F91FF90EF90089517
:104F3000529A5A9A089552985A9AEA9AE9E6F0E0F3
:104F400080818F7C80830895615091E001C0990F2A
:104F50006A95EAF720E031E0992361F0492F482370
:104F600019F05A9A232701C05A9840E24A95F1F75E
:104F70009695F2CF222311F05A9A01C05A9880E2F6
:104F80008A95F1F75A980895FF920F931F93CF9344
:104F9000DF93EC018C01060F111DC017D10741F002
:104FA000F9900E94432768E08F2D0E94A427F5CF37
:104FB000DF91CF911F910F91FF9008951F920F9253
:104FC0000FB60F921124EF92FF920F931F932F931E
:104FD0003F934F935F936F937F938F939F93AF9381
:104FE000BF93EF93FF93CF93DF931F92CDB7DEB7BD
:104FF00019820E943B27CE0101960E944927A82FC3
:10500000A695A695A6959A2F969595702A2F257008
:10501000920F292F237096959695920F877089137A
:105020007CC08981811179C0A43008F076C080E10C
:105030008A95F1F75A9A529AB2E0BA95F1F700C000
:105040005A98EA2EF12CEAE0AE9FD0011124A95E15
:10505000BE4F1896ED91FC9119973097B1F0609181
:10506000A6017091A70116962D913C911797260FD6
:10507000371F13968D919C911497680F791F159681
:105080004C91159712968C9109958AE08E9DF001AE
:105090008F9DF00D1124E95EFE4F6581662351F06E
:1050A0008091A6019091A70126813781820F931FDD
:1050B0000E94C4270E944327F0E1FA95F1F75A981D
:1050C00052985A9A80E18A95F1F78AE08E9D800184
:1050D0008F9D100D1124095E1E4FD80112966C9100
:1050E0001297662399F08091A6019091A7011396DB
:1050F0002D913C911497820F931F0E947127D80124
:10510000ED91FC91811105C082E004C0D801ED91C0
:10511000FC9188E080830E943B270F90DF91CF9124
:10512000FF91EF91BF91AF919F918F917F916F917F
:105130005F914F913F912F911F910F91FF90EF90B1
:105140000F900FBE0F901F9018950F931F93CF9342
:10515000DF93843091050CF0A9C02AE0289FF0016C
:10516000299FF00D1124E95EFE4F20813181232B10
:1051700009F49CC0EC01F894529A5A9885E08A95FB
:10518000F1F700008C2F869585709C2F9570890F04
:10519000982F9370869586958E0123E0000F111F3E
:1051A0002A95E1F7890F082B0E944327A4E0AA95CE
:1051B000F1F700C068E0802F0E94A427B0E1BA9503
:1051C000F1F752985A9A4A9902C000C0FCCF87E082
:1051D00090E04A9B17C0019799F4529A5A9A8AE034
:1051E0008C9FF0018D9FF00D1124E95EFE4F019020
:1051F000F081E02D81E08083789481E090E058C0D8
:1052000000C0E7CF8AE08C9F80018D9F100D112494
:10521000095E1E4FF80165816623B9F08091A601F1
:105220009091A70126813781820F931F0E947127D9
:1052300081110BC0529A5A9AD801ED91FC9182E0EB
:105240008083789482E090E033C00E943B27B0E2F4
:10525000BA95F1F75A98529AE0E1EA95F1F78AE0A7
:105260008C9FF0018D9FF00D1124E95EFE4F62814D
:10527000662351F08091A6019091A701238134818A
:10528000820F931F0E94C4270E9443278AE08C9FAD
:10529000F0018D9FF00D1124E95EFE4F0190F08129
:1052A000E02D1082789480E090E002C084E090E0ED
:1052B000DF91CF911F910F910895AA1BBB1B51E164
:1052C00007C0AA1FBB1FA617B70710F0A61BB70B76
:1052D000881F991F5A95A9F780959095BC01CD011B
:1052E0000895F999FECF92BD81BDF89A992780B5AE
:1052F0000895A8E1B0E042E050E00C94A529262FE3
:10530000F999FECF92BD81BDF89A019700B40216BB
:1053100039F01FBA20BD0FB6F894FA9AF99A0FBE69
:1053200008950396272F0E9480290E947F29252F08
:105330000E948029242F0C9480290196272F0E94F7
:1053400080290C947F29DC01CB01FC01F999FECF67
:1053500006C0F2BDE1BDF89A319600B40D924150FD
:105360005040B8F70895991B79E004C0991F96172B
:1053700008F0961B881F7A95C9F78095089597FBCA
:10538000072E16F4009407D077FD09D00E945D29FE
:1053900007FC05D03EF4909581959F4F0895709538
:1053A00061957F4F0895EE0FFF1F0590F491E02D5A
:1053B0000994FB01DC0102C001900D924150504064
:0853C000D8F70895F894FFCF1F
:1053C8004001FFF620AE218F218B218721F5200097
:1053D80021007F2200030195040000000100000065
:1053E8000095040000000301000000950404040077
:1053F800000000000022014A01736C6176655F6D50
:1054080061747269780073796E635F74696D65722F
:10541800000604030001020594669733323600083B
:10542800101818100800407B2219059E047C047F80
:10543800059805B105818283E200E900EA00B5001C
:10544800B600B700CD008301CC008A019201940117
:105458002102230224022502260227022A02B3007F
:08546800B4006F007000DF04C6
:00000001FF
